{
  "abi": [
    {
      "type": "constructor",
      "inputs": [
        {
          "name": "_profileAddr",
          "type": "address",
          "internalType": "address"
        },
        {
          "name": "_stateAddr",
          "type": "address",
          "internalType": "address"
        },
        {
          "name": "_chainFunctionAddr",
          "type": "address",
          "internalType": "address"
        },
        {
          "name": "_ccipAddr",
          "type": "address",
          "internalType": "address"
        },
        {
          "name": "_merkleVerifierAddr",
          "type": "address",
          "internalType": "address"
        },
        {
          "name": "_reputationAddr",
          "type": "address",
          "internalType": "address payable"
        },
        {
          "name": "_oracle",
          "type": "address",
          "internalType": "address"
        },
        {
          "name": "_syncerAddr",
          "type": "address",
          "internalType": "address"
        }
      ],
      "stateMutability": "nonpayable"
    },
    {
      "type": "function",
      "name": "activate",
      "inputs": [
        {
          "name": "_brand",
          "type": "string",
          "internalType": "string"
        }
      ],
      "outputs": [],
      "stateMutability": "nonpayable"
    },
    {
      "type": "function",
      "name": "brandPermission",
      "inputs": [],
      "outputs": [
        {
          "name": "",
          "type": "address",
          "internalType": "address"
        }
      ],
      "stateMutability": "view"
    },
    {
      "type": "function",
      "name": "ccipAddr",
      "inputs": [],
      "outputs": [
        {
          "name": "",
          "type": "address",
          "internalType": "address"
        }
      ],
      "stateMutability": "view"
    },
    {
      "type": "function",
      "name": "chainFunctionAddr",
      "inputs": [],
      "outputs": [
        {
          "name": "",
          "type": "address",
          "internalType": "address"
        }
      ],
      "stateMutability": "view"
    },
    {
      "type": "function",
      "name": "getBrandinfo",
      "inputs": [
        {
          "name": "brand",
          "type": "string",
          "internalType": "string"
        }
      ],
      "outputs": [
        {
          "name": "",
          "type": "tuple",
          "internalType": "struct CarRegistry.Registry",
          "components": [
            {
              "name": "brand",
              "type": "string",
              "internalType": "string"
            },
            {
              "name": "status",
              "type": "uint8",
              "internalType": "enum CarRegistry.Status"
            },
            {
              "name": "request",
              "type": "bytes32",
              "internalType": "bytes32"
            },
            {
              "name": "response",
              "type": "string",
              "internalType": "string"
            },
            {
              "name": "stateUrl",
              "type": "string",
              "internalType": "string"
            },
            {
              "name": "config",
              "type": "tuple",
              "internalType": "struct ICarOracle.OracleConfig",
              "components": [
                {
                  "name": "updateInterval",
                  "type": "uint256",
                  "internalType": "uint256"
                },
                {
                  "name": "deviationThreshold",
                  "type": "uint256",
                  "internalType": "uint256"
                },
                {
                  "name": "heartbeat",
                  "type": "uint256",
                  "internalType": "uint256"
                },
                {
                  "name": "minAnswer",
                  "type": "uint256",
                  "internalType": "uint256"
                },
                {
                  "name": "maxAnswer",
                  "type": "uint256",
                  "internalType": "uint256"
                }
              ]
            },
            {
              "name": "brandAdminAddr",
              "type": "address",
              "internalType": "address"
            },
            {
              "name": "owner",
              "type": "address",
              "internalType": "address"
            }
          ]
        }
      ],
      "stateMutability": "view"
    },
    {
      "type": "function",
      "name": "initFunction",
      "inputs": [],
      "outputs": [
        {
          "name": "",
          "type": "address",
          "internalType": "contract IInitFunction"
        }
      ],
      "stateMutability": "view"
    },
    {
      "type": "function",
      "name": "initFunctionAddr",
      "inputs": [],
      "outputs": [
        {
          "name": "",
          "type": "address",
          "internalType": "address"
        }
      ],
      "stateMutability": "view"
    },
    {
      "type": "function",
      "name": "isActivate",
      "inputs": [
        {
          "name": "brandName",
          "type": "string",
          "internalType": "string"
        }
      ],
      "outputs": [
        {
          "name": "",
          "type": "bool",
          "internalType": "bool"
        }
      ],
      "stateMutability": "view"
    },
    {
      "type": "function",
      "name": "merkleVerifierAddr",
      "inputs": [],
      "outputs": [
        {
          "name": "",
          "type": "address",
          "internalType": "address"
        }
      ],
      "stateMutability": "view"
    },
    {
      "type": "function",
      "name": "owner",
      "inputs": [],
      "outputs": [
        {
          "name": "",
          "type": "address",
          "internalType": "address"
        }
      ],
      "stateMutability": "view"
    },
    {
      "type": "function",
      "name": "permissionManager",
      "inputs": [],
      "outputs": [
        {
          "name": "",
          "type": "address",
          "internalType": "address"
        }
      ],
      "stateMutability": "view"
    },
    {
      "type": "function",
      "name": "profileAddr",
      "inputs": [],
      "outputs": [
        {
          "name": "",
          "type": "address",
          "internalType": "address"
        }
      ],
      "stateMutability": "view"
    },
    {
      "type": "function",
      "name": "profileContract",
      "inputs": [],
      "outputs": [
        {
          "name": "",
          "type": "address",
          "internalType": "contract IProfile"
        }
      ],
      "stateMutability": "view"
    },
    {
      "type": "function",
      "name": "registerBrand",
      "inputs": [
        {
          "name": "_brand",
          "type": "string",
          "internalType": "string"
        },
        {
          "name": "config",
          "type": "tuple",
          "internalType": "struct ICarOracle.OracleConfig",
          "components": [
            {
              "name": "updateInterval",
              "type": "uint256",
              "internalType": "uint256"
            },
            {
              "name": "deviationThreshold",
              "type": "uint256",
              "internalType": "uint256"
            },
            {
              "name": "heartbeat",
              "type": "uint256",
              "internalType": "uint256"
            },
            {
              "name": "minAnswer",
              "type": "uint256",
              "internalType": "uint256"
            },
            {
              "name": "maxAnswer",
              "type": "uint256",
              "internalType": "uint256"
            }
          ]
        },
        {
          "name": "brandAdminAddr",
          "type": "address",
          "internalType": "address"
        },
        {
          "name": "subscriptionId",
          "type": "uint64",
          "internalType": "uint64"
        },
        {
          "name": "_stateUrl",
          "type": "string",
          "internalType": "string"
        },
        {
          "name": "args",
          "type": "string[]",
          "internalType": "string[]"
        }
      ],
      "outputs": [],
      "stateMutability": "nonpayable"
    },
    {
      "type": "function",
      "name": "registerUndernewOwner",
      "inputs": [
        {
          "name": "_brand",
          "type": "string",
          "internalType": "string"
        },
        {
          "name": "config",
          "type": "tuple",
          "internalType": "struct ICarOracle.OracleConfig",
          "components": [
            {
              "name": "updateInterval",
              "type": "uint256",
              "internalType": "uint256"
            },
            {
              "name": "deviationThreshold",
              "type": "uint256",
              "internalType": "uint256"
            },
            {
              "name": "heartbeat",
              "type": "uint256",
              "internalType": "uint256"
            },
            {
              "name": "minAnswer",
              "type": "uint256",
              "internalType": "uint256"
            },
            {
              "name": "maxAnswer",
              "type": "uint256",
              "internalType": "uint256"
            }
          ]
        },
        {
          "name": "brandAdminAddr",
          "type": "address",
          "internalType": "address"
        },
        {
          "name": "subscriptionId",
          "type": "uint64",
          "internalType": "uint64"
        },
        {
          "name": "_stateUrl",
          "type": "string",
          "internalType": "string"
        },
        {
          "name": "args",
          "type": "string[]",
          "internalType": "string[]"
        }
      ],
      "outputs": [],
      "stateMutability": "nonpayable"
    },
    {
      "type": "function",
      "name": "registry",
      "inputs": [
        {
          "name": "",
          "type": "string",
          "internalType": "string"
        }
      ],
      "outputs": [
        {
          "name": "brand",
          "type": "string",
          "internalType": "string"
        },
        {
          "name": "status",
          "type": "uint8",
          "internalType": "enum CarRegistry.Status"
        },
        {
          "name": "request",
          "type": "bytes32",
          "internalType": "bytes32"
        },
        {
          "name": "response",
          "type": "string",
          "internalType": "string"
        },
        {
          "name": "stateUrl",
          "type": "string",
          "internalType": "string"
        },
        {
          "name": "config",
          "type": "tuple",
          "internalType": "struct ICarOracle.OracleConfig",
          "components": [
            {
              "name": "updateInterval",
              "type": "uint256",
              "internalType": "uint256"
            },
            {
              "name": "deviationThreshold",
              "type": "uint256",
              "internalType": "uint256"
            },
            {
              "name": "heartbeat",
              "type": "uint256",
              "internalType": "uint256"
            },
            {
              "name": "minAnswer",
              "type": "uint256",
              "internalType": "uint256"
            },
            {
              "name": "maxAnswer",
              "type": "uint256",
              "internalType": "uint256"
            }
          ]
        },
        {
          "name": "brandAdminAddr",
          "type": "address",
          "internalType": "address"
        },
        {
          "name": "owner",
          "type": "address",
          "internalType": "address"
        }
      ],
      "stateMutability": "view"
    },
    {
      "type": "function",
      "name": "renounceOwnership",
      "inputs": [],
      "outputs": [],
      "stateMutability": "nonpayable"
    },
    {
      "type": "function",
      "name": "reputation",
      "inputs": [],
      "outputs": [
        {
          "name": "",
          "type": "address",
          "internalType": "contract IReputation"
        }
      ],
      "stateMutability": "view"
    },
    {
      "type": "function",
      "name": "reputationAddr",
      "inputs": [],
      "outputs": [
        {
          "name": "",
          "type": "address",
          "internalType": "address"
        }
      ],
      "stateMutability": "view"
    },
    {
      "type": "function",
      "name": "setCCIP",
      "inputs": [
        {
          "name": "_newp",
          "type": "address",
          "internalType": "address"
        }
      ],
      "outputs": [],
      "stateMutability": "nonpayable"
    },
    {
      "type": "function",
      "name": "setChainFunction",
      "inputs": [
        {
          "name": "_newp",
          "type": "address",
          "internalType": "address"
        }
      ],
      "outputs": [],
      "stateMutability": "nonpayable"
    },
    {
      "type": "function",
      "name": "setInitFunction",
      "inputs": [
        {
          "name": "_newp",
          "type": "address",
          "internalType": "address"
        }
      ],
      "outputs": [],
      "stateMutability": "nonpayable"
    },
    {
      "type": "function",
      "name": "setProfile",
      "inputs": [
        {
          "name": "_newp",
          "type": "address",
          "internalType": "address"
        }
      ],
      "outputs": [],
      "stateMutability": "nonpayable"
    },
    {
      "type": "function",
      "name": "setReputatioin",
      "inputs": [
        {
          "name": "_newp",
          "type": "address",
          "internalType": "address payable"
        }
      ],
      "outputs": [],
      "stateMutability": "nonpayable"
    },
    {
      "type": "function",
      "name": "setState",
      "inputs": [
        {
          "name": "_newp",
          "type": "address",
          "internalType": "address"
        }
      ],
      "outputs": [],
      "stateMutability": "nonpayable"
    },
    {
      "type": "function",
      "name": "stake",
      "inputs": [
        {
          "name": "_brand",
          "type": "string",
          "internalType": "string"
        }
      ],
      "outputs": [],
      "stateMutability": "payable"
    },
    {
      "type": "function",
      "name": "stateAddr",
      "inputs": [],
      "outputs": [
        {
          "name": "",
          "type": "address",
          "internalType": "address"
        }
      ],
      "stateMutability": "view"
    },
    {
      "type": "function",
      "name": "stateContract",
      "inputs": [],
      "outputs": [
        {
          "name": "",
          "type": "address",
          "internalType": "contract IStateManager"
        }
      ],
      "stateMutability": "view"
    },
    {
      "type": "function",
      "name": "syncerAddr",
      "inputs": [],
      "outputs": [
        {
          "name": "",
          "type": "address",
          "internalType": "address"
        }
      ],
      "stateMutability": "view"
    },
    {
      "type": "function",
      "name": "transferOwnership",
      "inputs": [
        {
          "name": "newOwner",
          "type": "address",
          "internalType": "address"
        }
      ],
      "outputs": [],
      "stateMutability": "nonpayable"
    },
    {
      "type": "event",
      "name": "BrandActivated",
      "inputs": [
        {
          "name": "brand",
          "type": "string",
          "indexed": false,
          "internalType": "string"
        },
        {
          "name": "state",
          "type": "string",
          "indexed": false,
          "internalType": "string"
        }
      ],
      "anonymous": false
    },
    {
      "type": "event",
      "name": "BrandRegistryRequested",
      "inputs": [
        {
          "name": "brand",
          "type": "string",
          "indexed": false,
          "internalType": "string"
        },
        {
          "name": "requestId",
          "type": "bytes32",
          "indexed": false,
          "internalType": "bytes32"
        }
      ],
      "anonymous": false
    },
    {
      "type": "event",
      "name": "BrandStaked",
      "inputs": [
        {
          "name": "brand",
          "type": "string",
          "indexed": false,
          "internalType": "string"
        },
        {
          "name": "staker",
          "type": "address",
          "indexed": false,
          "internalType": "address"
        }
      ],
      "anonymous": false
    },
    {
      "type": "event",
      "name": "ChangedCCIP",
      "inputs": [
        {
          "name": "newp",
          "type": "address",
          "indexed": false,
          "internalType": "address"
        }
      ],
      "anonymous": false
    },
    {
      "type": "event",
      "name": "ChangedChainFunction",
      "inputs": [
        {
          "name": "newp",
          "type": "address",
          "indexed": false,
          "internalType": "address"
        }
      ],
      "anonymous": false
    },
    {
      "type": "event",
      "name": "ChangedInitFunction",
      "inputs": [
        {
          "name": "newp",
          "type": "address",
          "indexed": false,
          "internalType": "address"
        }
      ],
      "anonymous": false
    },
    {
      "type": "event",
      "name": "ChangedProfile",
      "inputs": [
        {
          "name": "newp",
          "type": "address",
          "indexed": false,
          "internalType": "address"
        }
      ],
      "anonymous": false
    },
    {
      "type": "event",
      "name": "ChangedReputation",
      "inputs": [
        {
          "name": "newp",
          "type": "address",
          "indexed": false,
          "internalType": "address"
        }
      ],
      "anonymous": false
    },
    {
      "type": "event",
      "name": "ChangedState",
      "inputs": [
        {
          "name": "newp",
          "type": "address",
          "indexed": false,
          "internalType": "address"
        }
      ],
      "anonymous": false
    },
    {
      "type": "event",
      "name": "OwnershipTransferred",
      "inputs": [
        {
          "name": "previousOwner",
          "type": "address",
          "indexed": true,
          "internalType": "address"
        },
        {
          "name": "newOwner",
          "type": "address",
          "indexed": true,
          "internalType": "address"
        }
      ],
      "anonymous": false
    },
    {
      "type": "error",
      "name": "BrandAlreadyInRegistry",
      "inputs": [
        {
          "name": "brand",
          "type": "string",
          "internalType": "string"
        }
      ]
    },
    {
      "type": "error",
      "name": "StatusNotStaked",
      "inputs": [
        {
          "name": "brand",
          "type": "string",
          "internalType": "string"
        }
      ]
    }
  ],
  "bytecode": {
    "object": "0x60806040523461003957610023610014610190565b9695909594919493929361035a565b61002b61003e565b61335a6104bf823961335a90f35b610044565b60405190565b5f80fd5b601f801991011690565b634e487b7160e01b5f52604160045260245ffd5b9061007090610048565b810190811060018060401b0382111761008857604052565b610052565b906100a061009961003e565b9283610066565b565b5f80fd5b60018060a01b031690565b6100ba906100a6565b90565b6100c6816100b1565b036100cd57565b5f80fd5b905051906100de826100bd565b565b6100e9906100a6565b90565b6100f5816100e0565b036100fc57565b5f80fd5b9050519061010d826100ec565b565b91906101008382031261018b57610128815f85016100d1565b9261013682602083016100d1565b9261014483604084016100d1565b9261015281606085016100d1565b9261016082608083016100d1565b926101886101718460a08501610100565b9361017f8160c086016100d1565b9360e0016100d1565b90565b6100a2565b6101ae613819803803806101a38161008d565b92833981019061010f565b9091929394959697565b5f1b90565b906101ce60018060a01b03916101b8565b9181191691161790565b90565b6101ef6101ea6101f4926100a6565b6101d8565b6100a6565b90565b610200906101db565b90565b61020c906101f7565b90565b90565b9061022761022261022e92610203565b61020f565b82546101bd565b9055565b61023b906101db565b90565b61024790610232565b90565b61025390610232565b90565b90565b9061026e6102696102759261024a565b610256565b82546101bd565b9055565b610282906101db565b90565b61028e90610279565b90565b61029a90610279565b90565b90565b906102b56102b06102bc92610291565b61029d565b82546101bd565b9055565b6102c9906101db565b90565b6102d5906102c0565b90565b6102e1906102c0565b90565b90565b906102fc6102f7610303926102d8565b6102e4565b82546101bd565b9055565b610310906101db565b90565b61031c90610307565b90565b61032890610307565b90565b90565b9061034361033e61034a9261031f565b61032b565b82546101bd565b9055565b610357906101f7565b90565b6103fd95936103e36103f1946103c96103c26103f699966103bd6103b66104049f9e986103b16103aa6103ea9b61038f610406565b61039a846006610212565b6103a5876007610212565b61023e565b6001610259565b610285565b60026102a0565b6102cc565b60036102e7565b6103dc6103d588610313565b600561032e565b6008610212565b6009610212565b600a610212565b61034e565b600c610212565b600f610212565b565b61041661041161041c565b61045f565b565b5f90565b610424610418565b503390565b5f1c90565b60018060a01b031690565b61044561044a91610429565b61042e565b90565b6104579054610439565b90565b5f0190565b6104685f61044d565b610472825f610212565b906104a66104a07f8be0079c531659141344cd1fd0a4f28419497f9722a3daafe3b4186f6b6457e093610203565b91610203565b916104af61003e565b806104b98161045a565b0390a356fe60806040526004361015610013575b611575565b61001d5f356101fc565b8063053ebc9a146101f757806307b3ab64146101f2578063121562af146101ed5780631917ab5c146101e85780632337ad65146101e357806334c901af146101de57806346f45b8d146101d95780634aafd2e6146101d4578063531e5ae1146101cf578063715018a6146101ca5780638da5cb5b146101c55780638f0c7ab0146101c05780639060fefc146101bb57806392a296c9146101b65780639808bbf6146101b1578063a32c3594146101ac578063a3974b21146101a7578063b665dce6146101a2578063c52164c61461019d578063cc7a204914610198578063cd00237814610193578063ce6983401461018e578063db5f30e114610189578063e0b6a1e314610184578063e68b07941461017f578063ed0af8a51461017a578063f2fde38b14610175578063f678d9af14610170578063f728d0cc1461016b5763fa5ed5c90361000e57611542565b611508565b6114d3565b611491565b61145c565b6112ba565b611278565b611243565b6111a0565b611146565b611111565b6110cd565b61102a565b610fe6565b610f43565b610f01565b610ec2565b6109c1565b61075d565b6106db565b6106a8565b610673565b61062f565b6105f7565b6105c4565b61054e565b61050c565b6103ae565b6102e0565b61029c565b60e01c90565b60405190565b5f80fd5b5f80fd5b5f91031261021a57565b61020c565b1c90565b60018060a01b031690565b61023e906008610243930261021f565b610223565b90565b90610251915461022e565b90565b610260600c5f90610246565b90565b60018060a01b031690565b61027790610263565b90565b6102839061026e565b9052565b919061029a905f6020850194019061027a565b565b346102cc576102ac366004610210565b6102c86102b7610254565b6102bf610202565b91829182610287565b0390f35b610208565b6102dd600a5f90610246565b90565b34610310576102f0366004610210565b61030c6102fb6102d1565b610303610202565b91829182610287565b0390f35b610208565b60018060a01b031690565b610330906008610335930261021f565b610315565b90565b906103439154610320565b90565b61035260045f90610338565b90565b90565b61036c61036761037192610263565b610355565b610263565b90565b61037d90610358565b90565b61038990610374565b90565b61039590610380565b9052565b91906103ac905f6020850194019061038c565b565b346103de576103be366004610210565b6103da6103c9610346565b6103d1610202565b91829182610399565b0390f35b610208565b5f80fd5b5f80fd5b5f80fd5b601f801991011690565b634e487b7160e01b5f52604160045260245ffd5b90610417906103ef565b810190811067ffffffffffffffff82111761043157604052565b6103f9565b90610449610442610202565b928361040d565b565b67ffffffffffffffff8111610469576104656020916103ef565b0190565b6103f9565b90825f939282370152565b9092919261048e6104898261044b565b610436565b938185526020850190828401116104aa576104a89261046e565b565b6103eb565b9080601f830112156104cd578160206104ca93359101610479565b90565b6103e7565b90602082820312610502575f82013567ffffffffffffffff81116104fd576104fa92016104af565b90565b6103e3565b61020c565b5f0190565b3461053a5761052461051f3660046104d2565b611b13565b61052c610202565b8061053681610507565b0390f35b610208565b61054b60075f90610246565b90565b3461057e5761055e366004610210565b61057a61056961053f565b610571610202565b91829182610287565b0390f35b610208565b61058c8161026e565b0361059357565b5f80fd5b905035906105a482610583565b565b906020828203126105bf576105bc915f01610597565b90565b61020c565b346105f2576105dc6105d73660046105a6565b612004565b6105e4610202565b806105ee81610507565b0390f35b610208565b61060a6106053660046104d2565b61207c565b610612610202565b8061061c81610507565b0390f35b61062c600d5f90610246565b90565b3461065f5761063f366004610210565b61065b61064a610620565b610652610202565b91829182610287565b0390f35b610208565b610670600b5f90610246565b90565b346106a357610683366004610210565b61069f61068e610664565b610696610202565b91829182610287565b0390f35b610208565b346106d6576106b8366004610210565b6106c06121c4565b6106c8610202565b806106d281610507565b0390f35b610208565b3461070b576106eb366004610210565b6107076106f66121d2565b6106fe610202565b91829182610287565b0390f35b610208565b61071990610263565b90565b61072581610710565b0361072c57565b5f80fd5b9050359061073d8261071c565b565b9060208282031261075857610755915f01610730565b90565b61020c565b3461078b5761077561077036600461073f565b6122d0565b61077d610202565b8061078781610507565b0390f35b610208565b5f80fd5b90565b6107a081610794565b036107a757565b5f80fd5b905035906107b882610797565b565b919060a08382031261082a57610823906107d460a0610436565b936107e1825f83016107ab565b5f8601526107f282602083016107ab565b602086015261080482604083016107ab565b604086015261081682606083016107ab565b60608601526080016107ab565b6080830152565b610790565b67ffffffffffffffff1690565b6108458161082f565b0361084c57565b5f80fd5b9050359061085d8261083c565b565b67ffffffffffffffff81116108775760208091020190565b6103f9565b5f80fd5b92919061089461088f8261085f565b610436565b93818552602080860192028101918383116108eb5781905b8382106108ba575050505050565b813567ffffffffffffffff81116108e6576020916108db87849387016104af565b8152019101906108ac565b6103e7565b61087c565b9080601f8301121561090e5781602061090b93359101610880565b90565b6103e7565b91610140838303126109bc575f83013567ffffffffffffffff81116109b7578261093e9185016104af565b9261094c83602083016107ba565b9261095a8160c08401610597565b926109688260e08501610850565b9261010081013567ffffffffffffffff81116109b2578361098a9183016104af565b9261012082013567ffffffffffffffff81116109ad576109aa92016108f0565b90565b6103e3565b6103e3565b6103e3565b61020c565b346109f6576109e06109d4366004610913565b949390939291926127a2565b6109e8610202565b806109f281610507565b0390f35b610208565b5190565b905090565b90825f9392825e0152565b610a34610a2b92602092610a22816109fb565b948580936109ff565b93849101610a04565b0190565b90565b610a47610a4c91610794565b610a38565b9052565b610a60610a679160209493610a0f565b8092610a3b565b0190565b610a7f610a76610202565b92839283610a50565b03902090565b610a8e91610a6b565b90565b634e487b7160e01b5f52602260045260245ffd5b9060016002830492168015610ac5575b6020831014610ac057565b610a91565b91607f1691610ab5565b60209181520190565b5f5260205f2090565b905f9291805490610afb610af483610aa5565b8094610acf565b916001811690815f14610b525750600114610b16575b505050565b610b239192939450610ad8565b915f925b818410610b3a57505001905f8080610b11565b60018160209295939554848601520191019290610b27565b92949550505060ff19168252151560200201905f8080610b11565b90610b7791610ae1565b90565b90610b9a610b9392610b8a610202565b93848092610b6d565b038361040d565b565b5f1c90565b60ff1690565b610bb3610bb891610b9c565b610ba1565b90565b610bc59054610ba7565b90565b90565b610bd7610bdc91610b9c565b610bc8565b90565b610be99054610bcb565b90565b90565b610bfb610c0091610b9c565b610bec565b90565b610c0d9054610bef565b90565b90610c1a90610794565b9052565b610c2860a0610436565b90565b90610caa610ca16004610c3c610c1e565b94610c53610c4b5f8301610c03565b5f8801610c10565b610c6b610c6260018301610c03565b60208801610c10565b610c83610c7a60028301610c03565b60408801610c10565b610c9b610c9260038301610c03565b60608801610c10565b01610c03565b60808401610c10565b565b610cb8610cbd91610b9c565b610223565b90565b610cca9054610cac565b90565b610cd8906010610a85565b90610ce45f8301610b7a565b91610cf160018201610bbb565b91610cfe60028301610bdf565b91610d0b60038201610b7a565b91610d1860048301610b7a565b91610d2560058201610c2b565b91610d3e600b610d37600a8501610cc0565b9301610cc0565b90565b60209181520190565b610d69610d72602093610d7793610d60816109fb565b93848093610d41565b95869101610a04565b6103ef565b0190565b634e487b7160e01b5f52602160045260245ffd5b60041115610d9957565b610d7b565b90610da882610d8f565b565b610db390610d9e565b90565b610dbf90610daa565b9052565b90565b610dcf90610dc3565b9052565b610ddc90610794565b9052565b90608080610e3893610df85f8201515f860190610dd3565b610e0a60208201516020860190610dd3565b610e1c60408201516040860190610dd3565b610e2e60608201516060860190610dd3565b0151910190610dd3565b565b9361016095610e95610ec09994610ea393610e88610eb9989b9e9d9b610e7e610e738c610eae9a6101808201915f818403910152610d4a565b9460208d0190610db6565b60408b0190610dc6565b88820360608a0152610d4a565b908682036080880152610d4a565b9860a0850190610de0565b61014083019061027a565b019061027a565b565b34610efc57610ef8610edd610ed83660046104d2565b610ccd565b94610eef989698949194939293610202565b98899889610e3a565b0390f35b610208565b34610f2f57610f19610f143660046105a6565b6129ff565b610f21610202565b80610f2b81610507565b0390f35b610208565b610f40600f5f90610246565b90565b34610f7357610f53366004610210565b610f6f610f5e610f34565b610f66610202565b91829182610287565b0390f35b610208565b60018060a01b031690565b610f93906008610f98930261021f565b610f78565b90565b90610fa69154610f83565b90565b610fb560025f90610f9b565b90565b610fc190610374565b90565b610fcd90610fb8565b9052565b9190610fe4905f60208501940190610fc4565b565b3461101657610ff6366004610210565b611012611001610fa9565b611009610202565b91829182610fd1565b0390f35b610208565b61102760085f90610246565b90565b3461105a5761103a366004610210565b61105661104561101b565b61104d610202565b91829182610287565b0390f35b610208565b60018060a01b031690565b61107a90600861107f930261021f565b61105f565b90565b9061108d915461106a565b90565b61109c60055f90611082565b90565b6110a890610374565b90565b6110b49061109f565b9052565b91906110cb905f602085019401906110ab565b565b346110fd576110dd366004610210565b6110f96110e8611090565b6110f0610202565b918291826110b8565b0390f35b610208565b61110e600e5f90610246565b90565b3461114157611121366004610210565b61113d61112c611102565b611134610202565b91829182610287565b0390f35b610208565b346111745761115e6111593660046105a6565b612a63565b611166610202565b8061117081610507565b0390f35b610208565b151590565b61118790611179565b9052565b919061119e905f6020850194019061117e565b565b346111d0576111cc6111bb6111b63660046104d2565b612a72565b6111c3610202565b9182918261118b565b0390f35b610208565b60018060a01b031690565b6111f09060086111f5930261021f565b6111d5565b90565b9061120391546111e0565b90565b61121260035f906111f8565b90565b61121e90610374565b90565b61122a90611215565b9052565b9190611241905f60208501940190611221565b565b3461127357611253366004610210565b61126f61125e611206565b611266610202565b9182918261122e565b0390f35b610208565b346112a65761129061128b3660046105a6565b612b67565b611298610202565b806112a281610507565b0390f35b610208565b6112b760095f90610246565b90565b346112ea576112ca366004610210565b6112e66112d56112ab565b6112dd610202565b91829182610287565b0390f35b610208565b61130e61131760209361131c93611305816109fb565b93848093610acf565b95869101610a04565b6103ef565b0190565b61132990610daa565b9052565b61133690610dc3565b9052565b90608080611392936113525f8201515f860190610dd3565b61136460208201516020860190610dd3565b61137660408201516040860190610dd3565b61138860608201516060860190610dd3565b0151910190610dd3565b565b61139d9061026e565b9052565b906114419061016060e06114116113ff6113c961018086015f8901518782035f8901526112ef565b6113db60208901516020880190611320565b6113ed6040890151604088019061132d565b606088015186820360608801526112ef565b608087015185820360808701526112ef565b9461142460a082015160a086019061133a565b61143760c0820151610140860190611394565b0151910190611394565b90565b6114599160208201915f8184039101526113a1565b90565b3461148c576114886114776114723660046104d2565b612d38565b61147f610202565b91829182611444565b0390f35b610208565b346114bf576114a96114a43660046105a6565b612e42565b6114b1610202565b806114bb81610507565b0390f35b610208565b6114d060065f90610246565b90565b34611503576114e3366004610210565b6114ff6114ee6114c4565b6114f6610202565b91829182610287565b0390f35b610208565b3461153d5761152761151b366004610913565b94939093929192612e59565b61152f610202565b8061153981610507565b0390f35b610208565b346115705761155a6115553660046105a6565b61310d565b611562610202565b8061156c81610507565b0390f35b610208565b5f80fd5b61158e9160208201915f818403910152610d4a565b90565b156115995750565b6115bb906115a5610202565b918291636eed25b960e01b835260048301611579565b0390fd5b6115cb6115d091610b9c565b6111d5565b90565b6115dd90546115bf565b90565b5f80fd5b60e01b90565b5f9103126115f457565b61020c565b611601610202565b3d5f823e3d90fd5b61161561161a91610b9c565b610315565b90565b6116279054611609565b90565b9092919261163f61163a8261044b565b610436565b9381855260208501908284011161165b5761165992610a04565b565b6103eb565b9080601f8301121561167e5781602061167b9351910161162a565b90565b6103e7565b906020828203126116b3575f82015167ffffffffffffffff81116116ae576116ab9201611660565b90565b6103e3565b61020c565b6116c190610c2b565b90565b60018060a01b031690565b6116db6116e091610b9c565b6116c4565b90565b6116ed90546116cf565b90565b6116f990610374565b90565b9050519061170982610583565b565b91906040838203126117335780611727611730925f86016116fc565b936020016116fc565b90565b61020c565b6117435f8092610d41565b0190565b60e09061178461177961176c61178b969897956101008501908582035f870152610d4a565b8381036020850152611738565b966040830190610de0565b019061027a565b565b61179690610358565b90565b6117a29061178d565b90565b6117ae90610374565b90565b6117ee6117e36117f5959796946117d560609560808601908682035f880152610d4a565b908482036020860152610d4a565b96604083019061027a565b019061027a565b565b61180361180891610b9c565b610f78565b90565b61181590546117f7565b90565b939561187d60e096611873611891969c9b9961186961185e6118989d9861184f8c6118879a6101008201915f818403910152610d4a565b908c6020818403910152610d4a565b9e60408b019061027a565b606089019061027a565b608087019061027a565b60a085019061027a565b60c083019061027a565b019061027a565b565b601f602091010490565b1b90565b919060086118c39102916118bd5f19846118a4565b926118a4565b9181191691161790565b6118e16118dc6118e692610794565b610355565b610794565b90565b90565b91906119026118fd61190a936118cd565b6118e9565b9083546118a8565b9055565b5f90565b6119249161191e61190e565b916118ec565b565b5b818110611932575050565b8061193f5f600193611912565b01611927565b9190601f8111611955575b505050565b61196161198693610ad8565b90602061196d8461189a565b8301931061198e575b61197f9061189a565b0190611926565b5f8080611950565b915061197f81929050611976565b906119ac905f199060080261021f565b191690565b816119bb9161199c565b906002021790565b906119cd816109fb565b9067ffffffffffffffff8211611a8d576119f1826119eb8554610aa5565b85611945565b602090601f8311600114611a2557918091611a14935f92611a19575b50506119b1565b90555b565b90915001515f80611a0d565b601f19831691611a3485610ad8565b925f5b818110611a7557509160029391856001969410611a5b575b50505002019055611a17565b611a6b910151601f84169061199c565b90555f8080611a4f565b91936020600181928787015181550195019201611a37565b6103f9565b90611a9c916119c3565b565b5f1b90565b90611aaf60ff91611a9e565b9181191691161790565b611ac290610d9e565b90565b90565b90611add611ad8611ae492611ab9565b611ac5565b8254611aa3565b9055565b9091611b02611b109360408401908482035f860152610d4a565b916020818403910152610d4a565b90565b611b48611b2d6001611b2760108590610a85565b01610bbb565b611b40611b3a6002610d9e565b91610d9e565b148290611591565b611b5a611b5560036115d3565b611215565b63ee824d6682823b15611f0257611b9092611b855f8094611b79610202565b968795869485936115e4565b835260048301611579565b03925af18015611efd57611ed1575b50611be05f611bb6611bb1600461161d565b610380565b6352d2485090611bd58592611bc9610202565b958694859384936115e4565b835260048301611579565b03915afa908115611ecc575f91611eaa575b5090611c06611c016008610cc0565b61319a565b81611c19611c146009610cc0565b61319a565b611c2b611c26600a610cc0565b61319a565b90611c3e611c39600f610cc0565b61319a565b916040611c586005611c5260108890610a85565b016116b8565b611c6a611c6560016116e3565b6116f0565b611ca25f6318c0f3cb611cad611c8e600a611c888d989d6010610a85565b01610cc0565b611c96610202565b9b8c97889687956115e4565b855260048501611747565b03925af18015611ea5575f80959091611e72575b509390611cd5611cd082611799565b6117a5565b638f15b414888a928a611cf5600b611cef8b936010610a85565b01610cc0565b823b15611e6d575f94611d268692611d1b94611d0f610202565b998a98899788966115e4565b8652600486016117b1565b03925af18015611e6857611e3c575b50611d48611d43600261180b565b610fb8565b9263ce1af81e9088958a9891939497863b15611e37575f98611d7e968a96611d8995611d72610202565b9d8e9c8d9b8c9a6115e4565b8a5260048a01611818565b03925af18015611e3257611e06575b50611db1826003611dab60108590610a85565b01611a92565b611dca60036001611dc460108590610a85565b01611ac8565b907f7e4f0240facdc93ea495b531217c4297b7526bc3dbd11d95236c24e7950898a991611e01611df8610202565b92839283611ae8565b0390a1565b611e25905f3d8111611e2b575b611e1d818361040d565b8101906115ea565b5f611d98565b503d611e13565b6115f9565b6115e0565b611e5b905f3d8111611e61575b611e53818361040d565b8101906115ea565b5f611d35565b503d611e49565b6115f9565b6115e0565b9050611e9691945060403d8111611e9e575b611e8e818361040d565b81019061170b565b93905f611cc1565b503d611e84565b6115f9565b611ec691503d805f833e611ebe818361040d565b810190611683565b5f611bf2565b6115f9565b611ef0905f3d8111611ef6575b611ee8818361040d565b8101906115ea565b5f611b9f565b503d611ede565b6115f9565b6115e0565b611f1890611f1361328c565b611fab565b565b90611f2b60018060a01b0391611a9e565b9181191691161790565b611f3e90610374565b90565b90565b90611f59611f54611f6092611f35565b611f41565b8254611f1a565b9055565b611f6d90610358565b90565b611f7990611f64565b90565b611f8590611f64565b90565b90565b90611fa0611f9b611fa792611f7c565b611f88565b8254611f1a565b9055565b611fb6816007611f44565b611fc9611fc282611f70565b6003611f8b565b611fff7f7308c5cd5155c38c19ccc11a096103f58226051775d80b2c4f04466c319813f691611ff6610202565b91829182610287565b0390a1565b61200d90611f07565b565b61201b61202091610b9c565b61105f565b90565b61202d905461200f565b90565b9291602061204c6120549360408701908782035f890152610d4a565b94019061117e565b565b9291602061207261207a9360408701908782035f890152610d4a565b94019061027a565b565b61208e6120896005612023565b61109f565b638600770782600192803b1561216f576120bb5f80946120c66120af610202565b978896879586946115e4565b845260048401612030565b03925af1801561216a5761213e575b506120ed60016120e760108490610a85565b01610bbb565b6121006120fa6002610d9e565b91610d9e565b5050337f84aa2a725283b7498de506563a4325d5289c85269c3ba8da7c792a53d7fc556c91612139612130610202565b92839283612056565b0390a1565b61215d905f3d8111612163575b612155818361040d565b8101906115ea565b5f6120d5565b503d61214b565b6115f9565b6115e0565b61217c61328c565b6121846121b1565b565b90565b61219d6121986121a292612186565b610355565b610263565b90565b6121ae90612189565b90565b6121c26121bd5f6121a5565b6132b8565b565b6121cc612174565b565b5f90565b6121da6121ce565b506121e45f610cc0565b90565b6121f8906121f361328c565b61226f565b565b61220390610374565b90565b61220f90610358565b90565b61221b90612206565b90565b61222790612206565b90565b90565b9061224261223d6122499261221e565b61222a565b8254611f1a565b9055565b612256906121fa565b9052565b919061226d905f6020850194019061224d565b565b61228261227b826121fa565b600c611f44565b61229561228e82612212565b600561222d565b6122cb7f6a9a18dd4a984c7856c01a3c8124ea173c53730d2ebe6eaa8802f7382551280a916122c2610202565b9182918261225a565b0390a1565b6122d9906121e7565b565b6122e491610a0f565b90565b60200190565b5190565b905f929180549061230b61230483610aa5565b80946109ff565b916001811690815f1461235d5750600114612326575b505050565b6123339192939450610ad8565b5f905b83821061234957505001905f8080612321565b600181602092548486015201910190612336565b92949550505060ff191682528015150201905f8080612321565b60601b90565b61238690612377565b90565b6123929061237d565b90565b6123a16123a69161026e565b612389565b9052565b6123ba6123c191601494936122f1565b8092612395565b0190565b156123cd5750565b6123ef906123d9610202565b91829163bec56fab60e01b835260048301611579565b0390fd5b6123fc81610dc3565b0361240357565b5f80fd5b90505190612414826123f3565b565b9060208282031261242f5761242c915f01612407565b90565b61020c565b61243d9061082f565b9052565b5190565b60209181520190565b60200190565b9061245e916112ef565b90565b60200190565b9061247b61247483612441565b8092612445565b908161248c6020830284019461244e565b925f915b83831061249f57505050505090565b909192939460206124c16124bb83856001950387528951612454565b97612461565b9301930191939290612490565b9161250493916124f6916124e960608601925f870190612434565b8482036020860152612467565b916040818403910152610d4a565b90565b612512610100610436565b90565b52565b9061252290610d9e565b9052565b9061253090610dc3565b9052565b906125466125418361044b565b610436565b918252565b6125545f612534565b90565b61255f61254b565b90565b52565b9061256f9061026e565b9052565b5190565b6125819051610d9e565b90565b61258e9051610dc3565b90565b9061259d5f1991611a9e565b9181191691161790565b6125b090610dc3565b90565b6125bc90610b9c565b90565b906125d46125cf6125db926125a7565b6125b3565b8254612591565b9055565b5190565b6125ed9051610794565b90565b9061260561260061260c926118cd565b6118e9565b8254612591565b9055565b906126866080600461268c946126335f820161262d5f88016125e3565b906125f0565b61264c60018201612646602088016125e3565b906125f0565b6126656002820161265f604088016125e3565b906125f0565b61267e60038201612678606088016125e3565b906125f0565b0192016125e3565b906125f0565b565b9061269891612610565b565b6126a4905161026e565b90565b9061276860e0600b61276e946126ca5f82016126c45f8801612573565b90611a92565b6126e3600182016126dd60208801612577565b90611ac8565b6126fc600282016126f660408801612584565b906125bf565b6127156003820161270f60608801612573565b90611a92565b61272e6004820161272860808801612573565b90611a92565b6127476005820161274160a088016125df565b9061268e565b612760600a820161275a60c0880161269a565b90611f44565b01920161269a565b90611f44565b565b9061277a916126a7565b565b929160206127986127a09360408701908782035f890152610d4a565b940190610dc6565b565b93946020909392919361284d6127c86127d6886127bd610202565b9283918783016122db565b86820181038252038261040d565b6127e86127e2826122ed565b916122e7565b2061284461283e5f6127fc60108c90610a85565b01612826339161281861280d610202565b9384928b84016123aa565b89820181038252038261040d565b612838612832826122ed565b916122e7565b20610dc3565b91610dc3565b141587906123c5565b61285f61285a600461161d565b610380565b6128835f63ef725b1196939661288e8a612877610202565b998a97889687956115e4565b8552600485016124ce565b03925af19485156129a15761291d612937946129146129269461290b995f978891612973575b50998a936128ee8b976128e5600197919395976128dc339b6128d4612507565b9e8f01612515565b60208d01612518565b60408b01612526565b6129026128f9612557565b60608b01612515565b60808901612515565b60a08701612562565b60c08501612565565b60e08301612565565b61293260108490610a85565b612770565b907f3ac9890522326ca5c08487b1170da82dd731329aacdba9c8fa96c258a7b6b34e9161296e612965610202565b9283928361277c565b0390a1565b612994915060203d811161299a575b61298c818361040d565b810190612416565b5f6128b4565b503d612982565b6115f9565b6129b7906129b261328c565b6129b9565b565b6129c4816008611f44565b6129fa7f26098886c8bc24cae0cd3a2a1c985cd5239db7a044fc5d696e556c9bd174dc34916129f1610202565b91829182610287565b0390a1565b612a08906129a6565b565b612a1b90612a1661328c565b612a1d565b565b612a28816009611f44565b612a5e7f83f99f171e1ef5b895f9c6fe7f2a4a68a8a834cf45dc4107eeb4ba708ac456f091612a55610202565b91829182610287565b0390a1565b612a6c90612a0a565b565b5f90565b6001612a8b612a9192612a83612a6e565b506010610a85565b01610bbb565b612aa4612a9e6003610d9e565b91610d9e565b145f14612ab057600190565b5f90565b612ac590612ac061328c565b612b0e565b565b612ad090610358565b90565b612adc90612ac7565b90565b612ae890612ac7565b90565b90565b90612b03612afe612b0a92612adf565b612aeb565b8254611f1a565b9055565b612b19816006611f44565b612b2c612b2582612ad3565b6002612aee565b612b627fc5825fcff5c4b5455ffea6425f037cc511b6e382db9eb5f2863ca7744c353f9291612b59610202565b91829182610287565b0390a1565b612b7090612ab4565b565b612b7d610100610436565b90565b606090565b5f90565b5f90565b5f90565b612b99610c1e565b9060208080808086612ba9612b8d565b815201612bb4612b8d565b815201612bbf612b8d565b815201612bca612b8d565b815201612bd5612b8d565b81525050565b612be3612b91565b90565b5f90565b612bf2612b72565b9060208080808080808089612c05612b80565b815201612c10612b85565b815201612c1b612b89565b815201612c26612b80565b815201612c31612b80565b815201612c3c612bdb565b815201612c47612be6565b815201612c52612be6565b81525050565b612c60612bea565b90565b90612d2a612d21600b612c74612b72565b94612c8b612c835f8301610b7a565b5f8801612515565b612ca3612c9a60018301610bbb565b60208801612518565b612cbb612cb260028301610bdf565b60408801612526565b612cd3612cca60038301610b7a565b60608801612515565b612ceb612ce260048301610b7a565b60808801612515565b612d03612cfa60058301610c2b565b60a08801612562565b612d1b612d12600a8301610cc0565b60c08801612565565b01610cc0565b60e08401612565565b565b612d3590612c63565b90565b612d4f612d5491612d47612c58565b506010610a85565b612d2c565b90565b612d6890612d6361328c565b612e12565b565b60207f6464726573730000000000000000000000000000000000000000000000000000917f4f776e61626c653a206e6577206f776e657220697320746865207a65726f20615f8201520152565b612dc46026604092610d41565b612dcd81612d6a565b0190565b612de69060208101905f818303910152612db7565b90565b15612df057565b612df8610202565b62461bcd60e51b815280612e0e60048201612dd1565b0390fd5b612e4090612e3b81612e34612e2e612e295f6121a5565b61026e565b9161026e565b1415612de9565b6132b8565b565b612e4b90612d57565b565b612e56916122f1565b90565b939460209093929193612f01612e7f612e8d88612e74610202565b9283918783016122db565b86820181038252038261040d565b612e9f612e99826122ed565b916122e7565b20612ef8612ef2612ecc612eda5f612eb88d6010610a85565b01612ec1610202565b9283918a8301612e4d565b89820181038252038261040d565b612eec612ee6826122ed565b916122e7565b20610dc3565b91610dc3565b141587906123c5565b612f13612f0e600461161d565b610380565b612f375f63ef725b11969396612f428a612f2b610202565b998a97889687956115e4565b8552600485016124ce565b03925af194851561305557612fd1612feb94612fc8612fda94612fbf995f978891613027575b50998a93612fa28b97612f9960019791939597612f90339b612f88612507565b9e8f01612515565b60208d01612518565b60408b01612526565b612fb6612fad612557565b60608b01612515565b60808901612515565b60a08701612562565b60c08501612565565b60e08301612565565b612fe660108490610a85565b612770565b907f3ac9890522326ca5c08487b1170da82dd731329aacdba9c8fa96c258a7b6b34e91613022613019610202565b9283928361277c565b0390a1565b613048915060203d811161304e575b613040818361040d565b810190612416565b5f612f68565b503d613036565b6115f9565b61306b9061306661328c565b6130b4565b565b61307690610358565b90565b6130829061306d565b90565b61308e9061306d565b90565b90565b906130a96130a46130b092613085565b613091565b8254611f1a565b9055565b6130bf81600b611f44565b6130d26130cb82613079565b6004613094565b6131087f51ed095dc92de58de4993a54d3312f43ef5979c66af9b47011e13e06114d0104916130ff610202565b91829182610287565b0390a1565b6131169061305a565b565b5f7f455243313136373a20637265617465206661696c656400000000000000000000910152565b61314c6016602092610d41565b61315581613118565b0190565b61316e9060208101905f81830391015261313f565b90565b1561317857565b613180610202565b62461bcd60e51b81528061319660048201613159565b0390fd5b6e5af43d82803e903d91602b57fd5bf3906131b36121ce565b50763d602d80600a3d3981f3363d3d373d3d3d363d730000008160601b60e81c175f5260781b17602052603760095ff090613209826132026131fc6131f75f6121a5565b61026e565b9161026e565b1415613171565b565b5f7f4f776e61626c653a2063616c6c6572206973206e6f7420746865206f776e6572910152565b61323e60208092610d41565b6132478161320b565b0190565b6132609060208101905f818303910152613232565b90565b1561326a57565b613272610202565b62461bcd60e51b8152806132886004820161324b565b0390fd5b6132b66132976121d2565b6132b06132aa6132a5613317565b61026e565b9161026e565b14613263565b565b6132c15f610cc0565b6132cb825f611f44565b906132ff6132f97f8be0079c531659141344cd1fd0a4f28419497f9722a3daafe3b4186f6b6457e093611f35565b91611f35565b91613308610202565b8061331281610507565b0390a3565b61331f6121ce565b50339056fea2646970667358221220eacbfba1e0022ea4cb642eaf9df725441d20d56ab4ec8da8ab1976f4ac7bd27664736f6c634300081c0033",
    "linkReferences": {}
  },
  "methodIdentifiers": {
    "activate(string)": "1917ab5c",
    "brandPermission()": "4aafd2e6",
    "ccipAddr()": "e68b0794",
    "chainFunctionAddr()": "b665dce6",
    "getBrandinfo(string)": "ed0af8a5",
    "initFunction()": "121562af",
    "initFunctionAddr()": "531e5ae1",
    "isActivate(string)": "ce698340",
    "merkleVerifierAddr()": "07b3ab64",
    "owner()": "8da5cb5b",
    "permissionManager()": "cc7a2049",
    "profileAddr()": "f678d9af",
    "profileContract()": "a3974b21",
    "registerBrand(string,(uint256,uint256,uint256,uint256,uint256),address,uint64,string,string[])": "f728d0cc",
    "registerUndernewOwner(string,(uint256,uint256,uint256,uint256,uint256),address,uint64,string,string[])": "9060fefc",
    "registry(string)": "92a296c9",
    "renounceOwnership()": "715018a6",
    "reputation()": "c52164c6",
    "reputationAddr()": "053ebc9a",
    "setCCIP(address)": "cd002378",
    "setChainFunction(address)": "9808bbf6",
    "setInitFunction(address)": "fa5ed5c9",
    "setProfile(address)": "e0b6a1e3",
    "setReputatioin(address)": "8f0c7ab0",
    "setState(address)": "34c901af",
    "stake(string)": "46f45b8d",
    "stateAddr()": "2337ad65",
    "stateContract()": "db5f30e1",
    "syncerAddr()": "a32c3594",
    "transferOwnership(address)": "f2fde38b"
  },
  "id": 92
}