{"abi":[{"type":"constructor","inputs":[{"name":"_requireStake","type":"uint256","internalType":"uint256"},{"name":"_stakeToken","type":"address","internalType":"address"},{"name":"carRegistry","type":"address","internalType":"address"},{"name":"_globalPermissionManager","type":"address","internalType":"address"}],"stateMutability":"nonpayable"},{"type":"receive","stateMutability":"payable"},{"type":"function","name":"SET_STAKE_AMOUNT","inputs":[],"outputs":[{"name":"","type":"bytes4","internalType":"bytes4"}],"stateMutability":"view"},{"type":"function","name":"SLASH","inputs":[],"outputs":[{"name":"","type":"bytes4","internalType":"bytes4"}],"stateMutability":"view"},{"type":"function","name":"WITHDRAW_SLASHED_ETH","inputs":[],"outputs":[{"name":"","type":"bytes4","internalType":"bytes4"}],"stateMutability":"view"},{"type":"function","name":"WITHDRAW_SLASHED_USDC","inputs":[],"outputs":[{"name":"","type":"bytes4","internalType":"bytes4"}],"stateMutability":"view"},{"type":"function","name":"brandStakeInfo","inputs":[{"name":"","type":"string","internalType":"string"}],"outputs":[{"name":"isActive","type":"bool","internalType":"bool"},{"name":"stakeAmount","type":"uint256","internalType":"uint256"},{"name":"stakeepoch","type":"uint256","internalType":"uint256"},{"name":"staker","type":"address","internalType":"address"}],"stateMutability":"view"},{"type":"function","name":"globalPermissionManager","inputs":[],"outputs":[{"name":"","type":"address","internalType":"address"}],"stateMutability":"view"},{"type":"function","name":"slash","inputs":[{"name":"_brand","type":"string","internalType":"string"},{"name":"amount","type":"uint256","internalType":"uint256"}],"outputs":[],"stateMutability":"nonpayable"},{"type":"function","name":"stake","inputs":[{"name":"_brand","type":"string","internalType":"string"},{"name":"isEth","type":"bool","internalType":"bool"}],"outputs":[],"stateMutability":"payable"},{"type":"function","name":"stakeAmountset","inputs":[{"name":"amount","type":"uint256","internalType":"uint256"}],"outputs":[],"stateMutability":"nonpayable"},{"type":"function","name":"stakeSlashed","inputs":[],"outputs":[{"name":"","type":"uint256","internalType":"uint256"}],"stateMutability":"view"},{"type":"function","name":"withdrawSlashedEth","inputs":[{"name":"amount","type":"uint256","internalType":"uint256"},{"name":"_receive","type":"address","internalType":"address"}],"outputs":[],"stateMutability":"nonpayable"},{"type":"function","name":"withdrawSlashedusdc","inputs":[{"name":"amoount","type":"uint256","internalType":"uint256"},{"name":"_receiver","type":"address","internalType":"address"}],"outputs":[],"stateMutability":"nonpayable"}],"bytecode":{"object":"0x6080604052346100335761001d610014610146565b92919091610239565b610025610038565b6115ce61026782396115ce90f35b61003e565b60405190565b5f80fd5b601f801991011690565b634e487b7160e01b5f52604160045260245ffd5b9061006a90610042565b810190811060018060401b0382111761008257604052565b61004c565b9061009a610093610038565b9283610060565b565b5f80fd5b90565b6100ac816100a0565b036100b357565b5f80fd5b905051906100c4826100a3565b565b60018060a01b031690565b6100da906100c6565b90565b6100e6816100d1565b036100ed57565b5f80fd5b905051906100fe826100dd565b565b60808183031261014157610116825f83016100b7565b9261013e61012784602085016100f1565b9361013581604086016100f1565b936060016100f1565b90565b61009c565b6101646118358038038061015981610087565b928339810190610100565b90919293565b5f1b90565b9061018060018060a01b039161016a565b9181191691161790565b90565b6101a161019c6101a6926100c6565b61018a565b6100c6565b90565b6101b29061018d565b90565b6101be906101a9565b90565b90565b906101d96101d46101e0926101b5565b6101c1565b825461016f565b9055565b906101f05f199161016a565b9181191691161790565b61020e610209610213926100a0565b61018a565b6100a0565b90565b90565b9061022e610229610235926101fa565b610216565b82546101e4565b9055565b91610256610264949361025061025d9460016101c4565b5f610219565b60026101c4565b60046101c4565b56fe60806040526004361015610015575b3661095c57005b61001f5f356100de565b80631936c921146100d95780631b999349146100d457806352bad50a146100cf5780635866bf07146100ca5780636bc37315146100c557806377cf32d1146100c057806386007707146100bb57806397071680146100b6578063ac589166146100b1578063ad02bfea146100ac578063bfe19843146100a75763c1c814880361000e57610928565b6108f3565b610874565b610809565b610784565b610723565b610686565b610604565b610586565b61025e565b6101f4565b610172565b60e01c90565b60405190565b5f80fd5b5f80fd5b5f9103126100fc57565b6100ee565b63ffffffff60e01b1690565b61011690610101565b90565b6101427f02fb4d857f34ab320b4ff331cb337961ae4fb5380241d4779562eb68da02a2a461010d565b90565b61014d610119565b90565b61015990610101565b9052565b9190610170905f60208501940190610150565b565b346101a2576101823660046100f2565b61019e61018d610145565b6101956100e4565b9182918261015d565b0390f35b6100ea565b5f80fd5b90565b6101b7816101ab565b036101be57565b5f80fd5b905035906101cf826101ae565b565b906020828203126101ea576101e7915f016101c2565b90565b6100ee565b5f0190565b346102225761020c6102073660046101d1565b610a48565b6102146100e4565b8061021e816101ef565b0390f35b6100ea565b6102507f1b999349993df76a88bcc9ebaec50511d799d596696023a17a67601db65e7fb861010d565b90565b61025b610227565b90565b3461028e5761026e3660046100f2565b61028a610279610253565b6102816100e4565b9182918261015d565b0390f35b6100ea565b5f80fd5b5f80fd5b601f801991011690565b634e487b7160e01b5f52604160045260245ffd5b906102c39061029b565b810190811067ffffffffffffffff8211176102dd57604052565b6102a5565b906102f56102ee6100e4565b92836102b9565b565b67ffffffffffffffff81116103155761031160209161029b565b0190565b6102a5565b90825f939282370152565b9092919261033a610335826102f7565b6102e2565b93818552602085019082840111610356576103549261031a565b565b610297565b9080601f830112156103795781602061037693359101610325565b90565b610293565b906020828203126103ae575f82013567ffffffffffffffff81116103a9576103a6920161035b565b90565b6101a7565b6100ee565b5190565b905090565b90825f9392825e0152565b6103ec6103e3926020926103da816103b3565b948580936103b7565b938491016103bc565b0190565b90565b6103ff610404916101ab565b6103f0565b9052565b61041861041f91602094936103c7565b80926103f3565b0190565b61043761042e6100e4565b92839283610408565b03902090565b61044691610423565b90565b5f1c90565b60ff1690565b61046061046591610449565b61044e565b90565b6104729054610454565b90565b90565b61048461048991610449565b610475565b90565b6104969054610478565b90565b60018060a01b031690565b6104b06104b591610449565b610499565b90565b6104c290546104a4565b90565b6104d090600561043d565b906104dc5f8301610468565b916104e96001820161048c565b9161050260036104fb6002850161048c565b93016104b8565b90565b151590565b61051390610505565b9052565b610520906101ab565b9052565b60018060a01b031690565b61053890610524565b90565b6105449061052f565b9052565b61057d61058494610573606094989795610569608086019a5f87019061050a565b6020850190610517565b6040830190610517565b019061053b565b565b346105ba576105b66105a161059c36600461037e565b6104c5565b906105ad9492946100e4565b94859485610548565b0390f35b6100ea565b91906040838203126105ff575f8301359067ffffffffffffffff82116105fa576105ee816105f793860161035b565b936020016101c2565b90565b6101a7565b6100ee565b346106335761061d6106173660046105bf565b90610c64565b6106256100e4565b8061062f816101ef565b0390f35b6100ea565b1c90565b61064c9060086106519302610638565b610499565b90565b9061065f915461063c565b90565b61066e60045f90610654565b90565b9190610684905f6020850194019061053b565b565b346106b6576106963660046100f2565b6106b26106a1610662565b6106a96100e4565b91829182610671565b0390f35b6100ea565b6106c481610505565b036106cb57565b5f80fd5b905035906106dc826106bb565b565b919060408382031261071e575f8301359067ffffffffffffffff82116107195761070d8161071693860161035b565b936020016106cf565b90565b6101a7565b6100ee565b6107376107313660046106de565b9061113f565b61073f6100e4565b80610749816101ef565b0390f35b6107767f8109388c30f80a19e43697e44724ff47cb376f293e224110dec1d66008f8e23361010d565b90565b61078161074d565b90565b346107b4576107943660046100f2565b6107b061079f610779565b6107a76100e4565b9182918261015d565b0390f35b6100ea565b6107c28161052f565b036107c957565b5f80fd5b905035906107da826107b9565b565b919060408382031261080457806107f8610801925f86016101c2565b936020016107cd565b90565b6100ee565b346108385761082261081c3660046107dc565b906111f3565b61082a6100e4565b80610834816101ef565b0390f35b6100ea565b6108667f09dd5e28fa146641ab3cdf33ba12c7046194036285261706c488eb54ac2f267361010d565b90565b61087161083d565b90565b346108a4576108843660046100f2565b6108a061088f610869565b6108976100e4565b9182918261015d565b0390f35b6100ea565b6108b99060086108be9302610638565b610475565b90565b906108cc91546108a9565b90565b6108db60035f906108c1565b90565b91906108f1905f60208501940190610517565b565b34610923576109033660046100f2565b61091f61090e6108cf565b6109166100e4565b918291826108de565b0390f35b6100ea565b346109575761094161093b3660046107dc565b90611336565b6109496100e4565b80610953816101ef565b0390f35b6100ea565b5f80fd5b60209181520190565b5f7f52657075746174696f6e3a20556e617574686f72697a65640000000000000000910152565b61099d6018602092610960565b6109a681610969565b0190565b6109bf9060208101905f818303910152610990565b90565b156109c957565b6109d16100e4565b62461bcd60e51b8152806109e7600482016109aa565b0390fd5b5f1b90565b906109fc5f19916109eb565b9181191691161790565b90565b610a1d610a18610a22926101ab565b610a06565b6101ab565b90565b90565b90610a3d610a38610a4492610a09565b610a25565b82546109f0565b9055565b610a7690610a70610a6b610a5c60046104b8565b33610a65610227565b91611504565b6109c2565b5f610a28565b565b5f7f52657075746174696f6e3a204272616e64206973206e6f742061637469766500910152565b610aac601f602092610960565b610ab581610a78565b0190565b610ace9060208101905f818303910152610a9f565b90565b15610ad857565b610ae06100e4565b62461bcd60e51b815280610af660048201610ab9565b0390fd5b60207f6d6f756e7420746f20736c617368000000000000000000000000000000000000917f52657075746174696f6e3a20496e73756666696369656e74207374616b6520615f8201520152565b610b54602e604092610960565b610b5d81610afa565b0190565b610b769060208101905f818303910152610b47565b90565b15610b8057565b610b886100e4565b62461bcd60e51b815280610b9e60048201610b61565b0390fd5b634e487b7160e01b5f52601160045260245ffd5b610bc5610bcb919392936101ab565b926101ab565b8201809211610bd657565b610ba2565b610bea610bf0919392936101ab565b926101ab565b8203918211610bfb57565b610ba2565b90565b610c17610c12610c1c92610c00565b610a06565b6101ab565b90565b90610c2b60ff916109eb565b9181191691161790565b610c3e90610505565b90565b90565b90610c59610c54610c6092610c35565b610c41565b8254610c1f565b9055565b90610d2290610c8d610c88610c7960046104b8565b33610c82610119565b91611504565b6109c2565b610cab610ca65f610ca06005879061043d565b01610468565b610ad1565b610cde610cc56001610cbf6005879061043d565b0161048c565b610cd7610cd1846101ab565b916101ab565b1015610b79565b610cfb610cf482610cef600361048c565b610bb6565b6003610a28565b610d1c6001610d0c6005869061043d565b0191610d178361048c565b610bdb565b90610a28565b610d396001610d336005849061043d565b0161048c565b610d4b610d455f610c03565b916101ab565b14610d54575b50565b610d6b905f610d658192600561043d565b01610c44565b5f610d51565b60207f7220726567697374727900000000000000000000000000000000000000000000917f52657075746174696f6e3a2043616c6c6572206973206e6f74207468652063615f8201520152565b610dcb602a604092610960565b610dd481610d71565b0190565b610ded9060208101905f818303910152610dbe565b90565b15610df757565b610dff6100e4565b62461bcd60e51b815280610e1560048201610dd8565b0390fd5b90610e4891610e4333610e3d610e37610e3260026104b8565b61052f565b9161052f565b14610df0565b611073565b565b60207f6d6f756e74000000000000000000000000000000000000000000000000000000917f52657075746174696f6e3a20496e73756666696369656e74207374616b6520615f8201520152565b610ea46025604092610960565b610ead81610e4a565b0190565b610ec69060208101905f818303910152610e97565b90565b15610ed057565b610ed86100e4565b62461bcd60e51b815280610eee60048201610eb1565b0390fd5b610f06610f01610f0b92610524565b610a06565b610524565b90565b610f1790610ef2565b90565b610f2390610f0e565b90565b610f2f90610ef2565b90565b610f3b90610f26565b90565b610f4790610f0e565b90565b610f526100e4565b3d5f823e3d90fd5b610f6460806102e2565b90565b90610f7190610505565b9052565b90610f7f906101ab565b9052565b90610f8d9061052f565b9052565b610f9b9051610505565b90565b610fa890516101ab565b90565b610fb5905161052f565b90565b90610fc960018060a01b03916109eb565b9181191691161790565b610fdc90610f0e565b90565b90565b90610ff7610ff2610ffe92610fd3565b610fdf565b8254610fb8565b9055565b9061105f60606003611065946110255f820161101f5f8801610f91565b90610c44565b61103e6001820161103860208801610f9e565b90610a28565b6110576002820161105160408801610f9e565b90610a28565b019201610fab565b90610fe2565b565b9061107191611002565b565b905f146111365761109e3461109861109261108d5f61048c565b6101ab565b916101ab565b14610ec9565b5f8080806110bb6110b66110b130610f1a565b610f32565b610f3e565b349082821561112d575bf11561112857611126905b61112160019161111a6110e25f61048c565b6111114261110833936110ff6110f6610f5a565b995f8b01610f67565b60208901610f75565b60408701610f75565b60608501610f83565b600561043d565b611067565b565b610f4a565b506108fc6110c5565b611126906110d0565b9061114991610e19565b565b60207f20746f2077697468647261770000000000000000000000000000000000000000917f52657075746174696f6e3a20496e73756666696369656e742062616c616e63655f8201520152565b6111a5602c604092610960565b6111ae8161114b565b0190565b6111c79060208101905f818303910152611198565b90565b156111d157565b6111d96100e4565b62461bcd60e51b8152806111ef600482016111b2565b0390fd5b5f8080939261127161126c839561122461121f61121060046104b8565b3361121961083d565b91611504565b6109c2565b61124a61123030610f1a565b3161124361123d876101ab565b916101ab565b10156111ca565b6112676112608561125b600361048c565b610bdb565b6003610a28565b610f32565b610f3e565b828215611286575bf11561128157565b610f4a565b506108fc611279565b61129890610ef2565b90565b6112a49061128f565b90565b6112b090610f0e565b90565b60e01b90565b905051906112c6826101ae565b565b906020828203126112e1576112de915f016112b9565b90565b6100ee565b905051906112f3826106bb565b565b9060208282031261130e5761130b915f016112e6565b90565b6100ee565b91602061133492949361132d60408201965f83019061053b565b0190610517565b565b6113ac9061135e61135961134a60046104b8565b3361135361074d565b91611504565b6109c2565b602061137a61137561137060016104b8565b61129b565b6112a7565b6370a08231906113a161138c30610f1a565b926113956100e4565b968794859384936112b3565b835260048301610671565b03915afa9182156114b4576020926113df915f91611487575b506113d86113d2846101ab565b916101ab565b10156111ca565b6113fc6113f5826113f0600361048c565b610bdb565b6003610a28565b61141661141161140c60016104b8565b61129b565b6112a7565b6114395f63a9059cbb95939561144461142d6100e4565b978896879586946112b3565b845260048401611313565b03925af1801561148257611456575b50565b6114769060203d811161147b575b61146e81836102b9565b8101906112f5565b611453565b503d611464565b610f4a565b6114a79150843d81116114ad575b61149f81836102b9565b8101906112c8565b5f6113c5565b503d611495565b610f4a565b5f90565b6114c690610ef2565b90565b6114d2906114bd565b90565b6114de90610f0e565b90565b9160206115029294936114fb60408201965f83019061053b565b0190610150565b565b9161152261151d602093946115176114b9565b506114c9565b6114d5565b61154463bed98a0d94929461154f6115386100e4565b968795869485946112b3565b8452600484016114e1565b03915afa908115611593575f91611565575b5090565b611586915060203d811161158c575b61157e81836102b9565b8101906112f5565b5f611561565b503d611574565b610f4a56fea2646970667358221220e7a4bb2d11a797e5bd6661255a2a073e225d330db853995063eabf9000f41e9a64736f6c634300081c0033","linkReferences":{}},"methodIdentifiers":{"SET_STAKE_AMOUNT()":"52bad50a","SLASH()":"1936c921","WITHDRAW_SLASHED_ETH()":"ad02bfea","WITHDRAW_SLASHED_USDC()":"97071680","brandStakeInfo(string)":"5866bf07","globalPermissionManager()":"77cf32d1","slash(string,uint256)":"6bc37315","stake(string,bool)":"86007707","stakeAmountset(uint256)":"1b999349","stakeSlashed()":"bfe19843","withdrawSlashedEth(uint256,address)":"ac589166","withdrawSlashedusdc(uint256,address)":"c1c81488"},"id":92}