{"abi":[{"type":"constructor","inputs":[],"stateMutability":"nonpayable"},{"type":"function","name":"getBrandName","inputs":[],"outputs":[{"name":"","type":"string","internalType":"string"}],"stateMutability":"view"},{"type":"function","name":"getConfig","inputs":[],"outputs":[{"name":"","type":"tuple","internalType":"struct ICarOracle.OracleConfig","components":[{"name":"updateInterval","type":"uint256","internalType":"uint256"},{"name":"deviationThreshold","type":"uint256","internalType":"uint256"},{"name":"heartbeat","type":"uint256","internalType":"uint256"},{"name":"minAnswer","type":"uint256","internalType":"uint256"},{"name":"maxAnswer","type":"uint256","internalType":"uint256"}]}],"stateMutability":"view"},{"type":"function","name":"getCurrentRoundId","inputs":[],"outputs":[{"name":"","type":"uint256","internalType":"uint256"}],"stateMutability":"view"},{"type":"function","name":"getLastUpdateTime","inputs":[],"outputs":[{"name":"","type":"uint256","internalType":"uint256"}],"stateMutability":"view"},{"type":"function","name":"getLatestPrice","inputs":[],"outputs":[{"name":"","type":"tuple","internalType":"struct ICarOracle.PriceData","components":[{"name":"price","type":"uint256","internalType":"uint256"},{"name":"timestamp","type":"uint256","internalType":"uint256"},{"name":"roundId","type":"uint256","internalType":"uint256"},{"name":"isValid","type":"bool","internalType":"bool"}]}],"stateMutability":"view"},{"type":"function","name":"getMasterOracle","inputs":[],"outputs":[{"name":"","type":"address","internalType":"address"}],"stateMutability":"view"},{"type":"function","name":"getPriceAtRound","inputs":[{"name":"roundId","type":"uint256","internalType":"uint256"}],"outputs":[{"name":"","type":"tuple","internalType":"struct ICarOracle.PriceData","components":[{"name":"price","type":"uint256","internalType":"uint256"},{"name":"timestamp","type":"uint256","internalType":"uint256"},{"name":"roundId","type":"uint256","internalType":"uint256"},{"name":"isValid","type":"bool","internalType":"bool"}]}],"stateMutability":"view"},{"type":"function","name":"getPriceFeedAddress","inputs":[],"outputs":[{"name":"","type":"string","internalType":"string"}],"stateMutability":"view"},{"type":"function","name":"getPriceHistoryRange","inputs":[{"name":"startRound","type":"uint256","internalType":"uint256"},{"name":"endRound","type":"uint256","internalType":"uint256"}],"outputs":[{"name":"","type":"tuple[]","internalType":"struct ICarOracle.PriceData[]","components":[{"name":"price","type":"uint256","internalType":"uint256"},{"name":"timestamp","type":"uint256","internalType":"uint256"},{"name":"roundId","type":"uint256","internalType":"uint256"},{"name":"isValid","type":"bool","internalType":"bool"}]}],"stateMutability":"view"},{"type":"function","name":"initialize","inputs":[{"name":"brandName","type":"string","internalType":"string"},{"name":"priceFeedAddress","type":"string","internalType":"string"},{"name":"config","type":"tuple","internalType":"struct ICarOracle.OracleConfig","components":[{"name":"updateInterval","type":"uint256","internalType":"uint256"},{"name":"deviationThreshold","type":"uint256","internalType":"uint256"},{"name":"heartbeat","type":"uint256","internalType":"uint256"},{"name":"minAnswer","type":"uint256","internalType":"uint256"},{"name":"maxAnswer","type":"uint256","internalType":"uint256"}]},{"name":"masterOracle","type":"address","internalType":"address"}],"outputs":[],"stateMutability":"nonpayable"},{"type":"function","name":"isStale","inputs":[],"outputs":[{"name":"","type":"bool","internalType":"bool"}],"stateMutability":"view"},{"type":"function","name":"owner","inputs":[],"outputs":[{"name":"","type":"address","internalType":"address"}],"stateMutability":"view"},{"type":"function","name":"pause","inputs":[],"outputs":[],"stateMutability":"nonpayable"},{"type":"function","name":"paused","inputs":[],"outputs":[{"name":"","type":"bool","internalType":"bool"}],"stateMutability":"view"},{"type":"function","name":"renounceOwnership","inputs":[],"outputs":[],"stateMutability":"nonpayable"},{"type":"function","name":"transferOwnership","inputs":[{"name":"newOwner","type":"address","internalType":"address"}],"outputs":[],"stateMutability":"nonpayable"},{"type":"function","name":"unpause","inputs":[],"outputs":[],"stateMutability":"nonpayable"},{"type":"function","name":"updateConfig","inputs":[{"name":"config","type":"tuple","internalType":"struct ICarOracle.OracleConfig","components":[{"name":"updateInterval","type":"uint256","internalType":"uint256"},{"name":"deviationThreshold","type":"uint256","internalType":"uint256"},{"name":"heartbeat","type":"uint256","internalType":"uint256"},{"name":"minAnswer","type":"uint256","internalType":"uint256"},{"name":"maxAnswer","type":"uint256","internalType":"uint256"}]}],"outputs":[],"stateMutability":"nonpayable"},{"type":"function","name":"updatePrice","inputs":[{"name":"newPrice","type":"uint256","internalType":"uint256"}],"outputs":[],"stateMutability":"nonpayable"},{"type":"event","name":"ConfigUpdated","inputs":[{"name":"updateInterval","type":"uint256","indexed":false,"internalType":"uint256"},{"name":"deviationThreshold","type":"uint256","indexed":false,"internalType":"uint256"},{"name":"heartbeat","type":"uint256","indexed":false,"internalType":"uint256"},{"name":"timestamp","type":"uint256","indexed":false,"internalType":"uint256"}],"anonymous":false},{"type":"event","name":"Initialized","inputs":[{"name":"version","type":"uint64","indexed":false,"internalType":"uint64"}],"anonymous":false},{"type":"event","name":"OwnershipTransferred","inputs":[{"name":"previousOwner","type":"address","indexed":true,"internalType":"address"},{"name":"newOwner","type":"address","indexed":true,"internalType":"address"}],"anonymous":false},{"type":"event","name":"Paused","inputs":[{"name":"account","type":"address","indexed":false,"internalType":"address"}],"anonymous":false},{"type":"event","name":"PriceUpdated","inputs":[{"name":"roundId","type":"uint256","indexed":true,"internalType":"uint256"},{"name":"price","type":"uint256","indexed":false,"internalType":"uint256"},{"name":"timestamp","type":"uint256","indexed":false,"internalType":"uint256"},{"name":"brandName","type":"string","indexed":false,"internalType":"string"}],"anonymous":false},{"type":"event","name":"Unpaused","inputs":[{"name":"account","type":"address","indexed":false,"internalType":"address"}],"anonymous":false},{"type":"error","name":"EnforcedPause","inputs":[]},{"type":"error","name":"ExpectedPause","inputs":[]},{"type":"error","name":"InvalidInitialization","inputs":[]},{"type":"error","name":"NotInitializing","inputs":[]},{"type":"error","name":"OwnableInvalidOwner","inputs":[{"name":"owner","type":"address","internalType":"address"}]},{"type":"error","name":"OwnableUnauthorizedAccount","inputs":[{"name":"account","type":"address","internalType":"address"}]},{"type":"error","name":"ReentrancyGuardReentrantCall","inputs":[]}],"bytecode":{"object":"0x60806040523461002757610011610036565b61001961002c565b612c5a61025c8239612c5a90f35b610032565b60405190565b5f80fd5b61003e610132565b565b60401c90565b60ff1690565b61005861005d91610040565b610046565b90565b61006a905461004c565b90565b5f0190565b5f1c90565b60018060401b031690565b61008e61009391610072565b610077565b90565b6100a09054610082565b90565b60018060401b031690565b5f1b90565b906100c460018060401b03916100ae565b9181191691161790565b90565b6100e56100e06100ea926100a3565b6100ce565b6100a3565b90565b90565b9061010561010061010c926100d1565b6100ed565b82546100b3565b9055565b610119906100a3565b9052565b9190610130905f60208501940190610110565b565b61013a6101ea565b6101455f8201610060565b6101ce576101545f8201610096565b61016c61016660018060401b036100a3565b916100a3565b03610175575b50565b610188905f60018060401b0391016100f0565b60018060401b036101c57fc7f505b2f371ae2175ee4913f4499e1f2633a7b5936321eed1cdaeb6115181d2916101bc61002c565b9182918261011d565b0390a15f610172565b5f63f92ee8a960e01b8152806101e66004820161006d565b0390fd5b6101f2610247565b90565b5f90565b90565b90565b61021361020e610218926101f9565b6100ae565b6101fc565b90565b6102447ff0c57e16840df040f15088dc2f81fe391c3923bec73e23a9662efc9c229c6a006101ff565b90565b61024f6101f5565b5061025861021b565b9056fe60806040526004361015610013575b610aac565b61001d5f3561014c565b80630f0f30b2146101475780631a26f447146101425780632c307e651461013d578063394946c7146101385780633f4ba83a1461013357806355517f561461012e5780635727e25d146101295780635c975abb14610124578063690dd9a21461011f578063715018a61461011a5780638456cb591461011557806385152e45146101105780638d6cc56d1461010b5780638da5cb5b146101065780638e15f47314610101578063b7f88320146100fc578063c3f909d4146100f7578063f2fde38b146100f25763fe3d88bd0361000e57610a77565b610a44565b6109f1565b61094d565b610918565b6108e3565b6108b0565b61087b565b610826565b6107f3565b6107bd565b610681565b61064c565b6105f7565b6105a6565b610571565b6104a5565b610236565b6101da565b60e01c90565b60405190565b5f80fd5b5f80fd5b5f91031261016a57565b61015c565b5190565b60209181520190565b90825f9392825e0152565b601f801991011690565b6101b06101b96020936101be936101a78161016f565b93848093610173565b9586910161017c565b610187565b0190565b6101d79160208201915f818403910152610191565b90565b3461020a576101ea366004610160565b6102066101f5610bcc565b6101fd610152565b918291826101c2565b0390f35b610158565b151590565b61021d9061020f565b9052565b9190610234905f60208501940190610214565b565b3461026657610246366004610160565b610262610251610c48565b610259610152565b91829182610221565b0390f35b610158565b5f80fd5b5f80fd5b5f80fd5b634e487b7160e01b5f52604160045260245ffd5b9061029590610187565b810190811067ffffffffffffffff8211176102af57604052565b610277565b906102c76102c0610152565b928361028b565b565b67ffffffffffffffff81116102e7576102e3602091610187565b0190565b610277565b90825f939282370152565b9092919261030c610307826102c9565b6102b4565b9381855260208501908284011161032857610326926102ec565b565b610273565b9080601f8301121561034b57816020610348933591016102f7565b90565b61026f565b5f80fd5b90565b61036081610354565b0361036757565b5f80fd5b9050359061037882610357565b565b919060a0838203126103ea576103e39061039460a06102b4565b936103a1825f830161036b565b5f8601526103b2826020830161036b565b60208601526103c4826040830161036b565b60408601526103d6826060830161036b565b606086015260800161036b565b6080830152565b610350565b60018060a01b031690565b610403906103ef565b90565b61040f816103fa565b0361041657565b5f80fd5b9050359061042782610406565b565b6101008183031261049b575f81013567ffffffffffffffff8111610496578261045391830161032d565b92602082013567ffffffffffffffff8111610491576104778461048e92850161032d565b93610485816040860161037a565b9360e00161041a565b90565b61026b565b61026b565b61015c565b5f0190565b346104d7576104c16104b8366004610429565b929190916115d4565b6104c9610152565b806104d3816104a0565b0390f35b610158565b906020828203126104f5576104f2915f0161036b565b90565b61015c565b61050390610354565b9052565b6105109061020f565b9052565b9060608061055a9361052c5f8201515f8601906104fa565b61053e602082015160208601906104fa565b610550604082015160408601906104fa565b0151910190610507565b565b919061056f905f60808501940190610514565b565b346105a15761059d61058c6105873660046104dc565b61178a565b610594610152565b9182918261055c565b0390f35b610158565b346105d4576105b6366004610160565b6105be611810565b6105c6610152565b806105d0816104a0565b0390f35b610158565b9060a0828203126105f2576105ef915f0161037a565b90565b61015c565b346106255761060f61060a3660046105d9565b611cc0565b610617610152565b80610621816104a0565b0390f35b610158565b61063390610354565b9052565b919061064a905f6020850194019061062a565b565b3461067c5761065c366004610160565b610678610667611ccb565b61066f610152565b91829182610637565b0390f35b610158565b346106b157610691366004610160565b6106ad61069c611ce1565b6106a4610152565b91829182610221565b0390f35b610158565b91906040838203126106de57806106d26106db925f860161036b565b9360200161036b565b90565b61015c565b5190565b60209181520190565b60200190565b9060608061073c9361070e5f8201515f8601906104fa565b610720602082015160208601906104fa565b610732604082015160408601906104fa565b0151910190610507565b565b9061074b816080936106f6565b0190565b60200190565b9061077261076c610765846106e3565b80936106e7565b926106f0565b905f5b8181106107825750505090565b90919261079b610795600192865161073e565b9461074f565b9101919091610775565b6107ba9160208201915f818403910152610755565b90565b346107ee576107ea6107d96107d33660046106b6565b90611e77565b6107e1610152565b918291826107a5565b0390f35b610158565b3461082157610803366004610160565b61080b611faa565b610813610152565b8061081d816104a0565b0390f35b610158565b3461085457610836366004610160565b61083e611fd0565b610846610152565b80610850816104a0565b0390f35b610158565b610862906103fa565b9052565b9190610879905f60208501940190610859565b565b346108ab5761088b366004610160565b6108a7610896611fde565b61089e610152565b91829182610866565b0390f35b610158565b346108de576108c86108c33660046104dc565b612479565b6108d0610152565b806108da816104a0565b0390f35b610158565b34610913576108f3366004610160565b61090f6108fe612484565b610906610152565b91829182610866565b0390f35b610158565b3461094857610928366004610160565b610944610933612524565b61093b610152565b9182918261055c565b0390f35b610158565b3461097d5761095d366004610160565b610979610968612586565b610970610152565b91829182610637565b0390f35b610158565b906080806109da9361099a5f8201515f8601906104fa565b6109ac602082015160208601906104fa565b6109be604082015160408601906104fa565b6109d0606082015160608601906104fa565b01519101906104fa565b565b91906109ef905f60a08501940190610982565b565b34610a2157610a01366004610160565b610a1d610a0c61268b565b610a14610152565b918291826109dc565b0390f35b610158565b90602082820312610a3f57610a3c915f0161041a565b90565b61015c565b34610a7257610a5c610a57366004610a26565b612706565b610a64610152565b80610a6e816104a0565b0390f35b610158565b34610aa757610a87366004610160565b610aa3610a92612711565b610a9a610152565b918291826101c2565b0390f35b610158565b5f80fd5b606090565b634e487b7160e01b5f52602260045260245ffd5b9060016002830492168015610ae9575b6020831014610ae457565b610ab5565b91607f1691610ad9565b60209181520190565b5f5260205f2090565b905f9291805490610b1f610b1883610ac9565b8094610af3565b916001811690815f14610b765750600114610b3a575b505050565b610b479192939450610afc565b915f925b818410610b5e57505001905f8080610b35565b60018160209295939554848601520191019290610b4b565b92949550505060ff19168252151560200201905f8080610b35565b90610b9b91610b05565b90565b90610bbe610bb792610bae610152565b93848092610b91565b038361028b565b565b610bc990610b9e565b90565b610bd4610ab0565b50610bdf6001610bc0565b90565b5f90565b5f1c90565b90565b610bfa610bff91610be6565b610beb565b90565b610c0c9054610bee565b90565b634e487b7160e01b5f52601160045260245ffd5b610c32610c3891939293610354565b92610354565b8201809211610c4357565b610c0f565b610c50610be2565b5042610c83610c7d610c78610c65600a610c02565b610c726002600301610c02565b90610c23565b610354565b91610354565b1190565b60401c90565b60ff1690565b610c9f610ca491610c87565b610c8d565b90565b610cb19054610c93565b90565b67ffffffffffffffff1690565b610ccd610cd291610be6565b610cb4565b90565b610cdf9054610cc1565b90565b67ffffffffffffffff1690565b90565b90565b610d09610d04610d0e92610cef565b610cf2565b610ce2565b90565b90565b610d28610d23610d2d92610d11565b610cf2565b610ce2565b90565b610d44610d3f610d49926103ef565b610cf2565b6103ef565b90565b610d5590610d30565b90565b610d6190610d4c565b90565b610d78610d73610d7d92610cef565b610cf2565b610354565b90565b5f1b90565b90610d9867ffffffffffffffff91610d80565b9181191691161790565b610db6610db1610dbb92610ce2565b610cf2565b610ce2565b90565b90565b90610dd6610dd1610ddd92610da2565b610dbe565b8254610d85565b9055565b60401b90565b90610dfb68ff000000000000000091610de1565b9181191691161790565b610e0e9061020f565b90565b90565b90610e29610e24610e3092610e05565b610e11565b8254610de7565b9055565b610e3d90610d14565b9052565b9190610e54905f60208501940190610e34565b565b909192610e61612726565b93610e76610e705f8701610ca7565b1561020f565b93610e825f8701610cd5565b80610e95610e8f5f610cf5565b91610ce2565b1480610faf575b90610eb0610eaa6001610d14565b91610ce2565b1480610f87575b610ec290911561020f565b9081610f76575b50610f5a57610ef293610ee7610edf6001610d14565b5f8901610dc1565b85610f48575b6114f2565b610efa575b50565b610f07905f809101610e14565b6001610f3f7fc7f505b2f371ae2175ee4913f4499e1f2633a7b5936321eed1cdaeb6115181d291610f36610152565b91829182610e41565b0390a15f610ef7565b610f5560015f8901610e14565b610eed565b5f63f92ee8a960e01b815280610f72600482016104a0565b0390fd5b610f8191501561020f565b5f610ec9565b50610ec2610f9430610d58565b3b610fa7610fa15f610d64565b91610354565b149050610eb7565b5085610e9c565b90565b5190565b5f7f4272616e64206e616d652063616e6e6f7420626520656d707479000000000000910152565b610ff1601a602092610173565b610ffa81610fbd565b0190565b6110139060208101905f818303910152610fe4565b90565b1561101d57565b611025610152565b62461bcd60e51b81528061103b60048201610ffe565b0390fd5b60207f7479000000000000000000000000000000000000000000000000000000000000917f5072696365206665656420616464726573732063616e6e6f7420626520656d705f8201520152565b6110996022604092610173565b6110a28161103f565b0190565b6110bb9060208101905f81830391015261108c565b90565b156110c557565b6110cd610152565b62461bcd60e51b8152806110e3600482016110a6565b0390fd5b6110fb6110f661110092610cef565b610cf2565b6103ef565b90565b61110c906110e7565b90565b60207f7265737300000000000000000000000000000000000000000000000000000000917f4d6173746572206f7261636c652063616e6e6f74206265207a65726f206164645f8201520152565b6111696024604092610173565b6111728161110f565b0190565b61118b9060208101905f81830391015261115c565b90565b1561119557565b61119d610152565b62461bcd60e51b8152806111b360048201611176565b0390fd5b601f602091010490565b1b90565b919060086111e09102916111da5f19846111c1565b926111c1565b9181191691161790565b6111fe6111f961120392610354565b610cf2565b610354565b90565b90565b919061121f61121a611227936111ea565b611206565b9083546111c5565b9055565b5f90565b6112419161123b61122b565b91611209565b565b5b81811061124f575050565b8061125c5f60019361122f565b01611244565b9190601f8111611272575b505050565b61127e6112a393610afc565b90602061128a846111b7565b830193106112ab575b61129c906111b7565b0190611243565b5f808061126d565b915061129c81929050611293565b1c90565b906112cd905f19906008026112b9565b191690565b816112dc916112bd565b906002021790565b906112ee8161016f565b9067ffffffffffffffff82116113ae576113128261130c8554610ac9565b85611262565b602090601f831160011461134657918091611335935f9261133a575b50506112d2565b90555b565b90915001515f8061132e565b601f1983169161135585610afc565b925f5b8181106113965750916002939185600196941061137c575b50505002019055611338565b61138c910151601f8416906112bd565b90555f8080611370565b91936020600181928787015181550195019201611358565b610277565b906113bd916112e4565b565b906113d060018060a01b0391610d80565b9181191691161790565b6113e390610d4c565b90565b90565b906113fe6113f9611405926113da565b6113e6565b82546113bf565b9055565b6114139051610354565b90565b906114225f1991610d80565b9181191691161790565b9061144161143c611448926111ea565b611206565b8254611416565b9055565b906114c2608060046114c89461146f5f82016114695f8801611409565b9061142c565b6114886001820161148260208801611409565b9061142c565b6114a16002820161149b60408801611409565b9061142c565b6114ba600382016114b460608801611409565b9061142c565b019201611409565b9061142c565b565b906114d49161144c565b565b6114ea6114e56114ef92610d11565b610cf2565b610354565b90565b9161158c61159e926115856115c2969561152e61151661151183610fb6565b610fb9565b6115286115225f610d64565b91610354565b11611016565b61155a61154261153d85610fb6565b610fb9565b61155461154e5f610d64565b91610354565b116110be565b61157f8761157861157261156d5f611103565b6103fa565b916103fa565b141561118e565b5f6113b3565b60016113b3565b6115978360026113e9565b60036114ca565b6115b26115ab60016114d6565b600961142c565b6115bd42600a61142c565b61274f565b6115ca612764565b6115d261278a565b565b906115e0939291610e56565b565b6115ec60806102b4565b90565b5f90565b5f90565b6115ff6115e2565b9060208080808561160e6115ef565b8152016116196115ef565b8152016116246115ef565b81520161162f6115f3565b81525050565b61163d6115f7565b90565b5f7f496e76616c696420726f756e6420494400000000000000000000000000000000910152565b6116746010602092610173565b61167d81611640565b0190565b6116969060208101905f818303910152611667565b90565b156116a057565b6116a8610152565b62461bcd60e51b8152806116be60048201611681565b0390fd5b906116cc906111ea565b5f5260205260405f2090565b906116e290610354565b9052565b6116f26116f791610be6565b610c8d565b90565b61170490546116e6565b90565b906117119061020f565b9052565b9061177c61177360036117266115e2565b9461173d6117355f8301610c02565b5f88016116d8565b61175561174c60018301610c02565b602088016116d8565b61176d61176460028301610c02565b604088016116d8565b016116fa565b60608401611707565b565b61178790611715565b90565b6117c46117c991611799611635565b50806117ad6117a75f610d64565b91610354565b11806117cc575b6117bd90611699565b60086116c2565b61177e565b90565b506117bd816117ec6117e66117e16009610c02565b610354565b91610354565b1090506117b4565b6117fc612794565b611804611806565b565b61180e61284b565b565b6118186117f4565b565b60018060a01b031690565b61183161183691610be6565b61181a565b90565b6118439054611825565b90565b5f7f4f6e6c79206d6173746572206f7261636c652063616e2063616c6c2074686973910152565b61187960208092610173565b61188281611846565b0190565b61189b9060208101905f81830391015261186d565b90565b156118a557565b6118ad610152565b62461bcd60e51b8152806118c360048201611886565b0390fd5b6118f5906118f0336118ea6118e46118df6002611839565b6103fa565b916103fa565b1461189e565b611bae565b565b60207f7468616e20300000000000000000000000000000000000000000000000000000917f55706461746520696e74657276616c206d7573742062652067726561746572205f8201520152565b6119516026604092610173565b61195a816118f7565b0190565b6119739060208101905f818303910152611944565b90565b1561197d57565b611985610152565b62461bcd60e51b81528061199b6004820161195e565b0390fd5b60207f746572207468616e203000000000000000000000000000000000000000000000917f446576696174696f6e207468726573686f6c64206d75737420626520677265615f8201520152565b6119f9602a604092610173565b611a028161199f565b0190565b611a1b9060208101905f8183039101526119ec565b90565b15611a2557565b611a2d610152565b62461bcd60e51b815280611a4360048201611a06565b0390fd5b5f7f486561727462656174206d7573742062652067726561746572207468616e2030910152565b611a7a60208092610173565b611a8381611a47565b0190565b611a9c9060208101905f818303910152611a6e565b90565b15611aa657565b611aae610152565b62461bcd60e51b815280611ac460048201611a87565b0390fd5b60207f20616e7377657200000000000000000000000000000000000000000000000000917f4d696e20616e73776572206d757374206265206c657373207468616e206d61785f8201520152565b611b226027604092610173565b611b2b81611ac8565b0190565b611b449060208101905f818303910152611b15565b90565b15611b4e57565b611b56610152565b62461bcd60e51b815280611b6c60048201611b2f565b0390fd5b611ba5611bac94611b9b606094989795611b91608086019a5f87019061062a565b602085019061062a565b604083019061062a565b019061062a565b565b611bd4611bbc5f8301611409565b611bce611bc85f610d64565b91610354565b11611976565b611bfb611be360208301611409565b611bf5611bef5f610d64565b91610354565b11611a1e565b611c22611c0a60408301611409565b611c1c611c165f610d64565b91610354565b11611a9f565b611c54611c3160608301611409565b611c4e611c48611c4360808601611409565b610354565b91610354565b10611b47565b611c5f8160036114ca565b611c6a5f8201611409565b90611c836040611c7c60208401611409565b9201611409565b91611cbb427f84d25455db084cf777a0a4a00fcc28946b3a2ebc5cc866ef8820ab8571dbdd3694611cb2610152565b94859485611b70565b0390a1565b611cc9906118c7565b565b611cd361122b565b50611cde6009610c02565b90565b611ce9610be2565b50611cfc5f611cf6612855565b016116fa565b90565b606090565b5f7f496e76616c69642072616e676500000000000000000000000000000000000000910152565b611d38600d602092610173565b611d4181611d04565b0190565b611d5a9060208101905f818303910152611d2b565b90565b15611d6457565b611d6c610152565b62461bcd60e51b815280611d8260048201611d45565b0390fd5b611d95611d9b91939293610354565b92610354565b8203918211611da657565b610c0f565b67ffffffffffffffff8111611dc35760208091020190565b610277565b90611dda611dd583611dab565b6102b4565b918252565b611de76115f7565b90565b5f5b828110611df857505050565b602090611e03611ddf565b8184015201611dec565b90611e32611e1a83611dc8565b92602080611e288693611dab565b9201910390611dea565b565b6001611e409101610354565b90565b634e487b7160e01b5f52603260045260245ffd5b90611e61826106e3565b811015611e72576020809102010190565b611e43565b9190611eb9611ec991611e88611cff565b5084611e9c611e965f610d64565b91610354565b1180611f6a575b80611f42575b611eb290611d5d565b8490611d86565b611ec360016114d6565b90610c23565b91611ed383611e0d565b91611edd5f610d64565b5b80611ef1611eeb87610354565b91610354565b1015611f3b57611f3690611f2f611f146008611f0e878590610c23565b906116c2565b86611f1f849261177e565b611f298383611e57565b52611e57565b5150611e34565b611ede565b5092505090565b50611eb281611f62611f5c611f576009610c02565b610354565b91610354565b109050611ea9565b5080611f7e611f7887610354565b91610354565b1015611ea3565b611f8d612794565b611f95611f97565b565b611fa8611fa35f611103565b612879565b565b611fb2611f85565b565b611fbc612794565b611fc4611fc6565b565b611fce61294f565b565b611fd8611fb4565b565b5f90565b611fe6611fda565b50611ff16002611839565b90565b6120229061201d3361201761201161200c6002611839565b6103fa565b916103fa565b1461189e565b6120a6565b565b5f7f5072696365206f7574206f6620626f756e647300000000000000000000000000910152565b6120586013602092610173565b61206181612024565b0190565b61207a9060208101905f81830391015261204b565b90565b1561208457565b61208c610152565b62461bcd60e51b8152806120a260048201612065565b0390fd5b6120e0906120db81806120cc6120c66120c160038001610c02565b610354565b91610354565b101590816120e2575b5061207d565b61218c565b565b90506121026120fc6120f76004600301610c02565b610354565b91610354565b11155f6120d5565b5f7f55706461746520696e74657276616c206e6f74206d6574000000000000000000910152565b61213e6017602092610173565b6121478161210a565b0190565b6121609060208101905f818303910152612131565b90565b1561216a57565b612172610152565b62461bcd60e51b8152806121886004820161214b565b0390fd5b6121d0906121cb426121c46121be6121b96121a7600a610c02565b6121b35f600301610c02565b90610c23565b610354565b91610354565b1015612163565b6121d2565b565b6121e3906121de612959565b6121e5565b565b6121f6906121f16129af565b61239d565b6121fe612a1f565b565b61220a60806102b4565b90565b612217905161020f565b90565b9061222660ff91610d80565b9181191691161790565b9061224561224061224c92610e05565b610e11565b825461221a565b9055565b906122ad606060036122b3946122735f820161226d5f8801611409565b9061142c565b61228c6001820161228660208801611409565b9061142c565b6122a56002820161229f60408801611409565b9061142c565b01920161220d565b90612230565b565b906122bf91612250565b565b905f92918054906122db6122d483610ac9565b8094610173565b916001811690815f1461233257506001146122f6575b505050565b6123039192939450610afc565b915f925b81841061231a57505001905f80806122f1565b60018160209295939554848601520191019290612307565b92949550505060ff19168252151560200201905f80806122f1565b61237161237e94929361236760608401955f85019061062a565b602083019061062a565b60408184039101526122c1565b90565b61238a90610354565b5f1981146123985760010190565b610c0f565b612401816123e7426123de6123b26009610c02565b6123d56001936123cc6123c3612200565b975f89016116d8565b602087016116d8565b604085016116d8565b60608301611707565b6123fc60086123f66009610c02565b906116c2565b6122b5565b61240c42600a61142c565b6124166009610c02565b425f926124586124467fd17ae1ef0c5ba2eba1c2d71154e82b1455ff73f1a7f5e04c87b6fd68fe881a59946111ea565b9461244f610152565b9384938461234d565b0390a261247761247061246b6009610c02565b612381565b600961142c565b565b61248290611ff4565b565b61248c611fda565b5061249f5f612499612a3c565b01611839565b90565b5f7f4e6f207072696365206461746120617661696c61626c65000000000000000000910152565b6124d66017602092610173565b6124df816124a2565b0190565b6124f89060208101905f8183039101526124c9565b90565b1561250257565b61250a610152565b62461bcd60e51b815280612520600482016124e3565b0390fd5b61252c611635565b5061255361253a6009610c02565b61254d61254760016114d6565b91610354565b116124fb565b61258361257e60086125786125686009610c02565b61257260016114d6565b90611d86565b906116c2565b61177e565b90565b61258e61122b565b50612599600a610c02565b90565b6125a660a06102b4565b90565b6125b161259c565b90602080808080866125c16115ef565b8152016125cc6115ef565b8152016125d76115ef565b8152016125e26115ef565b8152016125ed6115ef565b81525050565b6125fb6125a9565b90565b9061267d612674600461260f61259c565b9461262661261e5f8301610c02565b5f88016116d8565b61263e61263560018301610c02565b602088016116d8565b61265661264d60028301610c02565b604088016116d8565b61266e61266560038301610c02565b606088016116d8565b01610c02565b608084016116d8565b565b612688906125fe565b90565b6126936125f3565b5061269e600361267f565b90565b6126b2906126ad612794565b6126b4565b565b806126cf6126c96126c45f611103565b6103fa565b916103fa565b146126df576126dd90612879565b565b6127026126eb5f611103565b5f918291631e4fbdf760e01b835260048301610866565b0390fd5b61270f906126a1565b565b612719610ab0565b506127235f610bc0565b90565b61272e612ab2565b90565b6127429061273d612ac6565b612744565b565b61274d90612b5e565b565b61275890612731565b565b612762612ac6565b565b61276c61275a565b565b612776612ac6565b61277e612780565b565b612788612b98565b565b61279261276e565b565b61279c612484565b6127b56127af6127aa612ba2565b6103fa565b916103fa565b036127bc57565b6127de6127c7612ba2565b5f91829163118cdaa760e01b835260048301610866565b0390fd5b6127ea612baf565b6127f26127f4565b565b6128086127ff612855565b5f809101612230565b612810612ba2565b6128467f5db9ee0a495bf2e6ff9c91a7834c1ba4fdd244a5e8aa4e537bd38aeae4b073aa9161283d610152565b91829182610866565b0390a1565b6128536127e2565b565b7fcd5ed15c6e187e77e9aee88184c21f4f2182ab5827cb3b7e07fbedcd63f0330090565b612881612a3c565b61289961288f5f8301611839565b915f8491016113e9565b906128cd6128c77f8be0079c531659141344cd1fd0a4f28419497f9722a3daafe3b4186f6b6457e0936113da565b916113da565b916128d6610152565b806128e0816104a0565b0390a3565b6128ed612959565b6128f56128f7565b565b61290c612902612855565b5f60019101612230565b612914612ba2565b61294a7f62e78cea01bee320cd4e420270b5ea74000d11b0c9f74754ebdbfc544b05a25891612941610152565b91829182610866565b0390a1565b6129576128e5565b565b612961611ce1565b61296757565b5f63d93c066560e01b81528061297f600482016104a0565b0390fd5b90565b61299a61299561299f92612983565b610cf2565b610354565b90565b6129ac6002612986565b90565b6129b7612be2565b6129c25f8201610c02565b6129db6129d56129d06129a2565b610354565b91610354565b146129f6576129f4905f6129ed6129a2565b910161142c565b565b5f633ee5aeb560e01b815280612a0e600482016104a0565b0390fd5b612a1c60016114d6565b90565b612a3a612a2a612be2565b5f612a33612a12565b910161142c565b565b7f9016d09d72d40fdae2fd8ceac6b6234c7706214fd39c1cd1e609a0528c19930090565b5f90565b90565b90565b612a7e612a79612a8392612a64565b610d80565b612a67565b90565b612aaf7ff0c57e16840df040f15088dc2f81fe391c3923bec73e23a9662efc9c229c6a00612a6a565b90565b612aba612a60565b50612ac3612a86565b90565b612ad7612ad1612c06565b1561020f565b612add57565b5f631afcd79f60e31b815280612af5600482016104a0565b0390fd5b612b0a90612b05612ac6565b612b0c565b565b80612b27612b21612b1c5f611103565b6103fa565b916103fa565b14612b3757612b3590612879565b565b612b5a612b435f611103565b5f918291631e4fbdf760e01b835260048301610866565b0390fd5b612b6790612af9565b565b612b71612ac6565b612b79612b7b565b565b612b96612b86612be2565b5f612b8f612a12565b910161142c565b565b612ba0612b69565b565b612baa611fda565b503390565b612bc0612bba611ce1565b1561020f565b612bc657565b5f638dfc202b60e01b815280612bde600482016104a0565b0390fd5b7f9b779b17422d0df92223018b32b4d1fa46e071723d6817e2486d003becc55f0090565b612c0e610be2565b50612c215f612c1b612726565b01610ca7565b9056fea26469706673582212204c2b307b478d19a37714a721cf42f57bc4651ce004b9f0e7c6f39b2a801e4fec64736f6c634300081c0033","linkReferences":{}},"methodIdentifiers":{"getBrandName()":"fe3d88bd","getConfig()":"c3f909d4","getCurrentRoundId()":"5727e25d","getLastUpdateTime()":"b7f88320","getLatestPrice()":"8e15f473","getMasterOracle()":"85152e45","getPriceAtRound(uint256)":"394946c7","getPriceFeedAddress()":"0f0f30b2","getPriceHistoryRange(uint256,uint256)":"690dd9a2","initialize(string,string,(uint256,uint256,uint256,uint256,uint256),address)":"2c307e65","isStale()":"1a26f447","owner()":"8da5cb5b","pause()":"8456cb59","paused()":"5c975abb","renounceOwnership()":"715018a6","transferOwnership(address)":"f2fde38b","unpause()":"3f4ba83a","updateConfig((uint256,uint256,uint256,uint256,uint256))":"55517f56","updatePrice(uint256)":"8d6cc56d"},"id":111}