{"abi":[{"type":"constructor","inputs":[{"name":"_protocolFeeReceiver","type":"address","internalType":"address"},{"name":"_auctionContract","type":"address","internalType":"address"},{"name":"_globalPermissionManager","type":"address","internalType":"address"},{"name":"_stakeAmount","type":"uint256","internalType":"uint256"}],"stateMutability":"nonpayable"},{"type":"receive","stateMutability":"payable"},{"type":"function","name":"MAX_FEE","inputs":[],"outputs":[{"name":"","type":"uint256","internalType":"uint256"}],"stateMutability":"view"},{"type":"function","name":"PRESICION","inputs":[],"outputs":[{"name":"","type":"uint256","internalType":"uint256"}],"stateMutability":"view"},{"type":"function","name":"SET_FEE","inputs":[],"outputs":[{"name":"","type":"bytes4","internalType":"bytes4"}],"stateMutability":"view"},{"type":"function","name":"SET_FEE_RECEIVER","inputs":[],"outputs":[{"name":"","type":"bytes4","internalType":"bytes4"}],"stateMutability":"view"},{"type":"function","name":"WITHDRAW_FEE","inputs":[],"outputs":[{"name":"","type":"bytes4","internalType":"bytes4"}],"stateMutability":"view"},{"type":"function","name":"feeOnPurchase","inputs":[{"name":"_cost","type":"uint256","internalType":"uint256"},{"name":"buyer","type":"address","internalType":"address"}],"outputs":[],"stateMutability":"payable"},{"type":"function","name":"globalPermissionManager","inputs":[],"outputs":[{"name":"","type":"address","internalType":"address"}],"stateMutability":"view"},{"type":"function","name":"permissionManagerImplementation","inputs":[],"outputs":[{"name":"","type":"address","internalType":"address"}],"stateMutability":"view"},{"type":"function","name":"setFee","inputs":[{"name":"_fee","type":"uint256","internalType":"uint256"}],"outputs":[],"stateMutability":"nonpayable"},{"type":"function","name":"setFeeReceiver","inputs":[{"name":"_receiver","type":"address","internalType":"address"}],"outputs":[],"stateMutability":"nonpayable"},{"type":"function","name":"stakeAmountRequired","inputs":[],"outputs":[{"name":"","type":"uint256","internalType":"uint256"}],"stateMutability":"view"},{"type":"function","name":"withdrawFee","inputs":[],"outputs":[],"stateMutability":"nonpayable"}],"bytecode":{"object":"0x6080604052346100335761001d610014610146565b92919091610315565b610025610038565b611049610368823961104990f35b61003e565b60405190565b5f80fd5b601f801991011690565b634e487b7160e01b5f52604160045260245ffd5b9061006a90610042565b810190811060018060401b0382111761008257604052565b61004c565b9061009a610093610038565b9283610060565b565b5f80fd5b60018060a01b031690565b6100b4906100a0565b90565b6100c0816100ab565b036100c757565b5f80fd5b905051906100d8826100b7565b565b90565b6100e6816100da565b036100ed57565b5f80fd5b905051906100fe826100dd565b565b60808183031261014157610116825f83016100cb565b9261013e61012784602085016100cb565b9361013581604086016100cb565b936060016100f1565b90565b61009c565b6101646113b18038038061015981610087565b928339810190610100565b90919293565b90565b90565b61018461017f6101899261016a565b61016d565b6100a0565b90565b61019590610170565b90565b60209181520190565b60207f7220616464726573730000000000000000000000000000000000000000000000917f496e76616c696420676c6f62616c207065726d697373696f6e206d616e6167655f8201520152565b6101fb6029604092610198565b610204816101a1565b0190565b61021d9060208101905f8183039101526101ee565b90565b1561022757565b61022f610038565b62461bcd60e51b81528061024560048201610208565b0390fd5b5f1b90565b9061025f60018060a01b0391610249565b9181191691161790565b61027d610278610282926100a0565b61016d565b6100a0565b90565b61028e90610269565b90565b61029a90610285565b90565b90565b906102b56102b06102bc92610291565b61029d565b825461024e565b9055565b906102cc5f1991610249565b9181191691161790565b6102ea6102e56102ef926100da565b61016d565b6100da565b90565b90565b9061030a610305610311926102d6565b6102f2565b82546102c0565b9055565b9061035861035e92610351610365969561034a8161034361033d6103385f61018c565b6100ab565b916100ab565b1415610220565b60066102a0565b60016102a0565b5f6102a0565b60046102f5565b56fe6080604052600436101561001d575b366106635761001b610d56565b005b6100275f356100e6565b806332eb5a87146100e15780634da470b8146100dc5780635668ef1c146100d757806369fe0e2d146100d257806377cf32d1146100cd5780637a8acff1146100c85780639bff5ddb146100c3578063b3ec8cad146100be578063bc063e1a146100b9578063cf07d23c146100b4578063e941fa78146100af5763efdcd9740361000e57610630565b6105df565b6105aa565b61053d565b6104cd565b610489565b61041d565b6103b1565b61031c565b6102d4565b610210565b61017a565b60e01c90565b60405190565b5f80fd5b5f80fd5b5f91031261010457565b6100f6565b63ffffffff60e01b1690565b61011e90610109565b90565b61014a7fefdcd97489e509f66893acede6e7dd75cafe72abb117a0ca5a600044a4b6c962610115565b90565b610155610121565b90565b61016190610109565b9052565b9190610178905f60208501940190610158565b565b346101aa5761018a3660046100fa565b6101a661019561014d565b61019d6100ec565b91829182610165565b0390f35b6100f2565b1c90565b90565b6101c69060086101cb93026101af565b6101b3565b90565b906101d991546101b6565b90565b6101e860045f906101ce565b90565b90565b6101f7906101eb565b9052565b919061020e905f602085019401906101ee565b565b34610240576102203660046100fa565b61023c61022b6101dc565b6102336100ec565b918291826101fb565b0390f35b6100f2565b61024e816101eb565b0361025557565b5f80fd5b9050359061026682610245565b565b60018060a01b031690565b61027c90610268565b90565b61028881610273565b0361028f57565b5f80fd5b905035906102a08261027f565b565b91906040838203126102ca57806102be6102c7925f8601610259565b93602001610293565b90565b6100f6565b5f0190565b6102e86102e23660046102a2565b906108da565b6102f06100ec565b806102fa816102cf565b0390f35b9060208282031261031757610314915f01610259565b90565b6100f6565b3461034a5761033461032f3660046102fe565b610a44565b61033c6100ec565b80610346816102cf565b0390f35b6100f2565b60018060a01b031690565b61036a90600861036f93026101af565b61034f565b90565b9061037d915461035a565b90565b61038c60065f90610372565b90565b61039890610273565b9052565b91906103af905f6020850194019061038f565b565b346103e1576103c13660046100fa565b6103dd6103cc610380565b6103d46100ec565b9182918261039c565b0390f35b6100f2565b61040f7f73fee0907d53a19b7469dee686c9f20361427244176825648cdbfc258a021a56610115565b90565b61041a6103e6565b90565b3461044d5761042d3660046100fa565b610449610438610412565b6104406100ec565b91829182610165565b0390f35b6100f2565b61047b7fe941fa787c9b0c33fd063f3ca95d96dac420ebfbd342afe13fdcdb99e37cbb19610115565b90565b610486610452565b90565b346104b9576104993660046100fa565b6104b56104a461047e565b6104ac6100ec565b91829182610165565b0390f35b6100f2565b6104ca60055f90610372565b90565b346104fd576104dd3660046100fa565b6104f96104e86104be565b6104f06100ec565b9182918261039c565b0390f35b6100f2565b90565b90565b61051c61051761052192610502565b610505565b6101eb565b90565b61052f6103e8610508565b90565b61053a610524565b90565b3461056d5761054d3660046100fa565b610569610558610532565b6105606100ec565b918291826101fb565b0390f35b6100f2565b90565b61058961058461058e92610572565b610505565b6101eb565b90565b61059c612710610575565b90565b6105a7610591565b90565b346105da576105ba3660046100fa565b6105d66105c561059f565b6105cd6100ec565b918291826101fb565b0390f35b6100f2565b3461060d576105ef3660046100fa565b6105f7610b3a565b6105ff6100ec565b80610609816102cf565b0390f35b6100f2565b9060208282031261062b57610628915f01610293565b90565b6100f6565b3461065e57610648610643366004610612565b610cc7565b6106506100ec565b8061065a816102cf565b0390f35b6100f2565b5f80fd5b5f1c90565b61067861067d91610667565b61034f565b90565b61068a905461066c565b90565b60209181520190565b5f7f4665653a20756e617574686f72697a6564000000000000000000000000000000910152565b6106ca601160209261068d565b6106d381610696565b0190565b6106ec9060208101905f8183039101526106bd565b90565b156106f657565b6106fe6100ec565b62461bcd60e51b815280610714600482016106d7565b0390fd5b90610746916107413361073b6107356107305f610680565b610273565b91610273565b146106ef565b61086d565b565b61075461075991610667565b6101b3565b90565b6107669054610748565b90565b60207f6f746f636f6c2066656500000000000000000000000000000000000000000000917f4665653a20496e73756666696369656e74207061796d656e7420666f722070725f8201520152565b6107c3602a60409261068d565b6107cc81610769565b0190565b6107e59060208101905f8183039101526107b6565b90565b156107ef57565b6107f76100ec565b62461bcd60e51b81528061080d600482016107d0565b0390fd5b61082561082061082a92610268565b610505565b610268565b90565b61083690610811565b90565b6108429061082d565b90565b61084e90610811565b90565b61085a90610845565b90565b6108656100ec565b3d5f823e3d90fd5b5f8080936108bc6108b76108948496610886600261075c565b61088e610591565b91610e66565b926108b2346108ab6108a5876101eb565b916101eb565b10156107e8565b610839565b610851565b8282156108d1575bf1156108cc57565b61085d565b506108fc6108c4565b906108e491610718565b565b5f7f4665653a20556e617574686f72697a6564000000000000000000000000000000910152565b61091a601160209261068d565b610923816108e6565b0190565b61093c9060208101905f81830391015261090d565b90565b1561094657565b61094e6100ec565b62461bcd60e51b81528061096460048201610927565b0390fd5b5f7f4665653a204665652065786365656473206d6178696d756d206c696d69740000910152565b61099c601e60209261068d565b6109a581610968565b0190565b6109be9060208101905f81830391015261098f565b90565b156109c857565b6109d06100ec565b62461bcd60e51b8152806109e6600482016109a9565b0390fd5b5f1b90565b906109fb5f19916109ea565b9181191691161790565b610a19610a14610a1e926101eb565b610505565b6101eb565b90565b90565b90610a39610a34610a4092610a05565b610a21565b82546109ef565b9055565b610a9790610a6c610a67610a586006610680565b33610a616103e6565b91610f7f565b61093f565b610a9081610a89610a83610a7e610524565b6101eb565b916101eb565b11156109c1565b6002610a24565b565b90565b610ab0610aab610ab592610a99565b610505565b6101eb565b90565b5f7f4665653a204e6f206665657320746f2077697468647261770000000000000000910152565b610aec601860209261068d565b610af581610ab8565b0190565b610b0e9060208101905f818303910152610adf565b90565b15610b1857565b610b206100ec565b62461bcd60e51b815280610b3660048201610af9565b0390fd5b610b5e610b59610b4a6006610680565b33610b53610452565b91610f7f565b61093f565b5f808080610b6c600361075c565b610b8881610b82610b7c85610a9c565b916101eb565b11610b11565b610b9b610b9483610a9c565b6003610a24565b610bb5610bb0610bab6001610680565b610839565b610851565b828215610bca575bf115610bc557565b61085d565b506108fc610bbd565b610be7610be2610bec92610a99565b610505565b610268565b90565b610bf890610bd3565b90565b5f7f4665653a20496e76616c69642072656365697665722061646472657373000000910152565b610c2f601d60209261068d565b610c3881610bfb565b0190565b610c519060208101905f818303910152610c22565b90565b15610c5b57565b610c636100ec565b62461bcd60e51b815280610c7960048201610c3c565b0390fd5b90610c8e60018060a01b03916109ea565b9181191691161790565b610ca190610845565b90565b90565b90610cbc610cb7610cc392610c98565b610ca4565b8254610c7d565b9055565b610d1b90610cf081610ce9610ce3610cde5f610bef565b610273565b91610273565b1415610c54565b610d14610d0f610d006006610680565b33610d09610121565b91610f7f565b61093f565b6001610ca7565b565b634e487b7160e01b5f52601160045260245ffd5b610d40610d46919392936101eb565b926101eb565b8201809211610d5157565b610d1d565b610d73610d6c34610d67600361075c565b610d31565b6003610a24565b565b5f90565b5f7f4665653a204469766973696f6e206279207a65726f0000000000000000000000910152565b610dad601560209261068d565b610db681610d79565b0190565b610dcf9060208101905f818303910152610da0565b90565b15610dd957565b610de16100ec565b62461bcd60e51b815280610df760048201610dba565b0390fd5b610e0a610e10919392936101eb565b926101eb565b91610e1c8382026101eb565b928184041490151715610e2b57565b610d1d565b634e487b7160e01b5f52601260045260245ffd5b610e50610e56916101eb565b916101eb565b908115610e61570490565b610e30565b610e9e9291610e9991610e77610d75565b50610e9484610e8e610e885f610a9c565b916101eb565b11610dd2565b610dfb565b610e44565b90565b5f90565b610eae90610811565b90565b610eba90610ea5565b90565b610ec690610845565b90565b601f801991011690565b634e487b7160e01b5f52604160045260245ffd5b90610ef190610ec9565b810190811067ffffffffffffffff821117610f0b57604052565b610ed3565b60e01b90565b151590565b610f2481610f16565b03610f2b57565b5f80fd5b90505190610f3c82610f1b565b565b90602082820312610f5757610f54915f01610f2f565b90565b6100f6565b916020610f7d929493610f7660408201965f83019061038f565b0190610158565b565b91610f9d610f9860209394610f92610ea1565b50610eb1565b610ebd565b610fbf63bed98a0d949294610fca610fb36100ec565b96879586948594610f10565b845260048401610f5c565b03915afa90811561100e575f91610fe0575b5090565b611001915060203d8111611007575b610ff98183610ee7565b810190610f3e565b5f610fdc565b503d610fef565b61085d56fea2646970667358221220068b7d14c8655b2ba780e3ab1b5c17c3f73a2d55a0a933481dafaaf1c97634c864736f6c634300081c0033","linkReferences":{}},"methodIdentifiers":{"MAX_FEE()":"bc063e1a","PRESICION()":"cf07d23c","SET_FEE()":"7a8acff1","SET_FEE_RECEIVER()":"32eb5a87","WITHDRAW_FEE()":"9bff5ddb","feeOnPurchase(uint256,address)":"5668ef1c","globalPermissionManager()":"77cf32d1","permissionManagerImplementation()":"b3ec8cad","setFee(uint256)":"69fe0e2d","setFeeReceiver(address)":"efdcd974","stakeAmountRequired()":"4da470b8","withdrawFee()":"e941fa78"},"id":89}