{"abi":[{"type":"constructor","inputs":[{"name":"_oracleMaster","type":"address","internalType":"address"},{"name":"_reputationContract","type":"address","internalType":"address"},{"name":"_carRegistry","type":"address","internalType":"address"},{"name":"_auctionContract","type":"address","internalType":"address"}],"stateMutability":"nonpayable"},{"type":"function","name":"CanMint","inputs":[{"name":"brandName","type":"string","internalType":"string"}],"outputs":[{"name":"","type":"bool","internalType":"bool"}],"stateMutability":"view"},{"type":"function","name":"approve","inputs":[{"name":"to","type":"address","internalType":"address"},{"name":"tokenId","type":"uint256","internalType":"uint256"}],"outputs":[],"stateMutability":"nonpayable"},{"type":"function","name":"balanceOf","inputs":[{"name":"owner","type":"address","internalType":"address"}],"outputs":[{"name":"","type":"uint256","internalType":"uint256"}],"stateMutability":"view"},{"type":"function","name":"batchTransfer","inputs":[{"name":"from","type":"address","internalType":"address"},{"name":"to","type":"address","internalType":"address"},{"name":"tokenIds","type":"uint256[]","internalType":"uint256[]"}],"outputs":[],"stateMutability":"nonpayable"},{"type":"function","name":"canTransfer","inputs":[{"name":"tokenId","type":"uint256","internalType":"uint256"}],"outputs":[{"name":"","type":"bool","internalType":"bool"}],"stateMutability":"view"},{"type":"function","name":"getActiveBrands","inputs":[],"outputs":[{"name":"","type":"string[]","internalType":"string[]"}],"stateMutability":"view"},{"type":"function","name":"getAllRegisteredBrands","inputs":[],"outputs":[{"name":"","type":"string[]","internalType":"string[]"}],"stateMutability":"view"},{"type":"function","name":"getApproved","inputs":[{"name":"tokenId","type":"uint256","internalType":"uint256"}],"outputs":[{"name":"","type":"address","internalType":"address"}],"stateMutability":"view"},{"type":"function","name":"getBrandTokens","inputs":[{"name":"brandName","type":"string","internalType":"string"}],"outputs":[{"name":"","type":"uint256[]","internalType":"uint256[]"}],"stateMutability":"view"},{"type":"function","name":"getCurrentTokenId","inputs":[],"outputs":[{"name":"","type":"uint256","internalType":"uint256"}],"stateMutability":"view"},{"type":"function","name":"getLastTransferTime","inputs":[{"name":"tokenId","type":"uint256","internalType":"uint256"}],"outputs":[{"name":"","type":"uint256","internalType":"uint256"}],"stateMutability":"view"},{"type":"function","name":"getNFTMetadata","inputs":[{"name":"tokenId","type":"uint256","internalType":"uint256"}],"outputs":[{"name":"","type":"tuple","internalType":"struct ZeroNFT.NFTMetadata","components":[{"name":"brandName","type":"string","internalType":"string"},{"name":"carModel","type":"string","internalType":"string"},{"name":"vin","type":"string","internalType":"string"},{"name":"year","type":"uint256","internalType":"uint256"},{"name":"color","type":"string","internalType":"string"},{"name":"mileage","type":"uint256","internalType":"uint256"},{"name":"description","type":"string","internalType":"string"},{"name":"imageURI","type":"string","internalType":"string"},{"name":"mintTimestamp","type":"uint256","internalType":"uint256"},{"name":"isVerified","type":"bool","internalType":"bool"}]}],"stateMutability":"view"},{"type":"function","name":"getTokenBrand","inputs":[{"name":"tokenId","type":"uint256","internalType":"uint256"}],"outputs":[{"name":"","type":"string","internalType":"string"}],"stateMutability":"view"},{"type":"function","name":"hasNFTs","inputs":[{"name":"owner","type":"address","internalType":"address"}],"outputs":[{"name":"","type":"bool","internalType":"bool"}],"stateMutability":"view"},{"type":"function","name":"isApprovedForAll","inputs":[{"name":"owner","type":"address","internalType":"address"},{"name":"operator","type":"address","internalType":"address"}],"outputs":[{"name":"","type":"bool","internalType":"bool"}],"stateMutability":"view"},{"type":"function","name":"isBrandActive","inputs":[{"name":"brandName","type":"string","internalType":"string"}],"outputs":[{"name":"","type":"bool","internalType":"bool"}],"stateMutability":"view"},{"type":"function","name":"isBrandRegisteredAndActive","inputs":[{"name":"brandName","type":"string","internalType":"string"}],"outputs":[{"name":"","type":"bool","internalType":"bool"}],"stateMutability":"view"},{"type":"function","name":"isTokenLocked","inputs":[{"name":"tokenId","type":"uint256","internalType":"uint256"}],"outputs":[{"name":"","type":"bool","internalType":"bool"}],"stateMutability":"view"},{"type":"function","name":"mint","inputs":[{"name":"to","type":"address","internalType":"address"},{"name":"brandName","type":"string","internalType":"string"},{"name":"metadata","type":"tuple","internalType":"struct ZeroNFT.NFTMetadata","components":[{"name":"brandName","type":"string","internalType":"string"},{"name":"carModel","type":"string","internalType":"string"},{"name":"vin","type":"string","internalType":"string"},{"name":"year","type":"uint256","internalType":"uint256"},{"name":"color","type":"string","internalType":"string"},{"name":"mileage","type":"uint256","internalType":"uint256"},{"name":"description","type":"string","internalType":"string"},{"name":"imageURI","type":"string","internalType":"string"},{"name":"mintTimestamp","type":"uint256","internalType":"uint256"},{"name":"isVerified","type":"bool","internalType":"bool"}]},{"name":"tokenUri_","type":"string","internalType":"string"}],"outputs":[{"name":"","type":"uint256","internalType":"uint256"}],"stateMutability":"nonpayable"},{"type":"function","name":"mintBatch","inputs":[{"name":"to","type":"address","internalType":"address"},{"name":"brandName","type":"string","internalType":"string"},{"name":"metadatas","type":"tuple[]","internalType":"struct ZeroNFT.NFTMetadata[]","components":[{"name":"brandName","type":"string","internalType":"string"},{"name":"carModel","type":"string","internalType":"string"},{"name":"vin","type":"string","internalType":"string"},{"name":"year","type":"uint256","internalType":"uint256"},{"name":"color","type":"string","internalType":"string"},{"name":"mileage","type":"uint256","internalType":"uint256"},{"name":"description","type":"string","internalType":"string"},{"name":"imageURI","type":"string","internalType":"string"},{"name":"mintTimestamp","type":"uint256","internalType":"uint256"},{"name":"isVerified","type":"bool","internalType":"bool"}]},{"name":"tokenURIs","type":"string[]","internalType":"string[]"}],"outputs":[{"name":"","type":"uint256[]","internalType":"uint256[]"}],"stateMutability":"nonpayable"},{"type":"function","name":"name","inputs":[],"outputs":[{"name":"","type":"string","internalType":"string"}],"stateMutability":"view"},{"type":"function","name":"oracleMaster","inputs":[],"outputs":[{"name":"","type":"address","internalType":"address"}],"stateMutability":"view"},{"type":"function","name":"owner","inputs":[],"outputs":[{"name":"","type":"address","internalType":"address"}],"stateMutability":"view"},{"type":"function","name":"ownerOf","inputs":[{"name":"tokenId","type":"uint256","internalType":"uint256"}],"outputs":[{"name":"","type":"address","internalType":"address"}],"stateMutability":"view"},{"type":"function","name":"renounceOwnership","inputs":[],"outputs":[],"stateMutability":"nonpayable"},{"type":"function","name":"reputationContract","inputs":[],"outputs":[{"name":"","type":"address","internalType":"address"}],"stateMutability":"view"},{"type":"function","name":"safeBatchTransfer","inputs":[{"name":"from","type":"address","internalType":"address"},{"name":"to","type":"address","internalType":"address"},{"name":"tokenIds","type":"uint256[]","internalType":"uint256[]"},{"name":"data","type":"bytes","internalType":"bytes"}],"outputs":[],"stateMutability":"nonpayable"},{"type":"function","name":"safeTransferFrom","inputs":[{"name":"from","type":"address","internalType":"address"},{"name":"to","type":"address","internalType":"address"},{"name":"tokenId","type":"uint256","internalType":"uint256"}],"outputs":[],"stateMutability":"nonpayable"},{"type":"function","name":"safeTransferFrom","inputs":[{"name":"from","type":"address","internalType":"address"},{"name":"to","type":"address","internalType":"address"},{"name":"tokenId","type":"uint256","internalType":"uint256"},{"name":"data","type":"bytes","internalType":"bytes"}],"outputs":[],"stateMutability":"nonpayable"},{"type":"function","name":"setApprovalForAll","inputs":[{"name":"operator","type":"address","internalType":"address"},{"name":"approved","type":"bool","internalType":"bool"}],"outputs":[],"stateMutability":"nonpayable"},{"type":"function","name":"setAuctionContract","inputs":[{"name":"_auctionContract","type":"address","internalType":"address"}],"outputs":[],"stateMutability":"nonpayable"},{"type":"function","name":"setBaseURI","inputs":[{"name":"newBaseURI","type":"string","internalType":"string"}],"outputs":[],"stateMutability":"nonpayable"},{"type":"function","name":"setTokenLock","inputs":[{"name":"tokenId","type":"uint256","internalType":"uint256"},{"name":"locked","type":"bool","internalType":"bool"}],"outputs":[],"stateMutability":"nonpayable"},{"type":"function","name":"supportsInterface","inputs":[{"name":"interfaceId","type":"bytes4","internalType":"bytes4"}],"outputs":[{"name":"","type":"bool","internalType":"bool"}],"stateMutability":"view"},{"type":"function","name":"symbol","inputs":[],"outputs":[{"name":"","type":"string","internalType":"string"}],"stateMutability":"view"},{"type":"function","name":"tokenURI","inputs":[{"name":"tokenId","type":"uint256","internalType":"uint256"}],"outputs":[{"name":"","type":"string","internalType":"string"}],"stateMutability":"view"},{"type":"function","name":"totalSupply","inputs":[],"outputs":[{"name":"","type":"uint256","internalType":"uint256"}],"stateMutability":"view"},{"type":"function","name":"transferCooldown","inputs":[],"outputs":[{"name":"","type":"uint256","internalType":"uint256"}],"stateMutability":"view"},{"type":"function","name":"transferFee","inputs":[],"outputs":[{"name":"","type":"uint256","internalType":"uint256"}],"stateMutability":"view"},{"type":"function","name":"transferFrom","inputs":[{"name":"from","type":"address","internalType":"address"},{"name":"to","type":"address","internalType":"address"},{"name":"tokenId","type":"uint256","internalType":"uint256"}],"outputs":[],"stateMutability":"nonpayable"},{"type":"function","name":"transferOwnership","inputs":[{"name":"newOwner","type":"address","internalType":"address"}],"outputs":[],"stateMutability":"nonpayable"},{"type":"function","name":"transferZero","inputs":[{"name":"from","type":"address","internalType":"address"},{"name":"to","type":"address","internalType":"address"},{"name":"tokenId","type":"uint256","internalType":"uint256"}],"outputs":[],"stateMutability":"payable"},{"type":"function","name":"updateProtocolAddresses","inputs":[{"name":"_oracleMaster","type":"address","internalType":"address"},{"name":"_reputationContract","type":"address","internalType":"address"},{"name":"_carRegistry","type":"address","internalType":"address"}],"outputs":[],"stateMutability":"nonpayable"},{"type":"function","name":"verifyNFT","inputs":[{"name":"tokenId","type":"uint256","internalType":"uint256"},{"name":"verified","type":"bool","internalType":"bool"}],"outputs":[],"stateMutability":"nonpayable"},{"type":"event","name":"Approval","inputs":[{"name":"owner","type":"address","indexed":true,"internalType":"address"},{"name":"approved","type":"address","indexed":true,"internalType":"address"},{"name":"tokenId","type":"uint256","indexed":true,"internalType":"uint256"}],"anonymous":false},{"type":"event","name":"ApprovalForAll","inputs":[{"name":"owner","type":"address","indexed":true,"internalType":"address"},{"name":"operator","type":"address","indexed":true,"internalType":"address"},{"name":"approved","type":"bool","indexed":false,"internalType":"bool"}],"anonymous":false},{"type":"event","name":"BaseURIUpdated","inputs":[{"name":"newBaseURI","type":"string","indexed":false,"internalType":"string"}],"anonymous":false},{"type":"event","name":"BatchTransfer","inputs":[{"name":"from","type":"address","indexed":true,"internalType":"address"},{"name":"to","type":"address","indexed":true,"internalType":"address"},{"name":"tokenIds","type":"uint256[]","indexed":false,"internalType":"uint256[]"}],"anonymous":false},{"type":"event","name":"BrandNFTMinted","inputs":[{"name":"brandName","type":"string","indexed":true,"internalType":"string"},{"name":"tokenId","type":"uint256","indexed":true,"internalType":"uint256"},{"name":"brandOwner","type":"address","indexed":true,"internalType":"address"}],"anonymous":false},{"type":"event","name":"NFTMinted","inputs":[{"name":"to","type":"address","indexed":true,"internalType":"address"},{"name":"tokenId","type":"uint256","indexed":true,"internalType":"uint256"},{"name":"brandName","type":"string","indexed":false,"internalType":"string"},{"name":"tokenURI","type":"string","indexed":false,"internalType":"string"}],"anonymous":false},{"type":"event","name":"NFTVerified","inputs":[{"name":"tokenId","type":"uint256","indexed":true,"internalType":"uint256"},{"name":"verified","type":"bool","indexed":false,"internalType":"bool"}],"anonymous":false},{"type":"event","name":"OwnershipTransferred","inputs":[{"name":"previousOwner","type":"address","indexed":true,"internalType":"address"},{"name":"newOwner","type":"address","indexed":true,"internalType":"address"}],"anonymous":false},{"type":"event","name":"TokenLocked","inputs":[{"name":"tokenId","type":"uint256","indexed":true,"internalType":"uint256"},{"name":"locked","type":"bool","indexed":false,"internalType":"bool"}],"anonymous":false},{"type":"event","name":"Transfer","inputs":[{"name":"from","type":"address","indexed":true,"internalType":"address"},{"name":"to","type":"address","indexed":true,"internalType":"address"},{"name":"tokenId","type":"uint256","indexed":true,"internalType":"uint256"}],"anonymous":false},{"type":"event","name":"TransferCooldownUpdated","inputs":[{"name":"newCooldown","type":"uint256","indexed":false,"internalType":"uint256"}],"anonymous":false},{"type":"event","name":"TransferFeeCollected","inputs":[{"name":"tokenId","type":"uint256","indexed":true,"internalType":"uint256"},{"name":"feeAmount","type":"uint256","indexed":false,"internalType":"uint256"}],"anonymous":false},{"type":"event","name":"TransferFeeUpdated","inputs":[{"name":"newFee","type":"uint256","indexed":false,"internalType":"uint256"}],"anonymous":false},{"type":"error","name":"ZeroNFT__cannot_burn","inputs":[]}],"bytecode":{"object":"0x6080604052346100335761001d610014610120565b929190916106e3565b610025610038565b615dca610a6e8239615dca90f35b61003e565b60405190565b5f80fd5b601f801991011690565b634e487b7160e01b5f52604160045260245ffd5b9061006a90610042565b810190811060018060401b0382111761008257604052565b61004c565b9061009a610093610038565b9283610060565b565b5f80fd5b60018060a01b031690565b6100b4906100a0565b90565b6100c0816100ab565b036100c757565b5f80fd5b905051906100d8826100b7565b565b60808183031261011b576100f0825f83016100cb565b9261011861010184602085016100cb565b9361010f81604086016100cb565b936060016100cb565b90565b61009c565b61013e6168388038038061013381610087565b9283398101906100da565b90919293565b60018060401b0381116101605761015c602091610042565b0190565b61004c565b9061017761017283610144565b610087565b918252565b5f7f5a65726f00000000000000000000000000000000000000000000000000000000910152565b6101ad6004610165565b906101ba6020830161017c565b565b6101c46101a3565b90565b5f7f5a45524f00000000000000000000000000000000000000000000000000000000910152565b6101f86004610165565b90610205602083016101c7565b565b61020f6101ee565b90565b5f1b90565b906102235f1991610212565b9181191691161790565b90565b90565b90565b61024a61024561024f9261022d565b610233565b610230565b90565b90565b9061026a61026561027192610236565b610252565b8254610217565b9055565b61028961028461028e9261022d565b610233565b6100a0565b90565b61029a90610275565b90565b60209181520190565b60207f207a65726f206164647265737300000000000000000000000000000000000000917f5a65726f4e46543a204f7261636c65206d61737465722063616e6e6f742062655f8201520152565b610300602d60409261029d565b610309816102a6565b0190565b6103229060208101905f8183039101526102f3565b90565b1561032c57565b610334610038565b62461bcd60e51b81528061034a6004820161030d565b0390fd5b60207f6e6f74206265207a65726f206164647265737300000000000000000000000000917f5a65726f4e46543a2052657075746174696f6e20636f6e74726163742063616e5f8201520152565b6103a8603360409261029d565b6103b18161034e565b0190565b6103ca9060208101905f81830391015261039b565b90565b156103d457565b6103dc610038565b62461bcd60e51b8152806103f2600482016103b5565b0390fd5b60207f7a65726f20616464726573730000000000000000000000000000000000000000917f5a65726f4e46543a204361722072656769737472792063616e6e6f74206265205f8201520152565b610450602c60409261029d565b610459816103f6565b0190565b6104729060208101905f818303910152610443565b90565b1561047c57565b610484610038565b62461bcd60e51b81528061049a6004820161045d565b0390fd5b906104af60018060a01b0391610212565b9181191691161790565b6104cd6104c86104d2926100a0565b610233565b6100a0565b90565b6104de906104b9565b90565b6104ea906104d5565b90565b90565b9061050561050061050c926104e1565b6104ed565b825461049e565b9055565b610519906104b9565b90565b61052590610510565b90565b61053190610510565b90565b90565b9061054c61054761055392610528565b610534565b825461049e565b9055565b634e487b7160e01b5f52602260045260245ffd5b906001600283049216801561058b575b602083101461058657565b610557565b91607f169161057b565b5f5260205f2090565b601f602091010490565b1b90565b919060086105c79102916105c15f19846105a8565b926105a8565b9181191691161790565b6105e56105e06105ea92610230565b610233565b610230565b90565b91906106036105fe61060b936105d1565b610252565b9083546105ac565b9055565b5f90565b6106259161061f61060f565b916105ed565b565b5b818110610633575050565b806106405f600193610613565b01610628565b9190601f8111610656575b505050565b61066261068793610595565b90602061066e8461059e565b8301931061068f575b6106809061059e565b0190610627565b5f8080610651565b915061068081929050610677565b6106b15f6106ab835461056b565b83610646565b5f80019055565b6106c19061069d565b565b906106d86106d36106df926105d1565b610252565b8254610217565b9055565b6107ae92916107a26107a99261079b6107b59761070f6107016101bc565b610709610207565b90610800565b61071a5f600b610255565b6107255f600d610255565b61074a8361074361073d6107385f610291565b6100ab565b916100ab565b1415610325565b61076f8561076861076261075d5f610291565b6100ab565b916100ab565b14156103cd565b6107948761078d6107876107825f610291565b6100ab565b916100ab565b1415610475565b60156104f0565b600e6104f0565b600f6104f0565b61051c565b6009610537565b6107bf600c6106b8565b6107d26107cb5f610236565b600a6106c3565b565b90565b6107eb6107e66107f0926107d4565b610233565b610230565b90565b6107fd60016107d7565b90565b9061080a9161081e565b61081c6108156107f3565b60086106c3565b565b906108289161083a565b6108386108336109c9565b610a0c565b565b90610844916109ae565b565b5190565b5f5260205f2090565b9190601f8111610863575b505050565b61086f6108949361084a565b90602061087b8461059e565b8301931061089c575b61088d9061059e565b0190610627565b5f808061085e565b915061088d81929050610884565b1c90565b906108be905f19906008026108aa565b191690565b816108cd916108ae565b906002021790565b906108df81610846565b9060018060401b03821161099d57610901826108fb855461056b565b85610853565b602090601f831160011461093557918091610924935f92610929575b50506108c3565b90555b565b90915001515f8061091d565b601f198316916109448561084a565b925f5b8181106109855750916002939185600196941061096b575b50505002019055610927565b61097b910151601f8416906108ae565b90555f808061095f565b91936020600181928787015181550195019201610947565b61004c565b906109ac916108d5565b565b906109bc6109c3925f6109a2565b60016109a2565b565b5f90565b6109d16109c5565b503390565b5f1c90565b60018060a01b031690565b6109f26109f7916109d6565b6109db565b90565b610a0490546109e6565b90565b5f0190565b610a1660076109fa565b610a218260076104f0565b90610a55610a4f7f8be0079c531659141344cd1fd0a4f28419497f9722a3daafe3b4186f6b6457e0936104e1565b916104e1565b91610a5e610038565b80610a6881610a07565b0390a356fe60806040526004361015610013575b61196d565b61001d5f356102dc565b806301ffc9a7146102d7578063023924c7146102d257806306fdde03146102cd578063081812fc146102c8578063095ea7b3146102c357806318160ddd146102be578063216fae2a146102b957806323b872dd146102b4578063276a28a3146102af5780632f3e2e28146102aa578063321f62be146102a55780633593cebc146102a057806340f647f11461029b57806342842e0e146102965780634d4f6ea9146102915780634e542d9e1461028c57806352ee22401461028757806355f804b314610282578063561892361461027d5780635a3993f11461027857806362066052146102735780636352211e1461026e57806368f16293146102695780636be9a6f11461026457806370a082311461025f578063715018a61461025a57806379a7304c1461025557806381eebadb1461025057806387bc14251461024b5780638da5cb5b1461024657806395d89b41146102415780639a260fec1461023c578063a22cb46514610237578063acb2ad6f14610232578063b22408ea1461022d578063b88d4fde14610228578063c87b56dd14610223578063e68f3bd81461021e578063e853161f14610219578063e985e9c514610214578063f22adacd1461020f578063f254ceb31461020a578063f2fde38b146102055763f35c39e90361000e57611938565b611905565b6118d0565b61189c565b61182c565b6117c6565b6115a3565b61156e565b611537565b6114a3565b61146e565b61142b565b6113ca565b611368565b611333565b6112fe565b6112b8565b611190565b61115d565b611128565b6110f3565b610fc9565b610f5c565b610f27565b610ef2565b610ebd565b610e8a565b610e55565b610d4c565b610cd3565b610c9f565b610c75565b610c41565b610b1c565b6107e6565b6107b1565b61077d565b61070e565b6105fa565b6105a4565b610542565b6104a7565b6103fa565b610368565b60e01c90565b60405190565b5f80fd5b5f80fd5b5f80fd5b63ffffffff60e01b1690565b610309816102f4565b0361031057565b5f80fd5b9050359061032182610300565b565b9060208282031261033c57610339915f01610314565b90565b6102ec565b151590565b61034f90610341565b9052565b9190610366905f60208501940190610346565b565b346103985761039461038361037e366004610323565b611975565b61038b6102e2565b91829182610353565b0390f35b6102e8565b60018060a01b031690565b6103b19061039d565b90565b6103bd816103a8565b036103c457565b5f80fd5b905035906103d5826103b4565b565b906020828203126103f0576103ed915f016103c8565b90565b6102ec565b5f0190565b346104285761041261040d3660046103d7565b611b1c565b61041a6102e2565b80610424816103f5565b0390f35b6102e8565b5f91031261043757565b6102ec565b5190565b60209181520190565b90825f9392825e0152565b601f801991011690565b61047d61048660209361048b936104748161043c565b93848093610440565b95869101610449565b610454565b0190565b6104a49160208201915f81840391015261045e565b90565b346104d7576104b736600461042d565b6104d36104c2611c3a565b6104ca6102e2565b9182918261048f565b0390f35b6102e8565b90565b6104e8816104dc565b036104ef57565b5f80fd5b90503590610500826104df565b565b9060208282031261051b57610518915f016104f3565b90565b6102ec565b610529906103a8565b9052565b9190610540905f60208501940190610520565b565b346105725761056e61055d610558366004610502565b611cab565b6105656102e2565b9182918261052d565b0390f35b6102e8565b919060408382031261059f578061059361059c925f86016103c8565b936020016104f3565b90565b6102ec565b346105d3576105bd6105b7366004610577565b90611e23565b6105c56102e2565b806105cf816103f5565b0390f35b6102e8565b6105e1906104dc565b9052565b91906105f8905f602085019401906105d8565b565b3461062a5761060a36600461042d565b610626610615611ebf565b61061d6102e2565b918291826105e5565b0390f35b6102e8565b5190565b60209181520190565b60200190565b60209181520190565b61066a610673602093610678936106618161043c565b93848093610642565b95869101610449565b610454565b0190565b906106869161064b565b90565b60200190565b906106a361069c8361062f565b8092610633565b90816106b46020830284019461063c565b925f915b8383106106c757505050505090565b909192939460206106e96106e38385600195038752895161067c565b97610689565b93019301919392906106b8565b61070b9160208201915f81840391015261068f565b90565b3461073e5761071e36600461042d565b61073a6107296120b7565b6107316102e2565b918291826106f6565b0390f35b6102e8565b90916060828403126107785761077561075e845f85016103c8565b9361076c81602086016103c8565b936040016104f3565b90565b6102ec565b346107ac57610796610790366004610743565b9161236d565b61079e6102e2565b806107a8816103f5565b0390f35b6102e8565b346107e1576107dd6107cc6107c7366004610502565b61237a565b6107d46102e2565b91829182610353565b0390f35b6102e8565b34610816576107f636600461042d565b610812610801612399565b6108096102e2565b918291826106f6565b0390f35b6102e8565b5f80fd5b5f80fd5b634e487b7160e01b5f52604160045260245ffd5b9061084190610454565b810190811067ffffffffffffffff82111761085b57604052565b610823565b9061087361086c6102e2565b9283610837565b565b67ffffffffffffffff81116108935761088f602091610454565b0190565b610823565b90825f939282370152565b909291926108b86108b382610875565b610860565b938185526020850190828401116108d4576108d292610898565b565b61081f565b9080601f830112156108f7578160206108f4933591016108a3565b90565b61081b565b5f80fd5b5f80fd5b61090d81610341565b0361091457565b5f80fd5b9050359061092582610904565b565b91909161014081840312610a8857610940610140610860565b925f82013567ffffffffffffffff8111610a8357816109609184016108d9565b5f850152602082013567ffffffffffffffff8111610a7e57816109849184016108d9565b6020850152604082013567ffffffffffffffff8111610a7957816109a99184016108d9565b60408501526109bb81606084016104f3565b6060850152608082013567ffffffffffffffff8111610a7457816109e09184016108d9565b60808501526109f28160a084016104f3565b60a085015260c082013567ffffffffffffffff8111610a6f5781610a179184016108d9565b60c085015260e08201359167ffffffffffffffff8311610a6a57610a4082610a629483016108d9565b60e0860152610a538261010083016104f3565b61010086015261012001610918565b610120830152565b610900565b610900565b610900565b610900565b610900565b610900565b6108fc565b90608082820312610b1757610aa4815f84016103c8565b92602083013567ffffffffffffffff8111610b125782610ac59185016108d9565b92604081013567ffffffffffffffff8111610b0d5783610ae6918301610927565b92606082013567ffffffffffffffff8111610b0857610b0592016108d9565b90565b6102f0565b6102f0565b6102f0565b6102ec565b34610b5057610b4c610b3b610b32366004610a8d565b92919091612c76565b610b436102e2565b918291826105e5565b0390f35b6102e8565b67ffffffffffffffff8111610b6d5760208091020190565b610823565b5f80fd5b90929192610b8b610b8682610b55565b610860565b9381855260208086019202830192818411610bc857915b838310610baf5750505050565b60208091610bbd84866104f3565b815201920191610ba2565b610b72565b9080601f83011215610beb57816020610be893359101610b76565b90565b61081b565b91606083830312610c3c57610c07825f85016103c8565b92610c1583602083016103c8565b92604082013567ffffffffffffffff8111610c3757610c349201610bcd565b90565b6102f0565b6102ec565b34610c7057610c5a610c54366004610bf0565b91613145565b610c626102e2565b80610c6c816103f5565b0390f35b6102e8565b610c89610c83366004610743565b916131fd565b610c916102e2565b80610c9b816103f5565b0390f35b34610cce57610cb8610cb2366004610743565b91613395565b610cc06102e2565b80610cca816103f5565b0390f35b6102e8565b34610d0357610cff610cee610ce9366004610502565b6133a2565b610cf66102e2565b91829182610353565b0390f35b6102e8565b1c90565b60018060a01b031690565b610d27906008610d2c9302610d08565b610d0c565b90565b90610d3a9154610d17565b90565b610d49600e5f90610d2f565b90565b34610d7c57610d5c36600461042d565b610d78610d67610d3d565b610d6f6102e2565b9182918261052d565b0390f35b6102e8565b90602082820312610db1575f82013567ffffffffffffffff8111610dac57610da992016108d9565b90565b6102f0565b6102ec565b5190565b60209181520190565b60200190565b610dd2906104dc565b9052565b90610de381602093610dc9565b0190565b60200190565b90610e0a610e04610dfd84610db6565b8093610dba565b92610dc3565b905f5b818110610e1a5750505090565b909192610e33610e2d6001928651610dd6565b94610de7565b9101919091610e0d565b610e529160208201915f818403910152610ded565b90565b34610e8557610e81610e70610e6b366004610d81565b6134e9565b610e786102e2565b91829182610e3d565b0390f35b6102e8565b34610eb857610ea2610e9d366004610d81565b613561565b610eaa6102e2565b80610eb4816103f5565b0390f35b6102e8565b34610eed57610ecd36600461042d565b610ee9610ed861356c565b610ee06102e2565b918291826105e5565b0390f35b6102e8565b34610f2257610f1e610f0d610f08366004610d81565b6135e7565b610f156102e2565b91829182610353565b0390f35b6102e8565b34610f5757610f53610f42610f3d366004610d81565b613678565b610f4a6102e2565b91829182610353565b0390f35b6102e8565b34610f8c57610f88610f77610f72366004610502565b613727565b610f7f6102e2565b9182918261052d565b0390f35b6102e8565b90565b610fa4906008610fa99302610d08565b610f91565b90565b90610fb79154610f94565b90565b610fc6600d5f90610fac565b90565b34610ff957610fd936600461042d565b610ff5610fe4610fba565b610fec6102e2565b918291826105e5565b0390f35b6102e8565b61100790610341565b9052565b906110d890610120806110b96110a761108361105f61104d61103b61014089015f8c01518a82035f8c015261064b565b60208b015189820360208b015261064b565b60408a015188820360408a015261064b565b61107160608a01516060890190610dc9565b6080890151878203608089015261064b565b61109560a089015160a0880190610dc9565b60c088015186820360c088015261064b565b60e087015185820360e087015261064b565b946110ce610100820151610100860190610dc9565b0151910190610ffe565b90565b6110f09160208201915f81840391015261100b565b90565b346111235761111f61110e611109366004610502565b6139b0565b6111166102e2565b918291826110db565b0390f35b6102e8565b346111585761115461114361113e3660046103d7565b613a9e565b61114b6102e2565b918291826105e5565b0390f35b6102e8565b3461118b5761116d36600461042d565b611175613b07565b61117d6102e2565b80611187816103f5565b0390f35b6102e8565b346111c0576111bc6111ab6111a6366004610502565b613b11565b6111b36102e2565b9182918261048f565b0390f35b6102e8565b67ffffffffffffffff81116111e3576111df602091610454565b0190565b610823565b909291926111fd6111f8826111c5565b610860565b938185526020850190828401116112195761121792610898565b565b61081f565b9080601f8301121561123c57816020611239933591016111e8565b90565b61081b565b906080828203126112b357611258815f84016103c8565b9261126682602085016103c8565b92604081013567ffffffffffffffff81116112ae5783611287918301610bcd565b92606082013567ffffffffffffffff81116112a9576112a6920161121e565b90565b6102f0565b6102f0565b6102ec565b346112ea576112d46112cb366004611241565b92919091613d37565b6112dc6102e2565b806112e6816103f5565b0390f35b6102e8565b6112fb600f5f90610d2f565b90565b3461132e5761130e36600461042d565b61132a6113196112ef565b6113216102e2565b9182918261052d565b0390f35b6102e8565b346113635761134336600461042d565b61135f61134e613d45565b6113566102e2565b9182918261052d565b0390f35b6102e8565b346113985761137836600461042d565b611394611383613d5b565b61138b6102e2565b9182918261048f565b0390f35b6102e8565b91906040838203126113c557806113b96113c2925f86016104f3565b93602001610918565b90565b6102ec565b346113f9576113e36113dd36600461139d565b90613d71565b6113eb6102e2565b806113f5816103f5565b0390f35b6102e8565b9190604083820312611426578061141a611423925f86016103c8565b93602001610918565b90565b6102ec565b3461145a5761144461143e3660046113fe565b90613dde565b61144c6102e2565b80611456816103f5565b0390f35b6102e8565b61146b600b5f90610fac565b90565b3461149e5761147e36600461042d565b61149a61148961145f565b6114916102e2565b918291826105e5565b0390f35b6102e8565b346114d3576114cf6114be6114b9366004610d81565b613df4565b6114c66102e2565b91829182610353565b0390f35b6102e8565b90608082820312611532576114ef815f84016103c8565b926114fd82602085016103c8565b9261150b83604083016104f3565b92606082013567ffffffffffffffff811161152d5761152a920161121e565b90565b6102f0565b6102ec565b346115695761155361154a3660046114d8565b92919091613f1b565b61155b6102e2565b80611565816103f5565b0390f35b6102e8565b3461159e5761159a611589611584366004610502565b613f29565b6115916102e2565b9182918261048f565b0390f35b6102e8565b346115d2576115bc6115b636600461139d565b90613fbc565b6115c46102e2565b806115ce816103f5565b0390f35b6102e8565b67ffffffffffffffff81116115ef5760208091020190565b610823565b929190611608611603826115d7565b610860565b938185526020808601920281019183831161165f5781905b83821061162e575050505050565b813567ffffffffffffffff811161165a5760209161164f8784938701610927565b815201910190611620565b61081b565b610b72565b9080601f830112156116825781602061167f933591016115f4565b90565b61081b565b67ffffffffffffffff811161169f5760208091020190565b610823565b9291906116b86116b382611687565b610860565b938185526020808601920281019183831161170f5781905b8382106116de575050505050565b813567ffffffffffffffff811161170a576020916116ff87849387016108d9565b8152019101906116d0565b61081b565b610b72565b9080601f830112156117325781602061172f933591016116a4565b90565b61081b565b906080828203126117c15761174e815f84016103c8565b92602083013567ffffffffffffffff81116117bc578261176f9185016108d9565b92604081013567ffffffffffffffff81116117b75783611790918301611664565b92606082013567ffffffffffffffff81116117b2576117af9201611714565b90565b6102f0565b6102f0565b6102f0565b6102ec565b346117fa576117f66117e56117dc366004611737565b92919091614481565b6117ed6102e2565b91829182610e3d565b0390f35b6102e8565b9190604083820312611827578061181b611824925f86016103c8565b936020016103c8565b90565b6102ec565b3461185d576118596118486118423660046117ff565b906144c4565b6118506102e2565b91829182610353565b0390f35b6102e8565b90916060828403126118975761189461187d845f85016103c8565b9361188b81602086016103c8565b936040016103c8565b90565b6102ec565b346118cb576118b56118af366004611862565b916145eb565b6118bd6102e2565b806118c7816103f5565b0390f35b6102e8565b34611900576118fc6118eb6118e6366004610502565b6145f8565b6118f36102e2565b918291826105e5565b0390f35b6102e8565b346119335761191d6119183660046103d7565b614702565b6119256102e2565b8061192f816103f5565b0390f35b6102e8565b346119685761196461195361194e3660046103d7565b61470d565b61195b6102e2565b91829182610353565b0390f35b6102e8565b5f80fd5b5f90565b61198790611981611971565b50614735565b90565b61199b9061199661481e565b611aea565b565b90565b90565b6119b76119b26119bc9261199d565b6119a0565b61039d565b90565b6119c8906119a3565b90565b60207f206265207a65726f206164647265737300000000000000000000000000000000917f5a65726f4e46543a2061756374696f6e20636f6e74726163742063616e6e6f745f8201520152565b611a256030604092610440565b611a2e816119cb565b0190565b611a479060208101905f818303910152611a18565b90565b15611a5157565b611a596102e2565b62461bcd60e51b815280611a6f60048201611a32565b0390fd5b5f1b90565b90611a8960018060a01b0391611a73565b9181191691161790565b611aa7611aa2611aac9261039d565b6119a0565b61039d565b90565b611ab890611a93565b90565b611ac490611aaf565b90565b90565b90611adf611ada611ae692611abb565b611ac7565b8254611a78565b9055565b611b1a90611b1381611b0c611b06611b015f6119bf565b6103a8565b916103a8565b1415611a4a565b6015611aca565b565b611b259061198a565b565b606090565b634e487b7160e01b5f52602260045260245ffd5b9060016002830492168015611b60575b6020831014611b5b57565b611b2c565b91607f1691611b50565b5f5260205f2090565b905f9291805490611b8d611b8683611b40565b8094610642565b916001811690815f14611be45750600114611ba8575b505050565b611bb59192939450611b6a565b915f925b818410611bcc57505001905f8080611ba3565b60018160209295939554848601520191019290611bb9565b92949550505060ff19168252151560200201905f8080611ba3565b90611c0991611b73565b90565b90611c2c611c2592611c1c6102e2565b93848092611bff565b0383610837565b565b611c3790611c0c565b90565b611c42611b27565b50611c4c5f611c2e565b90565b5f90565b611c67611c62611c6c926104dc565b6119a0565b6104dc565b90565b90611c7990611c53565b5f5260205260405f2090565b5f1c90565b611c96611c9b91611c85565b610d0c565b90565b611ca89054611c8a565b90565b611ccb611cd091611cba611c4f565b50611cc48161484a565b6004611c6f565b611c9e565b90565b60207f7200000000000000000000000000000000000000000000000000000000000000917f4552433732313a20617070726f76616c20746f2063757272656e74206f776e655f8201520152565b611d2d6021604092610440565b611d3681611cd3565b0190565b611d4f9060208101905f818303910152611d20565b90565b15611d5957565b611d616102e2565b62461bcd60e51b815280611d7760048201611d3a565b0390fd5b60207f6b656e206f776e6572206f7220617070726f76656420666f7220616c6c000000917f4552433732313a20617070726f76652063616c6c6572206973206e6f7420746f5f8201520152565b611dd5603d604092610440565b611dde81611d7b565b0190565b611df79060208101905f818303910152611dc8565b90565b15611e0157565b611e096102e2565b62461bcd60e51b815280611e1f60048201611de2565b0390fd5b90611e7f91611e7a611e3483613727565b611e5183611e4a611e44846103a8565b916103a8565b1415611d52565b611e5961485d565b611e6b611e65836103a8565b916103a8565b14908115611e81575b50611dfa565b61486a565b565b611e949150611e8e61485d565b906144c4565b5f611e74565b5f90565b611eaa611eaf91611c85565b610f91565b90565b611ebc9054611e9e565b90565b611ec7611e9a565b50611ed2600a611eb2565b90565b606090565b611ee390611a93565b90565b611eef90611eda565b90565b611efb90611aaf565b90565b60e01b90565b90929192611f19611f1482610875565b610860565b93818552602085019082840111611f3557611f3392610449565b565b61081f565b9080601f83011215611f5857816020611f5593519101611f04565b90565b61081b565b929190611f71611f6c82611687565b610860565b9381855260208086019202810191838311611fc85781905b838210611f97575050505050565b815167ffffffffffffffff8111611fc357602091611fb88784938701611f3a565b815201910190611f89565b61081b565b610b72565b9080601f83011215611feb57816020611fe893519101611f5d565b90565b61081b565b90602082820312612020575f82015167ffffffffffffffff811161201b576120189201611fcd565b90565b6102f0565b6102ec565b61202d6102e2565b3d5f823e3d90fd5b61204961204461204e9261199d565b6119a0565b6104dc565b90565b9061206361205e83611687565b610860565b918252565b606090565b5f5b82811061207b57505050565b602090612086612068565b818401520161206f565b906120b561209d83612051565b926020806120ab8693611687565b920191039061206d565b565b6120bf611ed5565b906120f45f6120de6120d96120d4600e611c9e565b611ee6565b611ef2565b63374721b1906120ec6102e2565b938492611efe565b82528180612104600482016103f5565b03915afa80915f9261213e575b50155f146121385750600161212257565b90506121356121305f612035565b612090565b90565b90915090565b61215b9192503d805f833e6121538183610837565b810190611ff0565b905f612111565b5f7f5a65726f4e46543a206f6e6c792061756374696f6e2063616e2063616c6c0000910152565b612196601e602092610440565b61219f81612162565b0190565b6121b89060208101905f818303910152612189565b90565b156121c257565b6121ca6102e2565b62461bcd60e51b8152806121e0600482016121a3565b0390fd5b90612214929161220f336122096122036121fe6015611c9e565b6103a8565b916103a8565b146121bb565b612324565b565b9061222090611c53565b5f5260205260405f2090565b60ff1690565b61223e61224391611c85565b61222c565b90565b6122509054612232565b90565b5f7f5a65726f4e46543a20546f6b656e206973206c6f636b65640000000000000000910152565b6122876018602092610440565b61229081612253565b0190565b6122a99060208101905f81830391015261227a565b90565b156122b357565b6122bb6102e2565b62461bcd60e51b8152806122d160048201612294565b0390fd5b906122df90611c53565b5f5260205260405f2090565b906122f75f1991611a73565b9181191691161790565b90565b9061231961231461232092611c53565b612301565b82546122eb565b9055565b61236b929161235a9161235261234d61234761234260118890612216565b612246565b15610341565b6122ac565b908391614986565b612366429160106122d5565b612304565b565b9061237892916121e4565b565b61239161239691612389611971565b506011612216565b612246565b90565b6123a1611ed5565b906123d65f6123c06123bb6123b6600e611c9e565b611ee6565b611ef2565b632f3e2e28906123ce6102e2565b938492611efe565b825281806123e6600482016103f5565b03915afa80915f92612420575b50155f1461241a5750600161240457565b90506124176124125f612035565b612090565b90565b90915090565b61243d9192503d805f833e6124358183610837565b810190611ff0565b905f6123f3565b9061245994939291612454614a5d565b612abe565b90612462614aca565b565b60207f7265737300000000000000000000000000000000000000000000000000000000917f5a65726f4e46543a2043616e6e6f74206d696e7420746f207a65726f206164645f8201520152565b6124be6024604092610440565b6124c781612464565b0190565b6124e09060208101905f8183039101526124b1565b90565b156124ea57565b6124f26102e2565b62461bcd60e51b815280612508600482016124cb565b0390fd5b90565b5190565b60207f7074790000000000000000000000000000000000000000000000000000000000917f5a65726f4e46543a204272616e64206e616d652063616e6e6f7420626520656d5f8201520152565b61256d6023604092610440565b61257681612513565b0190565b61258f9060208101905f818303910152612560565b90565b1561259957565b6125a16102e2565b62461bcd60e51b8152806125b76004820161257a565b0390fd5b634e487b7160e01b5f52601160045260245ffd5b6125d8906104dc565b5f1981146125e65760010190565b6125bb565b906125f590611c53565b5f5260205260405f2090565b601f602091010490565b1b90565b9190600861262a9102916126245f198461260b565b9261260b565b9181191691161790565b919061264a61264561265293611c53565b612301565b90835461260f565b9055565b61266891612662611e9a565b91612634565b565b5b818110612676575050565b806126835f600193612656565b0161266b565b9190601f8111612699575b505050565b6126a56126ca93611b6a565b9060206126b184612601565b830193106126d2575b6126c390612601565b019061266a565b5f8080612694565b91506126c3819290506126ba565b906126f0905f1990600802610d08565b191690565b816126ff916126e0565b906002021790565b906127118161043c565b9067ffffffffffffffff82116127d1576127358261272f8554611b40565b85612689565b602090601f831160011461276957918091612758935f9261275d575b50506126f5565b90555b565b90915001515f80612751565b601f1983169161277885611b6a565b925f5b8181106127b95750916002939185600196941061279f575b5050500201905561275b565b6127af910151601f8416906126e0565b90555f8080612793565b9193602060018192878701518155019501920161277b565b610823565b906127e091612707565b565b905090565b61280c612803926020926127fa8161043c565b948580936127e2565b93849101610449565b0190565b90565b61281f612824916104dc565b612810565b9052565b61283861283f91602094936127e7565b8092612813565b0190565b61285761284e6102e2565b92839283612828565b03902090565b61286691612843565b90565b90565b5f5260205f2090565b634e487b7160e01b5f52603260045260245ffd5b5490565b61289681612889565b8210156128b0576128a860019161286c565b910201905f90565b612875565b90815491680100000000000000008310156128e557826128dd9160016128e39501815561288d565b90612634565b565b610823565b906128f490611c53565b5f5260205260405f2090565b5190565b61290e90516104dc565b90565b61291b9051610341565b90565b9061292a60ff91611a73565b9181191691161790565b61293d90610341565b90565b90565b9061295861295361295f92612934565b612940565b825461291e565b9055565b90612a586101206009612a5e946129875f82016129815f8801612900565b906127d6565b6129a06001820161299a60208801612900565b906127d6565b6129b9600282016129b360408801612900565b906127d6565b6129d2600382016129cc60608801612904565b90612304565b6129eb600482016129e560808801612900565b906127d6565b612a04600582016129fe60a08801612904565b90612304565b612a1d60068201612a1760c08801612900565b906127d6565b612a3660078201612a3060e08801612900565b906127d6565b612a5060088201612a4a6101008801612904565b90612304565b019201612911565b90612943565b565b90612a6a91612963565b565b9091612a86612a949360408401908482035f86015261045e565b91602081840391015261045e565b90565b612aa0916127e7565b90565b612ab890612aaf6102e2565b91829182612a97565b03902090565b9390929350612acc82613678565b50612af283612aeb612ae5612ae05f6119bf565b6103a8565b916103a8565b14156124e3565b612b1e612b06612b018461250c565b61250f565b612b18612b125f612035565b916104dc565b11612592565b612b3a612b33612b2e600a611eb2565b6125cf565b600a612304565b612bb7612b47600a611eb2565b94612b53858790614b0c565b612b5e868490614bca565b612b7342612b6e601089906122d5565b612304565b612b8884612b83601289906125eb565b6127d6565b612ba6612b9f612b9a6013879061285d565b612869565b87906128b5565b612bb2601487906128ea565b612a60565b612bcf426008612bc9601488906128ea565b01612304565b8284908392612c07612c017fe260f93729f4de5d60ff8d8ab8c7e6afc76218c4cc0f6f7e617398e20a358a2d93611abb565b93611c53565b93612c1c612c136102e2565b92839283612a6c565b0390a39082612c5d612c57612c517faf0086ac750be714bc552495192716d77f9cd55b48f60293ba0bfa61f3a822b995612aa3565b92611c53565b92611abb565b92612c666102e2565b80612c70816103f5565b0390a490565b90612c8a939291612c85611e9a565b612444565b90565b90612ca09291612c9b614a5d565b612caa565b612ca8614aca565b565b90612cda9291612cd533612ccf612cc9612cc46015611c9e565b6103a8565b916103a8565b146121bb565b612fa4565b565b60207f2061646472657373000000000000000000000000000000000000000000000000917f5a65726f4e46543a2043616e6e6f74207472616e7366657220746f207a65726f5f8201520152565b612d366028604092610440565b612d3f81612cdc565b0190565b612d589060208101905f818303910152612d29565b90565b15612d6257565b612d6a6102e2565b62461bcd60e51b815280612d8060048201612d43565b0390fd5b5f7f5a65726f4e46543a20456d70747920746f6b656e206172726179000000000000910152565b612db8601a602092610440565b612dc181612d84565b0190565b612dda9060208101905f818303910152612dab565b90565b15612de457565b612dec6102e2565b62461bcd60e51b815280612e0260048201612dc5565b0390fd5b90565b612e1d612e18612e2292612e06565b6119a0565b6104dc565b90565b60207f6800000000000000000000000000000000000000000000000000000000000000917f5a65726f4e46543a20546f6f206d616e7920746f6b656e7320696e20626174635f8201520152565b612e7f6021604092610440565b612e8881612e25565b0190565b612ea19060208101905f818303910152612e72565b90565b15612eab57565b612eb36102e2565b62461bcd60e51b815280612ec960048201612e8c565b0390fd5b6001612ed991016104dc565b90565b90612ee682610db6565b811015612ef7576020809102010190565b612875565b60207f6f776e6572206e6f7220617070726f7665640000000000000000000000000000917f5a65726f4e46543a205472616e736665722063616c6c6572206973206e6f74205f8201520152565b612f566032604092610440565b612f5f81612efc565b0190565b612f789060208101905f818303910152612f49565b90565b15612f8257565b612f8a6102e2565b62461bcd60e51b815280612fa060048201612f63565b0390fd5b92919092612fcd84612fc6612fc0612fbb5f6119bf565b6103a8565b916103a8565b1415612d5b565b612ff1612fd983610db6565b612feb612fe55f612035565b916104dc565b11612ddd565b613017612ffd83610db6565b61301061300a6032612e09565b916104dc565b1115612ea4565b6130205f612035565b5b8061303c61303661303186610db6565b6104dc565b916104dc565b10156130f1576130ec9061306b6130663361306061305b888690612edc565b612904565b90614bf1565b612f7b565b6130a261309d613097613092601161308c6130878a8890612edc565b612904565b90612216565b612246565b15610341565b6122ac565b6130c083876130ba6130b5888690612edc565b612904565b91614e31565b6130e7426130e260106130dc6130d7898790612edc565b612904565b906122d5565b612304565b612ecd565b613021565b5092919291909161314061312e6131287f4187831f3a75da298b400e245a588d6a6d6193fe794473a7129647592324faa493611abb565b93611abb565b936131376102e2565b91829182610e3d565b0390a3565b906131509291612c8d565b565b90613182929161317d3361317761317161316c6015611c9e565b6103a8565b916103a8565b146121bb565b613184565b565b906131979291613192614a5d565b6131a1565b61319f614aca565b565b6131fb92916131ea916131bd6131b8338690614bf1565b612f7b565b6131e26131dd6131d76131d260118890612216565b612246565b15610341565b6122ac565b908391614e31565b6131f6429160106122d5565b612304565b565b906132089291613152565b565b9061323a92916132353361322f6132296132246015611c9e565b6103a8565b916103a8565b146121bb565b613309565b565b61324b613251919392936104dc565b926104dc565b820180921161325c57565b6125bb565b60207f6574000000000000000000000000000000000000000000000000000000000000917f5a65726f4e46543a205472616e7366657220636f6f6c646f776e206e6f74206d5f8201520152565b6132bb6022604092610440565b6132c481613261565b0190565b6132dd9060208101905f8183039101526132ae565b90565b156132e757565b6132ef6102e2565b62461bcd60e51b815280613305600482016132c8565b0390fd5b61339392916133829161333761333261332c61332760118890612216565b612246565b15610341565b6122ac565b61337a4261337361336d61336861335861335360108b906122d5565b611eb2565b613362600d611eb2565b9061323c565b6104dc565b916104dc565b10156132e0565b908391614f82565b61338e429160106122d5565b612304565b565b906133a0929161320a565b565b6133aa611971565b506133bd6133b782614f98565b15610341565b613424576133d56133d060118390612216565b612246565b61341f5761341161340b6134066133f66133f1429560106122d5565b611eb2565b613400600d611eb2565b9061323c565b6104dc565b916104dc565b1061341b57600190565b5f90565b505f90565b505f90565b606090565b5490565b60209181520190565b5f5260205f2090565b61344e9054611e9e565b90565b60010190565b9061347461346e6134678461342e565b8093613432565b9261343b565b905f5b8181106134845750505090565b9091926134a461349e60019261349987613444565b610dd6565b94613451565b9101919091613477565b906134b891613457565b90565b906134db6134d4926134cb6102e2565b938480926134ae565b0383610837565b565b6134e6906134bb565b90565b613500613505916134f8613429565b50601361285d565b6134dd565b90565b6135199061351461481e565b61351b565b565b61352681600c6127d6565b61355c7f6741b2fc379fad678116fe3d4d4b9a1a184ab53ba36b86ad0fa66340b1ab41ad916135536102e2565b9182918261048f565b0390a1565b61356a90613508565b565b613574611e9a565b5061357f600a611eb2565b90565b60018060a01b031690565b61359961359e91611c85565b613582565b90565b6135ab905461358d565b90565b6135b790611aaf565b90565b905051906135c782610904565b565b906020828203126135e2576135df915f016135ba565b90565b6102ec565b602061362f916135f5611971565b5061360861360360096135a1565b6135ae565b61362463ce6983406136186102e2565b95869485938493611efe565b83526004830161048f565b03915afa908115613673575f91613645575b5090565b613666915060203d811161366c575b61365e8183610837565b8101906135c9565b5f613641565b503d613654565b612025565b613680611971565b5061368a81613df4565b9081613695575b5090565b61369f91506135e7565b5f613691565b5f7f4552433732313a20696e76616c696420746f6b656e2049440000000000000000910152565b6136d96018602092610440565b6136e2816136a5565b0190565b6136fb9060208101905f8183039101526136cc565b90565b1561370557565b61370d6102e2565b62461bcd60e51b815280613723600482016136e6565b0390fd5b61373990613733611c4f565b50614fc9565b61375e8161375761375161374c5f6119bf565b6103a8565b916103a8565b14156136fe565b90565b61376c610140610860565b90565b5f90565b5f90565b61377f613761565b9060208080808080808080808b613794612068565b81520161379f612068565b8152016137aa612068565b8152016137b561376f565b8152016137c0612068565b8152016137cb61376f565b8152016137d6612068565b8152016137e1612068565b8152016137ec61376f565b8152016137f7613773565b81525050565b613805613777565b90565b5f7f5a65726f4e46543a20546f6b656e20646f6573206e6f74206578697374000000910152565b61383c601d602092610440565b61384581613808565b0190565b61385e9060208101905f81830391015261382f565b90565b1561386857565b6138706102e2565b62461bcd60e51b81528061388660048201613849565b0390fd5b52565b90613897906104dc565b9052565b906138a590610341565b9052565b906139a261399860096138ba613761565b946138d16138c95f8301611c0c565b5f880161388a565b6138e96138e060018301611c0c565b6020880161388a565b6139016138f860028301611c0c565b6040880161388a565b61391961391060038301611eb2565b6060880161388d565b61393161392860048301611c0c565b6080880161388a565b61394961394060058301611eb2565b60a0880161388d565b61396161395860068301611c0c565b60c0880161388a565b61397961397060078301611c0c565b60e0880161388a565b61399261398860088301611eb2565b610100880161388d565b01612246565b610120840161389b565b565b6139ad906138a9565b90565b6139d86139dd916139bf6137fd565b506139d16139cc82614f98565b613861565b60146128ea565b6139a4565b90565b60207f6c6964206f776e65720000000000000000000000000000000000000000000000917f4552433732313a2061646472657373207a65726f206973206e6f7420612076615f8201520152565b613a3a6029604092610440565b613a43816139e0565b0190565b613a5c9060208101905f818303910152613a2d565b90565b15613a6657565b613a6e6102e2565b62461bcd60e51b815280613a8460048201613a47565b0390fd5b90613a9290611abb565b5f5260205260405f2090565b613ada613adf91613aad611e9a565b50613ad381613acc613ac6613ac15f6119bf565b6103a8565b916103a8565b1415613a5f565b6003613a88565b611eb2565b90565b613aea61481e565b613af2613af4565b565b613b05613b005f6119bf565b614fe8565b565b613b0f613ae2565b565b613b39613b3e91613b20611b27565b50613b32613b2d82614f98565b613861565b60126125eb565b611c2e565b90565b90613b72939291613b6d33613b67613b61613b5c6015611c9e565b6103a8565b916103a8565b146121bb565b613b74565b565b90613b88939291613b83614a5d565b613b92565b613b90614aca565b565b93929093613bbb85613bb4613bae613ba95f6119bf565b6103a8565b916103a8565b1415612d5b565b613bdf613bc784610db6565b613bd9613bd35f612035565b916104dc565b11612ddd565b613c05613beb84610db6565b613bfe613bf86032612e09565b916104dc565b1115612ea4565b613c0e5f612035565b5b80613c2a613c24613c1f87610db6565b6104dc565b916104dc565b1015613ce157613cdc90613c59613c5433613c4e613c49898690612edc565b612904565b90614bf1565b612f7b565b613c90613c8b613c85613c806011613c7a613c758b8890612edc565b612904565b90612216565b612246565b15610341565b6122ac565b613cb08388613ca8613ca3898690612edc565b612904565b9087926150f1565b613cd742613cd26010613ccc613cc78a8790612edc565b612904565b906122d5565b612304565b612ecd565b613c0f565b509050929192919091613d32613d20613d1a7f4187831f3a75da298b400e245a588d6a6d6193fe794473a7129647592324faa493611abb565b93611abb565b93613d296102e2565b91829182610e3d565b0390a3565b90613d43939291613b41565b565b613d4d611c4f565b50613d586007611c9e565b90565b613d63611b27565b50613d6e6001611c2e565b90565b613d82613d7d82614f98565b613861565b613d9a826009613d94601485906128ea565b01612943565b613dd9613dc77f4727b85a09e6ca94a7e26b46423373a951492773e32fbefde21a3ca64483035192611c53565b92613dd06102e2565b91829182610353565b0390a2565b613df291613dea61485d565b919091615198565b565b90613e446020613e02611971565b93613e1d613e18613e13600e611c9e565b611ee6565b611ef2565b613e39630308b414613e2d6102e2565b95869485938493611efe565b83526004830161048f565b03915afa80915f92613e6e575b50155f14613e6857506001613e6257565b90505f90565b90915090565b613e9091925060203d8111613e97575b613e888183610837565b8101906135c9565b905f613e51565b503d613e7e565b90613ecf939291613eca33613ec4613ebe613eb96015611c9e565b6103a8565b916103a8565b146121bb565b613ed1565b565b90613f1993613f0892613eff613efa613ef4613eef60118990612216565b612246565b15610341565b6122ac565b91849192615227565b613f14429160106122d5565b612304565b565b90613f27939291613e9e565b565b613f3b90613f35611b27565b5061526d565b90565b90613f5091613f4b61481e565b613f52565b565b613f63613f5e82614f98565b613861565b613f7882613f7360118490612216565b612943565b613fb7613fa57f1061f8ecbb11992f94e9b36dac8f2d92c62e763f626409b6d965ea3dab3549a892611c53565b92613fae6102e2565b91829182610353565b0390a2565b90613fc691613f3e565b565b90613fdd94939291613fd8614a5d565b6141f5565b90613fe6614aca565b565b5190565b5f7f5a65726f4e46543a20417272617973206c656e677468206d69736d6174636800910152565b614020601f602092610440565b61402981613fec565b0190565b6140429060208101905f818303910152614013565b90565b1561404c57565b6140546102e2565b62461bcd60e51b81528061406a6004820161402d565b0390fd5b5f7f5a65726f4e46543a20456d707479206d65746164617461206172726179000000910152565b6140a2601d602092610440565b6140ab8161406e565b0190565b6140c49060208101905f818303910152614095565b90565b156140ce57565b6140d66102e2565b62461bcd60e51b8152806140ec600482016140af565b0390fd5b5f7f5a65726f4e46543a20546f6f206d616e79204e46547320696e20626174636800910152565b614124601f602092610440565b61412d816140f0565b0190565b6141469060208101905f818303910152614117565b90565b1561415057565b6141586102e2565b62461bcd60e51b81528061416e60048201614131565b0390fd5b9061418461417f83610b55565b610860565b918252565b369037565b906141b361419b83614172565b926020806141a98693610b55565b9201910390614189565b565b906141bf8261062f565b8110156141d0576020809102010190565b612875565b906141df82613fe8565b8110156141f0576020809102010190565b612875565b949394919091506142218261421a61421461420f5f6119bf565b6103a8565b916103a8565b14156124e3565b61424d61422d84613fe8565b61424761424161423c8961062f565b6104dc565b916104dc565b14614045565b61427161425984613fe8565b61426b6142655f612035565b916104dc565b116140c7565b61429761427d84613fe8565b61429061428a6032612e09565b916104dc565b1115614149565b6142a86142a384613fe8565b61418e565b946142b25f612035565b5b806142ce6142c86142c388613fe8565b6104dc565b916104dc565b101561447a57614475906142f46142ed6142e8600a611eb2565b6125cf565b600a612304565b6142fe600a611eb2565b61430785613678565b50614313868290614b0c565b614329816143228685906141b5565b5190614bca565b61433e42614339601084906122d5565b612304565b6143538561434e601284906125eb565b6127d6565b61437161436a6143656013889061285d565b612869565b82906128b5565b61439161437f8884906141d5565b5161438c601484906128ea565b612a60565b6143a94260086143a3601485906128ea565b01612304565b6143bf816143ba8b91859092612edc565b61388d565b858186916143ce8786906141b5565b516144026143fc7fe260f93729f4de5d60ff8d8ab8c7e6afc76218c4cc0f6f7e617398e20a358a2d93611abb565b93611c53565b9361441761440e6102e2565b92839283612a6c565b0390a38490869061445a61445461444e7faf0086ac750be714bc552495192716d77f9cd55b48f60293ba0bfa61f3a822b995612aa3565b92611c53565b92611abb565b926144636102e2565b8061446d816103f5565b0390a4612ecd565b6142b3565b5050505050565b90614495939291614490613429565b613fc8565b90565b906144a290611abb565b5f5260205260405f2090565b906144b890611abb565b5f5260205260405f2090565b6144e9916144df6144e4926144d7611971565b506005614498565b6144ae565b612246565b90565b906144ff92916144fa61481e565b614548565b565b61450a90611a93565b90565b61451690614501565b90565b61452290614501565b90565b90565b9061453d61453861454492614519565b614525565b8254611a78565b9055565b8061456361455d6145585f6119bf565b6103a8565b916103a8565b036145da575b508061458561457f61457a5f6119bf565b6103a8565b916103a8565b036145c9575b50806145a76145a161459c5f6119bf565b6103a8565b916103a8565b036145b0575b50565b6145bc6145c39161450d565b6009614528565b5f6145ad565b6145d490600f611aca565b5f61458b565b6145e590600e611aca565b5f614569565b906145f692916144ec565b565b61460f61461491614607611e9a565b5060106122d5565b611eb2565b90565b6146289061462361481e565b6146d2565b565b60207f6464726573730000000000000000000000000000000000000000000000000000917f4f776e61626c653a206e6577206f776e657220697320746865207a65726f20615f8201520152565b6146846026604092610440565b61468d8161462a565b0190565b6146a69060208101905f818303910152614677565b90565b156146b057565b6146b86102e2565b62461bcd60e51b8152806146ce60048201614691565b0390fd5b614700906146fb816146f46146ee6146e95f6119bf565b6103a8565b916103a8565b14156146a9565b614fe8565b565b61470b90614617565b565b61471f90614719611971565b50613a9e565b61473161472b5f612035565b916104dc565b1190565b61473d611971565b50806147586147526380ac58cd60e01b6102f4565b916102f4565b14801561477c575b90811561476c575b5090565b6147769150615336565b5f614768565b5080614797614791635b5e139f60e01b6102f4565b916102f4565b14614760565b5f7f4f776e61626c653a2063616c6c6572206973206e6f7420746865206f776e6572910152565b6147d060208092610440565b6147d98161479d565b0190565b6147f29060208101905f8183039101526147c4565b90565b156147fc57565b6148046102e2565b62461bcd60e51b81528061481a600482016147dd565b0390fd5b614848614829613d45565b61484261483c61483761485d565b6103a8565b916103a8565b146147f5565b565b61485661485b91614f98565b6136fe565b565b614865611c4f565b503390565b906148808261487b60048490611c6f565b611aca565b61488981613727565b916148c66148c06148ba7f8c5be1e5ebec7d5bd14f71427d1e84f3dd0314c0f7b2291e5b200ac8c7c3b92595611abb565b92611abb565b92611c53565b926148cf6102e2565b806148d9816103f5565b0390a4565b60207f72206f7220617070726f76656400000000000000000000000000000000000000917f4552433732313a2063616c6c6572206973206e6f7420746f6b656e206f776e655f8201520152565b614938602d604092610440565b614941816148de565b0190565b61495a9060208101905f81830391015261492b565b90565b1561496457565b61496c6102e2565b62461bcd60e51b81528061498260048201614945565b0390fd5b916149ad926149a56149a061499961485d565b8490614bf1565b61495d565b919091614e31565b565b90565b6149c66149c16149cb926149af565b6119a0565b6104dc565b90565b6149d860026149b2565b90565b5f7f5265656e7472616e637947756172643a207265656e7472616e742063616c6c00910152565b614a0f601f602092610440565b614a18816149db565b0190565b614a319060208101905f818303910152614a02565b90565b15614a3b57565b614a436102e2565b62461bcd60e51b815280614a5960048201614a1c565b0390fd5b614a8a614a6a6008611eb2565b614a83614a7d614a786149ce565b6104dc565b916104dc565b1415614a34565b614a9c614a956149ce565b6008612304565b565b90565b614ab5614ab0614aba92614a9e565b6119a0565b6104dc565b90565b614ac76001614aa1565b90565b614adc614ad5614abd565b6008612304565b565b90614af0614aeb83610875565b610860565b918252565b614afe5f614ade565b90565b614b09614af5565b90565b90614b209190614b1a614b01565b9161535c565b565b60207f6578697374656e7420746f6b656e000000000000000000000000000000000000917f45524337323155524953746f726167653a2055524920736574206f66206e6f6e5f8201520152565b614b7c602e604092610440565b614b8581614b22565b0190565b614b9e9060208101905f818303910152614b6f565b90565b15614ba857565b614bb06102e2565b62461bcd60e51b815280614bc660048201614b89565b0390fd5b614bea614bef92614be2614bdd84614f98565b614ba1565b9160066125eb565b6127d6565b565b614bf9611971565b50614c0382613727565b81614c16614c10836103a8565b916103a8565b14908115614c53575b50918215614c2d575b505090565b614c4b919250614c3f614c4591611cab565b926103a8565b916103a8565b145f80614c28565b614c5f915082906144c4565b5f614c1f565b60207f6f776e6572000000000000000000000000000000000000000000000000000000917f4552433732313a207472616e736665722066726f6d20696e636f7272656374205f8201520152565b614cbf6025604092610440565b614cc881614c65565b0190565b614ce19060208101905f818303910152614cb2565b90565b15614ceb57565b614cf36102e2565b62461bcd60e51b815280614d0960048201614ccc565b0390fd5b60207f7265737300000000000000000000000000000000000000000000000000000000917f4552433732313a207472616e7366657220746f20746865207a65726f206164645f8201520152565b614d676024604092610440565b614d7081614d0d565b0190565b614d899060208101905f818303910152614d5a565b90565b15614d9357565b614d9b6102e2565b62461bcd60e51b815280614db160048201614d74565b0390fd5b91906008614dd5910291614dcf60018060a01b038461260b565b9261260b565b9181191691161790565b9190614df5614df0614dfd93611abb565b611ac7565b908354614db5565b9055565b614e1391614e0d611c4f565b91614ddf565b565b90614e2091036104dc565b90565b90614e2e91016104dc565b90565b919091614e58614e4083613727565b614e52614e4c846103a8565b916103a8565b14614ce4565b614e7d83614e76614e70614e6b5f6119bf565b6103a8565b916103a8565b1415614d8c565b614ea1614e8983613727565b614e9b614e95846103a8565b916103a8565b14614ce4565b614eb65f614eb160048590611c6f565b614e01565b614ee7614ec36001614aa1565b614ee1614ed260038590613a88565b91614edc83611eb2565b614e15565b90612304565b614f18614ef46001614aa1565b614f12614f0360038790613a88565b91614f0d83611eb2565b614e23565b90612304565b614f2d83614f2860028590611c6f565b611aca565b91614f6a614f64614f5e7fddf252ad1be2c89b69c2b068fc378daa952ba7f163c4a11628f55a4df523b3ef95611abb565b92611abb565b92611c53565b92614f736102e2565b80614f7d816103f5565b0390a4565b91614f969291614f90614b01565b92613f1b565b565b614faa90614fa4611971565b50614fc9565b614fc4614fbe614fb95f6119bf565b6103a8565b916103a8565b141590565b614fe0614fe591614fd8611c4f565b506002611c6f565b611c9e565b90565b614ff26007611c9e565b614ffd826007611aca565b9061503161502b7f8be0079c531659141344cd1fd0a4f28419497f9722a3daafe3b4186f6b6457e093611abb565b91611abb565b9161503a6102e2565b80615044816103f5565b0390a3565b60207f63656976657220696d706c656d656e7465720000000000000000000000000000917f4552433732313a207472616e7366657220746f206e6f6e2045524337323152655f8201520152565b6150a36032604092610440565b6150ac81615049565b0190565b6150c59060208101905f818303910152615096565b90565b156150cf57565b6150d76102e2565b62461bcd60e51b8152806150ed600482016150b0565b0390fd5b9261510f926151149461510681858491614e31565b9290919261549b565b6150c8565b565b5f7f4552433732313a20617070726f766520746f2063616c6c657200000000000000910152565b61514a6019602092610440565b61515381615116565b0190565b61516c9060208101905f81830391015261513d565b90565b1561517657565b61517e6102e2565b62461bcd60e51b81528061519460048201615157565b0390fd5b9190916151b8816151b16151ab866103a8565b916103a8565b141561516f565b6151d7826151d26151cb60058590614498565b86906144ae565b612943565b91909161522261521061520a7f17307eab39ab6107e8899845ad3d59bd9653f200f220920489ca2b5937696c3193611abb565b93611abb565b936152196102e2565b91829182610353565b0390a3565b9161525193919261524861524361523c61485d565b8490614bf1565b61495d565b929091926150f1565b565b6152619061526793926127e7565b906127e7565b90565b90565b615275611b27565b5061527f8161484a565b61529361528e600683906125eb565b611c2e565b61529b6155cf565b6152ac6152a78261250c565b61250f565b6152be6152b85f612035565b916104dc565b14615330576152d46152cf8361250c565b61250f565b6152e66152e05f612035565b916104dc565b116152f95750506152f6906155f0565b90565b61532d92506153289061531961530d6102e2565b93849260208401615253565b60208201810382520382610837565b61526a565b90565b50905090565b61533e611971565b506153586153526301ffc9a760e01b6102f4565b916102f4565b1490565b615386926153819261536f838290615787565b6153785f6119bf565b9290919261549b565b6150c8565b565b61539190611a93565b90565b61539d90615388565b90565b6153a990611aaf565b90565b905051906153b982610300565b565b906020828203126153d4576153d1915f016153ac565b90565b6102ec565b60209181520190565b61540161540a60209361540f936153f88161250f565b938480936153d9565b95869101610449565b610454565b0190565b90926154469061543c615453969461543260808601975f870190610520565b6020850190610520565b60408301906105d8565b60608184039101526153e2565b90565b90615468615463836111c5565b610860565b918252565b606090565b3d5f1461548d576154823d615456565b903d5f602084013e5b565b61549561546d565b9061548b565b9093926154a6611971565b946154b081615885565b5f146155c457906154f75f6154cf6154ca60209695615394565b6153a0565b9261550263150b7a02916154e161485d565b96986154eb6102e2565b998a9889978896611efe565b865260048601615413565b03925af180915f92615594575b50155f146155745750600161552057565b615528615472565b6155318161250f565b61554361553d5f612035565b916104dc565b145f1461556c576155526102e2565b62461bcd60e51b815280615568600482016150b0565b0390fd5b805190602001fd5b90915061559061558a630a85bd0160e11b6102f4565b916102f4565b1490565b6155b691925060203d81116155bd575b6155ae8183610837565b8101906153bb565b905f61550f565b503d6155a4565b505050509050600190565b6155d7611b27565b506155e2600c611c2e565b90565b6155ed614af5565b90565b6155f8611b27565b506156028161484a565b61560a6155cf565b9061561c6156178361250c565b61250f565b61562e6156285f612035565b916104dc565b115f146156755761566c6156456156719392615935565b9161565d6156516102e2565b93849260208401615253565b60208201810382520382610837565b61526a565b5b90565b505061567f6155e5565b615672565b5f7f4552433732313a206d696e7420746f20746865207a65726f2061646472657373910152565b6156b760208092610440565b6156c081615684565b0190565b6156d99060208101905f8183039101526156ab565b90565b156156e357565b6156eb6102e2565b62461bcd60e51b815280615701600482016156c4565b0390fd5b5f7f4552433732313a20746f6b656e20616c7265616479206d696e74656400000000910152565b615739601c602092610440565b61574281615705565b0190565b61575b9060208101905f81830391015261572c565b90565b1561576557565b61576d6102e2565b62461bcd60e51b81528061578360048201615746565b0390fd5b906157ad826157a66157a061579b5f6119bf565b6103a8565b916103a8565b14156156dc565b6157c76157c26157bc83614f98565b15610341565b61575e565b6157e16157dc6157d683614f98565b15610341565b61575e565b6158126157ee6001614aa1565b61580c6157fd60038690613a88565b9161580783611eb2565b614e23565b90612304565b6158278261582260028490611c6f565b611aca565b6158305f6119bf565b9161586d6158676158617fddf252ad1be2c89b69c2b068fc378daa952ba7f163c4a11628f55a4df523b3ef95611abb565b92611abb565b92611c53565b926158766102e2565b80615880816103f5565b0390a4565b61588d611971565b503b6158a161589b5f612035565b916104dc565b1190565b369037565b906158cf6158b783614ade565b926020806158c58693610875565b92019103906158a5565b565b60016158dd91036104dc565b90565b90565b6158f76158f26158fc926158e0565b6119a0565b6104dc565b90565b634e487b7160e01b5f52601260045260245ffd5b61591f615925916104dc565b916104dc565b908115615930570490565b6158ff565b61593d611b27565b5061595a61594a82615b33565b6159546001614aa1565b90614e23565b90615964826158aa565b9161596d611e9a565b5060200182015b6001156159d7576159876159b3916158d1565b916f181899199a1a9b1b9c1cb0b131b232b360811b600a82061a83536159ad600a6158e3565b90615913565b806159c66159c05f612035565b916104dc565b146159d15790615974565b50505b90565b50506159d4565b90565b6159f56159f06159fa926159de565b6119a0565b6104dc565b90565b90565b615a14615a0f615a19926159fd565b6119a0565b6104dc565b90565b90565b615a33615a2e615a3892615a1c565b6119a0565b6104dc565b90565b90565b615a52615a4d615a5792615a3b565b6119a0565b6104dc565b90565b90565b615a71615a6c615a7692615a5a565b6119a0565b6104dc565b90565b90565b615a90615a8b615a9592615a79565b6119a0565b6104dc565b90565b90565b615aaf615aaa615ab492615a98565b6119a0565b6104dc565b90565b90565b615ace615ac9615ad392615ab7565b6119a0565b6104dc565b90565b90565b615aed615ae8615af292615ad6565b6119a0565b6104dc565b90565b90565b615b0c615b07615b1192615af5565b6119a0565b6104dc565b90565b90565b615b2b615b26615b3092615b14565b6119a0565b6104dc565b90565b615b3b611e9a565b50615b455f612035565b9080615b74615b6e7a184f03e93ff9f4daa797ed6e38ed64bf6a1f0100000000000000006159e1565b916104dc565b1015615d4c575b80615b9c615b966d04ee2d6d415b85acef8100000000615a1f565b916104dc565b1015615d11575b80615bbd615bb7662386f26fc10000615a5d565b916104dc565b1015615cdd575b80615bdb615bd56305f5e100615a9b565b916104dc565b1015615cac575b80615bf7615bf1612710615ad9565b916104dc565b1015615c7d575b80615c12615c0c6064615b17565b916104dc565b1015615c4f575b615c2c615c26600a6158e3565b916104dc565b1015615c36575b90565b615c4a90615c446001614aa1565b90614e23565b615c33565b615c66615c7791615c606064615b17565b90615913565b91615c7160026149b2565b90614e23565b90615c19565b615c95615ca691615c8f612710615ad9565b90615913565b91615ca06004615af8565b90614e23565b90615bfe565b615cc6615cd791615cc06305f5e100615a9b565b90615913565b91615cd16008615aba565b90614e23565b90615be2565b615cfa615d0b91615cf4662386f26fc10000615a5d565b90615913565b91615d056010615a7c565b90614e23565b90615bc4565b615d35615d4691615d2f6d04ee2d6d415b85acef8100000000615a1f565b90615913565b91615d406020615a3e565b90614e23565b90615ba3565b615d7d615d8e91615d777a184f03e93ff9f4daa797ed6e38ed64bf6a1f0100000000000000006159e1565b90615913565b91615d886040615a00565b90614e23565b90615b7b56fea26469706673582212206acc049b631cc97b333a3a7581ca46f351e366ed5076053225d3ff4c951fb32164736f6c634300081c0033","linkReferences":{}},"methodIdentifiers":{"CanMint(string)":"62066052","approve(address,uint256)":"095ea7b3","balanceOf(address)":"70a08231","batchTransfer(address,address,uint256[])":"3593cebc","canTransfer(uint256)":"4d4f6ea9","getActiveBrands()":"2f3e2e28","getAllRegisteredBrands()":"216fae2a","getApproved(uint256)":"081812fc","getBrandTokens(string)":"52ee2240","getCurrentTokenId()":"56189236","getLastTransferTime(uint256)":"f254ceb3","getNFTMetadata(uint256)":"6be9a6f1","getTokenBrand(uint256)":"79a7304c","hasNFTs(address)":"f35c39e9","isApprovedForAll(address,address)":"e985e9c5","isBrandActive(string)":"5a3993f1","isBrandRegisteredAndActive(string)":"b22408ea","isTokenLocked(uint256)":"276a28a3","mint(address,string,(string,string,string,uint256,string,uint256,string,string,uint256,bool),string)":"321f62be","mintBatch(address,string,(string,string,string,uint256,string,uint256,string,string,uint256,bool)[],string[])":"e853161f","name()":"06fdde03","oracleMaster()":"4e542d9e","owner()":"8da5cb5b","ownerOf(uint256)":"6352211e","renounceOwnership()":"715018a6","reputationContract()":"87bc1425","safeBatchTransfer(address,address,uint256[],bytes)":"81eebadb","safeTransferFrom(address,address,uint256)":"42842e0e","safeTransferFrom(address,address,uint256,bytes)":"b88d4fde","setApprovalForAll(address,bool)":"a22cb465","setAuctionContract(address)":"023924c7","setBaseURI(string)":"55f804b3","setTokenLock(uint256,bool)":"e68f3bd8","supportsInterface(bytes4)":"01ffc9a7","symbol()":"95d89b41","tokenURI(uint256)":"c87b56dd","totalSupply()":"18160ddd","transferCooldown()":"68f16293","transferFee()":"acb2ad6f","transferFrom(address,address,uint256)":"23b872dd","transferOwnership(address)":"f2fde38b","transferZero(address,address,uint256)":"40f647f1","updateProtocolAddresses(address,address,address)":"f22adacd","verifyNFT(uint256,bool)":"9a260fec"},"id":117}