{"abi":[{"type":"constructor","inputs":[{"name":"_stateAddr","type":"address","internalType":"address"}],"stateMutability":"nonpayable"},{"type":"function","name":"acceptOwnership","inputs":[],"outputs":[],"stateMutability":"nonpayable"},{"type":"function","name":"brand","inputs":[],"outputs":[{"name":"","type":"string","internalType":"string"}],"stateMutability":"view"},{"type":"function","name":"handleOracleFulfillment","inputs":[{"name":"requestId","type":"bytes32","internalType":"bytes32"},{"name":"response","type":"bytes","internalType":"bytes"},{"name":"err","type":"bytes","internalType":"bytes"}],"outputs":[],"stateMutability":"nonpayable"},{"type":"function","name":"owner","inputs":[],"outputs":[{"name":"","type":"address","internalType":"address"}],"stateMutability":"view"},{"type":"function","name":"s_lastError","inputs":[],"outputs":[{"name":"","type":"bytes","internalType":"bytes"}],"stateMutability":"view"},{"type":"function","name":"s_lastRequestId","inputs":[],"outputs":[{"name":"","type":"bytes32","internalType":"bytes32"}],"stateMutability":"view"},{"type":"function","name":"s_lastResponse","inputs":[],"outputs":[{"name":"","type":"bytes","internalType":"bytes"}],"stateMutability":"view"},{"type":"function","name":"sendRequest","inputs":[{"name":"subscriptionId","type":"uint64","internalType":"uint64"},{"name":"args","type":"string[]","internalType":"string[]"}],"outputs":[{"name":"requestId","type":"bytes32","internalType":"bytes32"}],"stateMutability":"nonpayable"},{"type":"function","name":"setDon","inputs":[{"name":"_donId","type":"bytes32","internalType":"bytes32"}],"outputs":[],"stateMutability":"nonpayable"},{"type":"function","name":"setGasLimit","inputs":[{"name":"_gas","type":"uint32","internalType":"uint32"}],"outputs":[],"stateMutability":"nonpayable"},{"type":"function","name":"setRouter","inputs":[{"name":"_router","type":"address","internalType":"address"}],"outputs":[],"stateMutability":"nonpayable"},{"type":"function","name":"state","inputs":[],"outputs":[{"name":"","type":"string","internalType":"string"}],"stateMutability":"view"},{"type":"function","name":"stateAddress","inputs":[],"outputs":[{"name":"","type":"address","internalType":"address"}],"stateMutability":"view"},{"type":"function","name":"stateContract","inputs":[],"outputs":[{"name":"","type":"address","internalType":"contract StateManager"}],"stateMutability":"view"},{"type":"function","name":"transferOwnership","inputs":[{"name":"to","type":"address","internalType":"address"}],"outputs":[],"stateMutability":"nonpayable"},{"type":"event","name":"ChangeDON","inputs":[{"name":"donId","type":"bytes32","indexed":true,"internalType":"bytes32"},{"name":"owner","type":"address","indexed":false,"internalType":"address"}],"anonymous":false},{"type":"event","name":"ChangeGasLimit","inputs":[{"name":"gas","type":"uint256","indexed":false,"internalType":"uint256"},{"name":"owner","type":"address","indexed":false,"internalType":"address"}],"anonymous":false},{"type":"event","name":"ChangeRouter","inputs":[{"name":"router","type":"address","indexed":true,"internalType":"address"},{"name":"owner","type":"address","indexed":false,"internalType":"address"}],"anonymous":false},{"type":"event","name":"OwnershipTransferRequested","inputs":[{"name":"from","type":"address","indexed":true,"internalType":"address"},{"name":"to","type":"address","indexed":true,"internalType":"address"}],"anonymous":false},{"type":"event","name":"OwnershipTransferred","inputs":[{"name":"from","type":"address","indexed":true,"internalType":"address"},{"name":"to","type":"address","indexed":true,"internalType":"address"}],"anonymous":false},{"type":"event","name":"RequestFulfilled","inputs":[{"name":"id","type":"bytes32","indexed":true,"internalType":"bytes32"}],"anonymous":false},{"type":"event","name":"RequestSent","inputs":[{"name":"id","type":"bytes32","indexed":true,"internalType":"bytes32"}],"anonymous":false},{"type":"event","name":"Response","inputs":[{"name":"requestId","type":"bytes32","indexed":true,"internalType":"bytes32"},{"name":"state","type":"string","indexed":false,"internalType":"string"},{"name":"response","type":"bytes","indexed":false,"internalType":"bytes"},{"name":"err","type":"bytes","indexed":false,"internalType":"bytes"}],"anonymous":false},{"type":"error","name":"EmptyArgs","inputs":[]},{"type":"error","name":"EmptySource","inputs":[]},{"type":"error","name":"NoInlineSecrets","inputs":[]},{"type":"error","name":"OnlyRouterCanFulfill","inputs":[]},{"type":"error","name":"StateDiffers","inputs":[]},{"type":"error","name":"UnexpectedRequestID","inputs":[{"name":"requestId","type":"bytes32","internalType":"bytes32"}]}],"bytecode":{"object":"0x60a06040523461003f57610019610014610104565b610589565b610021610044565b61328561088c8239608051818181610bd1015261236f015261328590f35b61004a565b60405190565b5f80fd5b601f801991011690565b634e487b7160e01b5f52604160045260245ffd5b906100769061004e565b810190811060018060401b0382111761008e57604052565b610058565b906100a661009f610044565b928361006c565b565b5f80fd5b60018060a01b031690565b6100c0906100ac565b90565b6100cc816100b7565b036100d357565b5f80fd5b905051906100e4826100c3565b565b906020828203126100ff576100fc915f016100d7565b90565b6100a8565b610122613b118038038061011781610093565b9283398101906100e6565b90565b5f1c90565b60018060a01b031690565b61014161014691610125565b61012a565b90565b6101539054610135565b90565b5f1b90565b9061016c60018060a01b0391610156565b9181191691161790565b90565b61018d610188610192926100ac565b610176565b6100ac565b90565b61019e90610179565b90565b6101aa90610195565b90565b90565b906101c56101c06101cc926101a1565b6101ad565b825461015b565b9055565b634e487b7160e01b5f52602260045260245ffd5b9060016002830492168015610204575b60208310146101ff57565b6101d0565b91607f16916101f4565b5f5260205f2090565b601f602091010490565b1b90565b9190600861024091029161023a5f1984610221565b92610221565b9181191691161790565b90565b61026161025c6102669261024a565b610176565b61024a565b90565b90565b919061028261027d61028a9361024d565b610269565b908354610225565b9055565b5f90565b6102a49161029e61028e565b9161026c565b565b5b8181106102b2575050565b806102bf5f600193610292565b016102a7565b9190601f81116102d5575b505050565b6102e16103069361020e565b9060206102ed84610217565b8301931061030e575b6102ff90610217565b01906102a6565b5f80806102d0565b91506102ff819290506102f6565b60076103627f696f6e732e656e636f6465537472696e6728646174612e6e616d65293b0000009261035860fd61035283546101e4565b836102c5565b6101fb815561020e565b7f636f6e73742073746174654964203d20617267735b305d3b636f6e73742061705f8201557f69526573706f6e7365203d2061776169742046756e6374696f6e732e6d616b6560018201557f4874747052657175657374287b75726c3a206068747470733a2f2f737761706960028201557f2e696e666f2f6170692f70656f706c652f247b737461746549647d2f607d293b60038201557f69662028617069526573706f6e73652e6572726f7229207b7468726f7720457260048201557f726f72282752657175657374206661696c656427293b7d636f6e7374207b206460058201557f617461207d203d20617069526573706f6e73653b72657475726e2046756e637460068201550155565b6104789061031c565b565b9061048963ffffffff91610156565b9181191691161790565b90565b63ffffffff1690565b6104b36104ae6104b892610493565b610176565b610496565b90565b90565b906104d36104ce6104da9261049f565b6104bb565b825461047a565b9055565b906104ea5f1991610156565b9181191691161790565b90565b90565b61050e610509610513926104f4565b610156565b6104f7565b90565b61051f90610125565b90565b9061053761053261053e926104fa565b610516565b82546104de565b9055565b61054b90610179565b90565b61055790610542565b90565b61056390610542565b90565b90565b9061057e6105796105859261055a565b610566565b825461015b565b9055565b61061661061d916105a43361059e6008610149565b9061064a565b6105c373b83e47c2bc239b3bf370bc41e1459a34b41238d060086101b0565b6105cd600961046f565b6105db620493e0600a6104be565b6106067f66756e2d657468657265756d2d7365706f6c69612d3100000000000000000000600b610522565b6106118160066101b0565b61054e565b6007610569565b565b90565b61063661063161063b9261061f565b610176565b6100ac565b90565b61064790610622565b90565b9061065e916106585f61063e565b906106eb565b565b60209181520190565b5f7f43616e6e6f7420736574206f776e657220746f207a65726f0000000000000000910152565b61069d6018602092610660565b6106a681610669565b0190565b6106bf9060208101905f818303910152610690565b90565b156106c957565b6106d1610044565b62461bcd60e51b8152806106e7600482016106aa565b0390fd5b6106f86107239293610756565b61071d8161071661071061070b5f61063e565b6100b7565b916100b7565b14156106c2565b5f6101b0565b8061073e6107386107335f61063e565b6100b7565b916100b7565b03610747575b50565b6107509061080e565b5f610744565b61075f90610779565b565b61076a90610179565b90565b61077690610761565b90565b6107829061076d565b608052565b5f7f43616e6e6f74207472616e7366657220746f2073656c66000000000000000000910152565b6107bb6017602092610660565b6107c481610787565b0190565b6107dd9060208101905f8183039101526107ae565b90565b156107e757565b6107ef610044565b62461bcd60e51b815280610805600482016107c8565b0390fd5b5f0190565b61082b8161082461081e336100b7565b916100b7565b14156107e0565b6108368160016101b0565b61083f5f610149565b9061087361086d7fed8889f560326eb138920d842192f0eb3dd22b4f139c87a2c57538e05bae1278936101a1565b916101a1565b9161087c610044565b8061088681610809565b0390a356fe60806040526004361015610013575b610ba7565b61001d5f3561010c565b80630ca76175146101075780632d9fff01146101025780633944ea3a146100fd578063437b2473146100f857806348a7d26d146100f35780634b0795a8146100ee57806352d84c62146100e957806379ba5097146100e45780638aa5fae2146100df5780638da5cb5b146100da578063b1e21749146100d5578063c0d78655146100d0578063c19d93fb146100cb578063db5f30e1146100c65763f2fde38b0361000e57610b74565b610b3f565b610a71565b610a2f565b6109b9565b61094c565b610919565b6108c8565b610895565b610816565b6107d1565b6106bd565b61060b565b61048c565b6102a3565b60e01c90565b60405190565b5f80fd5b5f80fd5b5f80fd5b90565b61013081610124565b0361013757565b5f80fd5b9050359061014882610127565b565b5f80fd5b5f80fd5b601f801991011690565b634e487b7160e01b5f52604160045260245ffd5b9061017a90610152565b810190811067ffffffffffffffff82111761019457604052565b61015c565b906101ac6101a5610112565b9283610170565b565b67ffffffffffffffff81116101cc576101c8602091610152565b0190565b61015c565b90825f939282370152565b909291926101f16101ec826101ae565b610199565b9381855260208501908284011161020d5761020b926101d1565b565b61014e565b9080601f830112156102305781602061022d933591016101dc565b90565b61014a565b916060838303126102995761024c825f850161013b565b92602081013567ffffffffffffffff8111610294578361026d918301610212565b92604082013567ffffffffffffffff811161028f5761028c9201610212565b90565b610120565b610120565b61011c565b5f0190565b346102d2576102bc6102b6366004610235565b91610bc3565b6102c4610112565b806102ce8161029e565b0390f35b610118565b5f9103126102e157565b61011c565b634e487b7160e01b5f525f60045260245ffd5b634e487b7160e01b5f52602260045260245ffd5b906001600283049216801561032d575b602083101461032857565b6102f9565b91607f169161031d565b60209181520190565b5f5260205f2090565b905f929180549061036361035c8361030d565b8094610337565b916001811690815f146103ba575060011461037e575b505050565b61038b9192939450610340565b915f925b8184106103a257505001905f8080610379565b6001816020929593955484860152019101929061038f565b92949550505060ff19168252151560200201905f8080610379565b906103df91610349565b90565b906104026103fb926103f2610112565b938480926103d5565b0383610170565b565b905f1061041757610414906103e2565b90565b6102e6565b61042860055f90610404565b90565b5190565b60209181520190565b90825f9392825e0152565b61046261046b602093610470936104598161042b565b9384809361042f565b95869101610438565b610152565b0190565b6104899160208201915f818403910152610443565b90565b346104bc5761049c3660046102d7565b6104b86104a761041c565b6104af610112565b91829182610474565b0390f35b610118565b60209181520190565b5f5260205f2090565b905f92918054906104ed6104e68361030d565b80946104c1565b916001811690815f146105445750600114610508575b505050565b61051591929394506104ca565b915f925b81841061052c57505001905f8080610503565b60018160209295939554848601520191019290610519565b92949550505060ff19168252151560200201905f8080610503565b90610569916104d3565b90565b9061058c6105859261057c610112565b9384809261055f565b0383610170565b565b905f106105a15761059e9061056c565b90565b6102e6565b6105b260035f9061058e565b90565b5190565b60209181520190565b6105e16105ea6020936105ef936105d8816105b5565b938480936105b9565b95869101610438565b610152565b0190565b6106089160208201915f8184039101526105c2565b90565b3461063b5761061b3660046102d7565b6106376106266105a6565b61062e610112565b918291826105f3565b0390f35b610118565b1c90565b60018060a01b031690565b61065f9060086106649302610640565b610644565b90565b90610672915461064f565b90565b61068160065f90610667565b90565b60018060a01b031690565b61069890610684565b90565b6106a49061068f565b9052565b91906106bb905f6020850194019061069b565b565b346106ed576106cd3660046102d7565b6106e96106d8610675565b6106e0610112565b918291826106a8565b0390f35b610118565b67ffffffffffffffff1690565b610708816106f2565b0361070f57565b5f80fd5b90503590610720826106ff565b565b5f80fd5b5f80fd5b909182601f830112156107645781359167ffffffffffffffff831161075f57602001926020830284011161075a57565b610726565b610722565b61014a565b9190916040818403126107aa57610782835f8301610713565b92602082013567ffffffffffffffff81116107a5576107a1920161072a565b9091565b610120565b61011c565b6107b890610124565b9052565b91906107cf905f602085019401906107af565b565b34610802576107fe6107ed6107e7366004610769565b91610fa0565b6107f5610112565b918291826107bc565b0390f35b610118565b61081360045f9061058e565b90565b34610846576108263660046102d7565b610842610831610807565b610839610112565b918291826105f3565b0390f35b610118565b63ffffffff1690565b61085d8161084b565b0361086457565b5f80fd5b9050359061087582610854565b565b906020828203126108905761088d915f01610868565b90565b61011c565b346108c3576108ad6108a8366004610877565b6110b4565b6108b5610112565b806108bf8161029e565b0390f35b610118565b346108f6576108d83660046102d7565b6108e06111d4565b6108e8610112565b806108f28161029e565b0390f35b610118565b9060208282031261091457610911915f0161013b565b90565b61011c565b346109475761093161092c3660046108fb565b6112cf565b610939610112565b806109438161029e565b0390f35b610118565b3461097c5761095c3660046102d7565b6109786109676112de565b61096f610112565b918291826106a8565b0390f35b610118565b90565b6109949060086109999302610640565b610981565b90565b906109a79154610984565b90565b6109b660025f9061099c565b90565b346109e9576109c93660046102d7565b6109e56109d46109aa565b6109dc610112565b918291826107bc565b0390f35b610118565b6109f78161068f565b036109fe57565b5f80fd5b90503590610a0f826109ee565b565b90602082820312610a2a57610a27915f01610a02565b90565b61011c565b34610a5d57610a47610a42366004610a11565b611357565b610a4f610112565b80610a598161029e565b0390f35b610118565b610a6e600c5f90610404565b90565b34610aa157610a813660046102d7565b610a9d610a8c610a62565b610a94610112565b91829182610474565b0390f35b610118565b60018060a01b031690565b610ac1906008610ac69302610640565b610aa6565b90565b90610ad49154610ab1565b90565b610ae360075f90610ac9565b90565b90565b610afd610af8610b0292610684565b610ae6565b610684565b90565b610b0e90610ae9565b90565b610b1a90610b05565b90565b610b2690610b11565b9052565b9190610b3d905f60208501940190610b1d565b565b34610b6f57610b4f3660046102d7565b610b6b610b5a610ad7565b610b62610112565b91829182610b2a565b0390f35b610118565b34610ba257610b8c610b87366004610a11565b611380565b610b94610112565b80610b9e8161029e565b0390f35b610118565b5f80fd5b610bb490610b05565b90565b610bc090610124565b90565b919033610c00610bfa610bf57f0000000000000000000000000000000000000000000000000000000000000000610bab565b61068f565b9161068f565b03610c5457610c12918391909161199f565b610c3c7f85e1543bf2f84fe80c6badbce3648c8539ad1df4d2b3d822938ca0538be727e691610bb7565b90610c45610112565b80610c4f8161029e565b0390a2565b5f63c6829f8360e01b815280610c6c6004820161029e565b0390fd5b5f90565b90610c88939291610c83611c09565b610f01565b90565b610c9560e0610199565b90565b5f90565b5f90565b606090565b606090565b606090565b606090565b610cbc610c8b565b90602080808080808088610cce610c98565b815201610cd9610c98565b815201610ce4610c9c565b815201610cef610ca0565b815201610cfa610ca5565b815201610d05610caa565b815201610d10610caf565b81525050565b610d1e610cb4565b90565b610d2a906103e2565b90565b5090565b90565b90565b610d4b610d46610d5092610d34565b610ae6565b610d31565b90565b67ffffffffffffffff8111610d6b5760208091020190565b61015c565b67ffffffffffffffff8111610d8e57610d8a602091610152565b0190565b61015c565b90929192610da8610da382610d70565b610199565b93818552602085019082840111610dc457610dc2926101d1565b565b61014e565b9080601f83011215610de757816020610de493359101610d93565b90565b61014a565b929190610e00610dfb82610d53565b610199565b9381855260208086019202810191838311610e575781905b838210610e26575050505050565b813567ffffffffffffffff8111610e5257602091610e478784938701610dc9565b815201910190610e18565b61014a565b610726565b610e67913691610dec565b90565b5f1c90565b63ffffffff1690565b610e84610e8991610e6a565b610e6f565b90565b610e969054610e78565b90565b610ea5610eaa91610e6a565b610981565b90565b610eb79054610e99565b90565b5f1b90565b90610ecb5f1991610eba565b9181191691161790565b610ede90610e6a565b90565b90610ef6610ef1610efd92610bb7565b610ed5565b8254610ebf565b9055565b610f7192610f7894610f559250610f16610d16565b91610f2b83610f256009610d21565b90611c2f565b610f36818390610d2d565b610f48610f425f610d37565b91610d31565b11610f85575b5050611fc2565b90610f60600a610e8c565b90610f6b600b610ead565b92612355565b6002610ee1565b610f826002610ead565b90565b610f93610f99928492610e5c565b90611c44565b5f80610f4e565b90610fb39291610fae610c70565b610c74565b90565b610fc790610fc2611c09565b61106d565b565b90610fd863ffffffff91610eba565b9181191691161790565b610ff6610ff1610ffb9261084b565b610ae6565b61084b565b90565b90565b9061101661101161101d92610fe2565b610ffe565b8254610fc9565b9055565b61103561103061103a9261084b565b610ae6565b610d31565b90565b61104690611021565b9052565b91602061106b92949361106460408201965f83019061103d565b019061069b565b565b61107881600a611001565b337f900d7d183b5bcf6e31826dce2d99593f3c739cd1300dd5c637606a5a6117afa3916110af6110a6610112565b9283928361104a565b0390a1565b6110bd90610fb6565b565b6110cb6110d091610e6a565b610644565b90565b6110dd90546110bf565b90565b5f7f4d7573742062652070726f706f736564206f776e657200000000000000000000910152565b611114601660209261042f565b61111d816110e0565b0190565b6111369060208101905f818303910152611107565b90565b1561114057565b611148610112565b62461bcd60e51b81528061115e60048201611121565b0390fd5b9061117360018060a01b0391610eba565b9181191691161790565b61118690610b05565b90565b90565b906111a161119c6111a89261117d565b611189565b8254611162565b9055565b6111c06111bb6111c592610d34565b610ae6565b610684565b90565b6111d1906111ac565b90565b6111f9336111f36111ed6111e860016110d3565b61068f565b9161068f565b14611139565b6112025f6110d3565b61120c335f61118c565b61121f6112185f6111c8565b600161118c565b3361125361124d7f8be0079c531659141344cd1fd0a4f28419497f9722a3daafe3b4186f6b6457e09361117d565b9161117d565b9161125c610112565b806112668161029e565b0390a3565b61127c90611277611c09565b61127e565b565b61128981600b610ee1565b33906112ca6112b87f6dfd4cdf2bc5f77618be7fb644066f90b7162cce190945ed6cb3d905f2f5b29f92610bb7565b926112c1610112565b918291826106a8565b0390a2565b6112d89061126b565b565b5f90565b6112e66112da565b506112f05f6110d3565b90565b611304906112ff611c09565b611306565b565b61131181600861118c565b33906113526113407f868d477d1f2aa07449951b6ecd423921fda432f90f37c85b0db8216a0ed41bac9261117d565b92611349610112565b918291826106a8565b0390a2565b611360906112f3565b565b6113739061136e611c09565b611375565b565b61137e906124d2565b565b61138990611362565b565b601f602091010490565b1b90565b919060086113b49102916113ae5f1984611395565b92611395565b9181191691161790565b6113d26113cd6113d792610d31565b610ae6565b610d31565b90565b90565b91906113f36113ee6113fb936113be565b6113da565b908354611399565b9055565b5f90565b6114159161140f6113ff565b916113dd565b565b5b818110611423575050565b806114305f600193611403565b01611418565b9190601f8111611446575b505050565b611452611477936104ca565b90602061145e8461138b565b8301931061147f575b6114709061138b565b0190611417565b5f8080611441565b915061147081929050611467565b9061149d905f1990600802610640565b191690565b816114ac9161148d565b906002021790565b906114be816105b5565b9067ffffffffffffffff821161157e576114e2826114dc855461030d565b85611436565b602090601f831160011461151657918091611505935f9261150a575b50506114a2565b90555b565b90915001515f806114fe565b601f19831691611525856104ca565b925f5b8181106115665750916002939185600196941061154c575b50505002019055611508565b61155c910151601f84169061148d565b90555f8080611540565b91936020600181928787015181550195019201611528565b61015c565b9061158d916114b4565b565b90565b905090565b905f92918054906115b16115aa8361030d565b8094611592565b916001811690815f1461160357506001146115cc575b505050565b6115d99192939450610340565b5f905b8382106115ef57505001905f80806115c7565b6001816020925484860152019101906115dc565b92949550505060ff191682528015150201905f80806115c7565b61162691611597565b90565b60200190565b61165461164b926020926116428161042b565b94858093611592565b93849101610438565b0190565b6116619161162f565b90565b61167061167591610e6a565b610aa6565b90565b6116829054611664565b90565b5f80fd5b60e01b90565b5f91031261169957565b61011c565b905f92918054906116b86116b18361030d565b809461042f565b916001811690815f1461170f57506001146116d3575b505050565b6116e09192939450610340565b915f925b8184106116f757505001905f80806116ce565b600181602092959395548486015201910192906116e4565b92949550505060ff19168252151560200201905f80806116ce565b5f7f5374617465204469666665727300000000000000000000000000000000000000910152565b61175e600d60209261042f565b6117678161172a565b0190565b6117836117919260408301908382035f85015261169e565b906020818303910152611751565b90565b61179c610112565b3d5f823e3d90fd5b9190601f81116117b4575b505050565b6117c06117e593610340565b9060206117cc8461138b565b830193106117ed575b6117de9061138b565b0190611417565b5f80806117af565b91506117de819290506117d5565b906118058161042b565b9067ffffffffffffffff82116118c55761182982611823855461030d565b856117a4565b602090601f831160011461185d5791809161184c935f92611851575b50506114a2565b90555b565b90915001515f80611845565b601f1983169161186c85610340565b925f5b8181106118ad57509160029391856001969410611893575b5050500201905561184f565b6118a3910151601f84169061148d565b90555f8080611887565b9193602060018192878701518155019501920161186f565b61015c565b906118d4916117fb565b565b905f92918054906118f06118e98361030d565b80946105b9565b916001811690815f14611947575060011461190b575b505050565b61191891929394506104ca565b915f925b81841061192f57505001905f8080611906565b6001816020929593955484860152019101929061191c565b92949550505060ff19168252151560200201905f8080611906565b9161198e9061198061199c959360608601908682035f88015261169e565b9084820360208601526118d6565b9160408184039101526118d6565b90565b916119aa6002610ead565b6119bc6119b685610124565b91610124565b03611b68576119cc826003611583565b6119e06119d88361158f565b916004611583565b611a6c611a66611a3f611a4e611a08611a17600c6119fc610112565b9283916020830161161d565b60208201810382520382610170565b611a29611a23826105b5565b91611629565b2094611a33610112565b92839160208301611658565b60208201810382520382610170565b611a60611a5a826105b5565b91611629565b20610124565b91610124565b145f14611ad357611a7f611a869161158f565b600c6118ca565b5b600c906003600492611ace611abc7f160ed0aaffbef6885155188b91459cb5a97d5daadccf7561d8c46deea6641b5094610bb7565b94611ac5610112565b93849384611962565b0390a2565b50611ae6611ae16007611678565b610b11565b633779d1c76005823b15611b6357611b1d92611b125f8094611b06610112565b96879586948593611689565b83526004830161176b565b03925af18015611b5e57611b32575b50611a87565b611b51905f3d8111611b57575b611b498183610170565b81019061168f565b5f611b2c565b503d611b3f565b611794565b611685565b611b83835f91829163d068bf5b60e01b8352600483016107bc565b0390fd5b5f7f4f6e6c792063616c6c61626c65206279206f776e657200000000000000000000910152565b611bbb601660209261042f565b611bc481611b87565b0190565b611bdd9060208101905f818303910152611bae565b90565b15611be757565b611bef610112565b62461bcd60e51b815280611c0560048201611bc8565b0390fd5b611c2d33611c27611c21611c1c5f6110d3565b61068f565b9161068f565b14611be0565b565b90611c3e91905f5f919261256e565b565b5190565b90611c4e81611c40565b611c60611c5a5f610d37565b91610d31565b14611c6d5760a090910152565b5f63fe936cb760e01b815280611c856004820161029e565b0390fd5b606090565b90565b611ca5611ca0611caa92611c8e565b610ae6565b610d31565b90565b611cb8610100611c91565b90565b90611ccd611cc883610d70565b610199565b918252565b5f7f636f64654c6f636174696f6e0000000000000000000000000000000000000000910152565b611d03600c611cbb565b90611d1060208301611cd2565b565b611d1a611cf9565b90565b634e487b7160e01b5f52602160045260245ffd5b60031115611d3b57565b611d1d565b90611d4a82611d31565b565b611d569051611d40565b90565b611d6290611d40565b90565b5f7f6c616e6775616765000000000000000000000000000000000000000000000000910152565b611d966008611cbb565b90611da360208301611d65565b565b611dad611d8c565b90565b60011115611dba57565b611d1d565b90611dc982611db0565b565b611dd59051611dbf565b90565b611de190611dbf565b90565b5f7f736f757263650000000000000000000000000000000000000000000000000000910152565b611e156006611cbb565b90611e2260208301611de4565b565b611e2c611e0b565b90565b5f7f6172677300000000000000000000000000000000000000000000000000000000910152565b611e606004611cbb565b90611e6d60208301611e2f565b565b611e77611e56565b90565b6001611e869101610d31565b90565b634e487b7160e01b5f52603260045260245ffd5b90611ea782611c40565b811015611eb8576020809102010190565b611e89565b5f7f736563726574734c6f636174696f6e0000000000000000000000000000000000910152565b611eee600f611cbb565b90611efb60208301611ebd565b565b611f05611ee4565b90565b5f7f7365637265747300000000000000000000000000000000000000000000000000910152565b611f396007611cbb565b90611f4660208301611f08565b565b611f50611f2f565b90565b5190565b5f7f6279746573417267730000000000000000000000000000000000000000000000910152565b611f886009611cbb565b90611f9560208301611f57565b565b611f9f611f7e565b90565b90611fac82611f53565b811015611fbd576020809102010190565b611e89565b611fca611c89565b50611fdb611fd6611cad565b612662565b90611fee82611fe8611d12565b906126de565b61200b826120056120005f8501611d4c565b611d59565b906127e3565b61201d82612017611da5565b906126de565b61203b8261203561203060408501611dcb565b611dd8565b906127e3565b61204d82612047611e24565b906126de565b61205c826060830151906126de565b61206960a0820151611c40565b61207b6120755f610d37565b91610d31565b116121f6575b61208e60808201516105b5565b6120a061209a5f610d37565b91610d31565b11612161575b6120b360c0820151611f53565b6120c56120bf5f610d37565b91610d31565b116120d6575b505f80910151015190565b91906120ea816120e4611f97565b906126de565b6120f3816128d9565b6120fc5f610d37565b5b8061211c61211661211160c0880151611f53565b610d31565b91610d31565b101561214a57612145906121408361213960c08801518490611fa2565b51906129b3565b611e7a565b6120fd565b505f919250819061215a81612968565b91506120cb565b61216d60208201611d4c565b61217f6121795f611d40565b91611d40565b146121da5761219682612190611efd565b906126de565b6121b4826121ae6121a960208501611d4c565b611d59565b906127e3565b6121c6826121c0611f48565b906126de565b6121d5826080830151906129b3565b6120a6565b5f63a80d31f760e01b8152806121f26004820161029e565b0390fd5b61220a829392612204611e6f565b906126de565b612213836128d9565b61221c5f610d37565b5b8061223c61223661223160a0860151611c40565b610d31565b91610d31565b101561226a57612265906122608561225960a08601518490611e9d565b51906126de565b611e7a565b61221d565b5091909161227782612968565b612081565b90565b61ffff1690565b61229a61229561229f9261227c565b610ae6565b61227f565b90565b6122ac6001612286565b90565b905051906122bc82610127565b565b906020828203126122d7576122d4915f016122af565b90565b61011c565b6122e5906106f2565b9052565b6122f29061227f565b9052565b6122ff9061084b565b9052565b906123539461234261233761234c936080969a99979a61232a60a08801925f8901906122dc565b86820360208801526105c2565b9860408501906122e9565b60608301906122f6565b01906107af565b565b90916123bb5f602094612366610c70565b506123c66123937f0000000000000000000000000000000000000000000000000000000000000000610bab565b9463461d27629296986123a46122a2565b9190916123af610112565b9a8b998a988997611689565b875260048701612303565b03925af190811561244b575f9161241d575b50806124047f1131472297a800fee664d1d89cfa8f7676ff07189ecc53f80bbb5f4969099db891610bb7565b9061240d610112565b806124178161029e565b0390a290565b61243e915060203d8111612444575b6124368183610170565b8101906122be565b5f6123d8565b503d61242c565b611794565b5f7f43616e6e6f74207472616e7366657220746f2073656c66000000000000000000910152565b612484601760209261042f565b61248d81612450565b0190565b6124a69060208101905f818303910152612477565b90565b156124b057565b6124b8610112565b62461bcd60e51b8152806124ce60048201612491565b0390fd5b6124ef816124e86124e23361068f565b9161068f565b14156124a9565b6124fa81600161118c565b6125035f6110d3565b906125376125317fed8889f560326eb138920d842192f0eb3dd22b4f139c87a2c57538e05bae12789361117d565b9161117d565b91612540610112565b8061254a8161029e565b0390a3565b90565b9061255c90611d40565b9052565b9061256a90611dbf565b9052565b929061258161257c8361254f565b6105b5565b61259361258d5f610d37565b91610d31565b146125b8576060926125aa6125b3925f8701612552565b60408501612560565b910152565b5f6322ce3edd60e01b8152806125d06004820161029e565b0390fd5b6125de6040610199565b90565b6125eb6040610199565b90565b5f90565b6125fa6125e1565b9060208083612607610ca5565b8152016126126125ee565b81525050565b6126206125f2565b90565b61262b6125d4565b9060208083612638612618565b8152016126436125ee565b81525050565b612651612623565b90565b9061265e90610d31565b9052565b61267761266d612649565b915f830151612a46565b5061268d6126845f610d37565b60208301612654565b90565b90565b60ff1690565b6126ad6126a86126b292612690565b610ae6565b612693565b90565b6126bf6003612699565b90565b6126d66126d16126db92610d31565b610ae6565b6106f2565b90565b9061271a5f61272093612712816126f36126b5565b61270c6127076127028961254f565b6105b5565b6126c2565b91612c82565b01519161254f565b90612e8a565b50565b90565b61273a61273561273f92612723565b610ae6565b612693565b90565b61274c6006612726565b90565b90565b61276661276161276b9261274f565b610ae6565b612693565b90565b61278d9061278761278161279294612693565b91612693565b90611395565b612693565b90565b90565b6127ac6127a76127b192612795565b610ae6565b612693565b90565b6127be6002612798565b90565b6127ca90610d31565b9052565b91906127e1905f602085019401906127c1565b565b612849916128446128359261281f5f820151612810612800612742565b61280a6005612752565b9061276e565b6128186127b4565b1790612ee0565b5091612829610112565b938491602083016127ce565b60208201810382520383610170565b6129b3565b565b90565b61286261285d6128679261284b565b610ae6565b612693565b90565b612874600461284e565b90565b61288b6128866128909261227c565b610ae6565b610d31565b90565b61289d9051610d31565b90565b634e487b7160e01b5f52601160045260245ffd5b6128c36128c991939293610d31565b92610d31565b82018092116128d457565b6128a0565b612915906128ef816128e961286a565b90612f91565b61290f60206128fe6001612877565b92019161290a83612893565b6128b4565b90612654565b565b90565b61292e61292961293392612917565b610ae6565b612693565b90565b612940600761291a565b90565b61295261295891939293610d31565b92610d31565b820391821161296357565b6128a0565b6129a49061297e81612978612936565b90612f91565b61299e602061298d6001612877565b92019161299983612893565b612943565b90612654565b565b6129b06002612798565b90565b905f6129e3926129dc816129c56129a6565b6129d66129d1876105b5565b6126c2565b91612c82565b0151612e8a565b50565b6129ee6125f2565b90565b90565b612a08612a03612a0d926129f1565b610ae6565b610d31565b90565b634e487b7160e01b5f52601260045260245ffd5b612a30612a3691610d31565b91610d31565b908115612a41570690565b612a10565b90612a4f6129e6565b50612a6481612a5e60206129f4565b90612a24565b612a76612a705f610d37565b91610d31565b03612aa9575b612a898160208401612654565b604051908183525f82528101602001908110612aa55760405290565b5f80fd5b612ada90612ad46020612acf612ac984612ac360206129f4565b90612a24565b916129f4565b612943565b906128b4565b612a7c565b90565b612af6612af1612afb92612adf565b610ae6565b6106f2565b90565b90565b612b15612b10612b1a92612afe565b610ae6565b6106f2565b90565b90565b612b34612b2f612b3992612b1d565b610ae6565b6106f2565b90565b90565b612b53612b4e612b5892612b3c565b610ae6565b6106f2565b90565b90565b612b72612b6d612b7792612b5b565b610ae6565b612693565b90565b612b8e612b89612b93926106f2565b610ae6565b610d31565b90565b90565b612bad612ba8612bb292612b96565b610ae6565b610d31565b90565b90565b612bcc612bc7612bd192612bb5565b610ae6565b612693565b90565b612be8612be3612bed9261284b565b610ae6565b610d31565b90565b90565b612c07612c02612c0c92612bf0565b610ae6565b612693565b90565b612c23612c1e612c2892612795565b610ae6565b610d31565b90565b90565b612c42612c3d612c4792612c2b565b610ae6565b612693565b90565b612c5e612c59612c6392612693565b610ae6565b6106f2565b90565b612c7a612c75612c7f926106f2565b610ae6565b612693565b90565b9180612c97612c916017612ae2565b916106f2565b11155f14612cd657612ccc90612cc6612cc15f612cd296015194612cbb6005612752565b9061276e565b612c4a565b17612c66565b90612ee0565b505b565b9081612ceb612ce560ff612b01565b916106f2565b11155f14612d4a5782612d255f92612d1484612d4397015191612d0e6005612752565b9061276e565b612d1e6018612c2e565b1790612ee0565b50015190612d3d612d37600192612b7a565b91612877565b91612fde565b505b612cd4565b81612d5f612d5961ffff612b20565b916106f2565b11155f14612dbe5782612d995f92612d8884612db797015191612d826005612752565b9061276e565b612d926019612bf3565b1790612ee0565b50015190612db1612dab600292612b7a565b91612c0f565b91612fde565b505b612d45565b81612dd5612dcf63ffffffff612b3f565b916106f2565b11155f14612e345782612e0f5f92612dfe84612e2d97015191612df86005612752565b9061276e565b612e08601a612bb8565b1790612ee0565b50015190612e27612e21600492612b7a565b91612bd4565b91612fde565b505b612db9565b82612e665f92612e5584612e8497015191612e4f6005612752565b9061276e565b612e5f601b612b5e565b1790612ee0565b50015190612e7e612e78600892612b7a565b91612b99565b91612fde565b50612e2f565b90612ea891612e976129e6565b5090612ea2816105b5565b916130be565b90565b612eba612ec091939293610d31565b92610d31565b91612ecc838202610d31565b928184041490151715612edb57565b6128a0565b90612ee96129e6565b50612ef65f8301516105b5565b612f0a81612f046001612877565b906128b4565b9181612f29612f23612f1e60208801612893565b610d31565b91610d31565b1015612f4f575b60208451928301015380518211612f47575b505090565b525f80612f42565b612f6d84612f6785612f616002612c0f565b90612eab565b90613233565b612f30565b90565b612f89612f84612f8e92612f72565b610ae6565b612693565b90565b90612fad5f612fbe93015191612fa76005612752565b9061276e565b612fb7601f612f75565b1790612ee0565b50565b612fca90610d31565b601f8111612fd9576101000a90565b6128a0565b9190612fe86129e6565b5061303e61302e613004612ffe5f8701516105b5565b856128b4565b938461302361301d61301860208a01612893565b610d31565b91610d31565b11613062575b612fc1565b6130386001612877565b90612943565b83519183830191198251161790528051821161305a575b505090565b525f80613055565b6130808661307a876130746002612c0f565b90612eab565b90613233565b613029565b1561308c57565b5f80fd5b9061309b9103610d31565b90565b906130b46130ae6130bb93610d31565b91610d31565b900a610d31565b90565b91926130c86129e6565b506130ee846130e76130e16130dc866105b5565b610d31565b91610d31565b1115613085565b6130fa5f8401516105b5565b916131068386906128b4565b908161312561311f61311a60208901612893565b610d31565b91610d31565b11613210575b6020916131366113ff565b5061313f6113ff565b50855180519584820101958211613208575b505094939401915b8361316d61316760206129f4565b91610d31565b106131b9576131a16131906131b2928551815261318a60206129f4565b906128b4565b9361319b60206129f4565b906128b4565b936131ac60206129f4565b90612943565b9291613159565b919093926131e86131f8916131e36131dd610100926131d860206129f4565b613090565b91611c91565b61309e565b6131f26001612877565b90613090565b9081199051169082511617905290565b525f80613151565b61322e85613228846132226002612c0f565b90612eab565b90613233565b61312b565b9061324c916132465f8201519282612a46565b50612e8a565b5056fea2646970667358221220dd3df1840a3d9776c7581eb7857591a695d33a45dcd11391d06338a75bd59c1e64736f6c634300081c0033","linkReferences":{}},"methodIdentifiers":{"acceptOwnership()":"79ba5097","brand()":"2d9fff01","handleOracleFulfillment(bytes32,bytes,bytes)":"0ca76175","owner()":"8da5cb5b","s_lastError()":"4b0795a8","s_lastRequestId()":"b1e21749","s_lastResponse()":"3944ea3a","sendRequest(uint64,string[])":"48a7d26d","setDon(bytes32)":"8aa5fae2","setGasLimit(uint32)":"52d84c62","setRouter(address)":"c0d78655","state()":"c19d93fb","stateAddress()":"437b2473","stateContract()":"db5f30e1","transferOwnership(address)":"f2fde38b"},"id":86}