{"abi":[{"type":"constructor","inputs":[],"stateMutability":"nonpayable"},{"type":"function","name":"addLeave","inputs":[{"name":"_leaf","type":"string","internalType":"string"}],"outputs":[],"stateMutability":"nonpayable"},{"type":"function","name":"brand","inputs":[],"outputs":[{"name":"","type":"string","internalType":"string"}],"stateMutability":"view"},{"type":"function","name":"getProof","inputs":[],"outputs":[{"name":"","type":"string[]","internalType":"string[]"}],"stateMutability":"view"},{"type":"function","name":"initialize","inputs":[{"name":"_brand","type":"string","internalType":"string"},{"name":"_root","type":"string","internalType":"string"},{"name":"_syncer","type":"address","internalType":"address"},{"name":"_owner","type":"address","internalType":"address"}],"outputs":[],"stateMutability":"nonpayable"},{"type":"function","name":"root","inputs":[],"outputs":[{"name":"","type":"string","internalType":"string"}],"stateMutability":"view"},{"type":"function","name":"setSyncer","inputs":[{"name":"_syncer","type":"address","internalType":"address"}],"outputs":[],"stateMutability":"nonpayable"},{"type":"function","name":"verifyProof","inputs":[{"name":"leaf","type":"string","internalType":"string"}],"outputs":[{"name":"","type":"bool","internalType":"bool"}],"stateMutability":"view"},{"type":"event","name":"AddedLeaf","inputs":[{"name":"lastProof","type":"string","indexed":false,"internalType":"string"},{"name":"newLeaf","type":"string","indexed":false,"internalType":"string"}],"anonymous":false},{"type":"event","name":"ChangedSyncer","inputs":[{"name":"syncer","type":"address","indexed":false,"internalType":"address"}],"anonymous":false},{"type":"event","name":"Initialized","inputs":[{"name":"version","type":"uint8","indexed":false,"internalType":"uint8"}],"anonymous":false},{"type":"event","name":"SetRoot","inputs":[{"name":"_brand","type":"string","indexed":false,"internalType":"string"},{"name":"owner","type":"address","indexed":false,"internalType":"address"}],"anonymous":false},{"type":"error","name":"LeafNotFound","inputs":[{"name":"leaf","type":"string","internalType":"string"}]},{"type":"error","name":"NotSyncer","inputs":[{"name":"sender","type":"address","internalType":"address"}]}],"bytecode":{"object":"0x608060405234601c57600e6020565b6111ba61002b82396111ba90f35b6026565b60405190565b5f80fdfe60806040526004361015610013575b6106c9565b61001d5f3561008c565b80632640df77146100875780632d9fff01146100825780635c5d625e1461007d5780638823c51d146100785780638f15b41414610073578063ebf0c7171461006e5763fe378f9c0361000e57610696565b610643565b6105fd565b61051a565b6104e0565b6103d5565b6101eb565b60e01c90565b60405190565b5f80fd5b5f80fd5b5f80fd5b5f80fd5b5f80fd5b601f801991011690565b634e487b7160e01b5f52604160045260245ffd5b906100d4906100ac565b810190811067ffffffffffffffff8211176100ee57604052565b6100b6565b906101066100ff610092565b92836100ca565b565b67ffffffffffffffff8111610126576101226020916100ac565b0190565b6100b6565b90825f939282370152565b9092919261014b61014682610108565b6100f3565b93818552602085019082840111610167576101659261012b565b565b6100a8565b9080601f8301121561018a5781602061018793359101610136565b90565b6100a4565b906020828203126101bf575f82013567ffffffffffffffff81116101ba576101b7920161016c565b90565b6100a0565b61009c565b151590565b6101d2906101c4565b9052565b91906101e9905f602085019401906101c9565b565b3461021b5761021761020661020136600461018f565b61085d565b61020e610092565b918291826101d6565b0390f35b610098565b5f91031261022a57565b61009c565b634e487b7160e01b5f525f60045260245ffd5b634e487b7160e01b5f52602260045260245ffd5b9060016002830492168015610276575b602083101461027157565b610242565b91607f1691610266565b60209181520190565b5f5260205f2090565b905f92918054906102ac6102a583610256565b8094610280565b916001811690815f1461030357506001146102c7575b505050565b6102d49192939450610289565b915f925b8184106102eb57505001905f80806102c2565b600181602092959395548486015201910192906102d8565b92949550505060ff19168252151560200201905f80806102c2565b9061032891610292565b90565b9061034b6103449261033b610092565b9384809261031e565b03836100ca565b565b905f106103605761035d9061032b565b90565b61022f565b61037160025f9061034d565b90565b5190565b60209181520190565b90825f9392825e0152565b6103ab6103b46020936103b9936103a281610374565b93848093610378565b95869101610381565b6100ac565b0190565b6103d29160208201915f81840391015261038c565b90565b34610405576103e5366004610220565b6104016103f0610365565b6103f8610092565b918291826103bd565b0390f35b610098565b5190565b60209181520190565b60200190565b61043c61044560209361044a9361043381610374565b93848093610280565b95869101610381565b6100ac565b0190565b906104589161041d565b90565b60200190565b9061047561046e8361040a565b809261040e565b908161048660208302840194610417565b925f915b83831061049957505050505090565b909192939460206104bb6104b58385600195038752895161044e565b9761045b565b930193019193929061048a565b6104dd9160208201915f818403910152610461565b90565b34610510576104f0366004610220565b61050c6104fb610abb565b610503610092565b918291826104c8565b0390f35b610098565b5f0190565b346105485761053261052d36600461018f565b610fc5565b61053a610092565b8061054481610515565b0390f35b610098565b60018060a01b031690565b6105619061054d565b90565b61056d81610558565b0361057457565b5f80fd5b9050359061058582610564565b565b6080818303126105f8575f81013567ffffffffffffffff81116105f357826105b091830161016c565b92602082013567ffffffffffffffff81116105ee576105d4846105eb92850161016c565b936105e28160408601610578565b93606001610578565b90565b6100a0565b6100a0565b61009c565b3461062f57610619610610366004610587565b92919091611053565b610621610092565b8061062b81610515565b0390f35b610098565b61064060015f9061034d565b90565b3461067357610653366004610220565b61066f61065e610634565b610666610092565b918291826103bd565b0390f35b610098565b906020828203126106915761068e915f01610578565b90565b61009c565b346106c4576106ae6106a9366004610678565b611179565b6106b6610092565b806106c081610515565b0390f35b610098565b5f80fd5b5f90565b905090565b6106fb6106f2926020926106e981610374565b948580936106d1565b93849101610381565b0190565b610708916106d6565b90565b60200190565b5190565b90565b90565b90565b61073261072d61073792610715565b61071b565b610718565b90565b60016107469101610718565b90565b5490565b634e487b7160e01b5f52603260045260245ffd5b5f5260205f2090565b61077381610749565b82101561078d57610785600191610761565b910201905f90565b61074d565b905f92918054906107ac6107a583610256565b80946106d1565b916001811690815f146107fe57506001146107c7575b505050565b6107d49192939450610289565b5f905b8382106107ea57505001905f80806107c2565b6001816020925484860152019101906107d7565b92949550505060ff191682528015150201905f80806107c2565b61082191610792565b90565b90565b90565b61083661083b91610824565b610827565b9052565b6020816108516108599383969561082a565b01809261082a565b0190565b6108906108819161086c6106cd565b50610875610092565b928391602083016106ff565b602082018103825203826100ca565b6108a261089c82610711565b9161070b565b206108ac5f61071e565b905b816108ca6108c46108bf6003610749565b610718565b91610718565b10156109c75761097d906108fb61090a6108e66003869061076a565b506108ef610092565b92839160208301610818565b602082018103825203826100ca565b61091c61091682610711565b9161070b565b20908061093161092b84610824565b91610824565b11155f146109835761096390610954610948610092565b9384926020840161083f565b602082018103825203826100ca565b61097561096f82610711565b9161070b565b20915b61073a565b906108ae565b906109ae9061099f610993610092565b9384926020840161083f565b602082018103825203826100ca565b6109c06109ba82610711565b9161070b565b2091610978565b9050610a18610a126109eb6109fa60016109df610092565b92839160208301610818565b602082018103825203826100ca565b610a0c610a0682610711565b9161070b565b20610824565b91610824565b1490565b606090565b67ffffffffffffffff8111610a395760208091020190565b6100b6565b90610a50610a4b83610a21565b6100f3565b918252565b610a5e9061032b565b90565b90610a6b82610749565b610a7481610a3e565b92610a826020850191610761565b5f915b838310610a925750505050565b600160208192610aa185610a55565b815201920192019190610a85565b610ab890610a61565b90565b610ac3610a1c565b50610ace6003610aaf565b90565b5f1c90565b60018060a01b031690565b610aed610af291610ad1565b610ad6565b90565b610aff9054610ae1565b90565b610b0b90610558565b9052565b9190610b22905f60208501940190610b02565b565b15610b2c5750565b610b47905f91829163aaf2be9d60e01b835260048301610b0f565b0390fd5b610b7b90610b76610b5c6004610af5565b610b6e610b6833610558565b91610558565b143390610b24565b610f39565b565b90565b5f5260205f2090565b5490565b610b9681610b89565b821015610bb057610ba8600191610b80565b910201905f90565b61074d565b601f602091010490565b1b90565b91906008610bde910291610bd85f1984610bbf565b92610bbf565b9181191691161790565b610bfc610bf7610c0192610718565b61071b565b610718565b90565b90565b9190610c1d610c18610c2593610be8565b610c04565b908354610bc3565b9055565b5f90565b610c3f91610c39610c29565b91610c07565b565b5b818110610c4d575050565b80610c5a5f600193610c2d565b01610c42565b9190601f8111610c70575b505050565b610c7c610ca193610289565b906020610c8884610bb5565b83019310610ca9575b610c9a90610bb5565b0190610c41565b5f8080610c6b565b9150610c9a81929050610c91565b1c90565b90610ccb905f1990600802610cb7565b191690565b81610cda91610cbb565b906002021790565b90610cec81610374565b9067ffffffffffffffff8211610dac57610d1082610d0a8554610256565b85610c60565b602090601f8311600114610d4457918091610d33935f92610d38575b5050610cd0565b90555b565b90915001515f80610d2c565b601f19831691610d5385610289565b925f5b818110610d9457509160029391856001969410610d7a575b50505002019055610d36565b610d8a910151601f841690610cbb565b90555f8080610d6e565b91936020600181928787015181550195019201610d56565b6100b6565b9190610dc257610dc091610ce2565b565b61022f565b9081549168010000000000000000831015610df75782610def916001610df595018155610b8d565b90610db1565b565b6100b6565b15610e045750565b610e2690610e10610092565b918291633d7ddc4960e01b8352600483016103bd565b0390fd5b90565b610e41610e3c610e4692610e2a565b61071b565b610718565b90565b634e487b7160e01b5f52601160045260245ffd5b610e6c610e7291939293610718565b92610718565b8203918211610e7d57565b610e49565b905f9291805490610e9c610e9583610256565b8094610378565b916001811690815f14610ef35750600114610eb7575b505050565b610ec49192939450610289565b915f925b818410610edb57505001905f8080610eb2565b60018160209295939554848601520191019290610ec8565b92949550505060ff19168252151560200201905f8080610eb2565b9091610f28610f369360408401908482035f860152610e82565b91602081840391015261038c565b90565b610f4d610f466003610b7d565b8290610dc7565b610f60610f598261085d565b8290610dfc565b610f886003610f82610f726003610749565b610f7c6001610e2d565b90610e5d565b9061076a565b50907f2e44732dc7bb0002e949587fc038f45066f000945803bd15c4e709549e26d95191610fc0610fb7610092565b92839283610f0e565b0390a1565b610fce90610b4b565b565b90610fda91610ce2565b565b5f1b90565b90610ff260018060a01b0391610fdc565b9181191691161790565b61101061100b6110159261054d565b61071b565b61054d565b90565b61102190610ffc565b90565b61102d90611018565b90565b90565b9061104861104361104f92611024565b611030565b8254610fe1565b9055565b916110716110789261106a61107f96956002610fd0565b6001610fd0565b6004611033565b6005611033565b565b5f7f6d65726b6c655f76657269666965723a204e6f74206f776e6572000000000000910152565b6110b5601a602092610378565b6110be81611081565b0190565b6110d79060208101905f8183039101526110a8565b90565b156110e157565b6110e9610092565b62461bcd60e51b8152806110ff600482016110c2565b0390fd5b6111319061112c3361112661112061111b6005610af5565b610558565b91610558565b146110da565b611133565b565b61113e816004611033565b6111747f25fd961917d3dac687ccc3562253310f5629ccefb104ecc2bd07ada6a6d102ab9161116b610092565b91829182610b0f565b0390a1565b61118290611103565b56fea26469706673582212200f87bc027832002413f18b30a6f650b2f46c5baf76a3d295c44305af9a83f55c64736f6c634300081c0033","linkReferences":{}},"methodIdentifiers":{"addLeave(string)":"8823c51d","brand()":"2d9fff01","getProof()":"5c5d625e","initialize(string,string,address,address)":"8f15b414","root()":"ebf0c717","setSyncer(address)":"fe378f9c","verifyProof(string)":"2640df77"},"id":82}