{"abi":[{"type":"constructor","inputs":[{"name":"_profile","type":"address","internalType":"address"}],"stateMutability":"nonpayable"},{"type":"function","name":"INITIATE","inputs":[],"outputs":[{"name":"","type":"bytes4","internalType":"bytes4"}],"stateMutability":"view"},{"type":"function","name":"LOCK_CONTRACT","inputs":[],"outputs":[{"name":"","type":"bytes4","internalType":"bytes4"}],"stateMutability":"view"},{"type":"function","name":"SET_PROFILE","inputs":[],"outputs":[{"name":"","type":"bytes4","internalType":"bytes4"}],"stateMutability":"view"},{"type":"function","name":"SET_STATE","inputs":[],"outputs":[{"name":"","type":"bytes4","internalType":"bytes4"}],"stateMutability":"view"},{"type":"function","name":"UNLOCK_CONTRACT","inputs":[],"outputs":[{"name":"","type":"bytes4","internalType":"bytes4"}],"stateMutability":"view"},{"type":"function","name":"getState","inputs":[{"name":"_brand","type":"string","internalType":"string"}],"outputs":[{"name":"","type":"string","internalType":"string"}],"stateMutability":"view"},{"type":"function","name":"initiate","inputs":[{"name":"_brand","type":"string","internalType":"string"}],"outputs":[],"stateMutability":"nonpayable"},{"type":"function","name":"lockContract","inputs":[{"name":"_brand","type":"string","internalType":"string"},{"name":"_reason","type":"string","internalType":"string"}],"outputs":[],"stateMutability":"nonpayable"},{"type":"function","name":"locked","inputs":[{"name":"","type":"string","internalType":"string"}],"outputs":[{"name":"","type":"bool","internalType":"bool"}],"stateMutability":"view"},{"type":"function","name":"profile","inputs":[],"outputs":[{"name":"","type":"address","internalType":"address"}],"stateMutability":"view"},{"type":"function","name":"profileContract","inputs":[],"outputs":[{"name":"","type":"address","internalType":"contract Profile"}],"stateMutability":"view"},{"type":"function","name":"setProfile","inputs":[{"name":"_profile","type":"address","internalType":"address"}],"outputs":[],"stateMutability":"nonpayable"},{"type":"function","name":"setState","inputs":[{"name":"_brand","type":"string","internalType":"string"},{"name":"_new_state","type":"string","internalType":"string"}],"outputs":[],"stateMutability":"nonpayable"},{"type":"function","name":"states","inputs":[{"name":"","type":"string","internalType":"string"}],"outputs":[{"name":"","type":"string","internalType":"string"}],"stateMutability":"view"},{"type":"function","name":"unlockContract","inputs":[{"name":"_brand","type":"string","internalType":"string"},{"name":"_reason","type":"string","internalType":"string"}],"outputs":[],"stateMutability":"nonpayable"},{"type":"event","name":"Activated","inputs":[{"name":"_brand","type":"string","indexed":false,"internalType":"string"}],"anonymous":false},{"type":"event","name":"ChangeState","inputs":[{"name":"brand","type":"string","indexed":false,"internalType":"string"},{"name":"new_state","type":"string","indexed":false,"internalType":"string"},{"name":"owner","type":"address","indexed":false,"internalType":"address"}],"anonymous":false},{"type":"event","name":"ContractLocked","inputs":[{"name":"brand","type":"string","indexed":false,"internalType":"string"},{"name":"reason","type":"string","indexed":false,"internalType":"string"},{"name":"owner","type":"address","indexed":false,"internalType":"address"}],"anonymous":false},{"type":"event","name":"ContractUnlocked","inputs":[{"name":"brand","type":"string","indexed":false,"internalType":"string"},{"name":"reason","type":"string","indexed":false,"internalType":"string"},{"name":"owner","type":"address","indexed":false,"internalType":"address"}],"anonymous":false},{"type":"event","name":"UpdatedProfileContract","inputs":[{"name":"profile","type":"address","indexed":false,"internalType":"address"}],"anonymous":false},{"type":"error","name":"ActivationFailed","inputs":[{"name":"brand","type":"string","internalType":"string"},{"name":"owner","type":"address","internalType":"address"}]},{"type":"error","name":"ContractAlreadyUnlocked","inputs":[]},{"type":"error","name":"ContractLockedError","inputs":[{"name":"brand","type":"string","internalType":"string"}]},{"type":"error","name":"UserNotPermitted","inputs":[]}],"bytecode":{"object":"0x60806040523461002f576100196100146100f4565b610207565b610021610034565b6118bf61023182396118bf90f35b61003a565b60405190565b5f80fd5b601f801991011690565b634e487b7160e01b5f52604160045260245ffd5b906100669061003e565b810190811060018060401b0382111761007e57604052565b610048565b9061009661008f610034565b928361005c565b565b5f80fd5b60018060a01b031690565b6100b09061009c565b90565b6100bc816100a7565b036100c357565b5f80fd5b905051906100d4826100b3565b565b906020828203126100ef576100ec915f016100c7565b90565b610098565b610112611af08038038061010781610083565b9283398101906100d6565b90565b5f1b90565b9061012b60018060a01b0391610115565b9181191691161790565b90565b61014c6101476101519261009c565b610135565b61009c565b90565b61015d90610138565b90565b61016990610154565b90565b90565b9061018461017f61018b92610160565b61016c565b825461011a565b9055565b5f1c90565b60018060a01b031690565b6101ab6101b09161018f565b610194565b90565b6101bd905461019f565b90565b6101c990610138565b90565b6101d5906101c0565b90565b6101e1906101c0565b90565b90565b906101fc6101f7610203926101d8565b6101e4565b825461011a565b9055565b61021290600261016f565b61022e61022761022260026101b3565b6101cc565b60036101e7565b56fe60806040526004361015610013575b610b1e565b61001d5f3561010c565b8063010b842f1461010757806318830f55146101025780631ed0d035146100fd5780633610252e146100f85780633779d1c7146100f35780635c3e7c40146100ee57806392db345d146100e9578063a3974b21146100e4578063ab60636c146100df578063d9038f3c146100da578063da19db10146100d5578063e0b6a1e3146100d0578063e33f77ca146100cb578063ee824d66146100c65763fb2935ab0361000e57610ae9565b610a7f565b610a4a565b610a17565b6109a1565b610936565b610901565b61085e565b610786565b610751565b6106e6565b61064f565b61059e565b61020c565b6101a0565b60e01c90565b60405190565b5f80fd5b5f80fd5b5f91031261012a57565b61011c565b63ffffffff60e01b1690565b6101449061012f565b90565b6101707fe0b6a1e31b38484c72fafa18008d1237f8b471bf3426edeff258eeebd2293dea61013b565b90565b61017b610147565b90565b6101879061012f565b9052565b919061019e905f6020850194019061017e565b565b346101d0576101b0366004610120565b6101cc6101bb610173565b6101c3610112565b9182918261018b565b0390f35b610118565b6101fe7f3779d1c73f7f063eac9da0eaffcce0c746213ed92e96dc8d61d68d0e09eab40461013b565b90565b6102096101d5565b90565b3461023c5761021c366004610120565b610238610227610201565b61022f610112565b9182918261018b565b0390f35b610118565b5f80fd5b5f80fd5b5f80fd5b601f801991011690565b634e487b7160e01b5f52604160045260245ffd5b906102759061024d565b810190811067ffffffffffffffff82111761028f57604052565b610257565b906102a76102a0610112565b928361026b565b565b67ffffffffffffffff81116102c7576102c360209161024d565b0190565b610257565b90825f939282370152565b909291926102ec6102e7826102a9565b610294565b9381855260208501908284011161030857610306926102cc565b565b610249565b9080601f8301121561032b57816020610328933591016102d7565b90565b610245565b90602082820312610360575f82013567ffffffffffffffff811161035b57610358920161030d565b90565b610241565b61011c565b5190565b905090565b90825f9392825e0152565b61039e6103959260209261038c81610365565b94858093610369565b9384910161036e565b0190565b90565b90565b6103b46103b9916103a2565b6103a5565b9052565b6103cd6103d49160209493610379565b80926103a8565b0190565b6103ec6103e3610112565b928392836103bd565b03902090565b6103fb916103d8565b90565b634e487b7160e01b5f525f60045260245ffd5b634e487b7160e01b5f52602260045260245ffd5b9060016002830492168015610445575b602083101461044057565b610411565b91607f1691610435565b60209181520190565b5f5260205f2090565b905f929180549061047b61047483610425565b809461044f565b916001811690815f146104d25750600114610496575b505050565b6104a39192939450610458565b915f925b8184106104ba57505001905f8080610491565b600181602092959395548486015201910192906104a7565b92949550505060ff19168252151560200201905f8080610491565b906104f791610461565b90565b9061051a6105139261050a610112565b938480926104ed565b038361026b565b565b905f1061052f5761052c906104fa565b90565b6103fe565b610549906105445f915f926103f2565b61051c565b90565b60209181520190565b61057461057d6020936105829361056b81610365565b9384809361054c565b9586910161036e565b61024d565b0190565b61059b9160208201915f818403910152610555565b90565b346105ce576105ca6105b96105b4366004610330565b610534565b6105c1610112565b91829182610586565b0390f35b610118565b6105dc916103d8565b90565b1c90565b60ff1690565b6105f99060086105fe93026105df565b6105e3565b90565b9061060c91546105e9565b90565b610625906106206001915f926105d3565b610601565b90565b151590565b61063690610628565b9052565b919061064d905f6020850194019061062d565b565b3461067f5761067b61066a610665366004610330565b61060f565b610672610112565b9182918261063a565b0390f35b610118565b9190916040818403126106dc575f81013567ffffffffffffffff81116106d757836106b091830161030d565b92602082013567ffffffffffffffff81116106d2576106cf920161030d565b90565b610241565b610241565b61011c565b5f0190565b34610715576106ff6106f9366004610684565b90610dc2565b610707610112565b80610711816106e1565b0390f35b610118565b6107437fee824d666dfdf0809af3f171cfc64977e8ab5d6a7644084a75cee76dd2df0ecc61013b565b90565b61074e61071a565b90565b3461078157610761366004610120565b61077d61076c610746565b610774610112565b9182918261018b565b0390f35b610118565b346107b55761079f610799366004610684565b90610f73565b6107a7610112565b806107b1816106e1565b0390f35b610118565b60018060a01b031690565b6107d59060086107da93026105df565b6107ba565b90565b906107e891546107c5565b90565b6107f760035f906107dd565b90565b60018060a01b031690565b90565b61081c610817610821926107fa565b610805565b6107fa565b90565b61082d90610808565b90565b61083990610824565b90565b61084590610830565b9052565b919061085c905f6020850194019061083c565b565b3461088e5761086e366004610120565b61088a6108796107eb565b610881610112565b91829182610849565b0390f35b610118565b60018060a01b031690565b6108ae9060086108b393026105df565b610893565b90565b906108c1915461089e565b90565b6108d060025f906108b6565b90565b6108dc906107fa565b90565b6108e8906108d3565b9052565b91906108ff905f602085019401906108df565b565b3461093157610911366004610120565b61092d61091c6108c4565b610924610112565b918291826108ec565b0390f35b610118565b346109655761094f610949366004610684565b906113c1565b610957610112565b80610961816106e1565b0390f35b610118565b6109937f92db345dd303d0da1c702278b9418f0a8ef6d4528cbadc7e00d5c9d3f5d0553961013b565b90565b61099e61096a565b90565b346109d1576109b1366004610120565b6109cd6109bc610996565b6109c4610112565b9182918261018b565b0390f35b610118565b6109df816108d3565b036109e657565b5f80fd5b905035906109f7826109d6565b565b90602082820312610a1257610a0f915f016109ea565b90565b61011c565b34610a4557610a2f610a2a3660046109f9565b6115bb565b610a37610112565b80610a41816106e1565b0390f35b610118565b34610a7a57610a76610a65610a60366004610330565b6116b2565b610a6d610112565b91829182610586565b0390f35b610118565b34610aad57610a97610a92366004610330565b611778565b610a9f610112565b80610aa9816106e1565b0390f35b610118565b610adb7fd9038f3c62c02616e94b46a90511aab1e7a2427e48c45ec7f27688443d646c7061013b565b90565b610ae6610ab2565b90565b34610b1957610af9366004610120565b610b15610b04610ade565b610b0c610112565b9182918261018b565b0390f35b610118565b5f80fd5b5f1c90565b610b33610b3891610b22565b610893565b90565b610b459054610b27565b90565b610b5190610808565b90565b610b5d90610b48565b90565b610b6990610824565b90565b5f80fd5b60e01b90565b610b7f81610628565b03610b8657565b5f80fd5b90505190610b9782610b76565b565b90602082820312610bb257610baf915f01610b8a565b90565b61011c565b916020610bd8929493610bd160408201965f8301906108df565b019061017e565b565b610be2610112565b3d5f823e3d90fd5b5f7f53746174653a20756e617574686f72697a656400000000000000000000000000910152565b610c1e601360209261054c565b610c2781610bea565b0190565b610c409060208101905f818303910152610c11565b90565b15610c4a57565b610c52610112565b62461bcd60e51b815280610c6860048201610c2b565b0390fd5b610c78610c7d91610b22565b6105e3565b90565b610c8a9054610c6c565b90565b5f7f73746174653a206272616e64206973206c6f636b656400000000000000000000910152565b610cc1601660209261054c565b610cca81610c8d565b0190565b610ce39060208101905f818303910152610cb4565b90565b15610ced57565b610cf5610112565b62461bcd60e51b815280610d0b60048201610cce565b0390fd5b5f1b90565b90610d2060ff91610d0f565b9181191691161790565b610d3390610628565b90565b90565b90610d4e610d49610d5592610d2a565b610d36565b8254610d14565b9055565b610d65610d6a91610b22565b6107ba565b90565b610d779054610d59565b90565b5f910312610d8457565b61011c565b939290610db8610dc093610daa60409360608901908982035f8b0152610555565b908782036020890152610555565b9401906108df565b565b610ddc610dd7610dd26002610b3b565b610b54565b610b60565b602063bed98a0d913390610e09610df16101d5565b94610e14610dfd610112565b96879586948594610b70565b845260048401610bb7565b03915afa8015610f6e57610e2f915f91610f40575b50610c43565b610e5e610e46610e41600184906105d3565b610c80565b610e58610e525f610628565b91610628565b14610ce6565b610e746001610e6f600184906105d3565b610d39565b610e86610e816003610d6d565b610830565b63a28ba91b82823b15610f3b57610ebc92610eb15f8094610ea5610112565b96879586948593610b70565b835260048301610586565b03925af18015610f3657610f0a575b50903391610f057f318bc63e6d8e4184872946d3fb254443ec6f6c73c3df6d93a28a0ea5c58494d493610efc610112565b93849384610d89565b0390a1565b610f29905f3d8111610f2f575b610f21818361026b565b810190610d7a565b5f610ecb565b503d610f17565b610bda565b610b6c565b610f61915060203d8111610f67575b610f59818361026b565b810190610b99565b5f610e29565b503d610f4f565b610bda565b610f8d610f88610f836002610b3b565b610b54565b610b60565b602063bed98a0d913390610fba610fa261096a565b94610fc5610fae610112565b96879586948594610b70565b845260048401610bb7565b03915afa801561110b57610fe0915f916110dd575b50610c43565b610ffc610ff7610ff2600184906105d3565b610c80565b610ce6565b6110115f61100c600184906105d3565b610d39565b61102361101e6003610d6d565b610830565b63f7a6f97d82823b156110d8576110599261104e5f8094611042610112565b96879586948593610b70565b835260048301610586565b03925af180156110d3576110a7575b509033916110a27ff78208ff888cc709694c540db1bc1fa21d002e2193cd16792b4adc8f678cb10d93611099610112565b93849384610d89565b0390a1565b6110c6905f3d81116110cc575b6110be818361026b565b810190610d7a565b5f611068565b503d6110b4565b610bda565b610b6c565b6110fe915060203d8111611104575b6110f6818361026b565b810190610b99565b5f610fda565b503d6110ec565b610bda565b5f7f73746174653a20756e617574686f72697a656400000000000000000000000000910152565b611144601360209261054c565b61114d81611110565b0190565b6111669060208101905f818303910152611137565b90565b1561117057565b611178610112565b62461bcd60e51b81528061118e60048201611151565b0390fd5b601f602091010490565b1b90565b919060086111bb9102916111b55f198461119c565b9261119c565b9181191691161790565b6111d96111d46111de926103a2565b610805565b6103a2565b90565b90565b91906111fa6111f5611202936111c5565b6111e1565b9083546111a0565b9055565b5f90565b61121c91611216611206565b916111e4565b565b5b81811061122a575050565b806112375f60019361120a565b0161121f565b9190601f811161124d575b505050565b61125961127e93610458565b90602061126584611192565b83019310611286575b61127790611192565b019061121e565b5f8080611248565b91506112778192905061126e565b906112a4905f19906008026105df565b191690565b816112b391611294565b906002021790565b906112c581610365565b9067ffffffffffffffff8211611385576112e9826112e38554610425565b8561123d565b602090601f831160011461131d5791809161130c935f92611311575b50506112a9565b90555b565b90915001515f80611305565b601f1983169161132c85610458565b925f5b81811061136d57509160029391856001969410611353575b5050500201905561130f565b611363910151601f841690611294565b90555f8080611347565b9193602060018192878701518155019501920161132f565b610257565b90611394916112bb565b565b90916113b06113be9360408401908482035f860152610555565b916020818403910152610555565b90565b6113db6113d66113d16002610b3b565b610b54565b610b60565b602063bed98a0d9133906114086113f0610ab2565b946114136113fc610112565b96879586948594610b70565b845260048401610bb7565b03915afa801561156c5761142e915f9161153e575b50611169565b61145d611445611440600184906105d3565b610c80565b6114576114515f610628565b91610628565b14610ce6565b6114718261146c5f84906103f2565b61138a565b61148361147e6003610d6d565b610830565b63c1add27f828492803b15611539576114af5f80946114ba6114a3610112565b97889687958694610b70565b845260048401611396565b03925af1801561153457611508575b509033916115037f49c4866a73141bd9f1eaba431811b5fd09f93061e0ae9bd2b7739d72eb257fb8936114fa610112565b93849384610d89565b0390a1565b611527905f3d811161152d575b61151f818361026b565b810190610d7a565b5f6114c9565b503d611515565b610bda565b610b6c565b61155f915060203d8111611565575b611557818361026b565b810190610b99565b5f611428565b503d61154d565b610bda565b9061158260018060a01b0391610d0f565b9181191691161790565b61159590610824565b90565b90565b906115b06115ab6115b79261158c565b611598565b8254611571565b9055565b6115d56115d06115cb6002610b3b565b610b54565b610b60565b602063bed98a0d9133906116026115ea610147565b9461160d6115f6610112565b96879586948594610b70565b845260048401610bb7565b03915afa801561169c57611628915f9161166e575b50610c43565b61163381600261159b565b6116697f28d4e0ded22eda72f8e6b0b445c3f58df7fe154a3b5353f41e83adfebc2a3e0791611660610112565b918291826108ec565b0390a1565b61168f915060203d8111611695575b611687818361026b565b810190610b99565b5f611622565b503d61167d565b610bda565b606090565b6116af906104fa565b90565b6116c86116cd916116c16116a1565b505f6103f2565b6116a6565b90565b5f7f53746174653a20617574686f72697a6564000000000000000000000000000000910152565b611704601160209261054c565b61170d816116d0565b0190565b6117269060208101905f8183039101526116f7565b90565b1561173057565b611738610112565b62461bcd60e51b81528061174e60048201611711565b0390fd5b9291602061176e6117769360408701908782035f890152610555565b9401906108df565b565b61179261178d6117886002610b3b565b610b54565b610b60565b602063bed98a0d9133906117bf6117a761071a565b946117ca6117b3610112565b96879586948594610b70565b845260048401610bb7565b03915afa8015611884576117e5915f91611856575b50611729565b6117f0600115610628565b61182f5761182a7f7e7da9a7e5d0e2868da0b53051bd9984eac62aed18ade7e0af67f05401b2929a91611821610112565b91829182610586565b0390a1565b339061185261183c610112565b928392633b50103b60e21b845260048401611752565b0390fd5b611877915060203d811161187d575b61186f818361026b565b810190610b99565b5f6117df565b503d611865565b610bda56fea26469706673582212202019f76c1e0afff67939865812b082cf091450659d67a0d97209eb67bbec6a7d64736f6c634300081c0033","linkReferences":{}},"methodIdentifiers":{"INITIATE()":"5c3e7c40","LOCK_CONTRACT()":"18830f55","SET_PROFILE()":"010b842f","SET_STATE()":"fb2935ab","UNLOCK_CONTRACT()":"da19db10","getState(string)":"e33f77ca","initiate(string)":"ee824d66","lockContract(string,string)":"3779d1c7","locked(string)":"3610252e","profile()":"ab60636c","profileContract()":"a3974b21","setProfile(address)":"e0b6a1e3","setState(string,string)":"d9038f3c","states(string)":"1ed0d035","unlockContract(string,string)":"92db345d"},"id":87}