{"abi":[{"type":"constructor","inputs":[{"name":"_router","type":"address","internalType":"address"},{"name":"_link","type":"address","internalType":"address"},{"name":"_merkleVerifier","type":"address","internalType":"address"}],"stateMutability":"nonpayable"},{"type":"receive","stateMutability":"payable"},{"type":"function","name":"acceptOwnership","inputs":[],"outputs":[],"stateMutability":"nonpayable"},{"type":"function","name":"allowlistDestinationChain","inputs":[{"name":"_destinationChainSelector","type":"uint64","internalType":"uint64"},{"name":"allowed","type":"bool","internalType":"bool"}],"outputs":[],"stateMutability":"nonpayable"},{"type":"function","name":"allowlistSender","inputs":[{"name":"_sender","type":"address","internalType":"address"},{"name":"allowed","type":"bool","internalType":"bool"}],"outputs":[],"stateMutability":"nonpayable"},{"type":"function","name":"allowlistSourceChain","inputs":[{"name":"_sourceChainSelector","type":"uint64","internalType":"uint64"},{"name":"allowed","type":"bool","internalType":"bool"}],"outputs":[],"stateMutability":"nonpayable"},{"type":"function","name":"allowlistedDestinationChains","inputs":[{"name":"","type":"uint64","internalType":"uint64"}],"outputs":[{"name":"","type":"bool","internalType":"bool"}],"stateMutability":"view"},{"type":"function","name":"allowlistedSenders","inputs":[{"name":"","type":"address","internalType":"address"}],"outputs":[{"name":"","type":"bool","internalType":"bool"}],"stateMutability":"view"},{"type":"function","name":"allowlistedSourceChains","inputs":[{"name":"","type":"uint64","internalType":"uint64"}],"outputs":[{"name":"","type":"bool","internalType":"bool"}],"stateMutability":"view"},{"type":"function","name":"ccipReceive","inputs":[{"name":"message","type":"tuple","internalType":"struct Client.Any2EVMMessage","components":[{"name":"messageId","type":"bytes32","internalType":"bytes32"},{"name":"sourceChainSelector","type":"uint64","internalType":"uint64"},{"name":"sender","type":"bytes","internalType":"bytes"},{"name":"data","type":"bytes","internalType":"bytes"},{"name":"destTokenAmounts","type":"tuple[]","internalType":"struct Client.EVMTokenAmount[]","components":[{"name":"token","type":"address","internalType":"address"},{"name":"amount","type":"uint256","internalType":"uint256"}]}]}],"outputs":[],"stateMutability":"nonpayable"},{"type":"function","name":"getLastReceivedMessageDetails","inputs":[],"outputs":[{"name":"messageId","type":"bytes32","internalType":"bytes32"},{"name":"text","type":"string","internalType":"string"}],"stateMutability":"view"},{"type":"function","name":"getRouter","inputs":[],"outputs":[{"name":"","type":"address","internalType":"address"}],"stateMutability":"view"},{"type":"function","name":"merkleVerifier","inputs":[],"outputs":[{"name":"","type":"address","internalType":"contract IMerkleVerifier"}],"stateMutability":"view"},{"type":"function","name":"owner","inputs":[],"outputs":[{"name":"","type":"address","internalType":"address"}],"stateMutability":"view"},{"type":"function","name":"sendMessagePayLINK","inputs":[{"name":"_destinationChainSelector","type":"uint64","internalType":"uint64"},{"name":"_receiver","type":"address","internalType":"address"},{"name":"_text","type":"string","internalType":"string"}],"outputs":[{"name":"messageId","type":"bytes32","internalType":"bytes32"}],"stateMutability":"nonpayable"},{"type":"function","name":"sendMessagePayNative","inputs":[{"name":"_destinationChainSelector","type":"uint64","internalType":"uint64"},{"name":"_receiver","type":"address","internalType":"address"},{"name":"_text","type":"string","internalType":"string"}],"outputs":[{"name":"messageId","type":"bytes32","internalType":"bytes32"}],"stateMutability":"nonpayable"},{"type":"function","name":"setMerkleVerifier","inputs":[{"name":"_verifier","type":"address","internalType":"address"}],"outputs":[],"stateMutability":"nonpayable"},{"type":"function","name":"supportsInterface","inputs":[{"name":"interfaceId","type":"bytes4","internalType":"bytes4"}],"outputs":[{"name":"","type":"bool","internalType":"bool"}],"stateMutability":"view"},{"type":"function","name":"transferOwnership","inputs":[{"name":"to","type":"address","internalType":"address"}],"outputs":[],"stateMutability":"nonpayable"},{"type":"function","name":"withdraw","inputs":[{"name":"_beneficiary","type":"address","internalType":"address"}],"outputs":[],"stateMutability":"nonpayable"},{"type":"function","name":"withdrawToken","inputs":[{"name":"_beneficiary","type":"address","internalType":"address"},{"name":"_token","type":"address","internalType":"address"}],"outputs":[],"stateMutability":"nonpayable"},{"type":"event","name":"ChangedMerkleVerifier","inputs":[{"name":"newVerifier","type":"address","indexed":true,"internalType":"address"}],"anonymous":false},{"type":"event","name":"MessageReceived","inputs":[{"name":"messageId","type":"bytes32","indexed":true,"internalType":"bytes32"},{"name":"sourceChainSelector","type":"uint64","indexed":true,"internalType":"uint64"},{"name":"sender","type":"address","indexed":false,"internalType":"address"},{"name":"text","type":"string","indexed":false,"internalType":"string"}],"anonymous":false},{"type":"event","name":"MessageSent","inputs":[{"name":"messageId","type":"bytes32","indexed":true,"internalType":"bytes32"},{"name":"destinationChainSelector","type":"uint64","indexed":true,"internalType":"uint64"},{"name":"receiver","type":"address","indexed":false,"internalType":"address"},{"name":"text","type":"string","indexed":false,"internalType":"string"},{"name":"feeToken","type":"address","indexed":false,"internalType":"address"},{"name":"fees","type":"uint256","indexed":false,"internalType":"uint256"}],"anonymous":false},{"type":"event","name":"OwnershipTransferRequested","inputs":[{"name":"from","type":"address","indexed":true,"internalType":"address"},{"name":"to","type":"address","indexed":true,"internalType":"address"}],"anonymous":false},{"type":"event","name":"OwnershipTransferred","inputs":[{"name":"from","type":"address","indexed":true,"internalType":"address"},{"name":"to","type":"address","indexed":true,"internalType":"address"}],"anonymous":false},{"type":"error","name":"DestinationChainNotAllowlisted","inputs":[{"name":"destinationChainSelector","type":"uint64","internalType":"uint64"}]},{"type":"error","name":"FailedToWithdrawEth","inputs":[{"name":"owner","type":"address","internalType":"address"},{"name":"target","type":"address","internalType":"address"},{"name":"value","type":"uint256","internalType":"uint256"}]},{"type":"error","name":"InvalidReceiverAddress","inputs":[]},{"type":"error","name":"InvalidRouter","inputs":[{"name":"router","type":"address","internalType":"address"}]},{"type":"error","name":"NotEnoughBalance","inputs":[{"name":"currentBalance","type":"uint256","internalType":"uint256"},{"name":"calculatedFees","type":"uint256","internalType":"uint256"}]},{"type":"error","name":"NothingToWithdraw","inputs":[]},{"type":"error","name":"SenderNotAllowlisted","inputs":[{"name":"sender","type":"address","internalType":"address"}]},{"type":"error","name":"SourceChainNotAllowlisted","inputs":[{"name":"sourceChainSelector","type":"uint64","internalType":"uint64"}]}],"bytecode":{"object":"0x60a0604052346100395761001a61001461011a565b9161020a565b61002261003e565b61311761056882396080518161202a015261311790f35b610044565b60405190565b5f80fd5b601f801991011690565b634e487b7160e01b5f52604160045260245ffd5b9061007090610048565b810190811060018060401b0382111761008857604052565b610052565b906100a061009961003e565b9283610066565b565b5f80fd5b60018060a01b031690565b6100ba906100a6565b90565b6100c6816100b1565b036100cd57565b5f80fd5b905051906100de826100bd565b565b9091606082840312610115576101126100fb845f85016100d1565b9361010981602086016100d1565b936040016100d1565b90565b6100a2565b61013861367f8038038061012d8161008d565b9283398101906100e0565b909192565b90565b61015461014f610159926100a6565b61013d565b6100a6565b90565b61016590610140565b90565b6101719061015c565b90565b5f1b90565b9061018a60018060a01b0391610174565b9181191691161790565b61019d9061015c565b90565b90565b906101b86101b36101bf92610194565b6101a0565b8254610179565b9055565b6101cc90610140565b90565b6101d8906101c3565b90565b6101e4906101c3565b90565b90565b906101ff6101fa610206926101db565b6101e7565b8254610179565b9055565b9161022d610226610232936102216102399661023b565b610168565b60076101a3565b6101cf565b60086101ea565b565b6102459033610272565b565b90565b61025e61025961026392610247565b61013d565b6100a6565b90565b61026f9061024a565b90565b90610286916102805f610266565b9061034e565b565b60209181520190565b5f7f43616e6e6f7420736574206f776e657220746f207a65726f0000000000000000910152565b6102c56018602092610288565b6102ce81610291565b0190565b6102e79060208101905f8183039101526102b8565b90565b156102f157565b6102f961003e565b62461bcd60e51b81528061030f600482016102d2565b0390fd5b61031c90610140565b90565b61032890610313565b90565b90565b9061034361033e61034a9261031f565b61032b565b8254610179565b9055565b61035b61038692936103b9565b6103808161037961037361036e5f610266565b6100b1565b916100b1565b14156102ea565b5f61032e565b806103a161039b6103965f610266565b6100b1565b916100b1565b036103aa575b50565b6103b3906104ea565b5f6103a7565b6103c2906103e6565b565b6103cd906100b1565b9052565b91906103e4905f602085019401906103c4565b565b806104016103fb6103f65f610266565b6100b1565b916100b1565b1461040b57608052565b61042e6104175f610266565b5f9182916335fdcccd60e21b8352600483016103d1565b0390fd5b5f7f43616e6e6f74207472616e7366657220746f2073656c66000000000000000000910152565b6104666017602092610288565b61046f81610432565b0190565b6104889060208101905f818303910152610459565b90565b1561049257565b61049a61003e565b62461bcd60e51b8152806104b060048201610473565b0390fd5b5f1c90565b60018060a01b031690565b6104d06104d5916104b4565b6104b9565b90565b6104e290546104c4565b90565b5f0190565b610507816105006104fa336100b1565b916100b1565b141561048b565b61051281600161032e565b61051b5f6104d8565b9061054f6105497fed8889f560326eb138920d842192f0eb3dd22b4f139c87a2c57538e05bae12789361031f565b9161031f565b9161055861003e565b80610562816104e5565b0390a356fe60806040526004361015610015575b36610a3957005b61001f5f3561014e565b806301ffc9a714610149578063263596a514610144578063395057371461013f5780633aeac4e11461013a5780634030d5211461013557806351cff8d9146101305780635bd558741461012b5780636159ada11461012657806375c67c661461012157806379ba50971461011c5780637b77dd041461011757806381568a061461011257806385572ffb1461010d5780638da5cb5b1461010857806396d3b83d14610103578063b0f479a1146100fe578063db04fa49146100f9578063eab5b02c146100f45763f2fde38b0361000e57610a06565b6109d2565b610971565b61093c565b610908565b610883565b61082e565b6107a9565b610770565b61068b565b610656565b610608565b61059a565b610567565b610514565b61041b565b610385565b6102a7565b6101da565b60e01c90565b60405190565b5f80fd5b5f80fd5b5f80fd5b63ffffffff60e01b1690565b61017b81610166565b0361018257565b5f80fd5b9050359061019382610172565b565b906020828203126101ae576101ab915f01610186565b90565b61015e565b151590565b6101c1906101b3565b9052565b91906101d8905f602085019401906101b8565b565b3461020a576102066101f56101f0366004610195565b610a41565b6101fd610154565b918291826101c5565b0390f35b61015a565b5f91031261021957565b61015e565b90565b61022a9061021e565b9052565b5190565b60209181520190565b90825f9392825e0152565b601f801991011690565b61026f61027860209361027d936102668161022e565b93848093610232565b9586910161023b565b610246565b0190565b916102a49261029760408201935f830190610221565b6020818403910152610250565b90565b346102d8576102b736600461020f565b6102bf610c19565b906102d46102cb610154565b92839283610281565b0390f35b61015a565b1c90565b60018060a01b031690565b6102fc90600861030193026102dd565b6102e1565b90565b9061030f91546102ec565b90565b61031e60085f90610304565b90565b60018060a01b031690565b90565b61034361033e61034892610321565b61032c565b610321565b90565b6103549061032f565b90565b6103609061034b565b90565b61036c90610357565b9052565b9190610383905f60208501940190610363565b565b346103b55761039536600461020f565b6103b16103a0610312565b6103a8610154565b91829182610370565b0390f35b61015a565b6103c390610321565b90565b6103cf816103ba565b036103d657565b5f80fd5b905035906103e7826103c6565b565b9190604083820312610411578061040561040e925f86016103da565b936020016103da565b90565b61015e565b5f0190565b3461044a5761043461042e3660046103e9565b90610ddc565b61043c610154565b8061044681610416565b0390f35b61015a565b67ffffffffffffffff1690565b6104658161044f565b0361046c57565b5f80fd5b9050359061047d8261045c565b565b9060208282031261049857610495915f01610470565b90565b61015e565b6104b16104ac6104b69261044f565b61032c565b61044f565b90565b906104c39061049d565b5f5260205260405f2090565b60ff1690565b6104e59060086104ea93026102dd565b6104cf565b90565b906104f891546104d5565b90565b6105119061050c6005915f926104b9565b6104ed565b90565b346105445761054061052f61052a36600461047f565b6104fb565b610537610154565b918291826101c5565b0390f35b61015a565b906020828203126105625761055f915f016103da565b90565b61015e565b346105955761057f61057a366004610549565b610f6c565b610587610154565b8061059181610416565b0390f35b61015a565b346105c8576105b26105ad366004610549565b611006565b6105ba610154565b806105c481610416565b0390f35b61015a565b6105d69061034b565b90565b906105e3906105cd565b5f5260205260405f2090565b610605906106006006915f926105d9565b6104ed565b90565b346106385761063461062361061e366004610549565b6105ef565b61062b610154565b918291826101c5565b0390f35b61015a565b6106539061064e6004915f926104b9565b6104ed565b90565b346106865761068261067161066c36600461047f565b61063d565b610679610154565b918291826101c5565b0390f35b61015a565b346106b95761069b36600461020f565b6106a361110a565b6106ab610154565b806106b581610416565b0390f35b61015a565b5f80fd5b5f80fd5b5f80fd5b909182601f830112156107045781359167ffffffffffffffff83116106ff5760200192600183028401116106fa57565b6106c6565b6106c2565b6106be565b9160608383031261075657610720825f8501610470565b9261072e83602083016103da565b92604082013567ffffffffffffffff81116107515761074d92016106ca565b9091565b610162565b61015e565b919061076e905f60208501940190610221565b565b346107a4576107a061078f610786366004610709565b929190916119cd565b610797610154565b9182918261075b565b0390f35b61015a565b346107dd576107d96107c86107bf366004610709565b92919091611ce7565b6107d0610154565b9182918261075b565b0390f35b61015a565b5f80fd5b908160a09103126107f45790565b6107e2565b90602082820312610829575f82013567ffffffffffffffff81116108245761082192016107e6565b90565b610162565b61015e565b3461085c576108466108413660046107f9565b611f80565b61084e610154565b8061085881610416565b0390f35b61015a565b61086a906103ba565b9052565b9190610881905f60208501940190610861565b565b346108b35761089336600461020f565b6108af61089e611f8f565b6108a6610154565b9182918261086e565b0390f35b61015a565b6108c1816101b3565b036108c857565b5f80fd5b905035906108d9826108b8565b565b919060408382031261090357806108f7610900925f8601610470565b936020016108cc565b90565b61015e565b346109375761092161091b3660046108db565b90612013565b610929610154565b8061093381610416565b0390f35b61015a565b3461096c5761094c36600461020f565b61096861095761201f565b61095f610154565b9182918261086e565b0390f35b61015a565b346109a05761098a6109843660046108db565b90612076565b610992610154565b8061099c81610416565b0390f35b61015a565b91906040838203126109cd57806109c16109ca925f86016103da565b936020016108cc565b90565b61015e565b34610a01576109eb6109e53660046109a5565b906120ac565b6109f3610154565b806109fd81610416565b0390f35b61015a565b34610a3457610a1e610a19366004610549565b6120d6565b610a26610154565b80610a3081610416565b0390f35b61015a565b5f80fd5b5f90565b610a49610a3d565b5080610a64610a5e6385572ffb60e01b610166565b91610166565b14908115610a71575b5090565b9050610a8c610a866301ffc9a760e01b610166565b91610166565b145f610a6d565b5f90565b606090565b5f1c90565b90565b610ab0610ab591610a9c565b610aa1565b90565b610ac29054610aa4565b90565b634e487b7160e01b5f52602260045260245ffd5b9060016002830492168015610af9575b6020831014610af457565b610ac5565b91607f1691610ae9565b60209181520190565b5f5260205f2090565b905f9291805490610b2f610b2883610ad9565b8094610b03565b916001811690815f14610b865750600114610b4a575b505050565b610b579192939450610b0c565b915f925b818410610b6e57505001905f8080610b45565b60018160209295939554848601520191019290610b5b565b92949550505060ff19168252151560200201905f8080610b45565b90610bab91610b15565b90565b634e487b7160e01b5f52604160045260245ffd5b90610bcc90610246565b810190811067ffffffffffffffff821117610be657604052565b610bae565b90610c0b610c0492610bfb610154565b93848092610ba1565b0383610bc2565b565b610c1690610beb565b90565b610c21610a93565b50610c2a610a97565b50610c356002610ab8565b90610c406003610c0d565b90565b90610c5591610c50612163565b610d04565b565b610c609061032f565b90565b610c6c90610c57565b90565b610c789061034b565b90565b610c849061034b565b90565b5f80fd5b60e01b90565b90565b610c9d81610c91565b03610ca457565b5f80fd5b90505190610cb582610c94565b565b90602082820312610cd057610ccd915f01610ca8565b90565b61015e565b610cdd610154565b3d5f823e3d90fd5b90565b610cfc610cf7610d0192610ce5565b61032c565b610c91565b90565b610d4c6020610d1a610d1585610c63565b610c6f565b6370a0823190610d41610d2c30610c7b565b92610d35610154565b95869485938493610c8b565b83526004830161086e565b03915afa908115610dd7575f91610da9575b5080610d72610d6c5f610ce8565b91610c91565b14610d8d57610d83610d8b93610c63565b9190916121ae565b565b5f630686827b60e51b815280610da560048201610416565b0390fd5b610dca915060203d8111610dd0575b610dc28183610bc2565b810190610cb7565b5f610d5e565b503d610db8565b610cd5565b90610de691610c43565b565b610df990610df4612163565b610ed7565b565b905090565b610e0b5f8092610dfb565b0190565b610e1890610e00565b90565b90610e2e610e27610154565b9283610bc2565b565b67ffffffffffffffff8111610e4e57610e4a602091610246565b0190565b610bae565b90610e65610e6083610e30565b610e1b565b918252565b606090565b3d5f14610e8a57610e7f3d610e53565b903d5f602084013e5b565b610e92610e6a565b90610e88565b610ea190610c91565b9052565b604090610ece610ed59496959396610ec460608401985f850190610861565b6020830190610861565b0190610e98565b565b610ee030610c7b565b319081610ef5610eef5f610ce8565b91610c91565b14610f5057610f275f808385610f09610154565b9081610f1481610e0f565b03925af1610f20610e6f565b50156101b3565b610f2f575050565b610f4c3391925f938493639d11f56360e01b855260048501610ea5565b0390fd5b5f630686827b60e51b815280610f6860048201610416565b0390fd5b610f7590610de8565b565b610f8890610f83612163565b610ff1565b565b610f939061032f565b90565b610f9f90610f8a565b90565b5f1b90565b90610fb860018060a01b0391610fa2565b9181191691161790565b610fcb90610f8a565b90565b90565b90610fe6610fe1610fed92610fc2565b610fce565b8254610fa7565b9055565b610ffd61100491610f96565b6008610fd1565b565b61100f90610f77565b565b60018060a01b031690565b61102861102d91610a9c565b611011565b90565b61103a905461101c565b90565b5f7f4d7573742062652070726f706f736564206f776e657200000000000000000000910152565b6110716016602092610232565b61107a8161103d565b0190565b6110939060208101905f818303910152611064565b90565b1561109d57565b6110a5610154565b62461bcd60e51b8152806110bb6004820161107e565b0390fd5b90565b906110d76110d26110de926105cd565b6110bf565b8254610fa7565b9055565b6110f66110f16110fb92610ce5565b61032c565b610321565b90565b611107906110e2565b90565b61112f3361112961112361111e6001611030565b6103ba565b916103ba565b14611096565b6111385f611030565b611142335f6110c2565b61115561114e5f6110fe565b60016110c2565b336111896111837f8be0079c531659141344cd1fd0a4f28419497f9722a3daafe3b4186f6b6457e0936105cd565b916105cd565b91611192610154565b8061119c81610416565b0390a3565b906111b6949392916111b1612163565b6111fc565b90565b6111c56111ca91610a9c565b6104cf565b90565b6111d790546111b9565b90565b6111e39061044f565b9052565b91906111fa905f602085019401906111da565b565b9493929190809561122061121a61121560048a906104b9565b6111cd565b156101b3565b6112325761122f959650611251565b90565b61124d875f918291630a503cdb60e01b8352600483016111e7565b0390fd5b939291908161127061126a6112655f6110fe565b6103ba565b916103ba565b146112815761127e946115d5565b90565b5f63502ffa3f60e11b81528061129960048201610416565b0390fd5b60018060a01b031690565b6112b46112b991610a9c565b61129d565b90565b6112c690546112a8565b90565b905051906112d6826103c6565b565b906020828203126112f1576112ee915f016112c9565b90565b61015e565b6112ff9061032f565b90565b61130b906112f6565b90565b6113179061034b565b90565b5190565b60209181520190565b61134661134f6020936113549361133d8161131a565b9384809361131e565b9586910161023b565b610246565b0190565b5190565b60209181520190565b60200190565b611374906103ba565b9052565b61138190610c91565b9052565b906020806113a79361139d5f8201515f86019061136b565b0151910190611378565b565b906113b681604093611385565b0190565b60200190565b906113dd6113d76113d084611358565b809361135c565b92611365565b905f5b8181106113ed5750505090565b90919261140661140060019286516113a9565b946113ba565b91019190916113e0565b61147a91608061145761144561143360a085015f8701518682035f880152611327565b60208601518582036020870152611327565b604085015184820360408601526113c0565b9261146a6060820151606085019061136b565b0151906080818403910152611327565b90565b916114a09261149360408201935f8301906111da565b6020818403910152611410565b90565b9160206114c49294936114bd60408201965f830190610e98565b0190610e98565b565b905051906114d3826108b8565b565b906020828203126114ee576114eb915f016114c6565b90565b61015e565b91602061151492949361150d60408201965f830190610861565b0190610e98565b565b61151f8161021e565b0361152657565b5f80fd5b9050519061153782611516565b565b906020828203126115525761154f915f0161152a565b90565b61015e565b6115609061021e565b90565b90825f939282370152565b9190611588816115818161158d95610232565b8095611563565b610246565b0190565b906115c16115cc916115d3969897956060956115b460808701935f880190610861565b858303602087015261156e565b966040830190610861565b0190610e98565b565b939293506115f8828585906115f26115ed60076112bc565b610c6f565b9261238f565b9261161d602061160730610c7b565b63b0f479a190611615610154565b938492610c8b565b8252818061162d60048201610416565b03915afa80156119c857611648915f9161199a575b50611302565b936116528561130e565b60206320487ded918590611678859461168361166c610154565b96879586948594610c8b565b84526004840161147d565b03915afa908115611995575f91611967575b5094856116e160206116af6116aa60076112bc565b610c6f565b6370a08231906116d66116c130610c7b565b926116ca610154565b95869485938493610c8b565b83526004830161086e565b03915afa9081156119625761170791611701915f91611934575b50610c91565b91610c91565b116118835761171e61171960076112bc565b610c6f565b90602063095ea7b3926117308361130e565b9061174e5f8b96611759611742610154565b98899687958694610c8b565b8452600484016114f3565b03925af190811561187e5760209261177692611853575b5061130e565b916396f4e9f99261179b5f8793956117a661178f610154565b97889687958694610c8b565b84526004840161147d565b03925af190811561184e575f91611820575b509461181a8693949192956117d56117d060076112bc565b610c6f565b6118086118027fd36445359b3c6e26c120659aef090ce0f2eb005cf9af450d11aa1225609b4f4d97611557565b9761049d565b97611811610154565b95869586611591565b0390a390565b611841915060203d8111611847575b6118398183610bc2565b810190611539565b5f6117b8565b503d61182f565b610cd5565b61187290843d8111611877575b61186a8183610bc2565b8101906114d5565b611770565b503d611860565b610cd5565b6118cd86602061189b61189660076112bc565b610c6f565b6370a08231906118c26118ad30610c7b565b926118b6610154565b96879485938493610c8b565b83526004830161086e565b03915afa91821561192f575f926118ff575b50906118fb5f928392634787a10360e11b8452600484016114a3565b0390fd5b61192191925060203d8111611928575b6119198183610bc2565b810190610cb7565b90826118df565b503d61190f565b610cd5565b611955915060203d811161195b575b61194d8183610bc2565b810190610cb7565b5f6116fb565b503d611943565b610cd5565b611988915060203d811161198e575b6119808183610bc2565b810190610cb7565b5f611695565b503d611976565b610cd5565b6119bb915060203d81116119c1575b6119b38183610bc2565b8101906112d8565b5f611642565b503d6119a9565b610cd5565b906119e19392916119dc610a93565b6111a1565b90565b906119f9949392916119f4612163565b6119fc565b90565b94939291908095611a20611a1a611a1560048a906104b9565b6111cd565b156101b3565b611a3257611a2f959650611a51565b90565b611a4d875f918291630a503cdb60e01b8352600483016111e7565b0390fd5b9392919081611a70611a6a611a655f6110fe565b6103ba565b916103ba565b14611a8157611a7e94611a9d565b90565b5f63502ffa3f60e11b815280611a9960048201610416565b0390fd5b93929350611ab782858590611ab15f6110fe565b9261238f565b92611adc6020611ac630610c7b565b63b0f479a190611ad4610154565b938492610c8b565b82528180611aec60048201610416565b03915afa8015611ce257611b07915f91611cb4575b50611302565b93611b118561130e565b60206320487ded918590611b378594611b42611b2b610154565b96879586948594610c8b565b84526004840161147d565b03915afa908115611caf575f91611c81575b509485611b72611b6c611b6630610c7b565b31610c91565b91610c91565b11611c5857611b8260209161130e565b916396f4e9f9611ba988949194879395611bb4611b9d610154565b97889687958694610c8b565b84526004840161147d565b03925af1908115611c53575f91611c25575b5094611c1f869394919295611bda5f6110fe565b611c0d611c077fd36445359b3c6e26c120659aef090ce0f2eb005cf9af450d11aa1225609b4f4d97611557565b9761049d565b97611c16610154565b95869586611591565b0390a390565b611c46915060203d8111611c4c575b611c3e8183610bc2565b810190611539565b5f611bc6565b503d611c34565b610cd5565b85611c6230610c7b565b31611c7d5f928392634787a10360e11b8452600484016114a3565b0390fd5b611ca2915060203d8111611ca8575b611c9a8183610bc2565b810190610cb7565b5f611b54565b503d611c90565b610cd5565b611cd5915060203d8111611cdb575b611ccd8183610bc2565b8101906112d8565b5f611b01565b503d611cc3565b610cd5565b90611cfb939291611cf6610a93565b6119e4565b90565b33611d18611d12611d0d61201f565b6103ba565b916103ba565b03611d2857611d2690611f6d565b565b611d43335f9182916335fdcccd60e21b83526004830161086e565b0390fd5b5f80fd5b5f80fd5b90503590611d5c82611516565b565b5f80fd5b90929192611d77611d7282610e30565b610e1b565b93818552602085019082840111611d9357611d9192611563565b565b611d5e565b9080601f83011215611db657816020611db393359101611d62565b90565b6106be565b67ffffffffffffffff8111611dd35760208091020190565b610bae565b90503590611de582610c94565b565b9190604083820312611e2157611e1a90611e016040610e1b565b93611e0e825f83016103da565b5f860152602001611dd8565b6020830152565b611d47565b90929192611e3b611e3682611dbb565b610e1b565b938185526040602086019202830192818411611e7a57915b838310611e605750505050565b6020604091611e6f8486611de7565b815201920191611e53565b6106c6565b9080601f83011215611e9d57816020611e9a93359101611e26565b90565b6106be565b91909160a081840312611f5a57611eb960a0610e1b565b92611ec6815f8401611d4f565b5f850152611ed78160208401610470565b6020850152604082013567ffffffffffffffff8111611f555781611efc918401611d98565b6040850152606082013567ffffffffffffffff8111611f505781611f21918401611d98565b6060850152608082013567ffffffffffffffff8111611f4b57611f449201611e7f565b6080830152565b611d4b565b611d4b565b611d4b565b611d47565b611f6a903690611ea2565b90565b611f79611f7e91611f5f565b612b1c565b565b611f8990611cfe565b565b5f90565b611f97611f8b565b50611fa15f611030565b90565b90611fb691611fb1612163565b611ffd565b565b90611fc460ff91610fa2565b9181191691161790565b611fd7906101b3565b90565b90565b90611ff2611fed611ff992611fce565b611fda565b8254611fb8565b9055565b61200c612011929160046104b9565b611fdd565b565b9061201d91611fa4565b565b612027611f8b565b507f000000000000000000000000000000000000000000000000000000000000000090565b9061205e91612059612163565b612060565b565b61206f612074929160056104b9565b611fdd565b565b906120809161204c565b565b906120949161208f612163565b612096565b565b6120a56120aa929160066105d9565b611fdd565b565b906120b691612082565b565b6120c9906120c4612163565b6120cb565b565b6120d490612ba9565b565b6120df906120b8565b565b5f7f4f6e6c792063616c6c61626c65206279206f776e657200000000000000000000910152565b6121156016602092610232565b61211e816120e1565b0190565b6121379060208101905f818303910152612108565b90565b1561214157565b612149610154565b62461bcd60e51b81528061215f60048201612122565b0390fd5b6121873361218161217b6121765f611030565b6103ba565b916103ba565b1461213a565b565b63ffffffff1690565b6121a66121a16121ab92612189565b610c8b565b610166565b90565b916121f26004926121e36121f795936121ca63a9059cbb612192565b926121d3610154565b96879460208601908152016114f3565b60208201810382520383610bc2565b612d30565b565b61220360a0610e1b565b90565b606090565b606090565b5f90565b61221c6121f9565b906020808080808661222c612206565b815201612237612206565b81520161224261220b565b81520161224d612210565b815201612258612206565b81525050565b612266612214565b90565b90916122809260208301925f81850391015261156e565b90565b9061229561229083611dbb565b610e1b565b918252565b6122a46040610e1b565b90565b5f90565b6122b361229a565b90602080836122c0612210565b8152016122cb6122a7565b81525050565b6122d96122ab565b90565b5f5b8281106122ea57505050565b6020906122f56122d1565b81840152016122de565b9061232461230c83612283565b9260208061231a8693611dbb565b92019103906122dc565b565b6123306040610e1b565b90565b90565b61234a61234561234f92612333565b61032c565b610c91565b90565b9061235c90610c91565b9052565b9061236a906101b3565b9052565b61237860a0610e1b565b90565b52565b52565b9061238b906103ba565b9052565b61247b926123f46123bf95936123ce612472946123aa61225e565b506123b3610154565b9889916020830161086e565b60208201810382520388610bc2565b6123e56123d9610154565b93849260208401612269565b60208201810382520382610bc2565b6124696124086124035f610ce8565b6122ff565b61246061244162030d4061243c600161243361242b612425612326565b94612336565b5f8501612352565b60208301612360565b612e0d565b959361245761244e61236e565b995f8b0161237b565b6020890161237b565b6040870161237e565b60608501612381565b6080830161237b565b90565b612488905161044f565b90565b61249490610321565b90565b6124a08161248b565b036124a757565b5f80fd5b905051906124b882612497565b565b906020828203126124d3576124d0915f016124ab565b90565b61015e565b6124e19061034b565b90565b6124f06020820161247e565b612516612511604084015160206125068261131a565b8183010191016124ba565b6124d8565b9061253461252e612529600584906104b9565b6111cd565b156101b3565b612585575061255661255061254b600684906105d9565b6111cd565b156101b3565b6125665750612564906129af565b565b612581905f9182916338c08ef960e11b83526004830161086e565b0390fd5b6125a0905f9182916326bfad9160e21b8352600483016111e7565b0390fd5b6125ae905161021e565b90565b906125bd5f1991610fa2565b9181191691161790565b6125d090610a9c565b90565b906125e86125e36125ef92611557565b6125c7565b82546125b1565b9055565b67ffffffffffffffff81116126115761260d602091610246565b0190565b610bae565b9092919261262b612626826125f3565b610e1b565b93818552602085019082840111612647576126459261023b565b565b611d5e565b9080601f8301121561266a5781602061266793519101612616565b90565b6106be565b9060208282031261269f575f82015167ffffffffffffffff811161269a57612697920161264c565b90565b610162565b61015e565b601f602091010490565b1b90565b919060086126cd9102916126c75f19846126ae565b926126ae565b9181191691161790565b6126eb6126e66126f092610c91565b61032c565b610c91565b90565b90565b919061270c612707612714936126d7565b6126f3565b9083546126b2565b9055565b5f90565b61272e91612728612718565b916126f6565b565b5b81811061273c575050565b806127495f60019361271c565b01612731565b9190601f811161275f575b505050565b61276b61279093610b0c565b906020612777846126a4565b83019310612798575b612789906126a4565b0190612730565b5f808061275a565b915061278981929050612780565b906127b6905f19906008026102dd565b191690565b816127c5916127a6565b906002021790565b906127d78161022e565b9067ffffffffffffffff8211612897576127fb826127f58554610ad9565b8561274f565b602090601f831160011461282f5791809161281e935f92612823575b50506127bb565b90555b565b90915001515f80612817565b601f1983169161283e85610b0c565b925f5b81811061287f57509160029391856001969410612865575b50505002019055612821565b612875910151601f8416906127a6565b90555f8080612859565b91936020600181928787015181550195019201612841565b610bae565b906128a6916127cd565b565b6128b46128b991610a9c565b6102e1565b90565b6128c690546128a8565b90565b5f9103126128d357565b61015e565b905f92918054906128f26128eb83610ad9565b8094610232565b916001811690815f14612949575060011461290d575b505050565b61291a9192939450610b0c565b915f925b81841061293157505001905f8080612908565b6001816020929593955484860152019101929061291e565b92949550505060ff19168252151560200201905f8080612908565b6129799160208201915f8184039101526128d8565b90565b612985906124d8565b9052565b916129ac9261299f60408201935f83019061297c565b6020818403910152610250565b90565b6129c46129bd5f83016125a4565b60026125d3565b6129ec6129e5606083015160206129da8261131a565b81830101910161266f565b600361289c565b6129fe6129f960086128bc565b610357565b638823c51d6003823b15612b1757612a3592612a2a5f8094612a1e610154565b96879586948593610c8b565b835260048301612964565b03925af18015612b1257612ae6575b50612a505f82016125a4565b612a5c6020830161247e565b90612a996060612a8060408601516020612a758261131a565b8183010191016124ba565b9401516020612a8e8261131a565b81830101910161266f565b612acc612ac67fb1e312a29937cc11967b0e4a346fef1ae132424ebaba9dc6d90249dba053e87c93611557565b9361049d565b93612ae1612ad8610154565b92839283612989565b0390a3565b612b05905f3d8111612b0b575b612afd8183610bc2565b8101906128c9565b5f612a44565b503d612af3565b610cd5565b610c87565b612b25906124e4565b565b5f7f43616e6e6f74207472616e7366657220746f2073656c66000000000000000000910152565b612b5b6017602092610232565b612b6481612b27565b0190565b612b7d9060208101905f818303910152612b4e565b90565b15612b8757565b612b8f610154565b62461bcd60e51b815280612ba560048201612b68565b0390fd5b612bc681612bbf612bb9336103ba565b916103ba565b1415612b80565b612bd18160016110c2565b612bda5f611030565b90612c0e612c087fed8889f560326eb138920d842192f0eb3dd22b4f139c87a2c57538e05bae1278936105cd565b916105cd565b91612c17610154565b80612c2181610416565b0390a3565b90612c38612c33836125f3565b610e1b565b918252565b5f7f5361666545524332303a206c6f772d6c6576656c2063616c6c206661696c6564910152565b612c6e6020612c26565b90612c7b60208301612c3d565b565b612c85612c64565b90565b60207f6f74207375636365656400000000000000000000000000000000000000000000917f5361666545524332303a204552433230206f7065726174696f6e20646964206e5f8201520152565b612ce2602a604092610232565b612ceb81612c88565b0190565b612d049060208101905f818303910152612cd5565b90565b15612d0e57565b612d16610154565b62461bcd60e51b815280612d2c60048201612cef565b0390fd5b90612d3d612d4c92610c6f565b90612d46612c7d565b91612e52565b612d558161131a565b612d67612d615f610ce8565b91610c91565b11612d70575b50565b612d8d612d92916020612d828261131a565b8183010191016114d5565b612d07565b5f612d6d565b90565b612daf612daa612db492612d98565b610c8b565b610166565b90565b612dc463181dcf10612d9b565b90565b612dd0906101b3565b9052565b90602080612df693612dec5f8201515f860190611378565b0151910190612dc7565b565b9190612e0b905f60408501940190612dd4565b565b612e4f600491612e1b610e6a565b50612e40612e27612db7565b91612e30610154565b9485936020850190815201612df8565b60208201810382520382610bc2565b90565b90612e719291612e60610e6a565b5090612e6b5f610ce8565b91612f28565b90565b612e7d9061034b565b90565b60207f722063616c6c0000000000000000000000000000000000000000000000000000917f416464726573733a20696e73756666696369656e742062616c616e636520666f5f8201520152565b612eda6026604092610232565b612ee381612e80565b0190565b612efc9060208101905f818303910152612ecd565b90565b15612f0657565b612f0e610154565b62461bcd60e51b815280612f2460048201612ee7565b0390fd5b915f8091612f7e9593612f39610e6a565b50612f60612f4630612e74565b31612f59612f5385610c91565b91610c91565b1015612eff565b8591602082019151925af191612f74610e6f565b9092909192613003565b90565b5f7f416464726573733a2063616c6c20746f206e6f6e2d636f6e7472616374000000910152565b612fb5601d602092610232565b612fbe81612f81565b0190565b612fd79060208101905f818303910152612fa8565b90565b15612fe157565b612fe9610154565b62461bcd60e51b815280612fff60048201612fc2565b0390fd5b91929061300e610e6a565b505f14613052575061301f8261131a565b61303161302b5f610ce8565b91610c91565b1461303b575b5090565b61304761304c916130c1565b612fda565b5f613037565b82613070565b61306d9160208201915f818403910152610250565b90565b9061307a8261131a565b61308c6130865f610ce8565b91610c91565b115f1461309c5750805190602001fd5b6130bd906130a8610154565b91829162461bcd60e51b835260048301613058565b0390fd5b6130c9610a3d565b503b6130dd6130d75f610ce8565b91610c91565b119056fea2646970667358221220839176b76f304943659ca7b9f183616243cf462a3cf627072d6fe401ab1dfa2464736f6c634300081c0033","linkReferences":{}},"methodIdentifiers":{"acceptOwnership()":"79ba5097","allowlistDestinationChain(uint64,bool)":"96d3b83d","allowlistSender(address,bool)":"eab5b02c","allowlistSourceChain(uint64,bool)":"db04fa49","allowlistedDestinationChains(uint64)":"75c67c66","allowlistedSenders(address)":"6159ada1","allowlistedSourceChains(uint64)":"4030d521","ccipReceive((bytes32,uint64,bytes,bytes,(address,uint256)[]))":"85572ffb","getLastReceivedMessageDetails()":"263596a5","getRouter()":"b0f479a1","merkleVerifier()":"39505737","owner()":"8da5cb5b","sendMessagePayLINK(uint64,address,string)":"7b77dd04","sendMessagePayNative(uint64,address,string)":"81568a06","setMerkleVerifier(address)":"5bd55874","supportsInterface(bytes4)":"01ffc9a7","transferOwnership(address)":"f2fde38b","withdraw(address)":"51cff8d9","withdrawToken(address,address)":"3aeac4e1"},"id":83}