{"abi":[{"type":"constructor","inputs":[{"name":"_router","type":"address","internalType":"address"},{"name":"_link","type":"address","internalType":"address"}],"stateMutability":"nonpayable"},{"type":"receive","stateMutability":"payable"},{"type":"function","name":"acceptOwnership","inputs":[],"outputs":[],"stateMutability":"nonpayable"},{"type":"function","name":"allowlistDestinationChain","inputs":[{"name":"_destinationChainSelector","type":"uint64","internalType":"uint64"},{"name":"allowed","type":"bool","internalType":"bool"}],"outputs":[],"stateMutability":"nonpayable"},{"type":"function","name":"allowlistedChains","inputs":[{"name":"","type":"uint64","internalType":"uint64"}],"outputs":[{"name":"","type":"bool","internalType":"bool"}],"stateMutability":"view"},{"type":"function","name":"owner","inputs":[],"outputs":[{"name":"","type":"address","internalType":"address"}],"stateMutability":"view"},{"type":"function","name":"transferOwnership","inputs":[{"name":"to","type":"address","internalType":"address"}],"outputs":[],"stateMutability":"nonpayable"},{"type":"function","name":"transferTokensPayLINK","inputs":[{"name":"_destinationChainSelector","type":"uint64","internalType":"uint64"},{"name":"_receiver","type":"address","internalType":"address"},{"name":"_token","type":"address","internalType":"address"},{"name":"_amount","type":"uint256","internalType":"uint256"}],"outputs":[{"name":"messageId","type":"bytes32","internalType":"bytes32"}],"stateMutability":"nonpayable"},{"type":"function","name":"transferTokensPayNative","inputs":[{"name":"_destinationChainSelector","type":"uint64","internalType":"uint64"},{"name":"_receiver","type":"address","internalType":"address"},{"name":"_token","type":"address","internalType":"address"},{"name":"_amount","type":"uint256","internalType":"uint256"}],"outputs":[{"name":"messageId","type":"bytes32","internalType":"bytes32"}],"stateMutability":"nonpayable"},{"type":"function","name":"withdraw","inputs":[{"name":"_beneficiary","type":"address","internalType":"address"}],"outputs":[],"stateMutability":"nonpayable"},{"type":"function","name":"withdrawToken","inputs":[{"name":"_beneficiary","type":"address","internalType":"address"},{"name":"_token","type":"address","internalType":"address"}],"outputs":[],"stateMutability":"nonpayable"},{"type":"event","name":"OwnershipTransferRequested","inputs":[{"name":"from","type":"address","indexed":true,"internalType":"address"},{"name":"to","type":"address","indexed":true,"internalType":"address"}],"anonymous":false},{"type":"event","name":"OwnershipTransferred","inputs":[{"name":"from","type":"address","indexed":true,"internalType":"address"},{"name":"to","type":"address","indexed":true,"internalType":"address"}],"anonymous":false},{"type":"event","name":"TokensTransferred","inputs":[{"name":"messageId","type":"bytes32","indexed":true,"internalType":"bytes32"},{"name":"destinationChainSelector","type":"uint64","indexed":true,"internalType":"uint64"},{"name":"receiver","type":"address","indexed":false,"internalType":"address"},{"name":"token","type":"address","indexed":false,"internalType":"address"},{"name":"tokenAmount","type":"uint256","indexed":false,"internalType":"uint256"},{"name":"feeToken","type":"address","indexed":false,"internalType":"address"},{"name":"fees","type":"uint256","indexed":false,"internalType":"uint256"}],"anonymous":false},{"type":"error","name":"DestinationChainNotAllowlisted","inputs":[{"name":"destinationChainSelector","type":"uint64","internalType":"uint64"}]},{"type":"error","name":"FailedToWithdrawEth","inputs":[{"name":"owner","type":"address","internalType":"address"},{"name":"target","type":"address","internalType":"address"},{"name":"value","type":"uint256","internalType":"uint256"}]},{"type":"error","name":"InvalidReceiverAddress","inputs":[]},{"type":"error","name":"NotEnoughBalance","inputs":[{"name":"currentBalance","type":"uint256","internalType":"uint256"},{"name":"calculatedFees","type":"uint256","internalType":"uint256"}]},{"type":"error","name":"NothingToWithdraw","inputs":[]}],"bytecode":{"object":"0x6080604052346100305761001a610014610104565b906101f3565b610022610035565b6121376104cc823961213790f35b61003b565b60405190565b5f80fd5b601f801991011690565b634e487b7160e01b5f52604160045260245ffd5b906100679061003f565b810190811060018060401b0382111761007f57604052565b610049565b90610097610090610035565b928361005d565b565b5f80fd5b60018060a01b031690565b6100b19061009d565b90565b6100bd816100a8565b036100c457565b5f80fd5b905051906100d5826100b4565b565b91906040838203126100ff57806100f36100fc925f86016100c8565b936020016100c8565b90565b610099565b6101226126038038038061011781610084565b9283398101906100d7565b9091565b90565b61013d6101386101429261009d565b610126565b61009d565b90565b61014e90610129565b90565b61015a90610145565b90565b5f1b90565b9061017360018060a01b039161015d565b9181191691161790565b61018690610145565b90565b90565b906101a161019c6101a89261017d565b610189565b8254610162565b9055565b6101b590610129565b90565b6101c1906101ac565b90565b6101cd906101ac565b90565b90565b906101e86101e36101ef926101c4565b6101d0565b8254610162565b9055565b6102219161021561020e61021a93610209610223565b610151565b600361018c565b6101b8565b60046101d3565b565b61022c33610259565b565b90565b61024561024061024a9261022e565b610126565b61009d565b90565b61025690610231565b90565b61026c906102665f61024d565b90610334565b565b60209181520190565b5f7f43616e6e6f7420736574206f776e657220746f207a65726f0000000000000000910152565b6102ab601860209261026e565b6102b481610277565b0190565b6102cd9060208101905f81830391015261029e565b90565b156102d757565b6102df610035565b62461bcd60e51b8152806102f5600482016102b8565b0390fd5b61030290610129565b90565b61030e906102f9565b90565b90565b9061032961032461033092610305565b610311565b8254610162565b9055565b6103639061035d8161035661035061034b5f61024d565b6100a8565b916100a8565b14156102d0565b5f610314565b8061037e6103786103735f61024d565b6100a8565b916100a8565b03610387575b50565b6103909061044e565b5f610384565b5f7f43616e6e6f74207472616e7366657220746f2073656c66000000000000000000910152565b6103ca601760209261026e565b6103d381610396565b0190565b6103ec9060208101905f8183039101526103bd565b90565b156103f657565b6103fe610035565b62461bcd60e51b815280610414600482016103d7565b0390fd5b5f1c90565b60018060a01b031690565b61043461043991610418565b61041d565b90565b6104469054610428565b90565b5f0190565b61046b8161046461045e336100a8565b916100a8565b14156103ef565b610476816001610314565b61047f5f61043c565b906104b36104ad7fed8889f560326eb138920d842192f0eb3dd22b4f139c87a2c57538e05bae127893610305565b91610305565b916104bc610035565b806104c681610449565b0390a356fe60806040526004361015610015575b3661052e57005b61001f5f356100ae565b80630bb106eb146100a95780633aeac4e1146100a457806351419b4b1461009f57806351cff8d91461009a57806379ba5097146100955780638da5cb5b1461009057806395e1402c1461008b57806396d3b83d146100865763f2fde38b0361000e576104fb565b6104c7565b61043e565b610409565b6103b4565b610372565b61031b565b610256565b6101b5565b60e01c90565b60405190565b5f80fd5b5f80fd5b67ffffffffffffffff1690565b6100d8816100c2565b036100df57565b5f80fd5b905035906100f0826100cf565b565b9060208282031261010b57610108915f016100e3565b90565b6100be565b90565b61012761012261012c926100c2565b610110565b6100c2565b90565b9061013990610113565b5f5260205260405f2090565b1c90565b60ff1690565b61015f9060086101649302610145565b610149565b90565b90610172915461014f565b90565b61018b906101866002915f9261012f565b610167565b90565b151590565b61019c9061018e565b9052565b91906101b3905f60208501940190610193565b565b346101e5576101e16101d06101cb3660046100f2565b610175565b6101d86100b4565b918291826101a0565b0390f35b6100ba565b60018060a01b031690565b6101fe906101ea565b90565b61020a816101f5565b0361021157565b5f80fd5b9050359061022282610201565b565b919060408382031261024c5780610240610249925f8601610215565b93602001610215565b90565b6100be565b5f0190565b346102855761026f610269366004610224565b9061071f565b6102776100b4565b8061028181610251565b0390f35b6100ba565b90565b6102968161028a565b0361029d57565b5f80fd5b905035906102ae8261028d565b565b6080818303126102f1576102c6825f83016100e3565b926102ee6102d78460208501610215565b936102e58160408601610215565b936060016102a1565b90565b6100be565b90565b610302906102f6565b9052565b9190610319905f602085019401906102f9565b565b3461034f5761034b61033a6103313660046102b0565b92919091610dac565b6103426100b4565b91829182610306565b0390f35b6100ba565b9060208282031261036d5761036a915f01610215565b90565b6100be565b346103a05761038a610385366004610354565b610f3a565b6103926100b4565b8061039c81610251565b0390f35b6100ba565b5f9103126103af57565b6100be565b346103e2576103c43660046103a5565b6103cc61104b565b6103d46100b4565b806103de81610251565b0390f35b6100ba565b6103f0906101f5565b9052565b9190610407905f602085019401906103e7565b565b34610439576104193660046103a5565b6104356104246110e6565b61042c6100b4565b918291826103f4565b0390f35b6100ba565b346104725761046e61045d6104543660046102b0565b92919091611603565b6104656100b4565b91829182610306565b0390f35b6100ba565b6104808161018e565b0361048757565b5f80fd5b9050359061049882610477565b565b91906040838203126104c257806104b66104bf925f86016100e3565b9360200161048b565b90565b6100be565b346104f6576104e06104da36600461049a565b90611689565b6104e86100b4565b806104f281610251565b0390f35b6100ba565b346105295761051361050e366004610354565b6116b3565b61051b6100b4565b8061052581610251565b0390f35b6100ba565b5f80fd5b906105449161053f611740565b610647565b565b61055a61055561055f926101ea565b610110565b6101ea565b90565b61056b90610546565b90565b61057790610562565b90565b61058390610546565b90565b61058f9061057a565b90565b61059b9061057a565b90565b601f801991011690565b634e487b7160e01b5f52604160045260245ffd5b906105c69061059e565b810190811067ffffffffffffffff8211176105e057604052565b6105a8565b60e01b90565b905051906105f88261028d565b565b9060208282031261061357610610915f016105eb565b90565b6100be565b6106206100b4565b3d5f823e3d90fd5b90565b61063f61063a61064492610628565b610110565b61028a565b90565b61068f602061065d6106588561056e565b610586565b6370a082319061068461066f30610592565b926106786100b4565b958694859384936105e5565b8352600483016103f4565b03915afa90811561071a575f916106ec575b50806106b56106af5f61062b565b9161028a565b146106d0576106c66106ce9361056e565b919091611797565b565b5f630686827b60e51b8152806106e860048201610251565b0390fd5b61070d915060203d8111610713575b61070581836105bc565b8101906105fa565b5f6106a1565b503d6106fb565b610618565b9061072991610532565b565b5f90565b906107449493929161073f611740565b61078f565b90565b5f1c90565b61075861075d91610747565b610149565b90565b61076a905461074c565b90565b610776906100c2565b9052565b919061078d905f6020850194019061076d565b565b949392919080956107b36107ad6107a860028a9061012f565b610760565b1561018e565b6107c5576107c295965061080c565b90565b6107e0875f918291630a503cdb60e01b83526004830161077a565b0390fd5b6107f86107f36107fd92610628565b610110565b6101ea565b90565b610809906107e4565b90565b939291908161082b6108256108205f610800565b6101f5565b916101f5565b1461083c5761083994610b3e565b90565b5f63502ffa3f60e11b81528061085460048201610251565b0390fd5b60018060a01b031690565b61086f61087491610747565b610858565b90565b6108819054610863565b90565b61088d9061057a565b90565b5190565b60209181520190565b90825f9392825e0152565b6108c76108d06020936108d5936108be81610890565b93848093610894565b9586910161089d565b61059e565b0190565b5190565b60209181520190565b60200190565b6108f5906101f5565b9052565b6109029061028a565b9052565b906020806109289361091e5f8201515f8601906108ec565b01519101906108f9565b565b9061093781604093610906565b0190565b60200190565b9061095e610958610951846108d9565b80936108dd565b926108e6565b905f5b81811061096e5750505090565b909192610987610981600192865161092a565b9461093b565b9101919091610961565b6109fb9160806109d86109c66109b460a085015f8701518682035f8801526108a8565b602086015185820360208701526108a8565b60408501518482036040860152610941565b926109eb606082015160608501906108ec565b01519060808184039101526108a8565b90565b91610a2192610a1460408201935f83019061076d565b6020818403910152610991565b90565b610a2d9061028a565b9052565b916020610a52929493610a4b60408201965f830190610a24565b0190610a24565b565b90505190610a6182610477565b565b90602082820312610a7c57610a79915f01610a54565b90565b6100be565b916020610aa2929493610a9b60408201965f8301906103e7565b0190610a24565b565b610aad816102f6565b03610ab457565b5f80fd5b90505190610ac582610aa4565b565b90602082820312610ae057610add915f01610ab8565b90565b6100be565b610aee906102f6565b90565b90959492610b3c94610b2b610b3592610b21608096610b1760a088019c5f8901906103e7565b60208701906103e7565b6040850190610a24565b60608301906103e7565b0190610a24565b565b93929350610b5882858590610b525f610800565b92611a0d565b92610b6b610b666003610877565b610884565b60206320487ded918490610b918894610b9c610b856100b4565b968795869485946105e5565b8452600484016109fe565b03915afa908115610da7575f91610d79575b509384610bcc610bc6610bc030610592565b3161028a565b9161028a565b11610d5057610be2610bdd8761056e565b610586565b602063095ea7b391610bfc610bf76003610877565b610884565b90610c1a5f8795610c25610c0e6100b4565b978896879586946105e5565b845260048401610a81565b03925af18015610d4b57610d1f575b506020610c49610c446003610877565b610884565b916396f4e9f9610c7088949194879395610c7b610c646100b4565b978896879586946105e5565b8452600484016109fe565b03925af1908115610d1a575f91610cec575b5094610ce6869394919295610ca15f610800565b610cd4610cce7fc15fb748c32ba4eb29c1c311e78533f93b4425eab49ea87c6fe4279ecadca04397610ae5565b97610113565b97610cdd6100b4565b95869586610af1565b0390a390565b610d0d915060203d8111610d13575b610d0581836105bc565b810190610ac7565b5f610c8d565b503d610cfb565b610618565b610d3f9060203d8111610d44575b610d3781836105bc565b810190610a63565b610c34565b503d610d2d565b610618565b84610d5a30610592565b31610d755f928392634787a10360e11b845260048401610a31565b0390fd5b610d9a915060203d8111610da0575b610d9281836105bc565b8101906105fa565b5f610bae565b503d610d88565b610618565b90610dc0939291610dbb61072b565b61072f565b90565b610dd490610dcf611740565b610ea5565b565b905090565b610de65f8092610dd6565b0190565b610df390610ddb565b90565b90610e09610e026100b4565b92836105bc565b565b67ffffffffffffffff8111610e2957610e2560209161059e565b0190565b6105a8565b90610e40610e3b83610e0b565b610df6565b918252565b606090565b3d5f14610e6557610e5a3d610e2e565b903d5f602084013e5b565b610e6d610e45565b90610e63565b604090610e9c610ea39496959396610e9260608401985f8501906103e7565b60208301906103e7565b0190610a24565b565b610eae30610592565b319081610ec3610ebd5f61062b565b9161028a565b14610f1e57610ef55f808385610ed76100b4565b9081610ee281610dea565b03925af1610eee610e4a565b501561018e565b610efd575050565b610f1a3391925f938493639d11f56360e01b855260048501610e73565b0390fd5b5f630686827b60e51b815280610f3660048201610251565b0390fd5b610f4390610dc3565b565b60018060a01b031690565b610f5c610f6191610747565b610f45565b90565b610f6e9054610f50565b90565b60209181520190565b5f7f4d7573742062652070726f706f736564206f776e657200000000000000000000910152565b610fae6016602092610f71565b610fb781610f7a565b0190565b610fd09060208101905f818303910152610fa1565b90565b15610fda57565b610fe26100b4565b62461bcd60e51b815280610ff860048201610fbb565b0390fd5b5f1b90565b9061101260018060a01b0391610ffc565b9181191691161790565b6110259061057a565b90565b90565b9061104061103b6110479261101c565b611028565b8254611001565b9055565b6110703361106a61106461105f6001610f64565b6101f5565b916101f5565b14610fd3565b6110795f610f64565b611083335f61102b565b61109661108f5f610800565b600161102b565b336110ca6110c47f8be0079c531659141344cd1fd0a4f28419497f9722a3daafe3b4186f6b6457e09361101c565b9161101c565b916110d36100b4565b806110dd81610251565b0390a3565b5f90565b6110ee6110e2565b506110f85f610f64565b90565b906111109493929161110b611740565b611113565b90565b9493929190809561113761113161112c60028a9061012f565b610760565b1561018e565b61114957611146959650611168565b90565b611164875f918291630a503cdb60e01b83526004830161077a565b0390fd5b939291908161118761118161117c5f610800565b6101f5565b916101f5565b1461119857611195946111e0565b90565b5f63502ffa3f60e11b8152806111b060048201610251565b0390fd5b60018060a01b031690565b6111cb6111d091610747565b6111b4565b90565b6111dd90546111bf565b90565b93929350611203828585906111fd6111f860046111d3565b610586565b92611a0d565b926112166112116003610877565b610884565b60206320487ded91849061123c88946112476112306100b4565b968795869485946105e5565b8452600484016109fe565b03915afa9081156115fe575f916115d0575b5093846112a5602061127361126e60046111d3565b610586565b6370a082319061129a61128530610592565b9261128e6100b4565b958694859384936105e5565b8352600483016103f4565b03915afa9081156115cb576112cb916112c5915f9161159d575b5061028a565b9161028a565b116114ec576112e26112dd60046111d3565b610586565b602063095ea7b3916112fc6112f76003610877565b610884565b9061131a5f8a9561132561130e6100b4565b978896879586946105e5565b845260048401610a81565b03925af180156114e7576114bb575b506113466113418761056e565b610586565b602063095ea7b39161136061135b6003610877565b610884565b9061137e5f87956113896113726100b4565b978896879586946105e5565b845260048401610a81565b03925af180156114b65761148a575b5060206113ad6113a86003610877565b610884565b916396f4e9f9926113d25f8793956113dd6113c66100b4565b978896879586946105e5565b8452600484016109fe565b03925af1908115611485575f91611457575b509461145186939491929561140c61140760046111d3565b610586565b61143f6114397fc15fb748c32ba4eb29c1c311e78533f93b4425eab49ea87c6fe4279ecadca04397610ae5565b97610113565b976114486100b4565b95869586610af1565b0390a390565b611478915060203d811161147e575b61147081836105bc565b810190610ac7565b5f6113ef565b503d611466565b610618565b6114aa9060203d81116114af575b6114a281836105bc565b810190610a63565b611398565b503d611498565b610618565b6114db9060203d81116114e0575b6114d381836105bc565b810190610a63565b611334565b503d6114c9565b610618565b6115368560206115046114ff60046111d3565b610586565b6370a082319061152b61151630610592565b9261151f6100b4565b968794859384936105e5565b8352600483016103f4565b03915afa918215611598575f92611568575b50906115645f928392634787a10360e11b845260048401610a31565b0390fd5b61158a91925060203d8111611591575b61158281836105bc565b8101906105fa565b9082611548565b503d611578565b610618565b6115be915060203d81116115c4575b6115b681836105bc565b8101906105fa565b5f6112bf565b503d6115ac565b610618565b6115f1915060203d81116115f7575b6115e981836105bc565b8101906105fa565b5f611259565b503d6115df565b610618565b9061161793929161161261072b565b6110fb565b90565b9061162c91611627611740565b611673565b565b9061163a60ff91610ffc565b9181191691161790565b61164d9061018e565b90565b90565b9061166861166361166f92611644565b611650565b825461162e565b9055565b6116826116879291600261012f565b611653565b565b906116939161161a565b565b6116a6906116a1611740565b6116a8565b565b6116b190611ba7565b565b6116bc90611695565b565b5f7f4f6e6c792063616c6c61626c65206279206f776e657200000000000000000000910152565b6116f26016602092610f71565b6116fb816116be565b0190565b6117149060208101905f8183039101526116e5565b90565b1561171e57565b6117266100b4565b62461bcd60e51b81528061173c600482016116ff565b0390fd5b6117643361175e6117586117535f610f64565b6101f5565b916101f5565b14611717565b565b63ffffffff1690565b63ffffffff60e01b1690565b61178f61178a61179492611766565b6105e5565b61176f565b90565b916117db6004926117cc6117e095936117b363a9059cbb61177b565b926117bc6100b4565b9687946020860190815201610a81565b602082018103825203836105bc565b611d17565b565b6117ec60a0610df6565b90565b606090565b606090565b5f90565b6118056117e2565b90602080808080866118156117ef565b8152016118206117ef565b81520161182b6117f4565b8152016118366117f9565b8152016118416117ef565b81525050565b61184f6117fd565b90565b90565b61186961186461186e92611852565b610110565b61028a565b90565b67ffffffffffffffff81116118895760208091020190565b6105a8565b906118a061189b83611871565b610df6565b918252565b6118af6040610df6565b90565b5f90565b6118be6118a5565b90602080836118cb6117f9565b8152016118d66118b2565b81525050565b6118e46118b6565b90565b5f5b8281106118f557505050565b6020906119006118dc565b81840152016118e9565b9061192f6119178361188e565b926020806119258693611871565b92019103906118e7565b565b61193b6040610df6565b90565b90611948906101f5565b9052565b906119569061028a565b9052565b634e487b7160e01b5f52603260045260245ffd5b90611978826108d9565b811015611989576020809102010190565b61195a565b6119986040610df6565b90565b906119a59061018e565b9052565b6119b360a0610df6565b90565b52565b67ffffffffffffffff81116119d7576119d360209161059e565b0190565b6105a8565b906119ee6119e9836119b9565b610df6565b918252565b6119fc5f6119dc565b90565b611a076119f3565b90565b52565b611a989391611aa7611b1992611a82611b2296611a28611847565b50611a5d611a3e611a396001611855565b61190a565b9591611a54611a4b611931565b935f850161193e565b6020830161194c565b611a7c85915f90611a76611a708361062b565b8561196e565b5261062b565b9061196e565b5150611a8c6100b4565b968791602083016103f4565b602082018103825203866105bc565b611b10611add5f611ad86001611acf611ac7611ac161198e565b9461062b565b5f850161194c565b6020830161199b565b611df4565b9391611af3611aea6119a9565b975f89016119b6565b611b07611afe6119ff565b602089016119b6565b60408701611a0a565b6060850161193e565b608083016119b6565b90565b5f7f43616e6e6f74207472616e7366657220746f2073656c66000000000000000000910152565b611b596017602092610f71565b611b6281611b25565b0190565b611b7b9060208101905f818303910152611b4c565b90565b15611b8557565b611b8d6100b4565b62461bcd60e51b815280611ba360048201611b66565b0390fd5b611bc481611bbd611bb7336101f5565b916101f5565b1415611b7e565b611bcf81600161102b565b611bd85f610f64565b90611c0c611c067fed8889f560326eb138920d842192f0eb3dd22b4f139c87a2c57538e05bae12789361101c565b9161101c565b91611c156100b4565b80611c1f81610251565b0390a3565b5f7f5361666545524332303a206c6f772d6c6576656c2063616c6c206661696c6564910152565b611c5560206119dc565b90611c6260208301611c24565b565b611c6c611c4b565b90565b60207f6f74207375636365656400000000000000000000000000000000000000000000917f5361666545524332303a204552433230206f7065726174696f6e20646964206e5f8201520152565b611cc9602a604092610f71565b611cd281611c6f565b0190565b611ceb9060208101905f818303910152611cbc565b90565b15611cf557565b611cfd6100b4565b62461bcd60e51b815280611d1360048201611cd6565b0390fd5b90611d24611d3392610586565b90611d2d611c64565b91611e39565b611d3c81610890565b611d4e611d485f61062b565b9161028a565b11611d57575b50565b611d74611d79916020611d6982610890565b818301019101610a63565b611cee565b5f611d54565b90565b611d96611d91611d9b92611d7f565b6105e5565b61176f565b90565b611dab63181dcf10611d82565b90565b611db79061018e565b9052565b90602080611ddd93611dd35f8201515f8601906108f9565b0151910190611dae565b565b9190611df2905f60408501940190611dbb565b565b611e36600491611e02610e45565b50611e27611e0e611d9e565b91611e176100b4565b9485936020850190815201611ddf565b602082018103825203826105bc565b90565b90611e589291611e47610e45565b5090611e525f61062b565b91611f0f565b90565b611e649061057a565b90565b60207f722063616c6c0000000000000000000000000000000000000000000000000000917f416464726573733a20696e73756666696369656e742062616c616e636520666f5f8201520152565b611ec16026604092610f71565b611eca81611e67565b0190565b611ee39060208101905f818303910152611eb4565b90565b15611eed57565b611ef56100b4565b62461bcd60e51b815280611f0b60048201611ece565b0390fd5b915f8091611f659593611f20610e45565b50611f47611f2d30611e5b565b31611f40611f3a8561028a565b9161028a565b1015611ee6565b8591602082019151925af191611f5b610e4a565b9092909192611fea565b90565b5f7f416464726573733a2063616c6c20746f206e6f6e2d636f6e7472616374000000910152565b611f9c601d602092610f71565b611fa581611f68565b0190565b611fbe9060208101905f818303910152611f8f565b90565b15611fc857565b611fd06100b4565b62461bcd60e51b815280611fe660048201611fa9565b0390fd5b919290611ff5610e45565b505f14612039575061200682610890565b6120186120125f61062b565b9161028a565b14612022575b5090565b61202e612033916120e1565b611fc1565b5f61201e565b8261208c565b5190565b61206261206b602093612070936120598161203f565b93848093610f71565b9586910161089d565b61059e565b0190565b6120899160208201915f818403910152612043565b90565b9061209682610890565b6120a86120a25f61062b565b9161028a565b115f146120b85750805190602001fd5b6120d9906120c46100b4565b91829162461bcd60e51b835260048301612074565b0390fd5b5f90565b6120e96120dd565b503b6120fd6120f75f61062b565b9161028a565b119056fea2646970667358221220ee627cda34499b0690ce89c85c7acbf656eeeb0ebc298b6b6fbdef5a3c260a3064736f6c634300081c0033","linkReferences":{}},"methodIdentifiers":{"acceptOwnership()":"79ba5097","allowlistDestinationChain(uint64,bool)":"96d3b83d","allowlistedChains(uint64)":"0bb106eb","owner()":"8da5cb5b","transferOwnership(address)":"f2fde38b","transferTokensPayLINK(uint64,address,address,uint256)":"95e1402c","transferTokensPayNative(uint64,address,address,uint256)":"51419b4b","withdraw(address)":"51cff8d9","withdrawToken(address,address)":"3aeac4e1"},"id":80}