{"abi":[{"type":"constructor","inputs":[{"name":"_merkleVerifier","type":"address","internalType":"address"},{"name":"_messenger","type":"address","internalType":"address payable"}],"stateMutability":"nonpayable"},{"type":"function","name":"allowChain","inputs":[{"name":"_chainSelector","type":"uint64","internalType":"uint64"},{"name":"_receiver","type":"address","internalType":"address"}],"outputs":[],"stateMutability":"nonpayable"},{"type":"function","name":"allowSyncPermission","inputs":[{"name":"syncer","type":"address","internalType":"address"}],"outputs":[],"stateMutability":"nonpayable"},{"type":"function","name":"allowedSyncers","inputs":[{"name":"","type":"address","internalType":"address"}],"outputs":[{"name":"","type":"bool","internalType":"bool"}],"stateMutability":"view"},{"type":"function","name":"chainSelectors","inputs":[{"name":"","type":"uint256","internalType":"uint256"}],"outputs":[{"name":"","type":"uint64","internalType":"uint64"}],"stateMutability":"view"},{"type":"function","name":"chainsAllowed","inputs":[{"name":"","type":"uint64","internalType":"uint64"}],"outputs":[{"name":"","type":"bool","internalType":"bool"}],"stateMutability":"view"},{"type":"function","name":"lockContract","inputs":[{"name":"reason","type":"string","internalType":"string"}],"outputs":[],"stateMutability":"nonpayable"},{"type":"function","name":"locked","inputs":[],"outputs":[{"name":"","type":"bool","internalType":"bool"}],"stateMutability":"view"},{"type":"function","name":"merkleVerifier","inputs":[],"outputs":[{"name":"","type":"address","internalType":"contract IMerkleVerifier"}],"stateMutability":"view"},{"type":"function","name":"messenger","inputs":[],"outputs":[{"name":"","type":"address","internalType":"contract Messenger"}],"stateMutability":"view"},{"type":"function","name":"method","inputs":[],"outputs":[{"name":"","type":"bytes32","internalType":"bytes32"}],"stateMutability":"view"},{"type":"function","name":"owner","inputs":[],"outputs":[{"name":"","type":"address","internalType":"address"}],"stateMutability":"view"},{"type":"function","name":"receivers","inputs":[{"name":"","type":"uint64","internalType":"uint64"}],"outputs":[{"name":"","type":"address","internalType":"address"}],"stateMutability":"view"},{"type":"function","name":"revokeChain","inputs":[{"name":"chainSelector","type":"uint64","internalType":"uint64"}],"outputs":[],"stateMutability":"nonpayable"},{"type":"function","name":"revokeSyncPermission","inputs":[{"name":"syncer","type":"address","internalType":"address"}],"outputs":[],"stateMutability":"nonpayable"},{"type":"function","name":"s_lastSubmittedProof","inputs":[],"outputs":[{"name":"","type":"string","internalType":"string"}],"stateMutability":"view"},{"type":"function","name":"sendProof","inputs":[{"name":"ipfsHash","type":"string","internalType":"string"},{"name":"_method","type":"bytes32","internalType":"bytes32"}],"outputs":[],"stateMutability":"nonpayable"},{"type":"function","name":"setMerkleVerifier","inputs":[{"name":"_verifier","type":"address","internalType":"address"}],"outputs":[],"stateMutability":"nonpayable"},{"type":"function","name":"setMessenger","inputs":[{"name":"_messenger","type":"address","internalType":"address payable"}],"outputs":[],"stateMutability":"nonpayable"},{"type":"function","name":"triggerReSync","inputs":[{"name":"chainSelector","type":"uint64","internalType":"uint64"}],"outputs":[],"stateMutability":"nonpayable"},{"type":"function","name":"triggerSync","inputs":[],"outputs":[],"stateMutability":"nonpayable"},{"type":"function","name":"unlockContract","inputs":[],"outputs":[],"stateMutability":"nonpayable"},{"type":"event","name":"ContractLockedEvent","inputs":[{"name":"reason","type":"string","indexed":false,"internalType":"string"}],"anonymous":false},{"type":"event","name":"ContractUnlocked","inputs":[],"anonymous":false},{"type":"event","name":"ProofSubmitted","inputs":[{"name":"submitter","type":"address","indexed":true,"internalType":"address"},{"name":"ipfsHash","type":"string","indexed":false,"internalType":"string"},{"name":"method","type":"bytes32","indexed":false,"internalType":"bytes32"}],"anonymous":false},{"type":"event","name":"ProofSynced","inputs":[{"name":"ipfsHash","type":"string","indexed":false,"internalType":"string"},{"name":"chains","type":"uint64[]","indexed":false,"internalType":"uint64[]"},{"name":"messageIds","type":"bytes32[]","indexed":false,"internalType":"bytes32[]"}],"anonymous":false},{"type":"event","name":"SyncPermissionGranted","inputs":[{"name":"syncer","type":"address","indexed":true,"internalType":"address"}],"anonymous":false},{"type":"event","name":"SyncPermissionRevoked","inputs":[{"name":"syncer","type":"address","indexed":true,"internalType":"address"}],"anonymous":false},{"type":"error","name":"ChainNotAllowListed","inputs":[]},{"type":"error","name":"ChainSyncFailed","inputs":[{"name":"addr","type":"address","internalType":"address"},{"name":"date","type":"string","internalType":"string"}]},{"type":"error","name":"ContractLocked","inputs":[{"name":"reason","type":"string","internalType":"string"}]},{"type":"error","name":"InvalidProof","inputs":[]},{"type":"error","name":"UnauthorizedSender","inputs":[]}],"bytecode":{"object":"0x6080604052346100305761001a610014610133565b906102b3565b610022610035565b6124fd61031182396124fd90f35b61003b565b60405190565b5f80fd5b601f801991011690565b634e487b7160e01b5f52604160045260245ffd5b906100679061003f565b810190811060018060401b0382111761007f57604052565b610049565b90610097610090610035565b928361005d565b565b5f80fd5b60018060a01b031690565b6100b19061009d565b90565b6100bd816100a8565b036100c457565b5f80fd5b905051906100d5826100b4565b565b6100e09061009d565b90565b6100ec816100d7565b036100f357565b5f80fd5b90505190610104826100e3565b565b919060408382031261012e578061012261012b925f86016100c8565b936020016100f7565b90565b610099565b61015161280e8038038061014681610084565b928339810190610106565b9091565b5f1b90565b906101665f1991610155565b9181191691161790565b90565b61017c90610170565b90565b5f1c90565b61018d9061017f565b90565b906101a56101a06101ac92610173565b610184565b825461015a565b9055565b906101c160018060a01b0391610155565b9181191691161790565b90565b6101e26101dd6101e79261009d565b6101cb565b61009d565b90565b6101f3906101ce565b90565b6101ff906101ea565b90565b90565b9061021a610215610221926101f6565b610202565b82546101b0565b9055565b61022e906101ce565b90565b61023a90610225565b90565b61024690610225565b90565b90565b9061026161025c6102689261023d565b610249565b82546101b0565b9055565b610275906101ce565b90565b6102819061026c565b90565b61028d9061026c565b90565b90565b906102a86102a36102af92610284565b610290565b82546101b0565b9055565b61030e916103036102fc610308936102ec7f85096d8ccd362d4685fad93defc9a6c366156f62fe344929645b04d4216bb7896001610190565b6102f7336007610205565b610231565b600861024c565b610278565b5f610293565b56fe60806040526004361015610013575b610dd5565b61001d5f3561016c565b806306e55123146101675780631f148a181461016257806322f0f2f91461015d5780632af107de146101585780632bf34fbd146101535780632c383a9f1461014e578063340b2b0b14610149578063380afa4d14610144578063395057371461013f5780633cb747bf1461013a578063599e74af146101355780635bd55874146101305780635e8c01061461012b5780636616c1b814610126578063662859671461012157806369f8c87d1461011c5780638a5c5fd9146101175780638da5cb5b14610112578063cf3090121461010d578063e0dec15c146101085763fbaa1fa40361000e57610da0565b610d3e565b610d09565b610cc5565b610c2e565b610bae565b610aed565b610a6d565b610a38565b610818565b6107c6565b61075b565b6106ad565b6105e0565b6104fa565b6104c5565b610433565b6102e7565b6102b4565b610271565b6101d7565b60e01c90565b60405190565b5f80fd5b5f80fd5b5f80fd5b67ffffffffffffffff1690565b61019a81610184565b036101a157565b5f80fd5b905035906101b282610191565b565b906020828203126101cd576101ca915f016101a5565b90565b61017c565b5f0190565b34610205576101ef6101ea3660046101b4565b611422565b6101f7610172565b80610201816101d2565b0390f35b610178565b60018060a01b031690565b61021e9061020a565b90565b61022a81610215565b0361023157565b5f80fd5b9050359061024282610221565b565b919060408382031261026c5780610260610269925f86016101a5565b93602001610235565b90565b61017c565b346102a05761028a610284366004610244565b90611671565b610292610172565b8061029c816101d2565b0390f35b610178565b5f9103126102af57565b61017c565b346102e2576102c43660046102a5565b6102cc6116ef565b6102d4610172565b806102de816101d2565b0390f35b610178565b34610315576102ff6102fa3660046101b4565b6118f1565b610307610172565b80610311816101d2565b0390f35b610178565b90565b6103268161031a565b0361032d57565b5f80fd5b9050359061033e8261031d565b565b9060208282031261035957610356915f01610331565b90565b61017c565b634e487b7160e01b5f52603260045260245ffd5b5490565b5f5260205f2090565b91909161038b81610372565b8310156103a957600461039f600892610376565b8185040193060290565b61035e565b1c90565b67ffffffffffffffff1690565b6103cf9060086103d493026103ae565b6103b2565b90565b906103e291546103bf565b90565b60096103f081610372565b82101561040d5761040a916104049161037f565b906103d7565b90565b5f80fd5b61041a90610184565b9052565b9190610431905f60208501940190610411565b565b346104635761045f61044e610449366004610340565b6103e5565b610456610172565b9182918261041e565b0390f35b610178565b90565b61047b90600861048093026103ae565b610468565b90565b9061048e915461046b565b90565b61049d60015f90610483565b90565b90565b6104ac906104a0565b9052565b91906104c3905f602085019401906104a3565b565b346104f5576104d53660046102a5565b6104f16104e0610491565b6104e8610172565b918291826104b0565b0390f35b610178565b346105285761050a3660046102a5565b610512611de6565b61051a610172565b80610524816101d2565b0390f35b610178565b5f80fd5b5f80fd5b5f80fd5b909182601f830112156105735781359167ffffffffffffffff831161056e57602001926001830284011161056957565b610535565b610531565b61052d565b610581816104a0565b0361058857565b5f80fd5b9050359061059982610578565b565b916040838303126105db575f83013567ffffffffffffffff81116105d6576105c8836105d3928601610539565b93909460200161058c565b90565b610180565b61017c565b3461060f576105f96105f336600461059b565b916120fc565b610601610172565b8061060b816101d2565b0390f35b610178565b60018060a01b031690565b61062f90600861063493026103ae565b610614565b90565b90610642915461061f565b90565b61065160085f90610637565b90565b90565b61066b6106666106709261020a565b610654565b61020a565b90565b61067c90610657565b90565b61068890610673565b90565b6106949061067f565b9052565b91906106ab905f6020850194019061068b565b565b346106dd576106bd3660046102a5565b6106d96106c8610645565b6106d0610172565b91829182610698565b0390f35b610178565b60018060a01b031690565b6106fd90600861070293026103ae565b6106e2565b90565b9061071091546106ed565b90565b61071e5f5f90610705565b90565b61072a90610657565b90565b61073690610721565b90565b6107429061072d565b9052565b9190610759905f60208501940190610739565b565b3461078b5761076b3660046102a5565b610787610776610713565b61077e610172565b91829182610746565b0390f35b610178565b906020828203126107c1575f82013567ffffffffffffffff81116107bc576107b89201610539565b9091565b610180565b61017c565b346107f5576107df6107d9366004610790565b9061219c565b6107e7610172565b806107f1816101d2565b0390f35b610178565b9060208282031261081357610810915f01610235565b90565b61017c565b346108465761083061082b3660046107fa565b612234565b610838610172565b80610842816101d2565b0390f35b610178565b634e487b7160e01b5f525f60045260245ffd5b634e487b7160e01b5f52602260045260245ffd5b9060016002830492168015610892575b602083101461088d57565b61085e565b91607f1691610882565b60209181520190565b5f5260205f2090565b905f92918054906108c86108c183610872565b809461089c565b916001811690815f1461091f57506001146108e3575b505050565b6108f091929394506108a5565b915f925b81841061090757505001905f80806108de565b600181602092959395548486015201910192906108f4565b92949550505060ff19168252151560200201905f80806108de565b90610944916108ae565b90565b601f801991011690565b634e487b7160e01b5f52604160045260245ffd5b9061096f90610947565b810190811067ffffffffffffffff82111761098957604052565b610951565b906109ae6109a79261099e610172565b9384809261093a565b0383610965565b565b905f106109c3576109c09061098e565b90565b61084b565b6109d460025f906109b0565b90565b5190565b60209181520190565b90825f9392825e0152565b610a0e610a17602093610a1c93610a05816109d7565b938480936109db565b958691016109e4565b610947565b0190565b610a359160208201915f8184039101526109ef565b90565b34610a6857610a483660046102a5565b610a64610a536109c8565b610a5b610172565b91829182610a20565b0390f35b610178565b34610a9b57610a85610a803660046107fa565b6122c7565b610a8d610172565b80610a97816101d2565b0390f35b610178565b610aa99061020a565b90565b610ab581610aa0565b03610abc57565b5f80fd5b90503590610acd82610aac565b565b90602082820312610ae857610ae5915f01610ac0565b90565b61017c565b34610b1b57610b05610b00366004610acf565b61235d565b610b0d610172565b80610b17816101d2565b0390f35b610178565b610b2990610673565b90565b90610b3690610b20565b5f5260205260405f2090565b60ff1690565b610b58906008610b5d93026103ae565b610b42565b90565b90610b6b9154610b48565b90565b610b8490610b7f6004915f92610b2c565b610b60565b90565b151590565b610b9590610b87565b9052565b9190610bac905f60208501940190610b8c565b565b34610bde57610bda610bc9610bc43660046107fa565b610b6e565b610bd1610172565b91829182610b99565b0390f35b610178565b610bf7610bf2610bfc92610184565b610654565b610184565b90565b90610c0990610be3565b5f5260205260405f2090565b610c2b90610c266005915f92610bff565b610b60565b90565b34610c5e57610c5a610c49610c443660046101b4565b610c15565b610c51610172565b91829182610b99565b0390f35b610178565b60018060a01b031690565b610c7e906008610c8393026103ae565b610c63565b90565b90610c919154610c6e565b90565b610ca060075f90610c86565b90565b610cac90610215565b9052565b9190610cc3905f60208501940190610ca3565b565b34610cf557610cd53660046102a5565b610cf1610ce0610c94565b610ce8610172565b91829182610cb0565b0390f35b610178565b610d0660035f90610b60565b90565b34610d3957610d193660046102a5565b610d35610d24610cfa565b610d2c610172565b91829182610b99565b0390f35b610178565b34610d6c57610d56610d513660046107fa565b6123ef565b610d5e610172565b80610d68816101d2565b0390f35b610178565b90610d7b90610be3565b5f5260205260405f2090565b610d9d90610d986006915f92610d71565b610c86565b90565b34610dd057610dcc610dbb610db63660046101b4565b610d87565b610dc3610172565b91829182610cb0565b0390f35b610178565b5f80fd5b5f1c90565b610dea610def91610dd9565b610b42565b90565b610dfc9054610dde565b90565b5f7f50726f6f6653796e633a204e6f7420616c6c6f7765642073796e636572000000910152565b610e33601d6020926109db565b610e3c81610dff565b0190565b610e559060208101905f818303910152610e26565b90565b15610e5f57565b610e67610172565b62461bcd60e51b815280610e7d60048201610e40565b0390fd5b610ea690610ea1610e9c610e9760043390610b2c565b610df2565b610e58565b610f2a565b565b5f7f50726f6f6653796e633a204c6f636b6564000000000000000000000000000000910152565b610edc60116020926109db565b610ee581610ea8565b0190565b610efe9060208101905f818303910152610ecf565b90565b15610f0857565b610f10610172565b62461bcd60e51b815280610f2660048201610ee9565b0390fd5b610f4e90610f49610f44610f3e6003610df2565b15610b87565b610f01565b6112d1565b565b610f5c610f6191610dd9565b6106e2565b90565b610f6e9054610f50565b90565b610f7a90610673565b90565b610f89610f8e91610dd9565b610c63565b90565b610f9b9054610f7d565b90565b5f80fd5b60e01b90565b90505190610fb582610578565b565b90602082820312610fd057610fcd915f01610fa8565b90565b61017c565b905f9291805490610fef610fe883610872565b80946109db565b916001811690815f14611046575060011461100a575b505050565b61101791929394506108a5565b915f925b81841061102e57505001905f8080611005565b6001816020929593955484860152019101929061101b565b92949550505060ff19168252151560200201905f8080611005565b61108561109294929361107b60608401955f850190610411565b6020830190610ca3565b6040818403910152610fd5565b90565b61109d610172565b3d5f823e3d90fd5b90565b6110bc6110b76110c1926110a5565b610654565b61031a565b90565b906110d76110d0610172565b9283610965565b565b67ffffffffffffffff81116110f15760208091020190565b610951565b90611108611103836110d9565b6110c4565b918252565b369037565b9061113761111f836110f6565b9260208061112d86936110d9565b920191039061110d565b565b5190565b9061114782611139565b811015611158576020809102010190565b61035e565b90565b61117461116f6111799261115d565b610654565b61031a565b90565b90611186906104a0565b9052565b5190565b60209181520190565b60200190565b6111a690610184565b9052565b906111b78160209361119d565b0190565b60200190565b906111de6111d86111d18461118a565b809361118e565b92611197565b905f5b8181106111ee5750505090565b90919261120761120160019286516111aa565b946111bb565b91019190916111e1565b60209181520190565b60200190565b611229906104a0565b9052565b9061123a81602093611220565b0190565b60200190565b9061126161125b61125484611139565b8093611211565b9261121a565b905f5b8181106112715750505090565b90919261128a611284600192865161122d565b9461123e565b9101919091611264565b916112c0906112b26112ce959360608601908682035f880152610fd5565b9084820360208601526111c1565b916040818403910152611244565b90565b6112ee6112e86112e360058490610bff565b610df2565b15610b87565b611406576113036112fe5f610f64565b610f71565b6020637b77dd0491839061133f5f61132561132060068990610d71565b610f91565b9561134a6002611333610172565b98899788968795610fa2565b855260048501611061565b03925af1908115611401575f916113d3575b5061138b61137261136d60016110a8565b611112565b91611386836113805f611160565b9061113d565b61117c565b61139660029261248d565b90916113ce7f3c95655f471ac3c8f5998145955a83e4e161234b0c21fe2a9641f6b980a8e357936113c5610172565b93849384611294565b0390a1565b6113f4915060203d81116113fa575b6113ec8183610965565b810190610fb7565b5f61135c565b503d6113e2565b611095565b5f6337575ae160e21b81528061141e600482016101d2565b0390fd5b61142b90610e81565b565b5f7f50726f6f6653796e633a204e6f74206f776e6572000000000000000000000000910152565b61146160146020926109db565b61146a8161142d565b0190565b6114839060208101905f818303910152611454565b90565b1561148d57565b611495610172565b62461bcd60e51b8152806114ab6004820161146e565b0390fd5b906114de916114d9336114d36114cd6114c86007610f91565b610215565b91610215565b14611486565b611631565b565b5f1b90565b906114f160ff916114e0565b9181191691161790565b61150490610b87565b90565b90565b9061151f61151a611526926114fb565b611507565b82546114e5565b9055565b90565b5f5260205f2090565b5490565b91909161154681611536565b83101561156457600461155a60089261152d565b8185040193060290565b61035e565b1b90565b9190600861158f91029161158967ffffffffffffffff84611569565b92611569565b9181191691161790565b90565b91906115b26115ad6115ba93610be3565b611599565b90835461156d565b9055565b90815491680100000000000000008310156115ee57826115e69160016115ec9501815561153a565b9061159c565b565b610951565b9061160460018060a01b03916114e0565b9181191691161790565b90565b9061162661162161162d92610b20565b61160e565b82546115f3565b9055565b61166a61166f9261164e600161164960058690610bff565b61150a565b61166261165b600961152a565b84906115be565b916006610d71565b611611565b565b9061167b916114af565b565b6116a23361169c6116966116916007610f91565b610215565b91610215565b14611486565b6116aa6116ac565b565b6116b75f600361150a565b7f3e5f4fd66bc9f59f15a9304dbc6394e240a57a1b4eb7ca42a75c5d9b298da4556116e0610172565b806116ea816101d2565b0390a1565b6116f761167d565b565b611727906117223361171c6117166117116007610f91565b610215565b91610215565b14611486565b6117f4565b565b6001611735910161031a565b90565b634e487b7160e01b5f52601160045260245ffd5b61175b6117619193929361031a565b9261031a565b820391821161176c57565b611738565b634e487b7160e01b5f52603160045260245ffd5b5f90565b61179b91611795611785565b9161159c565b565b6117a681611536565b80156117c75760019003906117c46117be838361153a565b90611789565b55565b611771565b6117e06117db6117e59261115d565b610654565b61020a565b90565b6117f1906117cc565b90565b6118095f61180460058490610bff565b61150a565b6118125f611160565b5b8061182f6118296118246009610372565b61031a565b9161031a565b10156118e75761184a6118446009839061037f565b906103d7565b61185c61185684610184565b91610184565b1461186f5761186a90611729565b611813565b906118b96118e5926118b36118ab6118a5600961189f61188f6009610372565b61189960016110a8565b9061174c565b9061037f565b906103d7565b91600961037f565b9061159c565b6118cb6118c6600961152a565b61179d565b5b6118e06118d85f6117e8565b916006610d71565b611611565b565b506118e5906118cc565b6118fa906116f9565b565b61191861191361190e60043390610b2c565b610df2565b610e58565b611920611922565b565b61193d6119386119326003610df2565b15610b87565b610f01565b611945611b84565b565b61195361195891610dd9565b610614565b90565b6119659054611947565b90565b5f91031261197257565b61017c565b61198c9160208201915f818403910152610fd5565b90565b61199b6119a091610dd9565b6103b2565b90565b60401c90565b6119b56119ba916119a3565b6103b2565b90565b60801c90565b6119cf6119d4916119bd565b6103b2565b90565b60c01c90565b6119e96119ee916119d7565b6103b2565b90565b90600190611a11611a0b611a0485610372565b809361118e565b93610376565b5f92611ad3575b6001611a25575b50505090565b5490808310611ab1575b808310611a8f575b808310611a6d575b8210611a4c575b80611a1f565b82611a6460019394611a5f6020946119dd565b61119d565b0191015f611a46565b9192602081611a86600193611a81866119c3565b61119d565b01930191611a3f565b9192602081611aa8600193611aa3866119a9565b61119d565b01930191611a37565b9192602081611aca600193611ac58661198f565b61119d565b01930191611a2f565b5b81600160040384011015611a18579260016020611b37611b3c6004948380808b5493611b0881611b038761198f565b61119d565b01611b1b81611b16866119a9565b61119d565b01611b2e81611b29856119c3565b61119d565b019283916119dd565b61119d565b019401920191611ad4565b91611b7390611b65611b81959360608601908682035f880152610fd5565b9084820360208601526119f1565b916040818403910152611244565b90565b611b96611b916009610372565b611112565b90611ba16009610372565b611bb3611bad5f611160565b9161031a565b14611dca57611bc15f611160565b5b80611bde611bd8611bd36009610372565b61031a565b9161031a565b1015611cf757611bf9611bf36009839061037f565b906103d7565b90611c17611c11611c0c60058590610bff565b610df2565b15610b87565b611cdb576020611c2e611c295f610f64565b610f71565b92637b77dd0493611c665f611c4c611c47856006610d71565b610f91565b96611c716002611c5a610172565b998a9788968795610fa2565b855260048501611061565b03925af1918215611cd657611ca392611c9e915f91611ca8575b50611c99869184909261113d565b61117c565b611729565b611bc2565b611cc9915060203d8111611ccf575b611cc18183610965565b810190610fb7565b5f611c8b565b503d611cb7565b611095565b5f6337575ae160e21b815280611cf3600482016101d2565b0390fd5b5090611d0b611d06600861195b565b61067f565b638823c51d6002823b15611dc557611d4292611d375f8094611d2b610172565b96879586948593610fa2565b835260048301611977565b03925af18015611dc057611d94575b5060029060099091611d8f7f3c95655f471ac3c8f5998145955a83e4e161234b0c21fe2a9641f6b980a8e35793611d86610172565b93849384611b47565b0390a1565b611db3905f3d8111611db9575b611dab8183610965565b810190611968565b5f611d51565b503d611da1565b611095565b610f9e565b5f6337575ae160e21b815280611de2600482016101d2565b0390fd5b611dee6118fc565b565b90611e179291611e12611e0d611e0860043390610b2c565b610df2565b610e58565b611e19565b565b90611e3f9291611e3a611e35611e2f6003610df2565b15610b87565b610f01565b61209c565b565b5090565b601f602091010490565b91906008611e6a910291611e645f1984611569565b92611569565b9181191691161790565b611e88611e83611e8d9261031a565b610654565b61031a565b90565b90565b9190611ea9611ea4611eb193611e74565b611e90565b908354611e4f565b9055565b5f90565b611ecb91611ec5611eb5565b91611e93565b565b5b818110611ed9575050565b80611ee65f600193611eb9565b01611ece565b9190601f8111611efc575b505050565b611f08611f2d936108a5565b906020611f1484611e45565b83019310611f35575b611f2690611e45565b0190611ecd565b5f8080611ef7565b9150611f2681929050611f1d565b90611f53905f19906008026103ae565b191690565b81611f6291611f43565b906002021790565b91611f759082611e41565b9067ffffffffffffffff821161203457611f9982611f938554610872565b85611eec565b5f90601f8311600114611fcc57918091611fbb935f92611fc0575b5050611f58565b90555b565b90915001355f80611fb4565b601f19831691611fdb856108a5565b925f5b81811061201c57509160029391856001969410612002575b50505002019055611fbe565b612012910135601f841690611f43565b90555f8080611ff6565b91936020600181928787013581550195019201611fde565b610951565b906120449291611f6a565b565b90825f939282370152565b919061206b8161206481612070956109db565b8095612046565b610947565b0190565b93929061209260209161209a9460408801918883035f8a0152612051565b9401906104a3565b565b90916120a6611de6565b6120b38284906002612039565b33919290926120f76120e57fd5b95b697edf03468ec9014376c21f5115ab7e4e736b3c55e304f97f1efd02e894610b20565b946120ee610172565b93849384612074565b0390a2565b906121079291611df0565b565b90612138916121333361212d6121276121226007610f91565b610215565b91610215565b14611486565b612154565b565b90916121519260208301925f818503910152612051565b90565b6121606001600361150a565b907fcfb7ae5929876510053371b41596909d5617faf22f48ab2d2456ece50a21f3f59161219761218e610172565b9283928361213a565b0390a1565b906121a691612109565b565b6121d6906121d1336121cb6121c56121c06007610f91565b610215565b91610215565b14611486565b61221f565b565b6121e190610657565b90565b6121ed906121d8565b90565b6121f9906121d8565b90565b90565b9061221461220f61221b926121f0565b6121fc565b82546115f3565b9055565b61222b612232916121e4565b60086121ff565b565b61223d906121a8565b565b61226d906122683361226261225c6122576007610f91565b610215565b91610215565b14611486565b61226f565b565b612285600161228060048490610b2c565b61150a565b6122af7f635605351aef871357ba7dd7b6e5ea7e30ac61158e3537e93ac5ff674a13cf6291610b20565b906122b8610172565b806122c2816101d2565b0390a2565b6122d09061223f565b565b612300906122fb336122f56122ef6122ea6007610f91565b610215565b91610215565b14611486565b612349565b565b61230b90610657565b90565b61231790612302565b90565b61232390612302565b90565b90565b9061233e6123396123459261231a565b612326565b82546115f3565b9055565b61235561235b9161230e565b5f612329565b565b612366906122d2565b565b612396906123913361238b6123856123806007610f91565b610215565b91610215565b14611486565b612398565b565b6123ad5f6123a860048490610b2c565b61150a565b6123d77f6568e694d1848a5a6cafb307032c57dbe38c2a466729571d278797d697a8a7df91610b20565b906123e0610172565b806123ea816101d2565b0390a2565b6123f890612368565b565b606090565b67ffffffffffffffff81116124175760208091020190565b610951565b9061242e612429836123ff565b6110c4565b918252565b369037565b9061245d6124458361241c565b9260208061245386936123ff565b9201910390612433565b565b906124698261118a565b81101561247a576020809102010190565b61035e565b9061248990610184565b9052565b906124966123fa565b506124c56124ac6124a760016110a8565b612438565b926124c0846124ba5f611160565b9061245f565b61247f565b56fea2646970667358221220c3f9e6f86881e120895908f9ed024cdd4a04f19af1ea3f78b5768baa4e58fabd64736f6c634300081c0033","linkReferences":{}},"methodIdentifiers":{"allowChain(uint64,address)":"1f148a18","allowSyncPermission(address)":"6616c1b8","allowedSyncers(address)":"69f8c87d","chainSelectors(uint256)":"2bf34fbd","chainsAllowed(uint64)":"8a5c5fd9","lockContract(string)":"599e74af","locked()":"cf309012","merkleVerifier()":"39505737","messenger()":"3cb747bf","method()":"2c383a9f","owner()":"8da5cb5b","receivers(uint64)":"fbaa1fa4","revokeChain(uint64)":"2af107de","revokeSyncPermission(address)":"e0dec15c","s_lastSubmittedProof()":"5e8c0106","sendProof(string,bytes32)":"380afa4d","setMerkleVerifier(address)":"5bd55874","setMessenger(address)":"66285967","triggerReSync(uint64)":"06e55123","triggerSync()":"340b2b0b","unlockContract()":"22f0f2f9"},"id":81}