{"abi":[{"type":"constructor","inputs":[{"name":"_oracleImplementation","type":"address","internalType":"address"},{"name":"_permissionManagerImplementation","type":"address","internalType":"address"},{"name":"_globalPermissionManager","type":"address","internalType":"address"}],"stateMutability":"nonpayable"},{"type":"function","name":"BATCH_UPDATE_PRICES_SELECTOR","inputs":[],"outputs":[{"name":"","type":"bytes4","internalType":"bytes4"}],"stateMutability":"view"},{"type":"function","name":"DEACTIVATE_ORACLE_SELECTOR","inputs":[],"outputs":[{"name":"","type":"bytes4","internalType":"bytes4"}],"stateMutability":"view"},{"type":"function","name":"DECREMENT_PRODUCT_COUNT_SELECTOR","inputs":[],"outputs":[{"name":"","type":"bytes4","internalType":"bytes4"}],"stateMutability":"view"},{"type":"function","name":"INCREMENT_PRODUCT_COUNT_SELECTOR","inputs":[],"outputs":[{"name":"","type":"bytes4","internalType":"bytes4"}],"stateMutability":"view"},{"type":"function","name":"REACTIVATE_ORACLE_SELECTOR","inputs":[],"outputs":[{"name":"","type":"bytes4","internalType":"bytes4"}],"stateMutability":"view"},{"type":"function","name":"REGISTER_CAR_BRAND_SELECTOR","inputs":[],"outputs":[{"name":"","type":"bytes4","internalType":"bytes4"}],"stateMutability":"view"},{"type":"function","name":"UPDATE_ORACLE_SELECTOR","inputs":[],"outputs":[{"name":"","type":"bytes4","internalType":"bytes4"}],"stateMutability":"view"},{"type":"function","name":"batchUpdatePrices","inputs":[{"name":"brandNames","type":"string[]","internalType":"string[]"},{"name":"prices","type":"uint256[]","internalType":"uint256[]"}],"outputs":[],"stateMutability":"nonpayable"},{"type":"function","name":"checkPermission","inputs":[{"name":"account","type":"address","internalType":"address"},{"name":"functionSelector","type":"bytes4","internalType":"bytes4"}],"outputs":[{"name":"","type":"bool","internalType":"bool"}],"stateMutability":"view"},{"type":"function","name":"deactivateOracle","inputs":[{"name":"brandName","type":"string","internalType":"string"}],"outputs":[],"stateMutability":"nonpayable"},{"type":"function","name":"decrementProductCount","inputs":[{"name":"brandName","type":"string","internalType":"string"}],"outputs":[],"stateMutability":"nonpayable"},{"type":"function","name":"getActiveBrands","inputs":[],"outputs":[{"name":"","type":"string[]","internalType":"string[]"}],"stateMutability":"view"},{"type":"function","name":"getAllCarBrands","inputs":[],"outputs":[{"name":"","type":"string[]","internalType":"string[]"}],"stateMutability":"view"},{"type":"function","name":"getBrandByOracle","inputs":[{"name":"oracleAddress","type":"address","internalType":"address"}],"outputs":[{"name":"","type":"string","internalType":"string"}],"stateMutability":"view"},{"type":"function","name":"getBrandByPermissionManager","inputs":[{"name":"permissionManager","type":"address","internalType":"address"}],"outputs":[{"name":"","type":"string","internalType":"string"}],"stateMutability":"view"},{"type":"function","name":"getCarBrand","inputs":[{"name":"brandName","type":"string","internalType":"string"}],"outputs":[{"name":"","type":"tuple","internalType":"struct IOracleMaster.CarBrand","components":[{"name":"name","type":"string","internalType":"string"},{"name":"oracleAddress","type":"address","internalType":"address"},{"name":"priceFeedAddress","type":"string","internalType":"string"},{"name":"lastUpdateTime","type":"uint256","internalType":"uint256"},{"name":"isActive","type":"bool","internalType":"bool"},{"name":"totalProducts","type":"uint256","internalType":"uint256"}]}],"stateMutability":"view"},{"type":"function","name":"getLastUpdateTime","inputs":[{"name":"brandName","type":"string","internalType":"string"}],"outputs":[{"name":"","type":"uint256","internalType":"uint256"}],"stateMutability":"view"},{"type":"function","name":"getOracleAddress","inputs":[{"name":"brandName","type":"string","internalType":"string"}],"outputs":[{"name":"","type":"address","internalType":"address"}],"stateMutability":"view"},{"type":"function","name":"getOracleStats","inputs":[],"outputs":[{"name":"totalBrands","type":"uint256","internalType":"uint256"},{"name":"activeBrands","type":"uint256","internalType":"uint256"},{"name":"totalProducts","type":"uint256","internalType":"uint256"}],"stateMutability":"view"},{"type":"function","name":"getPermissionDetails","inputs":[{"name":"account","type":"address","internalType":"address"},{"name":"functionSelector","type":"bytes4","internalType":"bytes4"}],"outputs":[{"name":"","type":"tuple","internalType":"struct IPermissionManager.Permission","components":[{"name":"account","type":"address","internalType":"address"},{"name":"functionSelector","type":"bytes4","internalType":"bytes4"},{"name":"isActive","type":"bool","internalType":"bool"},{"name":"grantedAt","type":"uint256","internalType":"uint256"},{"name":"expiresAt","type":"uint256","internalType":"uint256"}]}],"stateMutability":"view"},{"type":"function","name":"getStaleOracles","inputs":[],"outputs":[{"name":"","type":"string[]","internalType":"string[]"}],"stateMutability":"view"},{"type":"function","name":"globalPermissionManager","inputs":[],"outputs":[{"name":"","type":"address","internalType":"address"}],"stateMutability":"view"},{"type":"function","name":"incrementProductCount","inputs":[{"name":"brandName","type":"string","internalType":"string"}],"outputs":[],"stateMutability":"nonpayable"},{"type":"function","name":"isOracleActive","inputs":[{"name":"brandName","type":"string","internalType":"string"}],"outputs":[{"name":"","type":"bool","internalType":"bool"}],"stateMutability":"view"},{"type":"function","name":"maxDeviationThreshold","inputs":[],"outputs":[{"name":"","type":"uint256","internalType":"uint256"}],"stateMutability":"view"},{"type":"function","name":"maxUpdateInterval","inputs":[],"outputs":[{"name":"","type":"uint256","internalType":"uint256"}],"stateMutability":"view"},{"type":"function","name":"minDeviationThreshold","inputs":[],"outputs":[{"name":"","type":"uint256","internalType":"uint256"}],"stateMutability":"view"},{"type":"function","name":"minUpdateInterval","inputs":[],"outputs":[{"name":"","type":"uint256","internalType":"uint256"}],"stateMutability":"view"},{"type":"function","name":"oracleImplementation","inputs":[],"outputs":[{"name":"","type":"address","internalType":"address"}],"stateMutability":"view"},{"type":"function","name":"owner","inputs":[],"outputs":[{"name":"","type":"address","internalType":"address"}],"stateMutability":"view"},{"type":"function","name":"pause","inputs":[],"outputs":[],"stateMutability":"nonpayable"},{"type":"function","name":"paused","inputs":[],"outputs":[{"name":"","type":"bool","internalType":"bool"}],"stateMutability":"view"},{"type":"function","name":"permissionManagerImplementation","inputs":[],"outputs":[{"name":"","type":"address","internalType":"address"}],"stateMutability":"view"},{"type":"function","name":"reactivateOracle","inputs":[{"name":"brandName","type":"string","internalType":"string"}],"outputs":[],"stateMutability":"nonpayable"},{"type":"function","name":"registerCarBrand","inputs":[{"name":"brandName","type":"string","internalType":"string"},{"name":"priceFeedAddress","type":"string","internalType":"string"},{"name":"config","type":"tuple","internalType":"struct ICarOracle.OracleConfig","components":[{"name":"updateInterval","type":"uint256","internalType":"uint256"},{"name":"deviationThreshold","type":"uint256","internalType":"uint256"},{"name":"heartbeat","type":"uint256","internalType":"uint256"},{"name":"minAnswer","type":"uint256","internalType":"uint256"},{"name":"maxAnswer","type":"uint256","internalType":"uint256"}]},{"name":"brandOwner","type":"address","internalType":"address"}],"outputs":[{"name":"oracleAddress","type":"address","internalType":"address"},{"name":"","type":"address","internalType":"address"}],"stateMutability":"nonpayable"},{"type":"function","name":"renounceOwnership","inputs":[],"outputs":[],"stateMutability":"nonpayable"},{"type":"function","name":"transferOwnership","inputs":[{"name":"newOwner","type":"address","internalType":"address"}],"outputs":[],"stateMutability":"nonpayable"},{"type":"function","name":"unpause","inputs":[],"outputs":[],"stateMutability":"nonpayable"},{"type":"function","name":"updateConfiguration","inputs":[{"name":"_minUpdateInterval","type":"uint256","internalType":"uint256"},{"name":"_maxUpdateInterval","type":"uint256","internalType":"uint256"},{"name":"_minDeviationThreshold","type":"uint256","internalType":"uint256"},{"name":"_maxDeviationThreshold","type":"uint256","internalType":"uint256"}],"outputs":[],"stateMutability":"nonpayable"},{"type":"function","name":"updateGlobalPermissionManager","inputs":[{"name":"newGlobalPermissionManager","type":"address","internalType":"address"}],"outputs":[],"stateMutability":"nonpayable"},{"type":"function","name":"updateOracle","inputs":[{"name":"brandName","type":"string","internalType":"string"},{"name":"config","type":"tuple","internalType":"struct ICarOracle.OracleConfig","components":[{"name":"updateInterval","type":"uint256","internalType":"uint256"},{"name":"deviationThreshold","type":"uint256","internalType":"uint256"},{"name":"heartbeat","type":"uint256","internalType":"uint256"},{"name":"minAnswer","type":"uint256","internalType":"uint256"},{"name":"maxAnswer","type":"uint256","internalType":"uint256"}]}],"outputs":[],"stateMutability":"nonpayable"},{"type":"function","name":"updateOracleImplementation","inputs":[{"name":"newImplementation","type":"address","internalType":"address"}],"outputs":[],"stateMutability":"nonpayable"},{"type":"function","name":"updatePermissionManagerImplementation","inputs":[{"name":"newImplementation","type":"address","internalType":"address"}],"outputs":[],"stateMutability":"nonpayable"},{"type":"event","name":"BrandPermissionManagerCreated","inputs":[{"name":"brandName","type":"string","indexed":true,"internalType":"string"},{"name":"permissionManager","type":"address","indexed":true,"internalType":"address"},{"name":"brandOwner","type":"address","indexed":true,"internalType":"address"}],"anonymous":false},{"type":"event","name":"CarBrandRegistered","inputs":[{"name":"brandName","type":"string","indexed":true,"internalType":"string"},{"name":"oracleAddress","type":"address","indexed":true,"internalType":"address"},{"name":"priceFeedAddress","type":"string","indexed":false,"internalType":"string"},{"name":"timestamp","type":"uint256","indexed":false,"internalType":"uint256"}],"anonymous":false},{"type":"event","name":"ConfigurationUpdated","inputs":[{"name":"minUpdateInterval","type":"uint256","indexed":false,"internalType":"uint256"},{"name":"maxUpdateInterval","type":"uint256","indexed":false,"internalType":"uint256"},{"name":"minDeviationThreshold","type":"uint256","indexed":false,"internalType":"uint256"},{"name":"maxDeviationThreshold","type":"uint256","indexed":false,"internalType":"uint256"}],"anonymous":false},{"type":"event","name":"GlobalPermissionManagerUpdated","inputs":[{"name":"oldManager","type":"address","indexed":true,"internalType":"address"},{"name":"newManager","type":"address","indexed":true,"internalType":"address"}],"anonymous":false},{"type":"event","name":"OracleDeactivated","inputs":[{"name":"brandName","type":"string","indexed":true,"internalType":"string"},{"name":"oracleAddress","type":"address","indexed":true,"internalType":"address"},{"name":"timestamp","type":"uint256","indexed":false,"internalType":"uint256"}],"anonymous":false},{"type":"event","name":"OracleImplementationUpdated","inputs":[{"name":"oldImpl","type":"address","indexed":true,"internalType":"address"},{"name":"newImpl","type":"address","indexed":true,"internalType":"address"}],"anonymous":false},{"type":"event","name":"OracleUpdated","inputs":[{"name":"brandName","type":"string","indexed":true,"internalType":"string"},{"name":"oracleAddress","type":"address","indexed":true,"internalType":"address"},{"name":"lastUpdateTime","type":"uint256","indexed":false,"internalType":"uint256"},{"name":"timestamp","type":"uint256","indexed":false,"internalType":"uint256"}],"anonymous":false},{"type":"event","name":"OwnershipTransferred","inputs":[{"name":"previousOwner","type":"address","indexed":true,"internalType":"address"},{"name":"newOwner","type":"address","indexed":true,"internalType":"address"}],"anonymous":false},{"type":"event","name":"Paused","inputs":[{"name":"account","type":"address","indexed":false,"internalType":"address"}],"anonymous":false},{"type":"event","name":"PermissionManagerImplementationUpdated","inputs":[{"name":"oldImpl","type":"address","indexed":true,"internalType":"address"},{"name":"newImpl","type":"address","indexed":true,"internalType":"address"}],"anonymous":false},{"type":"event","name":"Unpaused","inputs":[{"name":"account","type":"address","indexed":false,"internalType":"address"}],"anonymous":false}],"bytecode":{"object":"0x6080604052346100305761001a610014610111565b916104cc565b610022610035565b61520f610747823961520f90f35b61003b565b60405190565b5f80fd5b601f801991011690565b634e487b7160e01b5f52604160045260245ffd5b906100679061003f565b810190811060018060401b0382111761007f57604052565b610049565b90610097610090610035565b928361005d565b565b5f80fd5b60018060a01b031690565b6100b19061009d565b90565b6100bd816100a8565b036100c457565b5f80fd5b905051906100d5826100b4565b565b909160608284031261010c576101096100f2845f85016100c8565b9361010081602086016100c8565b936040016100c8565b90565b610099565b61012f6159568038038061012481610084565b9283398101906100d7565b909192565b5f1b90565b906101455f1991610134565b9181191691161790565b90565b90565b90565b61016c6101676101719261014f565b610155565b610152565b90565b90565b9061018c61018761019392610158565b610174565b8254610139565b9055565b90565b6101ae6101a96101b392610197565b610155565b610152565b90565b906101cb6101c66101d29261019a565b610174565b8254610139565b9055565b90565b6101ed6101e86101f2926101d6565b610155565b610152565b90565b9061020a610205610211926101d9565b610174565b8254610139565b9055565b90565b61022c61022761023192610215565b610155565b610152565b90565b9061024961024461025092610218565b610174565b8254610139565b9055565b90565b61026b61026661027092610254565b610155565b61009d565b90565b61027c90610257565b90565b60209181520190565b5f7f496e76616c696420696d706c656d656e746174696f6e20616464726573730000910152565b6102bc601e60209261027f565b6102c581610288565b0190565b6102de9060208101905f8183039101526102af565b90565b156102e857565b6102f0610035565b62461bcd60e51b815280610306600482016102c9565b0390fd5b60207f6d656e746174696f6e2061646472657373000000000000000000000000000000917f496e76616c6964207065726d697373696f6e206d616e6167657220696d706c655f8201520152565b610364603160409261027f565b61036d8161030a565b0190565b6103869060208101905f818303910152610357565b90565b1561039057565b610398610035565b62461bcd60e51b8152806103ae60048201610371565b0390fd5b60207f7220616464726573730000000000000000000000000000000000000000000000917f496e76616c696420676c6f62616c207065726d697373696f6e206d616e6167655f8201520152565b61040c602960409261027f565b610415816103b2565b0190565b61042e9060208101905f8183039101526103ff565b90565b1561043857565b610440610035565b62461bcd60e51b81528061045660048201610419565b0390fd5b9061046b60018060a01b0391610134565b9181191691161790565b61048961048461048e9261009d565b610155565b61009d565b90565b61049a90610475565b90565b6104a690610491565b90565b90565b906104c16104bc6104c89261049d565b6104a9565b825461045a565b9055565b610598929161058a610591926104e061060b565b6104ed61012c6009610177565b6104fb62015180600a6101b6565b6105076064600b6101f5565b610514611388600c610234565b6105398161053261052c6105275f610273565b6100a8565b916100a8565b14156102e1565b61055e8361055761055161054c5f610273565b6100a8565b916100a8565b1415610389565b6105838561057c6105766105715f610273565b6100a8565b916100a8565b1415610431565b60026104ac565b60036104ac565b60046104ac565b6105a1336106d6565b565b90565b6105ba6105b56105bf926105a3565b610155565b610152565b90565b6105cc60016105a6565b90565b6105e36105de6105e892610152565b610155565b610152565b90565b906106006105fb610607926105cf565b610174565b8254610139565b9055565b61061361067a565b61062561061e6105c2565b60016105eb565b565b60a01b90565b9061063c60ff60a01b91610627565b9181191691161790565b151590565b61065490610646565b90565b90565b9061066f61066a6106769261064b565b610657565b825461062d565b9055565b61068261068e565b61068c5f5f61065a565b565b61069e610699610739565b6106d6565b565b5f1c90565b60018060a01b031690565b6106bc6106c1916106a0565b6106a5565b90565b6106ce90546106b0565b90565b5f0190565b6106df5f6106c4565b6106e9825f6104ac565b9061071d6107177f8be0079c531659141344cd1fd0a4f28419497f9722a3daafe3b4186f6b6457e09361049d565b9161049d565b91610726610035565b80610730816106d1565b0390a3565b5f90565b610741610735565b50339056fe60806040526004361015610013575b611699565b61001d5f356102cc565b80630308b414146102c75780630964ff26146102c25780630b122e48146102bd5780631250e0d5146102b857806318c0f3cb146102b35780631bff546a146102ae57806321905a0f146102a9578063244a6f1b146102a45780632a30339c1461029f5780632b1dff3c1461029a5780632e5a1967146102955780632f3e2e28146102905780633718e1041461028b578063374721b1146102865780633f4ba83a14610281578063580a409c1461027c5780635c975abb1461027757806367a3b011146102725780636c20a6f61461026d578063715018a61461026857806377cf32d1146102635780638352ec881461025e5780638456cb59146102595780638da5cb5b146102545780639269cdcd1461024f57806398f056b31461024a578063aa0e365614610245578063b3ec8cad14610240578063b49bb68d1461023b578063b9c5d0ac14610236578063c11630ad14610231578063c15109871461022c578063c41e92b014610227578063c6c035b514610222578063cb1934101461021d578063f2fde38b14610218578063f3a3d70014610213578063f8a1bf691461020e578063fb1acc9b14610209578063fba7f9d914610204578063fcc92a7b146101ff578063fcecd14a146101fa5763ffc5f64d0361000e57611664565b6115f9565b61141c565b6113e7565b6113a5565b611372565b61133d565b6112d3565b61129e565b611257565b6111f0565b61112d565b6110f8565b61108e565b611059565b611024565b610fe0565b610fab565b610f41565b610f0c565b610ed9565b610ea4565b610e38565b610db0565b610d7d565b610d48565b610d04565b610ccf565b610c65565b610c30565b610bf9565b610b7e565b610b4b565b610b17565b610a97565b610a62565b610a1e565b61090a565b61086b565b6106f3565b61063e565b6104d0565b61042b565b60e01c90565b60405190565b5f80fd5b5f80fd5b5f80fd5b5f80fd5b5f80fd5b601f801991011690565b634e487b7160e01b5f52604160045260245ffd5b90610314906102ec565b810190811067ffffffffffffffff82111761032e57604052565b6102f6565b9061034661033f6102d2565b928361030a565b565b67ffffffffffffffff8111610366576103626020916102ec565b0190565b6102f6565b90825f939282370152565b9092919261038b61038682610348565b610333565b938185526020850190828401116103a7576103a59261036b565b565b6102e8565b9080601f830112156103ca578160206103c793359101610376565b90565b6102e4565b906020828203126103ff575f82013567ffffffffffffffff81116103fa576103f792016103ac565b90565b6102e0565b6102dc565b151590565b61041290610404565b9052565b9190610429905f60208501940190610409565b565b3461045b576104576104466104413660046103cf565b611754565b61044e6102d2565b91829182610416565b0390f35b6102d8565b5f91031261046a57565b6102dc565b1c90565b90565b61048690600861048b930261046f565b610473565b90565b906104999154610476565b90565b6104a860095f9061048e565b90565b90565b6104b7906104ab565b9052565b91906104ce905f602085019401906104ae565b565b34610500576104e0366004610460565b6104fc6104eb61049c565b6104f36102d2565b918291826104bb565b0390f35b6102d8565b60018060a01b031690565b61051990610505565b90565b61052581610510565b0361052c57565b5f80fd5b9050359061053d8261051c565b565b63ffffffff60e01b1690565b6105548161053f565b0361055b57565b5f80fd5b9050359061056c8261054b565b565b9190604083820312610596578061058a610593925f8601610530565b9360200161055f565b90565b6102dc565b6105a490610510565b9052565b6105b19061053f565b9052565b6105be90610404565b9052565b6105cb906104ab565b9052565b90608080610627936105e75f8201515f86019061059b565b6105f9602082015160208601906105a8565b61060b604082015160408601906105b5565b61061d606082015160608601906105c2565b01519101906105c2565b565b919061063c905f60a085019401906105cf565b565b3461066f5761066b61065a61065436600461056e565b90611809565b6106626102d2565b91829182610629565b0390f35b6102d8565b9060208282031261068d5761068a915f01610530565b90565b6102dc565b5190565b60209181520190565b90825f9392825e0152565b6106c96106d26020936106d7936106c081610692565b93848093610696565b9586910161069f565b6102ec565b0190565b6106f09160208201915f8184039101526106aa565b90565b346107235761071f61070e610709366004610674565b61198b565b6107166102d2565b918291826106db565b0390f35b6102d8565b5f80fd5b610735816104ab565b0361073c57565b5f80fd5b9050359061074d8261072c565b565b919060a0838203126107bf576107b89061076960a0610333565b93610776825f8301610740565b5f8601526107878260208301610740565b60208601526107998260408301610740565b60408601526107ab8260608301610740565b6060860152608001610740565b6080830152565b610728565b61010081830312610836575f81013567ffffffffffffffff811161083157826107ee9183016103ac565b92602082013567ffffffffffffffff811161082c57610812846108299285016103ac565b93610820816040860161074f565b9360e001610530565b90565b6102e0565b6102e0565b6102dc565b61084490610510565b9052565b91602061086992949361086260408201965f83019061083b565b019061083b565b565b346108a05761088761087e3660046107c4565b929190916125ca565b9061089c6108936102d2565b92839283610848565b0390f35b6102d8565b6108ae9061053f565b90565b6108da7f9269cdcdef782621e92d01d94daaef43b273b5772f2d78ec872a693d5848f7396108a5565b90565b6108e56108b1565b90565b6108f19061053f565b9052565b9190610908905f602085019401906108e8565b565b3461093a5761091a366004610460565b6109366109256108dd565b61092d6102d2565b918291826108f5565b0390f35b6102d8565b5190565b60209181520190565b60200190565b60209181520190565b61097a6109836020936109889361097181610692565b93848093610952565b9586910161069f565b6102ec565b0190565b906109969161095b565b90565b60200190565b906109b36109ac8361093f565b8092610943565b90816109c46020830284019461094c565b925f915b8383106109d757505050505090565b909192939460206109f96109f38385600195038752895161098c565b97610999565b93019301919392906109c8565b610a1b9160208201915f81840391015261099f565b90565b34610a4e57610a2e366004610460565b610a4a610a39612816565b610a416102d2565b91829182610a06565b0390f35b6102d8565b610a5f600b5f9061048e565b90565b34610a9257610a72366004610460565b610a8e610a7d610a53565b610a856102d2565b918291826104bb565b0390f35b6102d8565b34610ac857610ac4610ab3610aad36600461056e565b90612ac1565b610abb6102d2565b91829182610416565b0390f35b6102d8565b919060c083820312610b0d575f8301359067ffffffffffffffff8211610b0857610afc81610b059386016103ac565b9360200161074f565b90565b6102e0565b6102dc565b5f0190565b34610b4657610b30610b2a366004610acd565b90612e15565b610b386102d2565b80610b4281610b12565b0390f35b6102d8565b34610b7957610b63610b5e366004610674565b612f62565b610b6b6102d2565b80610b7581610b12565b0390f35b6102d8565b34610bae57610b8e366004610460565b610baa610b99612f6d565b610ba16102d2565b91829182610a06565b0390f35b6102d8565b608081830312610bf457610bc9825f8301610740565b92610bf1610bda8460208501610740565b93610be88160408601610740565b93606001610740565b90565b6102dc565b34610c2b57610c15610c0c366004610bb3565b929190916132d5565b610c1d6102d2565b80610c2781610b12565b0390f35b6102d8565b34610c6057610c40366004610460565b610c5c610c4b61333d565b610c536102d2565b91829182610a06565b0390f35b6102d8565b34610c9357610c75366004610460565b610c7d61336f565b610c856102d2565b80610c8f81610b12565b0390f35b6102d8565b610cc17ffb1acc9b5845963fff96963d060e3803c185bf4c1408e2aa2eb7dc4eb123fe1a6108a5565b90565b610ccc610c98565b90565b34610cff57610cdf366004610460565b610cfb610cea610cc4565b610cf26102d2565b918291826108f5565b0390f35b6102d8565b34610d3457610d14366004610460565b610d30610d1f6133a0565b610d276102d2565b91829182610416565b0390f35b6102d8565b610d45600c5f9061048e565b90565b34610d7857610d58366004610460565b610d74610d63610d39565b610d6b6102d2565b918291826104bb565b0390f35b6102d8565b34610dab57610d95610d903660046103cf565b6134df565b610d9d6102d2565b80610da781610b12565b0390f35b6102d8565b34610dde57610dc0366004610460565b610dc86135f3565b610dd06102d2565b80610dda81610b12565b0390f35b6102d8565b60018060a01b031690565b610dfe906008610e03930261046f565b610de3565b90565b90610e119154610dee565b90565b610e2060045f90610e06565b90565b9190610e36905f6020850194019061083b565b565b34610e6857610e48366004610460565b610e64610e53610e14565b610e5b6102d2565b91829182610e23565b0390f35b6102d8565b610e967f2b1dff3c9dc69b19c653794d1e780fa7deb9df2df31712a4aa28504c5391c2346108a5565b90565b610ea1610e6d565b90565b34610ed457610eb4366004610460565b610ed0610ebf610e99565b610ec76102d2565b918291826108f5565b0390f35b6102d8565b34610f0757610ee9366004610460565b610ef1613619565b610ef96102d2565b80610f0381610b12565b0390f35b6102d8565b34610f3c57610f1c366004610460565b610f38610f27613623565b610f2f6102d2565b91829182610e23565b0390f35b6102d8565b34610f6f57610f59610f543660046103cf565b6137f4565b610f616102d2565b80610f6b81610b12565b0390f35b6102d8565b610f9d7ff8a1bf69b413260060cacbd6acb8b0b45e6a161ec416ddcf3999e0b14445308f6108a5565b90565b610fa8610f74565b90565b34610fdb57610fbb366004610460565b610fd7610fc6610fa0565b610fce6102d2565b918291826108f5565b0390f35b6102d8565b346110105761100c610ffb610ff63660046103cf565b61393e565b6110036102d2565b91829182610e23565b0390f35b6102d8565b61102160035f90610e06565b90565b3461105457611034366004610460565b61105061103f611015565b6110476102d2565b91829182610e23565b0390f35b6102d8565b346110895761108561107461106f366004610674565b613960565b61107c6102d2565b918291826106db565b0390f35b6102d8565b346110bc576110a66110a1366004610674565b613a9a565b6110ae6102d2565b806110b881610b12565b0390f35b6102d8565b6110ea7ffcecd14a06b4bee7dfe33bddf5014322d5a93c3bc2f67d33de51f7c865c71f316108a5565b90565b6110f56110c1565b90565b3461112857611108366004610460565b6111246111136110ed565b61111b6102d2565b918291826108f5565b0390f35b6102d8565b3461115b57611145611140366004610674565b613b3e565b61114d6102d2565b8061115781610b12565b0390f35b6102d8565b906111d59060a0806111a661118260c085015f8801518682035f88015261095b565b6111946020880151602087019061059b565b6040870151858203604087015261095b565b946111b9606082015160608601906105c2565b6111cb608082015160808601906105b5565b01519101906105c2565b90565b6111ed9160208201915f818403910152611160565b90565b346112205761121c61120b6112063660046103cf565b613c7d565b6112136102d2565b918291826111d8565b0390f35b6102d8565b60409061124e611255949695939661124460608401985f8501906104ae565b60208301906104ae565b01906104ae565b565b3461128a57611267366004610460565b611286611272613cc1565b61127d9391936102d2565b93849384611225565b0390f35b6102d8565b61129b60025f90610e06565b90565b346112ce576112ae366004610460565b6112ca6112b961128f565b6112c16102d2565b91829182610e23565b0390f35b6102d8565b34611301576112eb6112e6366004610674565b613e91565b6112f36102d2565b806112fd81610b12565b0390f35b6102d8565b61132f7f18c0f3cb4c69053383f3b083363d692b36c3176fb72c4315abc6a0bee247f9366108a5565b90565b61133a611306565b90565b3461136d5761134d366004610460565b611369611358611332565b6113606102d2565b918291826108f5565b0390f35b6102d8565b346113a05761138a6113853660046103cf565b614064565b6113926102d2565b8061139c81610b12565b0390f35b6102d8565b346113d3576113bd6113b83660046103cf565b6141d5565b6113c56102d2565b806113cf81610b12565b0390f35b6102d8565b6113e4600a5f9061048e565b90565b34611417576113f7366004610460565b6114136114026113d8565b61140a6102d2565b918291826104bb565b0390f35b6102d8565b3461144c576114486114376114323660046103cf565b61426e565b61143f6102d2565b918291826104bb565b0390f35b6102d8565b67ffffffffffffffff81116114695760208091020190565b6102f6565b5f80fd5b92919061148661148182611451565b610333565b93818552602080860192028101918383116114dd5781905b8382106114ac575050505050565b813567ffffffffffffffff81116114d8576020916114cd87849387016103ac565b81520191019061149e565b6102e4565b61146e565b9080601f83011215611500578160206114fd93359101611472565b90565b6102e4565b67ffffffffffffffff811161151d5760208091020190565b6102f6565b9092919261153761153282611505565b610333565b938185526020808601920283019281841161157457915b83831061155b5750505050565b602080916115698486610740565b81520192019161154e565b61146e565b9080601f830112156115975781602061159493359101611522565b90565b6102e4565b9190916040818403126115f4575f81013567ffffffffffffffff81116115ef57836115c89183016114e2565b92602082013567ffffffffffffffff81116115ea576115e79201611579565b90565b6102e0565b6102e0565b6102dc565b346116285761161261160c36600461159c565b906143de565b61161a6102d2565b8061162481610b12565b0390f35b6102d8565b6116567f6c20a6f6cae230368087952f502fce9a7dfed0e609c235cf92ac636b941fa51b6108a5565b90565b61166161162d565b90565b3461169457611674366004610460565b61169061167f611659565b6116876102d2565b918291826108f5565b0390f35b6102d8565b5f80fd5b5f90565b905090565b6116cb6116c2926020926116b981610692565b948580936116a1565b9384910161069f565b0190565b90565b6116de6116e3916104ab565b6116cf565b9052565b6116f76116fe91602094936116a6565b80926116d2565b0190565b61171661170d6102d2565b928392836116e7565b03902090565b61172591611702565b90565b5f1c90565b60ff1690565b61173f61174491611728565b61172d565b90565b6117519054611733565b90565b600461176d6117739261176561169d565b50600561171c565b01611747565b90565b61178060a0610333565b90565b5f90565b5f90565b5f90565b5f90565b61179b611776565b90602080808080866117ab611783565b8152016117b6611787565b8152016117c161178b565b8152016117cc61178f565b8152016117d761178f565b81525050565b6117e5611793565b90565b6117f46117f991611728565b610de3565b90565b61180690546117e8565b90565b611828916118156117dd565b5061182060046117fc565b9190916146bc565b90565b606090565b90565b61184761184261184c92610505565b611830565b610505565b90565b61185890611833565b90565b6118649061184f565b90565b906118719061185b565b5f5260205260405f2090565b634e487b7160e01b5f52602260045260245ffd5b90600160028304921680156118b1575b60208310146118ac57565b61187d565b91607f16916118a1565b5f5260205f2090565b905f92918054906118de6118d783611891565b8094610952565b916001811690815f1461193557506001146118f9575b505050565b61190691929394506118bb565b915f925b81841061191d57505001905f80806118f4565b6001816020929593955484860152019101929061190a565b92949550505060ff19168252151560200201905f80806118f4565b9061195a916118c4565b90565b9061197d6119769261196d6102d2565b93848092611950565b038361030a565b565b6119889061195d565b90565b6119a26119a79161199a61182b565b506008611867565b61197f565b90565b5f90565b906119c495949392916119bf6147d2565b6119c8565b9091565b906119de95949392916119d961489b565b612283565b90916119e8614908565b565b60207f616e640000000000000000000000000000000000000000000000000000000000917f5065726d697373696f6e2064656e6965643a20726567697374657243617242725f8201520152565b611a446023604092610696565b611a4d816119ea565b0190565b611a669060208101905f818303910152611a37565b90565b15611a7057565b611a786102d2565b62461bcd60e51b815280611a8e60048201611a51565b0390fd5b90565b5190565b90565b611ab0611aab611ab592611a99565b611830565b6104ab565b90565b5f7f4272616e64206e616d652063616e6e6f7420626520656d707479000000000000910152565b611aec601a602092610696565b611af581611ab8565b0190565b611b0e9060208101905f818303910152611adf565b90565b15611b1857565b611b206102d2565b62461bcd60e51b815280611b3660048201611af9565b0390fd5b60207f7479000000000000000000000000000000000000000000000000000000000000917f5072696365206665656420616464726573732063616e6e6f7420626520656d705f8201520152565b611b946022604092610696565b611b9d81611b3a565b0190565b611bb69060208101905f818303910152611b87565b90565b15611bc057565b611bc86102d2565b62461bcd60e51b815280611bde60048201611ba1565b0390fd5b611bf6611bf1611bfb92611a99565b611830565b610505565b90565b611c0790611be2565b90565b60207f7373000000000000000000000000000000000000000000000000000000000000917f4272616e64206f776e65722063616e6e6f74206265207a65726f2061646472655f8201520152565b611c646022604092610696565b611c6d81611c0a565b0190565b611c869060208101905f818303910152611c57565b90565b15611c9057565b611c986102d2565b62461bcd60e51b815280611cae60048201611c71565b0390fd5b5f7f4272616e6420616c726561647920726567697374657265640000000000000000910152565b611ce66018602092610696565b611cef81611cb2565b0190565b611d089060208101905f818303910152611cd9565b90565b15611d1257565b611d1a6102d2565b62461bcd60e51b815280611d3060048201611cf3565b0390fd5b611d3d9061184f565b90565b611d4990611833565b90565b611d5590611d40565b90565b611d619061184f565b90565b5f80fd5b60e01b90565b5f910312611d7857565b6102dc565b604090611da9611d9e611db09597969460608401908482035f8601526106aa565b96602083019061083b565b019061083b565b565b611dba6102d2565b3d5f823e3d90fd5b611dcc60c0610333565b90565b52565b90611ddc90610510565b9052565b90611dea906104ab565b9052565b90611df890610404565b9052565b634e487b7160e01b5f525f60045260245ffd5b5190565b601f602091010490565b1b90565b91906008611e3c910291611e365f1984611e1d565b92611e1d565b9181191691161790565b611e5a611e55611e5f926104ab565b611830565b6104ab565b90565b90565b9190611e7b611e76611e8393611e46565b611e62565b908354611e21565b9055565b5f90565b611e9d91611e97611e87565b91611e65565b565b5b818110611eab575050565b80611eb85f600193611e8b565b01611ea0565b9190601f8111611ece575b505050565b611eda611eff936118bb565b906020611ee684611e13565b83019310611f07575b611ef890611e13565b0190611e9f565b5f8080611ec9565b9150611ef881929050611eef565b90611f25905f199060080261046f565b191690565b81611f3491611f15565b906002021790565b90611f4681610692565b9067ffffffffffffffff821161200657611f6a82611f648554611891565b85611ebe565b602090601f8311600114611f9e57918091611f8d935f92611f92575b5050611f2a565b90555b565b90915001515f80611f86565b601f19831691611fad856118bb565b925f5b818110611fee57509160029391856001969410611fd4575b50505002019055611f90565b611fe4910151601f841690611f15565b90555f8080611fc8565b91936020600181928787015181550195019201611fb0565b6102f6565b9061201591611f3c565b565b6120219051610510565b90565b5f1b90565b9061203a60018060a01b0391612024565b9181191691161790565b90565b9061205c6120576120639261185b565b612044565b8254612029565b9055565b61207190516104ab565b90565b906120805f1991612024565b9181191691161790565b9061209f61209a6120a692611e46565b611e62565b8254612074565b9055565b6120b49051610404565b90565b906120c360ff91612024565b9181191691161790565b6120d690610404565b90565b90565b906120f16120ec6120f8926120cd565b6120d9565b82546120b7565b9055565b9061218b60a060056121919461211f5f82016121195f8801611e0f565b9061200b565b6121386001820161213260208801612017565b90612047565b6121516002820161214b60408801611e0f565b9061200b565b61216a6003820161216460608801612067565b9061208a565b6121836004820161217d608088016120aa565b906120dc565b019201612067565b9061208a565b565b9061219d916120fc565b565b90565b5f5260205f2090565b634e487b7160e01b5f52603260045260245ffd5b5490565b6121cc816121bf565b8210156121e6576121de6001916121a2565b910201905f90565b6121ab565b91906121fc576121fa91611f3c565b565b611dfc565b9081549168010000000000000000831015612231578261222991600161222f950181556121c3565b906121eb565b565b6102f6565b61223f916116a6565b90565b6122579061224e6102d2565b91829182612236565b03902090565b929160206122796122819360408701908782035f8901526106aa565b9401906104ae565b565b959492955050336122a361229d612298613623565b610510565b91610510565b1480156125a3575b6122b490611a69565b6122e06122c86122c383611a92565b611a95565b6122da6122d45f611a9c565b916104ab565b11611b11565b61230c6122f46122ef87611a92565b611a95565b6123066123005f611a9c565b916104ab565b11611bb9565b6123318261232a61232461231f5f611bfe565b610510565b91610510565b1415611c89565b61235961235461234e60046123486005869061171c565b01611747565b15610404565b611d0b565b61236283614c03565b6123ad61238561237260026117fc565b8388879161237f30611d34565b93614d7c565b9361239861239360036117fc565b614ea9565b9083908890916123a730611d34565b93614d7c565b946123bf6123ba87611d4c565b611d58565b63463fd1af836123ce30611d34565b928692813b1561259e575f6123f69161240182966123ea6102d2565b98899788968795611d68565b855260048501611d7d565b03925af180156125995761256d575b506124865f61247561246c856124678961245e88612455429161244c8a956124438c9961243b611dc2565b9d8e01611dcf565b60208c01611dd2565b60408a01611dcf565b60608801611de0565b60808601611dee565b611a9c565b60a08301611de0565b6124816005859061171c565b612193565b61249a612493600661219f565b8390612201565b6124af826124aa60078790611867565b61200b565b6124c4826124bf60088990611867565b61200b565b8190849091426124fd6124f77fb9aba7eec48e49b6fb34ae425328aaaf106eb6a291c31803bf35524884c3a4f093612242565b9361185b565b936125126125096102d2565b9283928361225d565b0390a3908461255361254d6125477f555b83d6c87fe088d565dd18f17fcf4d437a2efa917a7f0b111d680ed424366e95612242565b9261185b565b9261185b565b9261255c6102d2565b8061256681610b12565b0390a49190565b61258c905f3d8111612592575b612584818361030a565b810190611d6e565b5f612410565b503d61257a565b611db2565b611d64565b506122b46125c36125b460046117fc565b336125bd611306565b9161491c565b90506122ab565b906125e79392916125d96119aa565b6125e16119aa565b906119ae565b9091565b606090565b60016125fc91016104ab565b90565b5490565b5f5260205f2090565b612615816125ff565b82101561262f57612627600191612603565b910201905f90565b6121ab565b905f929180549061264e61264783611891565b80946116a1565b916001811690815f146126a05750600114612669575b505050565b61267691929394506118bb565b5f905b83821061268c57505001905f8080612664565b600181602092548486015201910190612679565b92949550505060ff191682528015150201905f8080612664565b6126ca6126d19160209493612634565b80926116d2565b0190565b6126e96126e06102d2565b928392836126ba565b03902090565b6126f8916126d5565b90565b61270490611833565b90565b612710906126fb565b90565b61271c9061184f565b90565b61272881610404565b0361272f57565b5f80fd5b905051906127408261271f565b565b9060208282031261275b57612758915f01612733565b90565b6102dc565b634e487b7160e01b5f52601160045260245ffd5b61277d906104ab565b5f19811461278b5760010190565b612760565b906127a261279d83611451565b610333565b918252565b606090565b5f5b8281106127ba57505050565b6020906127c56127a7565b81840152016127ae565b906127f46127dc83612790565b926020806127ea8693611451565b92019103906127ac565b565b906128008261093f565b811015612811576020809102010190565b6121ab565b61281e6125eb565b506128285f611a9c565b906128325f611a9c565b5b8061284f61284961284460066125ff565b6104ab565b916104ab565b1015612950576128786004612872600561286b6006869061260c565b50906126ef565b01611747565b806128a6575b612891575b61288c906125f0565b612833565b9161289e61288c91612774565b929050612883565b506128f560206128df6128da6128d560016128cf60056128c860068a9061260c565b50906126ef565b016117fc565b612707565b612713565b631a26f447906128ed6102d2565b938492611d68565b8252818061290560048201610b12565b03915afa90811561294b575f9161291d575b5061287e565b61293e915060203d8111612944575b612936818361030a565b810190612742565b5f612917565b503d61292c565b611db2565b509061295b906127cf565b906129655f611a9c565b9161296f5f611a9c565b5b8061298c61298661298160066125ff565b6104ab565b916104ab565b1015612aba576129b560046129af60056129a86006869061260c565b50906126ef565b01611747565b80612a10575b6129ce575b6129c9906125f0565b612970565b92612a086129c991612a016129e56006889061260c565b50856129f1849261197f565b6129fb83836127f6565b526127f6565b5150612774565b9390506129c0565b50612a5f6020612a49612a44612a3f6001612a396005612a3260068a9061260c565b50906126ef565b016117fc565b612707565b612713565b631a26f44790612a576102d2565b938492611d68565b82528180612a6f60048201610b12565b03915afa908115612ab5575f91612a87575b506129bb565b612aa8915060203d8111612aae575b612aa0818361030a565b810190612742565b5f612a81565b503d612a96565b611db2565b5090915090565b612ae091612acd61169d565b50612ad860046117fc565b91909161491c565b90565b90612af591612af06147d2565b612c8c565b565b5f7f5065726d697373696f6e2064656e6965643a207570646174654f7261636c6500910152565b612b2b601f602092610696565b612b3481612af7565b0190565b612b4d9060208101905f818303910152612b1e565b90565b15612b5757565b612b5f6102d2565b62461bcd60e51b815280612b7560048201612b38565b0390fd5b5f7f4272616e64206e6f742072656769737465726564206f7220696e616374697665910152565b612bac60208092610696565b612bb581612b79565b0190565b612bce9060208101905f818303910152612ba0565b90565b15612bd857565b612be06102d2565b62461bcd60e51b815280612bf660048201612bb9565b0390fd5b90608080612c5293612c125f8201515f8601906105c2565b612c24602082015160208601906105c2565b612c36604082015160408601906105c2565b612c48606082015160608601906105c2565b01519101906105c2565b565b9190612c67905f60a08501940190612bfa565b565b916020612c8a929493612c8360408201965f8301906104ae565b01906104ae565b565b33612ca6612ca0612c9b613623565b610510565b91610510565b148015612dee575b612cb790612b50565b612cd6612cd16004612ccb6005859061171c565b01611747565b612bd1565b612cdf82614c03565b612cf66001612cf06005849061171c565b016117fc565b91612d08612d0384612707565b612713565b906355517f5690823b15612de957612d3f92612d345f8094612d286102d2565b96879586948593611d68565b835260048301612c54565b03925af18015612de457612db8575b50612d67426003612d616005859061171c565b0161208a565b90429142612d9e612d987f85fc9b3fc4c842ba5aac4e7d018aab13b116a7bfeb614e0e2910853688c3d98993612242565b9361185b565b93612db3612daa6102d2565b92839283612c69565b0390a3565b612dd7905f3d8111612ddd575b612dcf818361030a565b810190611d6e565b5f612d4e565b503d612dc5565b611db2565b611d64565b50612cb7612e0e612dff60046117fc565b33612e08610e6d565b9161491c565b9050612cae565b90612e1f91612ae3565b565b612e3290612e2d614f9b565b612edc565b565b60207f7220616464726573730000000000000000000000000000000000000000000000917f496e76616c696420676c6f62616c207065726d697373696f6e206d616e6167655f8201520152565b612e8e6029604092610696565b612e9781612e34565b0190565b612eb09060208101905f818303910152612e81565b90565b15612eba57565b612ec26102d2565b62461bcd60e51b815280612ed860048201612e9b565b0390fd5b612f0181612efa612ef4612eef5f611bfe565b610510565b91610510565b1415612eb3565b612f0b60046117fc565b612f16826004612047565b90612f4a612f447f937e2dec78561a44b0651917446340f2fd5d6c97dcadd082a86662a2b27819219361185b565b9161185b565b91612f536102d2565b80612f5d81610b12565b0390a3565b612f6b90612e21565b565b612f756125eb565b50612f7f5f611a9c565b612f885f611a9c565b5b80612fa5612f9f612f9a60066125ff565b6104ab565b916104ab565b1015612ff657612fce6004612fc86005612fc16006869061260c565b50906126ef565b01611747565b612fe1575b612fdc906125f0565b612f89565b90612fee612fdc91612774565b919050612fd3565b50613000906127cf565b6130095f611a9c565b906130135f611a9c565b5b8061303061302a61302560066125ff565b6104ab565b916104ab565b10156130ae576130596004613053600561304c6006869061260c565b50906126ef565b01611747565b61306c575b613067906125f0565b613014565b916130a66130679161309f6130836006879061260c565b508561308f849261197f565b61309983836127f6565b526127f6565b5150612774565b92905061305e565b50905090565b906130c89392916130c3614f9b565b613232565b565b5f7f496e76616c69642075706461746520696e74657276616c2072616e6765000000910152565b6130fe601d602092610696565b613107816130ca565b0190565b6131209060208101905f8183039101526130f1565b90565b1561312a57565b6131326102d2565b62461bcd60e51b8152806131486004820161310b565b0390fd5b60207f6500000000000000000000000000000000000000000000000000000000000000917f496e76616c696420646576696174696f6e207468726573686f6c642072616e675f8201520152565b6131a66021604092610696565b6131af8161314c565b0190565b6131c89060208101905f818303910152613199565b90565b156131d257565b6131da6102d2565b62461bcd60e51b8152806131f0600482016131b3565b0390fd5b6132296132309461321f606094989795613215608086019a5f8701906104ae565b60208501906104ae565b60408301906104ae565b01906104ae565b565b6132d0906132528161324c613246866104ab565b916104ab565b10613123565b61326e84613268613262886104ab565b916104ab565b106131cb565b61327981600961208a565b61328483600a61208a565b61328f84600b61208a565b61329a85600c61208a565b9192937fb332ff846a7f7e49c967d592cb8ecccd56f3693ab85af2f484aa5bfabcd2a57a946132c76102d2565b948594856131f4565b0390a1565b906132e19392916130b4565b565b906132ed826125ff565b6132f681612790565b926133046020850191612603565b5f915b8383106133145750505050565b6001602081926133238561197f565b815201920192019190613307565b61333a906132e3565b90565b6133456125eb565b506133506006613331565b90565b61335b614f9b565b613363613365565b565b61336d615065565b565b613377613353565b565b60a01c90565b61338b61339091613379565b61172d565b90565b61339d905461337f565b90565b6133a861169d565b506133b25f613393565b90565b60207f636c650000000000000000000000000000000000000000000000000000000000917f5065726d697373696f6e2064656e6965643a20646561637469766174654f72615f8201520152565b61340f6023604092610696565b613418816133b5565b0190565b6134319060208101905f818303910152613402565b90565b1561343b57565b6134436102d2565b62461bcd60e51b8152806134596004820161341c565b0390fd5b5f7f4272616e6420616c726561647920696e61637469766500000000000000000000910152565b6134916016602092610696565b61349a8161345d565b0190565b6134b39060208101905f818303910152613484565b90565b156134bd57565b6134c56102d2565b62461bcd60e51b8152806134db6004820161349e565b0390fd5b336134f96134f36134ee613623565b610510565b91610510565b1480156135a7575b61350a90613434565b613529613524600461351e6005859061171c565b01611747565b6134b6565b6135415f600461353b6005859061171c565b016120dc565b61355860016135526005849061171c565b016117fc565b42916135a261359061358a7f6df80b2ee33b7dcb9ac88546d5b5a1419228e5132a114e7df67ee593d6f2d3c993612242565b9361185b565b936135996102d2565b918291826104bb565b0390a3565b5061350a6135c76135b860046117fc565b336135c161162d565b9161491c565b9050613501565b6135d6614f9b565b6135de6135e0565b565b6135f16135ec5f611bfe565b61506f565b565b6135fb6135ce565b565b613605614f9b565b61360d61360f565b565b61361761512e565b565b6136216135fd565b565b61362b6119aa565b506136355f6117fc565b90565b60207f636c650000000000000000000000000000000000000000000000000000000000917f5065726d697373696f6e2064656e6965643a20726561637469766174654f72615f8201520152565b6136926023604092610696565b61369b81613638565b0190565b6136b49060208101905f818303910152613685565b90565b156136be57565b6136c66102d2565b62461bcd60e51b8152806136dc6004820161369f565b0390fd5b5f7f4272616e6420616c726561647920616374697665000000000000000000000000910152565b6137146014602092610696565b61371d816136e0565b0190565b6137369060208101905f818303910152613707565b90565b1561374057565b6137486102d2565b62461bcd60e51b81528061375e60048201613721565b0390fd5b90565b61376f9054611891565b90565b5f7f4272616e64206e6f7420666f756e640000000000000000000000000000000000910152565b6137a6600f602092610696565b6137af81613772565b0190565b6137c89060208101905f818303910152613799565b90565b156137d257565b6137da6102d2565b62461bcd60e51b8152806137f0600482016137b3565b0390fd5b3361380e613808613803613623565b610510565b91610510565b148015613917575b61381f906136b7565b61384761384261383c60046138366005869061171c565b01611747565b15610404565b613739565b6138806138686138635f61385d6005869061171c565b01613762565b613765565b61387a6138745f611a9c565b916104ab565b116137cb565b613899600160046138936005859061171c565b016120dc565b6138b14260036138ab6005859061171c565b0161208a565b6138c760016138c183600561171c565b016117fc565b4291426138fd6138f77f85fc9b3fc4c842ba5aac4e7d018aab13b116a7bfeb614e0e2910853688c3d98993612242565b9361185b565b936139126139096102d2565b92839283612c69565b0390a3565b5061381f61393761392860046117fc565b336139316108b1565b9161491c565b9050613816565b600161395761395d9261394f6119aa565b50600561171c565b016117fc565b90565b61397761397c9161396f61182b565b506007611867565b61197f565b90565b6139909061398b614f9b565b613a14565b565b5f7f496e76616c696420696d706c656d656e746174696f6e20616464726573730000910152565b6139c6601e602092610696565b6139cf81613992565b0190565b6139e89060208101905f8183039101526139b9565b90565b156139f257565b6139fa6102d2565b62461bcd60e51b815280613a10600482016139d3565b0390fd5b613a3981613a32613a2c613a275f611bfe565b610510565b91610510565b14156139eb565b613a4360026117fc565b613a4e826002612047565b90613a82613a7c7ffef51618b7a42b964158d0e8247134834463035a198fb19c0910d501fe9373c49361185b565b9161185b565b91613a8b6102d2565b80613a9581610b12565b0390a3565b613aa39061397f565b565b613ab690613ab1614f9b565b613ab8565b565b613add81613ad6613ad0613acb5f611bfe565b610510565b91610510565b14156139eb565b613ae760036117fc565b613af2826003612047565b90613b26613b207f901868b2aa57a31d642c44d119b825c7d018112d15628a08ea299c46a970e6a79361185b565b9161185b565b91613b2f6102d2565b80613b3981610b12565b0390a3565b613b4790613aa5565b565b613b5360c0610333565b90565b613b5e613b49565b906020808080808087613b6f6127a7565b815201613b7a611783565b815201613b856127a7565b815201613b9061178f565b815201613b9b61178b565b815201613ba661178f565b81525050565b613bb4613b56565b90565b613bc3613bc891611728565b610473565b90565b613bd59054613bb7565b90565b90613c6f613c666005613be9613b49565b94613c00613bf85f830161195d565b5f8801611dcf565b613c18613c0f600183016117fc565b60208801611dd2565b613c30613c276002830161195d565b60408801611dcf565b613c48613c3f60038301613bcb565b60608801611de0565b613c60613c5760048301611747565b60808801611dee565b01613bcb565b60a08401611de0565b565b613c7a90613bd8565b90565b613c94613c9991613c8c613bac565b50600561171c565b613c71565b90565b613cab613cb1919392936104ab565b926104ab565b8201809211613cbc57565b612760565b613cc9611e87565b50613cd2611e87565b50613cdb611e87565b50613ce660066125ff565b613cef5f611a9c565b613cf85f611a9c565b92613d025f611a9c565b5b80613d1f613d19613d1460066125ff565b6104ab565b916104ab565b1015613d9d57613d486004613d426005613d3b6006869061260c565b50906126ef565b01611747565b613d5b575b613d56906125f0565b613d03565b9391613d95613d6c613d5692612774565b93613d8f6005613d8981613d8260068c9061260c565b50906126ef565b01613bcb565b90613c9c565b949050613d4d565b50909291929190565b613db790613db2614f9b565b613e61565b565b60207f6464726573730000000000000000000000000000000000000000000000000000917f4f776e61626c653a206e6577206f776e657220697320746865207a65726f20615f8201520152565b613e136026604092610696565b613e1c81613db9565b0190565b613e359060208101905f818303910152613e06565b90565b15613e3f57565b613e476102d2565b62461bcd60e51b815280613e5d60048201613e20565b0390fd5b613e8f90613e8a81613e83613e7d613e785f611bfe565b610510565b91610510565b1415613e38565b61506f565b565b613e9a90613da6565b565b60207f756374436f756e74000000000000000000000000000000000000000000000000917f5065726d697373696f6e2064656e6965643a2064656372656d656e7450726f645f8201520152565b613ef66028604092610696565b613eff81613e9c565b0190565b613f189060208101905f818303910152613ee9565b90565b15613f2257565b613f2a6102d2565b62461bcd60e51b815280613f4060048201613f03565b0390fd5b5f7f4272616e64206e6f742061637469766500000000000000000000000000000000910152565b613f786010602092610696565b613f8181613f44565b0190565b613f9a9060208101905f818303910152613f6b565b90565b15613fa457565b613fac6102d2565b62461bcd60e51b815280613fc260048201613f85565b0390fd5b5f7f4e6f2070726f647563747320746f2064656372656d656e740000000000000000910152565b613ffa6018602092610696565b61400381613fc6565b0190565b61401c9060208101905f818303910152613fed565b90565b1561402657565b61402e6102d2565b62461bcd60e51b81528061404460048201614007565b0390fd5b614051906104ab565b5f811461405f576001900390565b612760565b60056140ec614104923361408761408161407c613623565b610510565b91610510565b148015614106575b61409890613f1b565b6140b66140b160046140ab86859061171c565b01611747565b613f9d565b6140e66140ce846140c881859061171c565b01613bcb565b6140e06140da5f611a9c565b916104ab565b1161401f565b8261171c565b016140fe6140f982613bcb565b614048565b9061208a565b565b5061409861412661411760046117fc565b33614120610f74565b9161491c565b905061408f565b60207f756374436f756e74000000000000000000000000000000000000000000000000917f5065726d697373696f6e2064656e6965643a20696e6372656d656e7450726f645f8201520152565b6141876028604092610696565b6141908161412d565b0190565b6141a99060208101905f81830391015261417a565b90565b156141b357565b6141bb6102d2565b62461bcd60e51b8152806141d160048201614194565b0390fd5b600561422d61424592336141f86141f26141ed613623565b610510565b91610510565b148015614247575b614209906141ac565b614227614222600461421c86859061171c565b01611747565b613f9d565b8261171c565b0161423f61423a82613bcb565b612774565b9061208a565b565b5061420961426761425860046117fc565b33614261610c98565b9161491c565b9050614200565b600361428761428d9261427f611e87565b50600561171c565b01613bcb565b90565b60207f6963657300000000000000000000000000000000000000000000000000000000917f5065726d697373696f6e2064656e6965643a20626174636855706461746550725f8201520152565b6142ea6024604092610696565b6142f381614290565b0190565b61430c9060208101905f8183039101526142dd565b90565b1561431657565b61431e6102d2565b62461bcd60e51b815280614334600482016142f7565b0390fd5b5190565b5f7f417272617973206c656e677468206d69736d6174636800000000000000000000910152565b6143706016602092610696565b6143798161433c565b0190565b6143929060208101905f818303910152614363565b90565b1561439c57565b6143a46102d2565b62461bcd60e51b8152806143ba6004820161437d565b0390fd5b906143c882614338565b8110156143d9576020809102010190565b6121ab565b919091336143fb6143f56143f0613623565b610510565b91610510565b14801561458e575b61440c9061430f565b6144386144188261093f565b61443261442c61442787614338565b6104ab565b916104ab565b14614395565b6144415f611a9c565b5b8061445d6144576144528561093f565b6104ab565b916104ab565b101561458857614485600461447f60056144788686906127f6565b519061171c565b01611747565b614498575b614493906125f0565b614442565b6144ca6144c56144c060016144ba60056144b38888906127f6565b519061171c565b016117fc565b612707565b612713565b90638d6cc56d6144e36144de8784906143be565b612067565b833b1561458357614513936145085f80946144fc6102d2565b97889586948593611d68565b8352600483016104bb565b03925af191821561457e5761449392614552575b5061454b426003614545600561453e8887906127f6565b519061171c565b0161208a565b905061448a565b614571905f3d8111614577575b614569818361030a565b810190611d6e565b5f614527565b503d61455f565b611db2565b611d64565b50509050565b5061440c6145ae61459f60046117fc565b336145a86110c1565b9161491c565b9050614403565b6145be90611833565b90565b6145ca906145b5565b90565b6145d69061184f565b90565b905051906145e68261051c565b565b905051906145f58261054b565b565b905051906146048261072c565b565b919060a0838203126146765761466f9061462060a0610333565b9361462d825f83016145d9565b5f86015261463e82602083016145e8565b60208601526146508260408301612733565b604086015261466282606083016145f7565b60608601526080016145f7565b6080830152565b610728565b9060a08282031261469457614691915f01614606565b90565b6102dc565b9160206146ba9294936146b360408201965f83019061083b565b01906108e8565b565b916146da6146d560a093946146cf6117dd565b506145c1565b6145cd565b6146fc634af43e4f9492946147076146f06102d2565b96879586948594611d68565b845260048401614699565b03915afa90811561474b575f9161471d575b5090565b61473e915060a03d8111614744575b614736818361030a565b81019061467b565b5f614719565b503d61472c565b611db2565b5f7f5061757361626c653a2070617573656400000000000000000000000000000000910152565b6147846010602092610696565b61478d81614750565b0190565b6147a69060208101905f818303910152614777565b90565b156147b057565b6147b86102d2565b62461bcd60e51b8152806147ce60048201614791565b0390fd5b6147eb6147e66147e06133a0565b15610404565b6147a9565b565b90565b6148046147ff614809926147ed565b611830565b6104ab565b90565b61481660026147f0565b90565b5f7f5265656e7472616e637947756172643a207265656e7472616e742063616c6c00910152565b61484d601f602092610696565b61485681614819565b0190565b61486f9060208101905f818303910152614840565b90565b1561487957565b6148816102d2565b62461bcd60e51b8152806148976004820161485a565b0390fd5b6148c86148a86001613bcb565b6148c16148bb6148b661480c565b6104ab565b916104ab565b1415614872565b6148da6148d361480c565b600161208a565b565b90565b6148f36148ee6148f8926148dc565b611830565b6104ab565b90565b61490560016148df565b90565b61491a6149136148fb565b600161208a565b565b9161493a6149356020939461492f61169d565b506145c1565b6145cd565b61495c63bed98a0d9492946149676149506102d2565b96879586948594611d68565b845260048401614699565b03915afa9081156149ab575f9161497d575b5090565b61499e915060203d81116149a4575b614996818361030a565b810190612742565b5f614979565b503d61498c565b611db2565b5f7f55706461746520696e74657276616c206f7574206f6620626f756e6473000000910152565b6149e4601d602092610696565b6149ed816149b0565b0190565b614a069060208101905f8183039101526149d7565b90565b15614a1057565b614a186102d2565b62461bcd60e51b815280614a2e600482016149f1565b0390fd5b60207f7300000000000000000000000000000000000000000000000000000000000000917f446576696174696f6e207468726573686f6c64206f7574206f6620626f756e645f8201520152565b614a8c6021604092610696565b614a9581614a32565b0190565b614aae9060208101905f818303910152614a7f565b90565b15614ab857565b614ac06102d2565b62461bcd60e51b815280614ad660048201614a99565b0390fd5b5f7f486561727462656174206d7573742062652067726561746572207468616e2030910152565b614b0d60208092610696565b614b1681614ada565b0190565b614b2f9060208101905f818303910152614b01565b90565b15614b3957565b614b416102d2565b62461bcd60e51b815280614b5760048201614b1a565b0390fd5b60207f20616e7377657200000000000000000000000000000000000000000000000000917f4d696e20616e73776572206d757374206265206c657373207468616e206d61785f8201520152565b614bb56027604092610696565b614bbe81614b5b565b0190565b614bd79060208101905f818303910152614ba8565b90565b15614be157565b614be96102d2565b62461bcd60e51b815280614bff60048201614bc2565b0390fd5b614ccc90614c125f8201612067565b614c2d614c27614c226009613bcb565b6104ab565b916104ab565b101580614d02575b614c3e90614a09565b614c4a60208201612067565b614c65614c5f614c5a600b613bcb565b6104ab565b916104ab565b101580614cce575b614c7690614ab1565b614c9d614c8560408301612067565b614c97614c915f611a9c565b916104ab565b11614b32565b614cc6614cc0614cbb6080614cb460608601612067565b9401612067565b6104ab565b916104ab565b10614bda565b565b50614c76614cde60208301612067565b614cf9614cf3614cee600c613bcb565b6104ab565b916104ab565b11159050614c6d565b50614c3e614d115f8301612067565b614d2c614d26614d21600a613bcb565b6104ab565b916104ab565b11159050614c35565b614d73614d68614d7a95979694614d5a60e0956101008601908682035f8801526106aa565b9084820360208601526106aa565b966040830190612bfa565b019061083b565b565b614d9190929192614d8b6119aa565b50614ea9565b93614da3614d9e86612707565b612713565b90632c307e6593929490823b15614e22575f94614dde8692614dd394614dc76102d2565b998a9889978896611d68565b865260048601614d35565b03925af18015614e1d57614df1575b5090565b614e10905f3d8111614e16575b614e08818361030a565b810190611d6e565b5f614ded565b503d614dfe565b611db2565b611d64565b5f7f455243313136373a20637265617465206661696c656400000000000000000000910152565b614e5b6016602092610696565b614e6481614e27565b0190565b614e7d9060208101905f818303910152614e4e565b90565b15614e8757565b614e8f6102d2565b62461bcd60e51b815280614ea560048201614e68565b0390fd5b6e5af43d82803e903d91602b57fd5bf390614ec26119aa565b50763d602d80600a3d3981f3363d3d373d3d3d363d730000008160601b60e81c175f5260781b17602052603760095ff090614f1882614f11614f0b614f065f611bfe565b610510565b91610510565b1415614e80565b565b5f7f4f776e61626c653a2063616c6c6572206973206e6f7420746865206f776e6572910152565b614f4d60208092610696565b614f5681614f1a565b0190565b614f6f9060208101905f818303910152614f41565b90565b15614f7957565b614f816102d2565b62461bcd60e51b815280614f9760048201614f5a565b0390fd5b614fc5614fa6613623565b614fbf614fb9614fb4615138565b610510565b91610510565b14614f72565b565b614fcf6151c7565b614fd7615018565b565b60a01b90565b90614fee60ff60a01b91614fd9565b9181191691161790565b9061500d615008615014926120cd565b6120d9565b8254614fdf565b9055565b6150225f5f614ff8565b61502a615138565b6150607f5db9ee0a495bf2e6ff9c91a7834c1ba4fdd244a5e8aa4e537bd38aeae4b073aa916150576102d2565b91829182610e23565b0390a1565b61506d614fc7565b565b6150785f6117fc565b615082825f612047565b906150b66150b07f8be0079c531659141344cd1fd0a4f28419497f9722a3daafe3b4186f6b6457e09361185b565b9161185b565b916150bf6102d2565b806150c981610b12565b0390a3565b6150d66147d2565b6150de6150e0565b565b6150eb60015f614ff8565b6150f3615138565b6151297f62e78cea01bee320cd4e420270b5ea74000d11b0c9f74754ebdbfc544b05a258916151206102d2565b91829182610e23565b0390a1565b6151366150ce565b565b6151406119aa565b503390565b5f7f5061757361626c653a206e6f7420706175736564000000000000000000000000910152565b6151796014602092610696565b61518281615145565b0190565b61519b9060208101905f81830391015261516c565b90565b156151a557565b6151ad6102d2565b62461bcd60e51b8152806151c360048201615186565b0390fd5b6151d76151d26133a0565b61519e565b56fea26469706673582212205e468e226a2300c2c8c68090d8941d226019c01bb5d0a48784f8ef1a630ebe8864736f6c634300081c0033","linkReferences":{}},"methodIdentifiers":{"BATCH_UPDATE_PRICES_SELECTOR()":"c11630ad","DEACTIVATE_ORACLE_SELECTOR()":"ffc5f64d","DECREMENT_PRODUCT_COUNT_SELECTOR()":"98f056b3","INCREMENT_PRODUCT_COUNT_SELECTOR()":"580a409c","REACTIVATE_ORACLE_SELECTOR()":"1bff546a","REGISTER_CAR_BRAND_SELECTOR()":"f3a3d700","UPDATE_ORACLE_SELECTOR()":"8352ec88","batchUpdatePrices(string[],uint256[])":"fcecd14a","checkPermission(address,bytes4)":"2a30339c","deactivateOracle(string)":"6c20a6f6","decrementProductCount(string)":"f8a1bf69","getActiveBrands()":"2f3e2e28","getAllCarBrands()":"374721b1","getBrandByOracle(address)":"b49bb68d","getBrandByPermissionManager(address)":"1250e0d5","getCarBrand(string)":"c41e92b0","getLastUpdateTime(string)":"fcc92a7b","getOracleAddress(string)":"aa0e3656","getOracleStats()":"c6c035b5","getPermissionDetails(address,bytes4)":"0b122e48","getStaleOracles()":"21905a0f","globalPermissionManager()":"77cf32d1","incrementProductCount(string)":"fb1acc9b","isOracleActive(string)":"0308b414","maxDeviationThreshold()":"67a3b011","maxUpdateInterval()":"fba7f9d9","minDeviationThreshold()":"244a6f1b","minUpdateInterval()":"0964ff26","oracleImplementation()":"cb193410","owner()":"8da5cb5b","pause()":"8456cb59","paused()":"5c975abb","permissionManagerImplementation()":"b3ec8cad","reactivateOracle(string)":"9269cdcd","registerCarBrand(string,string,(uint256,uint256,uint256,uint256,uint256),address)":"18c0f3cb","renounceOwnership()":"715018a6","transferOwnership(address)":"f2fde38b","unpause()":"3f4ba83a","updateConfiguration(uint256,uint256,uint256,uint256)":"3718e104","updateGlobalPermissionManager(address)":"2e5a1967","updateOracle(string,(uint256,uint256,uint256,uint256,uint256))":"2b1dff3c","updateOracleImplementation(address)":"b9c5d0ac","updatePermissionManagerImplementation(address)":"c1510987"},"id":112}