{"abi":[{"type":"constructor","inputs":[{"name":"_carRegistry","type":"address","internalType":"address"},{"name":"_zeroNFT","type":"address","internalType":"address"},{"name":"_oracleMaster","type":"address","internalType":"address"},{"name":"_ethUsdFeed","type":"address","internalType":"address"},{"name":"_usdcUsdFeed","type":"address","internalType":"address"}],"stateMutability":"nonpayable"},{"type":"function","name":"COLLATERAL_PERCENT","inputs":[],"outputs":[{"name":"","type":"uint256","internalType":"uint256"}],"stateMutability":"view"},{"type":"function","name":"auctionBids","inputs":[{"name":"","type":"uint256","internalType":"uint256"},{"name":"","type":"uint256","internalType":"uint256"}],"outputs":[{"name":"bidder","type":"address","internalType":"address"},{"name":"amount","type":"uint256","internalType":"uint256"},{"name":"staked","type":"bool","internalType":"bool"}],"stateMutability":"view"},{"type":"function","name":"auctionCount","inputs":[],"outputs":[{"name":"","type":"uint256","internalType":"uint256"}],"stateMutability":"view"},{"type":"function","name":"auctions","inputs":[{"name":"","type":"uint256","internalType":"uint256"}],"outputs":[{"name":"id","type":"uint256","internalType":"uint256"},{"name":"brandName","type":"string","internalType":"string"},{"name":"creator","type":"address","internalType":"address"},{"name":"startTime","type":"uint256","internalType":"uint256"},{"name":"endTime","type":"uint256","internalType":"uint256"},{"name":"initialBid","type":"uint256","internalType":"uint256"},{"name":"bidThreshold","type":"uint256","internalType":"uint256"},{"name":"bidToken","type":"address","internalType":"address"},{"name":"thresholdReached","type":"bool","internalType":"bool"},{"name":"ended","type":"bool","internalType":"bool"},{"name":"winner","type":"address","internalType":"address"},{"name":"winningBid","type":"uint256","internalType":"uint256"},{"name":"nftTokenId","type":"uint256","internalType":"uint256"},{"name":"proofHash","type":"string","internalType":"string"}],"stateMutability":"view"},{"type":"function","name":"cancelAuction","inputs":[{"name":"auctionId","type":"uint256","internalType":"uint256"}],"outputs":[],"stateMutability":"nonpayable"},{"type":"function","name":"carRegistry","inputs":[],"outputs":[{"name":"","type":"address","internalType":"contract CarRegistry"}],"stateMutability":"view"},{"type":"function","name":"claimMyStake","inputs":[{"name":"auctionId","type":"uint256","internalType":"uint256"}],"outputs":[],"stateMutability":"nonpayable"},{"type":"function","name":"claimWin","inputs":[{"name":"auctionId","type":"uint256","internalType":"uint256"}],"outputs":[],"stateMutability":"payable"},{"type":"function","name":"createAuction","inputs":[{"name":"brandName","type":"string","internalType":"string"},{"name":"startTime","type":"uint256","internalType":"uint256"},{"name":"endTime","type":"uint256","internalType":"uint256"},{"name":"initialBid","type":"uint256","internalType":"uint256"},{"name":"bidThreshold","type":"uint256","internalType":"uint256"},{"name":"bidToken","type":"address","internalType":"address"},{"name":"nftTokenId","type":"uint256","internalType":"uint256"},{"name":"proofHash","type":"string","internalType":"string"}],"outputs":[],"stateMutability":"nonpayable"},{"type":"function","name":"endAuction","inputs":[{"name":"auctionId","type":"uint256","internalType":"uint256"}],"outputs":[],"stateMutability":"nonpayable"},{"type":"function","name":"ethUsdPriceFeed","inputs":[],"outputs":[{"name":"","type":"address","internalType":"contract AggregatorV3Interface"}],"stateMutability":"view"},{"type":"function","name":"getNftPriceInETH","inputs":[{"name":"nftTokenId","type":"uint256","internalType":"uint256"}],"outputs":[{"name":"priceETH","type":"uint256","internalType":"uint256"}],"stateMutability":"view"},{"type":"function","name":"getNftPriceInUSD","inputs":[{"name":"nftTokenId","type":"uint256","internalType":"uint256"}],"outputs":[{"name":"priceUSD","type":"uint256","internalType":"uint256"}],"stateMutability":"view"},{"type":"function","name":"getNftPriceInUSDC","inputs":[{"name":"nftTokenId","type":"uint256","internalType":"uint256"}],"outputs":[{"name":"priceUSDC","type":"uint256","internalType":"uint256"}],"stateMutability":"view"},{"type":"function","name":"oracleMaster","inputs":[],"outputs":[{"name":"","type":"address","internalType":"contract OracleMaster"}],"stateMutability":"view"},{"type":"function","name":"placeBid","inputs":[{"name":"auctionId","type":"uint256","internalType":"uint256"},{"name":"amount","type":"uint256","internalType":"uint256"}],"outputs":[],"stateMutability":"payable"},{"type":"function","name":"returnStakes","inputs":[{"name":"auctionId","type":"uint256","internalType":"uint256"}],"outputs":[],"stateMutability":"nonpayable"},{"type":"function","name":"updateAuctionInfo","inputs":[{"name":"auctionId","type":"uint256","internalType":"uint256"},{"name":"newStartTime","type":"uint256","internalType":"uint256"},{"name":"newEndTime","type":"uint256","internalType":"uint256"},{"name":"newInitialBid","type":"uint256","internalType":"uint256"},{"name":"newBidThreshold","type":"uint256","internalType":"uint256"},{"name":"newBidToken","type":"address","internalType":"address"},{"name":"newNftTokenId","type":"uint256","internalType":"uint256"}],"outputs":[],"stateMutability":"nonpayable"},{"type":"function","name":"usdcUsdPriceFeed","inputs":[],"outputs":[{"name":"","type":"address","internalType":"contract AggregatorV3Interface"}],"stateMutability":"view"},{"type":"function","name":"zeroNFT","inputs":[],"outputs":[{"name":"","type":"address","internalType":"contract ZeroNFT"}],"stateMutability":"view"},{"type":"event","name":"AuctionCreated","inputs":[{"name":"auctionId","type":"uint256","indexed":true,"internalType":"uint256"},{"name":"brandName","type":"string","indexed":false,"internalType":"string"},{"name":"startTime","type":"uint256","indexed":false,"internalType":"uint256"},{"name":"endTime","type":"uint256","indexed":false,"internalType":"uint256"},{"name":"initialBid","type":"uint256","indexed":false,"internalType":"uint256"},{"name":"bidThreshold","type":"uint256","indexed":false,"internalType":"uint256"}],"anonymous":false},{"type":"event","name":"AuctionEnded","inputs":[{"name":"auctionId","type":"uint256","indexed":true,"internalType":"uint256"},{"name":"winner","type":"address","indexed":false,"internalType":"address"},{"name":"winningBid","type":"uint256","indexed":false,"internalType":"uint256"}],"anonymous":false},{"type":"event","name":"AuctionInfoUpdated","inputs":[{"name":"auctionId","type":"uint256","indexed":true,"internalType":"uint256"},{"name":"newStartTime","type":"uint256","indexed":false,"internalType":"uint256"},{"name":"newEndTime","type":"uint256","indexed":false,"internalType":"uint256"},{"name":"newInitialBid","type":"uint256","indexed":false,"internalType":"uint256"},{"name":"newBidThreshold","type":"uint256","indexed":false,"internalType":"uint256"},{"name":"newBidToken","type":"address","indexed":false,"internalType":"address"},{"name":"newNftTokenId","type":"uint256","indexed":false,"internalType":"uint256"}],"anonymous":false},{"type":"event","name":"BidPlaced","inputs":[{"name":"auctionId","type":"uint256","indexed":true,"internalType":"uint256"},{"name":"bidder","type":"address","indexed":true,"internalType":"address"},{"name":"amount","type":"uint256","indexed":false,"internalType":"uint256"},{"name":"staked","type":"bool","indexed":false,"internalType":"bool"}],"anonymous":false},{"type":"event","name":"CollateralForfeited","inputs":[{"name":"auctionId","type":"uint256","indexed":true,"internalType":"uint256"},{"name":"forfeitedBidder","type":"address","indexed":false,"internalType":"address"},{"name":"amount","type":"uint256","indexed":false,"internalType":"uint256"}],"anonymous":false},{"type":"event","name":"CollateralReturned","inputs":[{"name":"auctionId","type":"uint256","indexed":true,"internalType":"uint256"},{"name":"bidder","type":"address","indexed":false,"internalType":"address"},{"name":"amount","type":"uint256","indexed":false,"internalType":"uint256"}],"anonymous":false},{"type":"event","name":"StakesReturned","inputs":[{"name":"auctionId","type":"uint256","indexed":true,"internalType":"uint256"}],"anonymous":false},{"type":"event","name":"ThresholdReached","inputs":[{"name":"auctionId","type":"uint256","indexed":true,"internalType":"uint256"}],"anonymous":false}],"bytecode":{"object":"0x6080604052346100335761001d610014610130565b939290926102b0565b610025610038565b61486d610311823961486d90f35b61003e565b60405190565b5f80fd5b601f801991011690565b634e487b7160e01b5f52604160045260245ffd5b9061006a90610042565b810190811060018060401b0382111761008257604052565b61004c565b9061009a610093610038565b9283610060565b565b5f80fd5b60018060a01b031690565b6100b4906100a0565b90565b6100c0816100ab565b036100c757565b5f80fd5b905051906100d8826100b7565b565b919060a08382031261012b576100f2815f85016100cb565b9261010082602083016100cb565b9261012861011184604085016100cb565b9361011f81606086016100cb565b936080016100cb565b90565b61009c565b61014e614b7e8038038061014381610087565b9283398101906100da565b9091929394565b90565b61016c610167610171926100a0565b610155565b6100a0565b90565b61017d90610158565b90565b61018990610174565b90565b5f1b90565b906101a260018060a01b039161018c565b9181191691161790565b6101b590610174565b90565b90565b906101d06101cb6101d7926101ac565b6101b8565b8254610191565b9055565b6101e490610158565b90565b6101f0906101db565b90565b6101fc906101db565b90565b90565b9061021761021261021e926101f3565b6101ff565b8254610191565b9055565b61022b90610158565b90565b61023790610222565b90565b61024390610222565b90565b90565b9061025e6102596102659261023a565b610246565b8254610191565b9055565b61027290610158565b90565b61027e90610269565b90565b61028a90610269565b90565b90565b906102a56102a06102ac92610281565b61028d565b8254610191565b9055565b610307936102f66102ef61030e97956102ea6102e3610302976102de6102d86102fb99610180565b5f6101bb565b6101e7565b6002610202565b61022e565b6003610249565b610275565b6004610290565b610275565b6005610290565b56fe60806040526004361015610013575b610fe4565b61001d5f3561015c565b80631a787d7e146101575780632ad715731461015257806330b921831461014d5780633442651b1461014857806342f6fb29146101435780634e542d9e1461013e578063571a26a01461013957806357c90de51461013457806358685ddb1461012f5780635e49ff391461012a5780635f93de49146101255780637adbbb88146101205780638665b7451461011b57806396b5a75514610116578063b0bbd44f14610111578063b9a2de3a1461010c578063cbe0244314610107578063d043be2a14610102578063e0b2d4af146100fd5763ee0144ab0361000e57610fbb565b610f86565b610f12565b610d87565b610d54565b610d1f565b610cec565b610cb9565b610c7f565b610bb3565b610a72565b610a2e565b610997565b610922565b6104b1565b61040e565b61036b565b610292565b61025d565b6101bd565b60e01c90565b60405190565b5f80fd5b5f80fd5b5f80fd5b90565b61018081610174565b0361018757565b5f80fd5b9050359061019882610177565b565b906020828203126101b3576101b0915f0161018b565b90565b61016c565b5f0190565b346101eb576101d56101d036600461019a565b61132a565b6101dd610162565b806101e7816101b8565b0390f35b610168565b5f9103126101fa57565b61016c565b1c90565b90565b61021690600861021b93026101ff565b610203565b90565b906102299154610206565b90565b61023860015f9061021e565b90565b61024490610174565b9052565b919061025b905f6020850194019061023b565b565b3461028d5761026d3660046101f0565b61028961027861022c565b610280610162565b91829182610248565b0390f35b610168565b346102c2576102be6102ad6102a836600461019a565b611864565b6102b5610162565b91829182610248565b0390f35b610168565b60018060a01b031690565b6102e29060086102e793026101ff565b6102c7565b90565b906102f591546102d2565b90565b61030460025f906102ea565b90565b60018060a01b031690565b90565b61032961032461032e92610307565b610312565b610307565b90565b61033a90610315565b90565b61034690610331565b90565b6103529061033d565b9052565b9190610369905f60208501940190610349565b565b3461039b5761037b3660046101f0565b6103976103866102f8565b61038e610162565b91829182610356565b0390f35b610168565b60018060a01b031690565b6103bb9060086103c093026101ff565b6103a0565b90565b906103ce91546103ab565b90565b6103dd60045f906103c3565b90565b6103e990610331565b90565b6103f5906103e0565b9052565b919061040c905f602085019401906103ec565b565b3461043e5761041e3660046101f0565b61043a6104296103d1565b610431610162565b918291826103f9565b0390f35b610168565b60018060a01b031690565b61045e90600861046393026101ff565b610443565b90565b90610471915461044e565b90565b61048060035f90610466565b90565b61048c90610331565b90565b61049890610483565b9052565b91906104af905f6020850194019061048f565b565b346104e1576104c13660046101f0565b6104dd6104cc610474565b6104d4610162565b9182918261049c565b0390f35b610168565b6104fa6104f56104ff92610174565b610312565b610174565b90565b9061050c906104e6565b5f5260205260405f2090565b5f1c90565b61052961052e91610518565b610203565b90565b61053b905461051d565b90565b634e487b7160e01b5f52602260045260245ffd5b9060016002830492168015610572575b602083101461056d57565b61053e565b91607f1691610562565b60209181520190565b5f5260205f2090565b905f92918054906105a86105a183610552565b809461057c565b916001811690815f146105ff57506001146105c3575b505050565b6105d09192939450610585565b915f925b8184106105e757505001905f80806105be565b600181602092959395548486015201910192906105d4565b92949550505060ff19168252151560200201905f80806105be565b906106249161058e565b90565b601f801991011690565b634e487b7160e01b5f52604160045260245ffd5b9061064f90610627565b810190811067ffffffffffffffff82111761066957604052565b610631565b9061068e6106879261067e610162565b9384809261061a565b0383610645565b565b60018060a01b031690565b6106a76106ac91610518565b610690565b90565b6106b9905461069b565b90565b60a01c90565b60ff1690565b6106d46106d9916106bc565b6106c2565b90565b6106e690546106c8565b90565b60a81c90565b6106fb610700916106e9565b6106c2565b90565b61070d90546106ef565b90565b61071b906007610502565b906107275f8301610531565b916107346001820161066e565b91610741600283016106af565b9161074e60038201610531565b9161075b60048301610531565b9161076860058201610531565b9161077560068301610531565b91610782600782016106af565b9161078f600783016106dc565b9161079c60078201610703565b916107a9600883016106af565b916107b660098201610531565b916107cf600d6107c8600a8501610531565b930161066e565b90565b5190565b60209181520190565b90825f9392825e0152565b61080961081260209361081793610800816107d2565b938480936107d6565b958691016107df565b610627565b0190565b61082490610307565b90565b6108309061081b565b9052565b151590565b61084290610834565b9052565b809c9a98969492919d9b999795939d6101c08201915f016108669161023b565b8c8082039060200152610878916107ea565b9b60408c0161088691610827565b60608b016108939161023b565b60808a016108a09161023b565b60a089016108ad9161023b565b60c088016108ba9161023b565b60e087016108c791610827565b61010086016108d591610839565b61012085016108e391610839565b61014084016108f191610827565b61016083016108ff9161023b565b610180820161090d9161023b565b808203906101a0015261091f916107ea565b90565b346109655761096161093d61093836600461019a565b610710565b9a6109589e9c9e9a919a999299989398979497969596610162565b9e8f9e8f610846565b0390f35b610168565b9190604083820312610992578061098661098f925f860161018b565b9360200161018b565b90565b61016c565b6109ab6109a536600461096a565b906121d1565b6109b3610162565b806109bd816101b8565b0390f35b60018060a01b031690565b6109dc9060086109e193026101ff565b6109c1565b90565b906109ef91546109cc565b90565b6109fd5f5f906109e4565b90565b610a0990610331565b90565b610a1590610a00565b9052565b9190610a2c905f60208501940190610a0c565b565b34610a5e57610a3e3660046101f0565b610a5a610a496109f2565b610a51610162565b91829182610a19565b0390f35b610168565b610a6f60055f906103c3565b90565b34610aa257610a823660046101f0565b610a9e610a8d610a63565b610a95610162565b918291826103f9565b0390f35b610168565b90610ab1906104e6565b5f5260205260405f2090565b634e487b7160e01b5f52603260045260245ffd5b5490565b5f5260205f2090565b5f5260205f2090565b610af081610ad1565b821015610b0a57610b02600391610ad5565b910201905f90565b610abd565b610b1b610b2091610518565b6106c2565b90565b610b2d9054610b0f565b90565b610b3b906008610aa7565b90610b4582610ad1565b811015610b7d57610b5591610ae7565b50610b615f82016106af565b91610b7a6002610b7360018501610531565b9301610b23565b90565b5f80fd5b604090610baa610bb19496959396610ba060608401985f850190610827565b602083019061023b565b0190610839565b565b34610be757610be3610bcf610bc936600461096a565b90610b30565b610bda939193610162565b93849384610b81565b0390f35b610168565b610bf58161081b565b03610bfc57565b5f80fd5b90503590610c0d82610bec565b565b60e081830312610c7a57610c25825f830161018b565b92610c33836020840161018b565b92610c41816040850161018b565b92610c4f826060830161018b565b92610c77610c60846080850161018b565b93610c6e8160a08601610c00565b9360c00161018b565b90565b61016c565b34610cb457610c9e610c92366004610c0f565b95949094939193612cb6565b610ca6610162565b80610cb0816101b8565b0390f35b610168565b34610ce757610cd1610ccc36600461019a565b613160565b610cd9610162565b80610ce3816101b8565b0390f35b610168565b34610d1a57610d04610cff36600461019a565b613481565b610d0c610162565b80610d16816101b8565b0390f35b610168565b34610d4f57610d4b610d3a610d3536600461019a565b6136c1565b610d42610162565b91829182610248565b0390f35b610168565b34610d8257610d6c610d6736600461019a565b613826565b610d74610162565b80610d7e816101b8565b0390f35b610168565b34610db757610db3610da2610d9d36600461019a565b613a76565b610daa610162565b91829182610248565b0390f35b610168565b5f80fd5b5f80fd5b90610dd7610dd0610162565b9283610645565b565b67ffffffffffffffff8111610df757610df3602091610627565b0190565b610631565b90825f939282370152565b90929192610e1c610e1782610dd9565b610dc4565b93818552602085019082840111610e3857610e3692610dfc565b565b610dc0565b9080601f83011215610e5b57816020610e5893359101610e07565b90565b610dbc565b91909161010081840312610f0d575f81013567ffffffffffffffff8111610f085783610e8d918301610e3d565b92610e9b816020840161018b565b92610ea9826040850161018b565b92610eb7836060830161018b565b92610ec5816080840161018b565b92610ed38260a08501610c00565b92610ee18360c0830161018b565b9260e082013567ffffffffffffffff8111610f0357610f009201610e3d565b90565b610170565b610170565b61016c565b34610f4a57610f34610f25366004610e60565b969590959491949392936142cf565b610f3c610162565b80610f46816101b8565b0390f35b610168565b90565b610f66610f61610f6b92610f4f565b610312565b610174565b90565b610f78600a610f52565b90565b610f83610f6e565b90565b34610fb657610f963660046101f0565b610fb2610fa1610f7b565b610fa9610162565b91829182610248565b0390f35b610168565b610fce610fc936600461019a565b6145b6565b610fd6610162565b80610fe0816101b8565b0390f35b5f80fd5b90565b5f7f41756374696f6e206e6f7420656e646564000000000000000000000000000000910152565b61101f60116020926107d6565b61102881610feb565b0190565b6110419060208101905f818303910152611012565b90565b1561104b57565b611053610162565b62461bcd60e51b8152806110696004820161102c565b0390fd5b90565b61108461107f6110899261106d565b610312565b610307565b90565b61109590611070565b90565b5f7f57696e6e6572206d75737420636c61696d206669727374000000000000000000910152565b6110cc60176020926107d6565b6110d581611098565b0190565b6110ee9060208101905f8183039101526110bf565b90565b156110f857565b611100610162565b62461bcd60e51b815280611116600482016110d9565b0390fd5b61112e6111296111339261106d565b610312565b610174565b90565b60016111429101610174565b90565b5490565b5f5260205f2090565b61115b81611145565b8210156111755761116d600191611149565b910201905f90565b610abd565b61118a90600861118f93026101ff565b610690565b90565b9061119d915461117a565b90565b6111a990610331565b90565b906111b6906111a0565b5f5260205260405f2090565b5f1b90565b906111d35f19916111c2565b9181191691161790565b90565b906111f56111f06111fc926104e6565b6111dd565b82546111c7565b9055565b61120990610315565b90565b61121590611200565b90565b61122190610331565b90565b5f80fd5b60e01b90565b61123781610834565b0361123e57565b5f80fd5b9050519061124f8261122e565b565b9060208282031261126a57611267915f01611242565b90565b61016c565b91602061129092949361128960408201965f830190610827565b019061023b565b565b61129a610162565b3d5f823e3d90fd5b905090565b6112b25f80926112a2565b0190565b6112bf906112a7565b90565b67ffffffffffffffff81116112e0576112dc602091610627565b0190565b610631565b906112f76112f2836112c2565b610dc4565b918252565b606090565b3d5f1461131c576113113d6112e5565b903d5f602084013e5b565b6113246112fc565b9061131a565b9061133f61133a60078490610502565b610fe8565b61135361134e60078301610703565b611044565b611382611362600883016106af565b61137c6113766113715f61108c565b61081b565b9161081b565b146110f1565b61138b5f61111a565b5b806113aa6113a461139f600c8601611145565b610174565b91610174565b10156115b2576113c76113c1600c84018390611152565b90611192565b906113de6113d9600b850184906111ac565b610531565b806113f16113eb5f61111a565b91610174565b11611407575b506114029150611136565b61138c565b6114266114135f61111a565b611421600b870186906111ac565b6111e0565b611432600785016106af565b61144c6114466114415f61108c565b61081b565b9161081b565b145f146114d457825f806114029584611463610162565b908161146e816112b6565b03925af161147a611301565b50611489575b50505b5f6113f7565b8690916114b57e83f3d3d0a8132e9bf23ae6cde659d5f3963a6973816e144f05bfccef184279926104e6565b926114ca6114c1610162565b9283928361126f565b0390a25f80611480565b6114f06114eb6114e6600787016106af565b61120c565b611218565b92602063a9059cbb9482906115185f869861152361150c610162565b9a8b9687958694611228565b84526004840161126f565b03925af19384156115ad5761140294611581575b508690916115647e83f3d3d0a8132e9bf23ae6cde659d5f3963a6973816e144f05bfccef184279926104e6565b92611579611570610162565b9283928361126f565b0390a2611483565b6115a19060203d81116115a6575b6115998183610645565b810190611251565b611537565b503d61158f565b611292565b5050906115df7fe2928eb6c6a4f3935686002541e0049d4666c6f79d70708f83dc6d916e1d6cd4916104e6565b906115e8610162565b806115f2816101b8565b0390a2565b5f90565b61160761160c91610518565b6102c7565b90565b61161990546115fb565b90565b9092919261163161162c82610dd9565b610dc4565b9381855260208501908284011161164d5761164b926107df565b565b610dc0565b9080601f830112156116705781602061166d9351910161161c565b90565b610dbc565b906020828203126116a5575f82015167ffffffffffffffff81116116a05761169d9201611652565b90565b610170565b61016c565b6116b66116bb91610518565b610443565b90565b6116c890546116aa565b90565b905051906116d882610bec565b565b906020828203126116f3576116f0915f016116cb565b90565b61016c565b61170d9160208201915f8184039101526107ea565b90565b61171990610315565b90565b61172590611710565b90565b61173190610331565b90565b5f80fd5b9050519061174582610177565b565b91906080838203126117a55761179e906117616080610dc4565b9361176e825f8301611738565b5f86015261177f8260208301611738565b60208601526117918260408301611738565b6040860152606001611242565b6060830152565b611734565b906080828203126117c3576117c0915f01611747565b90565b61016c565b6117d29051610834565b90565b5f7f4e6f2076616c6964207072696365000000000000000000000000000000000000910152565b611809600e6020926107d6565b611812816117d5565b0190565b61182b9060208101905f8183039101526117fc565b90565b1561183557565b61183d610162565b62461bcd60e51b81528061185360048201611816565b0390fd5b6118619051610174565b90565b5f6118ab916118716115f7565b5061188461187f600261160f565b61033d565b6118a06379a7304c611894610162565b95869485938493611228565b835260048301610248565b03915afa908115611a0c576118fe916020915f916119ea575b506118d76118d260036116be565b610483565b6118f363aa0e36566118e7610162565b95869485938493611228565b8352600483016116f8565b03915afa9081156119e55761192861192361193e936080935f916119b7575b5061171c565b611728565b638e15f47390611936610162565b938492611228565b8252818061194e600482016101b8565b03915afa9081156119b257611981915f918291611984575b5061197b611976606083016117c8565b61182e565b01611857565b90565b6119a5915060803d81116119ab575b61199d8183610645565b8101906117aa565b5f611966565b503d611993565b611292565b6119d8915060203d81116119de575b6119d08183610645565b8101906116da565b5f61191d565b503d6119c6565b611292565b611a0691503d805f833e6119fe8183610645565b810190611675565b5f6118c4565b611292565b5f7f41756374696f6e206e6f74207374617274656400000000000000000000000000910152565b611a4560136020926107d6565b611a4e81611a11565b0190565b611a679060208101905f818303910152611a38565b90565b15611a7157565b611a79610162565b62461bcd60e51b815280611a8f60048201611a52565b0390fd5b5f7f41756374696f6e20656e64656400000000000000000000000000000000000000910152565b611ac7600d6020926107d6565b611ad081611a93565b0190565b611ae99060208101905f818303910152611aba565b90565b15611af357565b611afb610162565b62461bcd60e51b815280611b1160048201611ad4565b0390fd5b5f7f41756374696f6e20616c726561647920656e6465640000000000000000000000910152565b611b4960156020926107d6565b611b5281611b15565b0190565b611b6b9060208101905f818303910152611b3c565b90565b15611b7557565b611b7d610162565b62461bcd60e51b815280611b9360048201611b56565b0390fd5b90565b611bae611ba9611bb392611b97565b610312565b610174565b90565b634e487b7160e01b5f52601160045260245ffd5b611bd9611bdf91939293610174565b92610174565b8203918211611bea57565b611bb6565b611bfe611c0491939293610174565b92610174565b8201809211611c0f57565b611bb6565b5f7f42696420746f6f206c6f77000000000000000000000000000000000000000000910152565b611c48600b6020926107d6565b611c5181611c14565b0190565b611c6a9060208101905f818303910152611c3b565b90565b15611c7457565b611c7c610162565b62461bcd60e51b815280611c9260048201611c55565b0390fd5b60a01b90565b90611cab60ff60a01b91611c96565b9181191691161790565b611cbe90610834565b90565b90565b90611cd9611cd4611ce092611cb5565b611cc1565b8254611c9c565b9055565b5f7f446f206e6f742073656e6420455448206265666f7265207468726573686f6c64910152565b611d17602080926107d6565b611d2081611ce4565b0190565b611d399060208101905f818303910152611d0b565b90565b15611d4357565b611d4b610162565b62461bcd60e51b815280611d6160048201611d24565b0390fd5b611d74611d7a91939293610174565b92610174565b91611d86838202610174565b928184041490151715611d9557565b611bb6565b90565b611db1611dac611db692611d9a565b610312565b610174565b90565b634e487b7160e01b5f52601260045260245ffd5b611dd9611ddf91610174565b91610174565b908115611dea570490565b611db9565b60207f4800000000000000000000000000000000000000000000000000000000000000917f53656e6420636f6c6c61746572616c20696e20746f6b656e2c206e6f742045545f8201520152565b611e4960216040926107d6565b611e5281611def565b0190565b611e6b9060208101905f818303910152611e3c565b90565b15611e7557565b611e7d610162565b62461bcd60e51b815280611e9360048201611e56565b0390fd5b611ea090610331565b90565b604090611ecc611ed39496959396611ec260608401985f850190610827565b6020830190610827565b019061023b565b565b5f7f496e73756666696369656e742045544820636f6c6c61746572616c0000000000910152565b611f09601b6020926107d6565b611f1281611ed5565b0190565b611f2b9060208101905f818303910152611efc565b90565b15611f3557565b611f3d610162565b62461bcd60e51b815280611f5360048201611f16565b0390fd5b90565b5f5260205f2090565b5490565b611f7081611f63565b821015611f8a57611f82600191611f5a565b910201905f90565b610abd565b1b90565b91906008611fb3910291611fad60018060a01b0384611f8f565b92611f8f565b9181191691161790565b90565b9190611fd6611fd1611fde936111a0565b611fbd565b908354611f93565b9055565b9081549168010000000000000000831015612012578261200a91600161201095018155611f67565b90611fc0565b565b610631565b90565b6120246060610dc4565b90565b906120319061081b565b9052565b9061203f90610174565b9052565b9061204d90610834565b9052565b5f5260205f2090565b5490565b6120678161205a565b82101561208157612079600391612051565b910201905f90565b610abd565b634e487b7160e01b5f525f60045260245ffd5b6120a3905161081b565b90565b906120b760018060a01b03916111c2565b9181191691161790565b906120d66120d16120dd926111a0565b611fbd565b82546120a6565b9055565b906120ed60ff916111c2565b9181191691161790565b9061210c61210761211392611cb5565b611cc1565b82546120e1565b9055565b9061215b604060026121619461213a5f82016121345f8801612099565b906120c1565b6121536001820161214d60208801611857565b906111e0565b0192016117c8565b906120f7565b565b91906121745761217291612117565b565b612086565b90815491680100000000000000008310156121a957826121a19160016121a79501815561205e565b90612163565b565b610631565b9160206121cf9294936121c860408201965f83019061023b565b0190610839565b565b6121e56121e060078390610502565b610fe8565b9161220e426122076122016121fc60038801610531565b610174565b91610174565b1015611a6a565b6122354261222f61222961222460048801610531565b610174565b91610174565b10611aec565b61225261224d61224760078601610703565b15610834565b611b6e565b6122aa61226961226460088590610aa7565b610ad1565b61227560058601610531565b90806122896122835f61111a565b91610174565b1161264b575b506122a361229d8492610174565b91610174565b1015611c6d565b5f6122c06122ba600786016106dc565b15610834565b80612625575b6125d1575b6122d7600785016106dc565b5f146125ad57506123036122f3826122ed610f6e565b90611d65565b6122fd6064611d9d565b90611dcd565b61230f600785016106af565b61232961232361231e5f61108c565b61081b565b9161081b565b145f146124c85761234e906123476123413492610174565b91610174565b1015611f2e565b61237834612372612363600b870133906111ac565b9161236d83610531565b611bef565b906111e0565b5b6001915f936123875f61111a565b5b806123a66123a061239b600c8601611145565b610174565b91610174565b10156124ba576123c36123bd600c84018390611152565b90611192565b6123d56123cf3361081b565b9161081b565b146123e8576123e390611136565b612388565b5090919293506123fa60015b15610834565b61249e575b505b61244e61241861241360088490610aa7565b612017565b339061244985612440889161243761242e61201a565b965f8801612027565b60208601612035565b60408401612043565b612179565b33919261248461247e7f8f06251a01f1c60f43d914574d31d4eb5be776df9d23e7f94e7c07c578b9753d936104e6565b936111a0565b93612499612490610162565b928392836121ae565b0390a3565b6124ad600c6124b49201611f57565b3390611fe2565b5f6123ff565b50909192936123fa906123f4565b6124e4346124de6124d85f61111a565b91610174565b14611e6e565b6125006124fb6124f6600787016106af565b61120c565b611218565b9060206323b872dd9233906125315f61251830611e97565b9661253c87612525610162565b998a9788968795611228565b855260048501611ea3565b03925af19182156125a8576125779261257c575b50612571612562600b870133906111ac565b9161256c83610531565b611bef565b906111e0565b612379565b61259c9060203d81116125a1575b6125948183610645565b810190611251565b612550565b503d61258a565b611292565b9250906125cc346125c66125c05f61111a565b91610174565b14611d3c565b612401565b6125df600160078601611cc4565b8261260a7f78e5a77f9f20d8d96a78ff9fbe09d607bf641315b8965893038e859f91651c71916104e6565b90612613610162565b8061261d816101b8565b0390a26122cb565b508161264461263e61263960068801610531565b610174565b91610174565b10156122c6565b6126959150600161267e6126859261267861266860088a90610aa7565b9161267285611b9a565b90611bca565b90610ae7565b5001610531565b61268f6001611b9a565b90611bef565b5f61228f565b5f7f4f6e6c792063726561746f722063616e20757064617465000000000000000000910152565b6126cf60176020926107d6565b6126d88161269b565b0190565b6126f19060208101905f8183039101526126c2565b90565b156126fb57565b612703610162565b62461bcd60e51b815280612719600482016126dc565b0390fd5b5f7f41756374696f6e20737461727465640000000000000000000000000000000000910152565b612751600f6020926107d6565b61275a8161271d565b0190565b6127739060208101905f818303910152612744565b90565b1561277d57565b612785610162565b62461bcd60e51b81528061279b6004820161275e565b0390fd5b5f7f53746172742074696d65206d75737420626520696e2074686520667574757265910152565b6127d2602080926107d6565b6127db8161279f565b0190565b6127f49060208101905f8183039101526127c6565b90565b156127fe57565b612806610162565b62461bcd60e51b81528061281c600482016127df565b0390fd5b60207f6500000000000000000000000000000000000000000000000000000000000000917f456e642074696d65206d7573742062652061667465722073746172742074696d5f8201520152565b61287a60216040926107d6565b61288381612820565b0190565b61289c9060208101905f81830391015261286d565b90565b156128a657565b6128ae610162565b62461bcd60e51b8152806128c460048201612887565b0390fd5b5f7f496e697469616c20626964206d75737420626520706f73697469766500000000910152565b6128fc601c6020926107d6565b612905816128c8565b0190565b61291e9060208101905f8183039101526128ef565b90565b1561292857565b612930610162565b62461bcd60e51b81528061294660048201612909565b0390fd5b60207f6e697469616c2062696400000000000000000000000000000000000000000000917f5468726573686f6c64206d7573742062652067726561746572207468616e20695f8201520152565b6129a4602a6040926107d6565b6129ad8161294a565b0190565b6129c69060208101905f818303910152612997565b90565b156129d057565b6129d8610162565b62461bcd60e51b8152806129ee600482016129b1565b0390fd5b5f7f4e6f74204e4654206f776e657200000000000000000000000000000000000000910152565b612a26600d6020926107d6565b612a2f816129f2565b0190565b612a489060208101905f818303910152612a19565b90565b15612a5257565b612a5a610162565b62461bcd60e51b815280612a7060048201612a33565b0390fd5b90565b60200190565b5190565b90565b60209181520190565b905f9291805490612aa7612aa083610552565b8094612a84565b916001811690815f14612afe5750600114612ac2575b505050565b612acf9192939450610ade565b915f925b818410612ae657505001905f8080612abd565b60018160209295939554848601520191019290612ad3565b92949550505060ff19168252151560200201905f8080612abd565b90612b2391612a8d565b90565b90612b46612b3f92612b36610162565b93848092612b19565b0383610645565b565b612b5190612b26565b90565b90565b5f7f4e4654206e6f74206f66206272616e6400000000000000000000000000000000910152565b612b8b60106020926107d6565b612b9481612b57565b0190565b612bad9060208101905f818303910152612b7e565b90565b15612bb757565b612bbf610162565b62461bcd60e51b815280612bd560048201612b98565b0390fd5b5f7f4e4654206973206c6f636b656400000000000000000000000000000000000000910152565b612c0d600d6020926107d6565b612c1681612bd9565b0190565b612c2f9060208101905f818303910152612c00565b90565b15612c3957565b612c41610162565b62461bcd60e51b815280612c5760048201612c1a565b0390fd5b9194612ca3612cad92989795612c9960a096612c8f612cb49a612c8560c08a019e5f8b019061023b565b602089019061023b565b604087019061023b565b606085019061023b565b6080830190610827565b019061023b565b565b91929395949094612cd1612ccc60078590610502565b610fe8565b92612cf933612cf3612ced612ce8600289016106af565b61081b565b9161081b565b146126f4565b612d2142612d1a612d14612d0f60038901610531565b610174565b91610174565b1115612776565b612d3e612d39612d3360078701610703565b15610834565b611b6e565b612d5b87612d54612d4e42610174565b91610174565b10156127f7565b612d7785612d71612d6b8a610174565b91610174565b1161289f565b612d9386612d8d612d875f61111a565b91610174565b11612921565b612daf88612da9612da389610174565b91610174565b116129c9565b612df06020612dc6612dc1600261160f565b61033d565b636352211e90612de58692612dd9610162565b95869485938493611228565b835260048301610248565b03915afa801561305757612e1e915f91613029575b50612e18612e123361081b565b9161081b565b14612a4b565b612e5e5f612e34612e2f600261160f565b61033d565b6379a7304c90612e538692612e47610162565b95869485938493611228565b835260048301610248565b03915afa90811561302457612ecf91612e7e915f91613002575b50612a74565b612e90612e8a82612a7d565b91612a77565b20612ec9612ec3612eab612ea660018a01612a81565b612b48565b612ebd612eb782612a7d565b91612a77565b20612b54565b91612b54565b14612bb0565b612f106020612ee6612ee1600261160f565b61033d565b63276a28a390612f058692612ef9610162565b95869485938493611228565b835260048301610248565b03915afa948515612ffd57612f3c612f37612fca97612f87945f91612fcf575b5015610834565b612c32565b612f4989600383016111e0565b612f5687600483016111e0565b612f6388600583016111e0565b612f708a600683016111e0565b612f7d85600783016120c1565b600a8491016111e0565b95939496919091612fb87f2a42e840496defdf07808cde78ea595cf0344f052708cbfaf58d6d194fdef52f976104e6565b97612fc1610162565b96879687612c5b565b0390a2565b612ff0915060203d8111612ff6575b612fe88183610645565b810190611251565b5f612f30565b503d612fde565b611292565b61301e91503d805f833e6130168183610645565b810190611675565b5f612e78565b611292565b61304a915060203d8111613050575b6130428183610645565b8101906116da565b5f612e05565b503d613038565b611292565b5f7f4e6f207374616b6520746f20636c61696d000000000000000000000000000000910152565b61309060116020926107d6565b6130998161305c565b0190565b6130b29060208101905f818303910152613083565b90565b156130bc57565b6130c4610162565b62461bcd60e51b8152806130da6004820161309d565b0390fd5b5f7f4661696c656420746f2073656e64204554480000000000000000000000000000910152565b61311260126020926107d6565b61311b816130de565b0190565b6131349060208101905f818303910152613105565b90565b1561313e57565b613146610162565b62461bcd60e51b81528061315c6004820161311f565b0390fd5b61317461316f60078390610502565b610fe8565b9061318961318460078401610703565b611044565b6131b8613198600884016106af565b6131b26131ac6131a75f61108c565b61081b565b9161081b565b146110f1565b6131ce6131c9600b840133906111ac565b610531565b916131eb836131e56131df5f61111a565b91610174565b116130b5565b61320a6131f75f61111a565b613205600b840133906111ac565b6111e0565b613216600782016106af565b61323061322a6132255f61108c565b61081b565b9161081b565b145f146132aa57506132645f803385613247610162565b9081613252816112b6565b03925af161325e611301565b50613137565b5b33916132907e83f3d3d0a8132e9bf23ae6cde659d5f3963a6973816e144f05bfccef184279926104e6565b926132a561329c610162565b9283928361126f565b0390a2565b6132c16132bc60076132c693016106af565b61120c565b611218565b602063a9059cbb9133906132ed5f87956132f86132e1610162565b97889687958694611228565b84526004840161126f565b03925af180156133395761330d575b50613265565b61332d9060203d8111613332575b6133258183610645565b810190611251565b613307565b503d61331b565b611292565b5f7f4f6e6c792063726561746f722063616e2063616e63656c000000000000000000910152565b61337260176020926107d6565b61337b8161333e565b0190565b6133949060208101905f818303910152613365565b90565b1561339e57565b6133a6610162565b62461bcd60e51b8152806133bc6004820161337f565b0390fd5b5f7f41756374696f6e20207374617274656400000000000000000000000000000000910152565b6133f460106020926107d6565b6133fd816133c0565b0190565b6134169060208101905f8183039101526133e7565b90565b1561342057565b613428610162565b62461bcd60e51b81528061343e60048201613401565b0390fd5b60a81b90565b9061345760ff60a81b91613442565b9181191691161790565b9061347661347161347d92611cb5565b611cc1565b8254613448565b9055565b61349761349261350e926007610502565b610fe8565b6134be336134b86134b26134ad600286016106af565b61081b565b9161081b565b14613397565b6134e6426134df6134d96134d460038601610531565b610174565b91610174565b1115613419565b6135036134fe6134f860078401610703565b15610834565b611b6e565b600760019101613461565b6135166115f7565b50565b61352561352a91610518565b6103a0565b90565b6135379054613519565b90565b69ffffffffffffffffffff1690565b6135528161353a565b0361355957565b5f80fd5b9050519061356a82613549565b565b90565b6135788161356c565b0361357f57565b5f80fd5b905051906135908261356f565b565b919060a0838203126135e3576135aa815f850161355d565b926135b88260208301613583565b926135e06135c98460408501611738565b936135d78160608601611738565b9360800161355d565b90565b61016c565b6135fc6135f76136019261106d565b610312565b61356c565b90565b5f7f496e76616c696420555344432f55534420707269636500000000000000000000910152565b61363860166020926107d6565b61364181613604565b0190565b61365a9060208101905f81830391015261362b565b90565b1561366457565b61366c610162565b62461bcd60e51b81528061368260048201613645565b0390fd5b90565b61369d6136986136a292613686565b610312565b610174565b90565b6136b96136b46136be9261356c565b610312565b610174565b90565b6136d6613700916136d06115f7565b50611864565b60a06136ea6136e5600561352d565b6103e0565b63feaf968c906136f8610162565b948592611228565b82528180613710600482016101b8565b03915afa801561379f5761375f6137659161376b945f8092905061376e575b509261374d846137476137415f6135e8565b9161356c565b1361365d565b613759620f4240613689565b90611d65565b916136a5565b90611dcd565b90565b61378f915060a03d8111613798575b6137878183610645565b810190613592565b5050509061372f565b503d61377d565b611292565b5f7f41756374696f6e206e6f7420656e646564207965740000000000000000000000910152565b6137d860156020926107d6565b6137e1816137a4565b0190565b6137fa9060208101905f8183039101526137cb565b90565b1561380457565b61380c610162565b62461bcd60e51b815280613822600482016137e5565b0390fd5b61383a61383560078390610502565b610fe8565b906138634261385c61385661385160048701610531565b610174565b91610174565b10156137fd565b61388061387b61387560078501610703565b15610834565b611b6e565b61388e600160078401613461565b6138975f61111a565b6138a05f61108c565b6138a95f61111a565b5b806138d06138ca6138c56138c060088990610aa7565b610ad1565b610174565b91610174565b1015613970576138f860016138f16138ea60088890610aa7565b8490610ae7565b5001610531565b61390a61390485610174565b91610174565b1161391e575b61391990611136565b6138aa565b915050613943600161393c61393560088690610aa7565b8490610ae7565b5001610531565b906139196139685f61396161395a60088890610aa7565b8590610ae7565b50016106af565b919050613910565b5091909261398f9061398584600883016120c1565b60098591016111e0565b90916139bb7fd2aa34a4fdbbc6dff6a3e56f46e0f3ae2a31d7785ff3487aa5c95c642acea501926104e6565b926139d06139c7610162565b9283928361126f565b0390a2565b5f7f496e76616c6964204554482f5553442070726963650000000000000000000000910152565b613a0960156020926107d6565b613a12816139d5565b0190565b613a2b9060208101905f8183039101526139fc565b90565b15613a3557565b613a3d610162565b62461bcd60e51b815280613a5360048201613a16565b0390fd5b90565b613a6e613a69613a7392613a57565b610312565b610174565b90565b613a8b613ab591613a856115f7565b50611864565b60a0613a9f613a9a600461352d565b6103e0565b63feaf968c90613aad610162565b948592611228565b82528180613ac5600482016101b8565b03915afa8015613b5957613b19613b1f91613b25945f80929050613b28575b5092613b0284613afc613af65f6135e8565b9161356c565b13613a2e565b613b13670de0b6b3a7640000613a5a565b90611d65565b916136a5565b90611dcd565b90565b613b49915060a03d8111613b52575b613b418183610645565b810190613592565b50505090613ae4565b503d613b37565b611292565b613b6a613b6f91610518565b6109c1565b90565b613b7c9054613b5e565b90565b5f7f4272616e64206973206e6f742061637469766500000000000000000000000000910152565b613bb360136020926107d6565b613bbc81613b7f565b0190565b613bd59060208101905f818303910152613ba6565b90565b15613bdf57565b613be7610162565b62461bcd60e51b815280613bfd60048201613bc0565b0390fd5b90613c4797969594939291602081613c20613c1b5f613b72565b610a00565b613c3c63ce698340613c30610162565b9d8e9485938493611228565b8352600483016116f8565b03915afa988915613c9c57613c6c99613c67915f91613c6e575b50613bd8565b613eeb565b565b613c8f915060203d8111613c95575b613c878183610645565b810190611251565b5f613c61565b503d613c7d565b611292565b613caa90610174565b5f198114613cb85760010190565b611bb6565b601f602091010490565b91906008613ce2910291613cdc5f1984611f8f565b92611f8f565b9181191691161790565b9190613d02613cfd613d0a936104e6565b6111dd565b908354613cc7565b9055565b613d2091613d1a6115f7565b91613cec565b565b5b818110613d2e575050565b80613d3b5f600193613d0e565b01613d23565b9190601f8111613d51575b505050565b613d5d613d8293610585565b906020613d6984613cbd565b83019310613d8a575b613d7b90613cbd565b0190613d22565b5f8080613d4c565b9150613d7b81929050613d72565b90613da8905f19906008026101ff565b191690565b81613db791613d98565b906002021790565b90613dc9816107d2565b9067ffffffffffffffff8211613e8957613ded82613de78554610552565b85613d41565b602090601f8311600114613e2157918091613e10935f92613e15575b5050613dad565b90555b565b90915001515f80613e09565b601f19831691613e3085610585565b925f5b818110613e7157509160029391856001969410613e57575b50505002019055613e13565b613e67910151601f841690613d98565b90555f8080613e4b565b91936020600181928787015181550195019201613e33565b610631565b90613e9891613dbf565b565b90613ee994613ed8608094989795613ece613ec3613ee29560a08801908882035f8a01526107ea565b9a602087019061023b565b604085019061023b565b606083019061023b565b019061023b565b565b9590939194613fa690979397613f1486613f0d613f0742610174565b91610174565b10156127f7565b613f3087613f2a613f2489610174565b91610174565b1161289f565b613f4c89613f46613f405f61111a565b91610174565b11612921565b613f6884613f62613f5c8c610174565b91610174565b116129c9565b6020613f7c613f77600261160f565b61033d565b636352211e90613f9b8692613f8f610162565b96879485938493611228565b835260048301610248565b03915afa9182156142ca5761401692613fd9915f9161429c575b50613fd3613fcd3361081b565b9161081b565b14612a4b565b5f613fec613fe7600261160f565b61033d565b6379a7304c9061400b8692613fff610162565b96879485938493611228565b835260048301610248565b03915afa80156142975761403861407e916140bc945f91614275575b50612a74565b61404a61404482612a7d565b91612a77565b2061407861407261405a8c612a74565b61406c61406682612a7d565b91612a77565b20612b54565b91612b54565b14612bb0565b602061409261408d600261160f565b61033d565b63276a28a3906140b186926140a5610162565b96879485938493611228565b835260048301610248565b03915afa948515614270576141ec6141f39461419f600d946141898e6141808f8f908f61423d9f6141779261410860019f61416093614103915f91614242575b5015610834565b612c32565b6141248f61411861411d91610531565b613ca1565b60016111e0565b61414261413d6007600161413790610531565b90610502565b610fe8565b9e8f9161415961415183610531565b5f85016111e0565b9101613e8e565b61416e8d60023391016120c1565b60038d016111e0565b60048b016111e0565b600589016111e0565b61419689600689016111e0565b600787016120c1565b6141ac5f60078701611cc4565b6141b95f60078701613461565b6141ce6141c55f61108c565b600887016120c1565b6141e36141da5f61111a565b600987016111e0565b600a85016111e0565b9101613e8e565b6141fd6001610531565b9492939561422b7fe2f75a8b2134b1f73d45f0b58bc713c6f20c0b7fb6043d0047712d549632c54e966104e6565b96614234610162565b95869586613e9a565b0390a2565b614263915060203d8111614269575b61425b8183610645565b810190611251565b5f6140fc565b503d614251565b611292565b61429191503d805f833e6142898183610645565b810190611675565b5f614032565b611292565b6142bd915060203d81116142c3575b6142b58183610645565b8101906116da565b5f613fc0565b503d6142ab565b611292565b906142df97969594939291613c01565b565b5f7f4e6f742077696e6e657200000000000000000000000000000000000000000000910152565b614315600a6020926107d6565b61431e816142e1565b0190565b6143379060208101905f818303910152614308565b90565b1561434157565b614349610162565b62461bcd60e51b81528061435f60048201614322565b0390fd5b5f7f4e6f2077696e6e6572206465636c617265640000000000000000000000000000910152565b61439760126020926107d6565b6143a081614363565b0190565b6143b99060208101905f81830391015261438a565b90565b156143c357565b6143cb610162565b62461bcd60e51b8152806143e1600482016143a4565b0390fd5b906143ef906111a0565b5f5260205260405f2090565b5f7f616c726561647920726563656976656400000000000000000000000000000000910152565b61442f60106020926107d6565b614438816143fb565b0190565b6144519060208101905f818303910152614422565b90565b1561445b57565b614463610162565b62461bcd60e51b8152806144796004820161443c565b0390fd5b60207f6e00000000000000000000000000000000000000000000000000000000000000917f446f206e6f742073656e642045544820666f7220746f6b656e2061756374696f5f8201520152565b6144d760216040926107d6565b6144e08161447d565b0190565b6144f99060208101905f8183039101526144ca565b90565b1561450357565b61450b610162565b62461bcd60e51b815280614521600482016144e4565b0390fd5b5f7f496e73756666696369656e7420455448207061796d656e740000000000000000910152565b61455960186020926107d6565b61456281614525565b0190565b61457b9060208101905f81830391015261454c565b90565b1561458557565b61458d610162565b62461bcd60e51b8152806145a360048201614566565b0390fd5b5f9103126145b157565b61016c565b6145c46145c9916007610502565b610fe8565b6145dd6145d860078301610703565b611044565b614604336145fe6145f86145f3600886016106af565b61081b565b9161081b565b1461433a565b614634614613600883016106af565b61462d6146276146225f61108c565b61081b565b9161081b565b14156143bc565b61465961465461464e614649600633906143e5565b610b23565b15610834565b614454565b614665600782016106af565b61467f6146796146745f61108c565b61081b565b9161081b565b145f14614770576146ae346146a76146a161469c60098601610531565b610174565b91610174565b101561457e565b5b6146c560016146c0600633906143e5565b6120f7565b6146d76146d2600261160f565b61033d565b6323b872dd906146e9600284016106af565b906146f7600a339501610531565b92813b1561476b575f61471d916147288296614711610162565b98899788968795611228565b855260048501611ea3565b03925af180156147665761473a575b50565b614759905f3d811161475f575b6147518183610645565b8101906145a7565b5f614737565b503d614747565b611292565b611224565b61478c346147866147805f61111a565b91610174565b146144fc565b6147a86147a361479e600784016106af565b61120c565b611218565b60206323b872dd9133906147e65f6147c2600288016106af565b956147f16147d260098a01610531565b6147da610162565b98899788968795611228565b855260048501611ea3565b03925af1801561483257614806575b506146af565b6148269060203d811161482b575b61481e8183610645565b810190611251565b614800565b503d614814565b61129256fea2646970667358221220e61248ca8c2a359b36aec6c5d0eec2b8601e4f00c458545fd460556d96c6eb0f64736f6c634300081c0033","linkReferences":{}},"methodIdentifiers":{"COLLATERAL_PERCENT()":"e0b2d4af","auctionBids(uint256,uint256)":"5f93de49","auctionCount()":"2ad71573","auctions(uint256)":"571a26a0","cancelAuction(uint256)":"96b5a755","carRegistry()":"58685ddb","claimMyStake(uint256)":"8665b745","claimWin(uint256)":"ee0144ab","createAuction(string,uint256,uint256,uint256,uint256,address,uint256,string)":"d043be2a","endAuction(uint256)":"b9a2de3a","ethUsdPriceFeed()":"42f6fb29","getNftPriceInETH(uint256)":"cbe02443","getNftPriceInUSD(uint256)":"30b92183","getNftPriceInUSDC(uint256)":"b0bbd44f","oracleMaster()":"4e542d9e","placeBid(uint256,uint256)":"57c90de5","returnStakes(uint256)":"1a787d7e","updateAuctionInfo(uint256,uint256,uint256,uint256,uint256,address,uint256)":"7adbbb88","usdcUsdPriceFeed()":"5e49ff39","zeroNFT()":"3442651b"},"id":89}