{
  "abi": [
    {
      "type": "constructor",
      "inputs": [
        {
          "name": "_carRegistry",
          "type": "address",
          "internalType": "address"
        },
        {
          "name": "_zeroNFT",
          "type": "address",
          "internalType": "address"
        },
        {
          "name": "_oracleMaster",
          "type": "address",
          "internalType": "address"
        },
        {
          "name": "_ethUsdFeed",
          "type": "address",
          "internalType": "address"
        },
        {
          "name": "_usdcUsdFeed",
          "type": "address",
          "internalType": "address"
        }
      ],
      "stateMutability": "nonpayable"
    },
    {
      "type": "function",
      "name": "COLLATERAL_PERCENT",
      "inputs": [],
      "outputs": [
        {
          "name": "",
          "type": "uint256",
          "internalType": "uint256"
        }
      ],
      "stateMutability": "view"
    },
    {
      "type": "function",
      "name": "auctionBids",
      "inputs": [
        {
          "name": "",
          "type": "uint256",
          "internalType": "uint256"
        },
        {
          "name": "",
          "type": "uint256",
          "internalType": "uint256"
        }
      ],
      "outputs": [
        {
          "name": "bidder",
          "type": "address",
          "internalType": "address"
        },
        {
          "name": "amount",
          "type": "uint256",
          "internalType": "uint256"
        },
        {
          "name": "staked",
          "type": "bool",
          "internalType": "bool"
        }
      ],
      "stateMutability": "view"
    },
    {
      "type": "function",
      "name": "auctionCount",
      "inputs": [],
      "outputs": [
        {
          "name": "",
          "type": "uint256",
          "internalType": "uint256"
        }
      ],
      "stateMutability": "view"
    },
    {
      "type": "function",
      "name": "auctions",
      "inputs": [
        {
          "name": "",
          "type": "uint256",
          "internalType": "uint256"
        }
      ],
      "outputs": [
        {
          "name": "id",
          "type": "uint256",
          "internalType": "uint256"
        },
        {
          "name": "brandName",
          "type": "string",
          "internalType": "string"
        },
        {
          "name": "creator",
          "type": "address",
          "internalType": "address"
        },
        {
          "name": "startTime",
          "type": "uint256",
          "internalType": "uint256"
        },
        {
          "name": "endTime",
          "type": "uint256",
          "internalType": "uint256"
        },
        {
          "name": "initialBid",
          "type": "uint256",
          "internalType": "uint256"
        },
        {
          "name": "bidThreshold",
          "type": "uint256",
          "internalType": "uint256"
        },
        {
          "name": "bidToken",
          "type": "address",
          "internalType": "address"
        },
        {
          "name": "thresholdReached",
          "type": "bool",
          "internalType": "bool"
        },
        {
          "name": "ended",
          "type": "bool",
          "internalType": "bool"
        },
        {
          "name": "winner",
          "type": "address",
          "internalType": "address"
        },
        {
          "name": "winningBid",
          "type": "uint256",
          "internalType": "uint256"
        },
        {
          "name": "nftTokenId",
          "type": "uint256",
          "internalType": "uint256"
        }
      ],
      "stateMutability": "view"
    },
    {
      "type": "function",
      "name": "cancelAuction",
      "inputs": [
        {
          "name": "auctionId",
          "type": "uint256",
          "internalType": "uint256"
        }
      ],
      "outputs": [],
      "stateMutability": "nonpayable"
    },
    {
      "type": "function",
      "name": "carRegistry",
      "inputs": [],
      "outputs": [
        {
          "name": "",
          "type": "address",
          "internalType": "contract CarRegistry"
        }
      ],
      "stateMutability": "view"
    },
    {
      "type": "function",
      "name": "claimMyStake",
      "inputs": [
        {
          "name": "auctionId",
          "type": "uint256",
          "internalType": "uint256"
        }
      ],
      "outputs": [],
      "stateMutability": "nonpayable"
    },
    {
      "type": "function",
      "name": "claimWin",
      "inputs": [
        {
          "name": "auctionId",
          "type": "uint256",
          "internalType": "uint256"
        }
      ],
      "outputs": [],
      "stateMutability": "payable"
    },
    {
      "type": "function",
      "name": "createAuction",
      "inputs": [
        {
          "name": "brandName",
          "type": "string",
          "internalType": "string"
        },
        {
          "name": "startTime",
          "type": "uint256",
          "internalType": "uint256"
        },
        {
          "name": "endTime",
          "type": "uint256",
          "internalType": "uint256"
        },
        {
          "name": "initialBid",
          "type": "uint256",
          "internalType": "uint256"
        },
        {
          "name": "bidThreshold",
          "type": "uint256",
          "internalType": "uint256"
        },
        {
          "name": "bidToken",
          "type": "address",
          "internalType": "address"
        },
        {
          "name": "nftTokenId",
          "type": "uint256",
          "internalType": "uint256"
        }
      ],
      "outputs": [],
      "stateMutability": "nonpayable"
    },
    {
      "type": "function",
      "name": "endAuction",
      "inputs": [
        {
          "name": "auctionId",
          "type": "uint256",
          "internalType": "uint256"
        }
      ],
      "outputs": [],
      "stateMutability": "nonpayable"
    },
    {
      "type": "function",
      "name": "ethUsdPriceFeed",
      "inputs": [],
      "outputs": [
        {
          "name": "",
          "type": "address",
          "internalType": "contract AggregatorV3Interface"
        }
      ],
      "stateMutability": "view"
    },
    {
      "type": "function",
      "name": "getNftPriceInETH",
      "inputs": [
        {
          "name": "nftTokenId",
          "type": "uint256",
          "internalType": "uint256"
        }
      ],
      "outputs": [
        {
          "name": "priceETH",
          "type": "uint256",
          "internalType": "uint256"
        }
      ],
      "stateMutability": "view"
    },
    {
      "type": "function",
      "name": "getNftPriceInUSD",
      "inputs": [
        {
          "name": "nftTokenId",
          "type": "uint256",
          "internalType": "uint256"
        }
      ],
      "outputs": [
        {
          "name": "priceUSD",
          "type": "uint256",
          "internalType": "uint256"
        }
      ],
      "stateMutability": "view"
    },
    {
      "type": "function",
      "name": "getNftPriceInUSDC",
      "inputs": [
        {
          "name": "nftTokenId",
          "type": "uint256",
          "internalType": "uint256"
        }
      ],
      "outputs": [
        {
          "name": "priceUSDC",
          "type": "uint256",
          "internalType": "uint256"
        }
      ],
      "stateMutability": "view"
    },
    {
      "type": "function",
      "name": "oracleMaster",
      "inputs": [],
      "outputs": [
        {
          "name": "",
          "type": "address",
          "internalType": "contract OracleMaster"
        }
      ],
      "stateMutability": "view"
    },
    {
      "type": "function",
      "name": "placeBid",
      "inputs": [
        {
          "name": "auctionId",
          "type": "uint256",
          "internalType": "uint256"
        },
        {
          "name": "amount",
          "type": "uint256",
          "internalType": "uint256"
        }
      ],
      "outputs": [],
      "stateMutability": "payable"
    },
    {
      "type": "function",
      "name": "returnStakes",
      "inputs": [
        {
          "name": "auctionId",
          "type": "uint256",
          "internalType": "uint256"
        }
      ],
      "outputs": [],
      "stateMutability": "nonpayable"
    },
    {
      "type": "function",
      "name": "updateAuctionInfo",
      "inputs": [
        {
          "name": "auctionId",
          "type": "uint256",
          "internalType": "uint256"
        },
        {
          "name": "newStartTime",
          "type": "uint256",
          "internalType": "uint256"
        },
        {
          "name": "newEndTime",
          "type": "uint256",
          "internalType": "uint256"
        },
        {
          "name": "newInitialBid",
          "type": "uint256",
          "internalType": "uint256"
        },
        {
          "name": "newBidThreshold",
          "type": "uint256",
          "internalType": "uint256"
        },
        {
          "name": "newBidToken",
          "type": "address",
          "internalType": "address"
        },
        {
          "name": "newNftTokenId",
          "type": "uint256",
          "internalType": "uint256"
        }
      ],
      "outputs": [],
      "stateMutability": "nonpayable"
    },
    {
      "type": "function",
      "name": "usdcUsdPriceFeed",
      "inputs": [],
      "outputs": [
        {
          "name": "",
          "type": "address",
          "internalType": "contract AggregatorV3Interface"
        }
      ],
      "stateMutability": "view"
    },
    {
      "type": "function",
      "name": "zeroNFT",
      "inputs": [],
      "outputs": [
        {
          "name": "",
          "type": "address",
          "internalType": "contract ZeroNFT"
        }
      ],
      "stateMutability": "view"
    },
    {
      "type": "event",
      "name": "AuctionCreated",
      "inputs": [
        {
          "name": "auctionId",
          "type": "uint256",
          "indexed": true,
          "internalType": "uint256"
        },
        {
          "name": "brandName",
          "type": "string",
          "indexed": false,
          "internalType": "string"
        },
        {
          "name": "startTime",
          "type": "uint256",
          "indexed": false,
          "internalType": "uint256"
        },
        {
          "name": "endTime",
          "type": "uint256",
          "indexed": false,
          "internalType": "uint256"
        },
        {
          "name": "initialBid",
          "type": "uint256",
          "indexed": false,
          "internalType": "uint256"
        },
        {
          "name": "bidThreshold",
          "type": "uint256",
          "indexed": false,
          "internalType": "uint256"
        }
      ],
      "anonymous": false
    },
    {
      "type": "event",
      "name": "AuctionEnded",
      "inputs": [
        {
          "name": "auctionId",
          "type": "uint256",
          "indexed": true,
          "internalType": "uint256"
        },
        {
          "name": "winner",
          "type": "address",
          "indexed": false,
          "internalType": "address"
        },
        {
          "name": "winningBid",
          "type": "uint256",
          "indexed": false,
          "internalType": "uint256"
        }
      ],
      "anonymous": false
    },
    {
      "type": "event",
      "name": "AuctionInfoUpdated",
      "inputs": [
        {
          "name": "auctionId",
          "type": "uint256",
          "indexed": true,
          "internalType": "uint256"
        },
        {
          "name": "newStartTime",
          "type": "uint256",
          "indexed": false,
          "internalType": "uint256"
        },
        {
          "name": "newEndTime",
          "type": "uint256",
          "indexed": false,
          "internalType": "uint256"
        },
        {
          "name": "newInitialBid",
          "type": "uint256",
          "indexed": false,
          "internalType": "uint256"
        },
        {
          "name": "newBidThreshold",
          "type": "uint256",
          "indexed": false,
          "internalType": "uint256"
        },
        {
          "name": "newBidToken",
          "type": "address",
          "indexed": false,
          "internalType": "address"
        },
        {
          "name": "newNftTokenId",
          "type": "uint256",
          "indexed": false,
          "internalType": "uint256"
        }
      ],
      "anonymous": false
    },
    {
      "type": "event",
      "name": "BidPlaced",
      "inputs": [
        {
          "name": "auctionId",
          "type": "uint256",
          "indexed": true,
          "internalType": "uint256"
        },
        {
          "name": "bidder",
          "type": "address",
          "indexed": true,
          "internalType": "address"
        },
        {
          "name": "amount",
          "type": "uint256",
          "indexed": false,
          "internalType": "uint256"
        },
        {
          "name": "staked",
          "type": "bool",
          "indexed": false,
          "internalType": "bool"
        }
      ],
      "anonymous": false
    },
    {
      "type": "event",
      "name": "CollateralForfeited",
      "inputs": [
        {
          "name": "auctionId",
          "type": "uint256",
          "indexed": true,
          "internalType": "uint256"
        },
        {
          "name": "forfeitedBidder",
          "type": "address",
          "indexed": false,
          "internalType": "address"
        },
        {
          "name": "amount",
          "type": "uint256",
          "indexed": false,
          "internalType": "uint256"
        }
      ],
      "anonymous": false
    },
    {
      "type": "event",
      "name": "CollateralReturned",
      "inputs": [
        {
          "name": "auctionId",
          "type": "uint256",
          "indexed": true,
          "internalType": "uint256"
        },
        {
          "name": "bidder",
          "type": "address",
          "indexed": false,
          "internalType": "address"
        },
        {
          "name": "amount",
          "type": "uint256",
          "indexed": false,
          "internalType": "uint256"
        }
      ],
      "anonymous": false
    },
    {
      "type": "event",
      "name": "StakesReturned",
      "inputs": [
        {
          "name": "auctionId",
          "type": "uint256",
          "indexed": true,
          "internalType": "uint256"
        }
      ],
      "anonymous": false
    },
    {
      "type": "event",
      "name": "ThresholdReached",
      "inputs": [
        {
          "name": "auctionId",
          "type": "uint256",
          "indexed": true,
          "internalType": "uint256"
        }
      ],
      "anonymous": false
    }
  ],
  "bytecode": {
    "object": "0x6080604052346100335761001d610014610130565b939290926102b0565b610025610038565b614803610311823961480390f35b61003e565b60405190565b5f80fd5b601f801991011690565b634e487b7160e01b5f52604160045260245ffd5b9061006a90610042565b810190811060018060401b0382111761008257604052565b61004c565b9061009a610093610038565b9283610060565b565b5f80fd5b60018060a01b031690565b6100b4906100a0565b90565b6100c0816100ab565b036100c757565b5f80fd5b905051906100d8826100b7565b565b919060a08382031261012b576100f2815f85016100cb565b9261010082602083016100cb565b9261012861011184604085016100cb565b9361011f81606086016100cb565b936080016100cb565b90565b61009c565b61014e614b148038038061014381610087565b9283398101906100da565b9091929394565b90565b61016c610167610171926100a0565b610155565b6100a0565b90565b61017d90610158565b90565b61018990610174565b90565b5f1b90565b906101a260018060a01b039161018c565b9181191691161790565b6101b590610174565b90565b90565b906101d06101cb6101d7926101ac565b6101b8565b8254610191565b9055565b6101e490610158565b90565b6101f0906101db565b90565b6101fc906101db565b90565b90565b9061021761021261021e926101f3565b6101ff565b8254610191565b9055565b61022b90610158565b90565b61023790610222565b90565b61024390610222565b90565b90565b9061025e6102596102659261023a565b610246565b8254610191565b9055565b61027290610158565b90565b61027e90610269565b90565b61028a90610269565b90565b90565b906102a56102a06102ac92610281565b61028d565b8254610191565b9055565b610307936102f66102ef61030e97956102ea6102e3610302976102de6102d86102fb99610180565b5f6101bb565b6101e7565b6002610202565b61022e565b6003610249565b610275565b6004610290565b610275565b6005610290565b56fe60806040526004361015610013575b610f91565b61001d5f3561015c565b80631a787d7e146101575780632666939c146101525780632ad715731461014d57806330b92183146101485780633442651b1461014357806342f6fb291461013e5780634e542d9e14610139578063571a26a01461013457806357c90de51461012f57806358685ddb1461012a5780635e49ff39146101255780635f93de49146101205780637adbbb881461011b5780638665b7451461011657806396b5a75514610111578063b0bbd44f1461010c578063b9a2de3a14610107578063cbe0244314610102578063e0b2d4af146100fd5763ee0144ab0361000e57610f68565b610f33565b610ec7565b610e94565b610e5f565b610e2c565b610df9565b610dbf565b610d16565b610bd5565b610b91565b610afa565b610a88565b61068d565b6105ea565b610547565b610479565b610444565b61039d565b6101bd565b60e01c90565b60405190565b5f80fd5b5f80fd5b5f80fd5b90565b61018081610174565b0361018757565b5f80fd5b9050359061019882610177565b565b906020828203126101b3576101b0915f0161018b565b90565b61016c565b5f0190565b346101eb576101d56101d036600461019a565b6112d7565b6101dd610162565b806101e7816101b8565b0390f35b610168565b5f80fd5b5f80fd5b601f801991011690565b634e487b7160e01b5f52604160045260245ffd5b90610220906101f8565b810190811067ffffffffffffffff82111761023a57604052565b610202565b9061025261024b610162565b9283610216565b565b67ffffffffffffffff81116102725761026e6020916101f8565b0190565b610202565b90825f939282370152565b9092919261029761029282610254565b61023f565b938185526020850190828401116102b3576102b192610277565b565b6101f4565b9080601f830112156102d6578160206102d393359101610282565b90565b6101f0565b60018060a01b031690565b6102ef906102db565b90565b6102fb816102e6565b0361030257565b5f80fd5b90503590610313826102f2565b565b60e081830312610398575f81013567ffffffffffffffff8111610393578261033e9183016102b8565b9261034c836020840161018b565b9261035a816040850161018b565b92610368826060830161018b565b92610390610379846080850161018b565b936103878160a08601610306565b9360c00161018b565b90565b610170565b61016c565b346103d2576103bc6103b0366004610315565b959490949391936122d6565b6103c4610162565b806103ce816101b8565b0390f35b610168565b5f9103126103e157565b61016c565b1c90565b90565b6103fd90600861040293026103e6565b6103ea565b90565b9061041091546103ed565b90565b61041f60015f90610405565b90565b61042b90610174565b9052565b9190610442905f60208501940190610422565b565b34610474576104543660046103d7565b61047061045f610413565b610467610162565b9182918261042f565b0390f35b610168565b346104a9576104a561049461048f36600461019a565b61245c565b61049c610162565b9182918261042f565b0390f35b610168565b60018060a01b031690565b6104c99060086104ce93026103e6565b6104ae565b90565b906104dc91546104b9565b90565b6104eb60025f906104d1565b90565b90565b61050561050061050a926102db565b6104ee565b6102db565b90565b610516906104f1565b90565b6105229061050d565b90565b61052e90610519565b9052565b9190610545905f60208501940190610525565b565b34610577576105573660046103d7565b6105736105626104df565b61056a610162565b91829182610532565b0390f35b610168565b60018060a01b031690565b61059790600861059c93026103e6565b61057c565b90565b906105aa9154610587565b90565b6105b960045f9061059f565b90565b6105c59061050d565b90565b6105d1906105bc565b9052565b91906105e8905f602085019401906105c8565b565b3461061a576105fa3660046103d7565b6106166106056105ad565b61060d610162565b918291826105d5565b0390f35b610168565b60018060a01b031690565b61063a90600861063f93026103e6565b61061f565b90565b9061064d915461062a565b90565b61065c60035f90610642565b90565b6106689061050d565b90565b6106749061065f565b9052565b919061068b905f6020850194019061066b565b565b346106bd5761069d3660046103d7565b6106b96106a8610650565b6106b0610162565b91829182610678565b0390f35b610168565b6106d66106d16106db92610174565b6104ee565b610174565b90565b906106e8906106c2565b5f5260205260405f2090565b5f1c90565b61070561070a916106f4565b6103ea565b90565b61071790546106f9565b90565b634e487b7160e01b5f52602260045260245ffd5b906001600283049216801561074e575b602083101461074957565b61071a565b91607f169161073e565b60209181520190565b5f5260205f2090565b905f929180549061078461077d8361072e565b8094610758565b916001811690815f146107db575060011461079f575b505050565b6107ac9192939450610761565b915f925b8184106107c357505001905f808061079a565b600181602092959395548486015201910192906107b0565b92949550505060ff19168252151560200201905f808061079a565b906108009161076a565b90565b9061082361081c92610813610162565b938480926107f6565b0383610216565b565b60018060a01b031690565b61083c610841916106f4565b610825565b90565b61084e9054610830565b90565b60a01c90565b60ff1690565b61086961086e91610851565b610857565b90565b61087b905461085d565b90565b60a81c90565b6108906108959161087e565b610857565b90565b6108a29054610884565b90565b6108b09060076106de565b6108bb5f820161070d565b916108c860018301610803565b916108d560028201610844565b916108e26003830161070d565b916108ef6004820161070d565b916108fc6005830161070d565b916109096006820161070d565b9161091660078301610844565b9161092360078201610871565b9161093060078301610898565b9161093d60088201610844565b91610956600a61094f6009850161070d565b930161070d565b90565b5190565b60209181520190565b90825f9392825e0152565b61099061099960209361099e9361098781610959565b9384809361095d565b95869101610966565b6101f8565b0190565b6109ab906102e6565b9052565b151590565b6109bd906109af565b9052565b9a989694929d9c9b9997959391906101a08c01905f8d016109e191610422565b8b810360208d01526109f291610971565b9c60408b01610a00916109a2565b60608a01610a0d91610422565b60808901610a1a91610422565b60a08801610a2791610422565b60c08701610a3491610422565b60e08601610a41916109a2565b6101008501610a4f916109b4565b6101208401610a5d916109b4565b6101408301610a6b916109a2565b6101608201610a7991610422565b61018001610a8691610422565b565b34610ac857610ac4610aa3610a9e36600461019a565b6108a5565b99610abb9d9b9d999199989298979397969496610162565b9d8e9d8e6109c1565b0390f35b610168565b9190604083820312610af55780610ae9610af2925f860161018b565b9360200161018b565b90565b61016c565b610b0e610b08366004610acd565b90612d12565b610b16610162565b80610b20816101b8565b0390f35b60018060a01b031690565b610b3f906008610b4493026103e6565b610b24565b90565b90610b529154610b2f565b90565b610b605f5f90610b47565b90565b610b6c9061050d565b90565b610b7890610b63565b9052565b9190610b8f905f60208501940190610b6f565b565b34610bc157610ba13660046103d7565b610bbd610bac610b55565b610bb4610162565b91829182610b7c565b0390f35b610168565b610bd260055f9061059f565b90565b34610c0557610be53660046103d7565b610c01610bf0610bc6565b610bf8610162565b918291826105d5565b0390f35b610168565b90610c14906106c2565b5f5260205260405f2090565b634e487b7160e01b5f52603260045260245ffd5b5490565b5f5260205f2090565b5f5260205f2090565b610c5381610c34565b821015610c6d57610c65600391610c38565b910201905f90565b610c20565b610c7e610c83916106f4565b610857565b90565b610c909054610c72565b90565b610c9e906008610c0a565b90610ca882610c34565b811015610ce057610cb891610c4a565b50610cc45f8201610844565b91610cdd6002610cd66001850161070d565b9301610c86565b90565b5f80fd5b604090610d0d610d149496959396610d0360608401985f8501906109a2565b6020830190610422565b01906109b4565b565b34610d4a57610d46610d32610d2c366004610acd565b90610c93565b610d3d939193610162565b93849384610ce4565b0390f35b610168565b60e081830312610dba57610d65825f830161018b565b92610d73836020840161018b565b92610d81816040850161018b565b92610d8f826060830161018b565b92610db7610da0846080850161018b565b93610dae8160a08601610306565b9360c00161018b565b90565b61016c565b34610df457610dde610dd2366004610d4f565b9594909493919361340e565b610de6610162565b80610df0816101b8565b0390f35b610168565b34610e2757610e11610e0c36600461019a565b6138b8565b610e19610162565b80610e23816101b8565b0390f35b610168565b34610e5a57610e44610e3f36600461019a565b613b9a565b610e4c610162565b80610e56816101b8565b0390f35b610168565b34610e8f57610e8b610e7a610e7536600461019a565b613dda565b610e82610162565b9182918261042f565b0390f35b610168565b34610ec257610eac610ea736600461019a565b613f3f565b610eb4610162565b80610ebe816101b8565b0390f35b610168565b34610ef757610ef3610ee2610edd36600461019a565b61418f565b610eea610162565b9182918261042f565b0390f35b610168565b90565b610f13610f0e610f1892610efc565b6104ee565b610174565b90565b610f25600a610eff565b90565b610f30610f1b565b90565b34610f6357610f433660046103d7565b610f5f610f4e610f28565b610f56610162565b9182918261042f565b0390f35b610168565b610f7b610f7636600461019a565b61454c565b610f83610162565b80610f8d816101b8565b0390f35b5f80fd5b90565b5f7f41756374696f6e206e6f7420656e646564000000000000000000000000000000910152565b610fcc601160209261095d565b610fd581610f98565b0190565b610fee9060208101905f818303910152610fbf565b90565b15610ff857565b611000610162565b62461bcd60e51b81528061101660048201610fd9565b0390fd5b90565b61103161102c6110369261101a565b6104ee565b6102db565b90565b6110429061101d565b90565b5f7f57696e6e6572206d75737420636c61696d206669727374000000000000000000910152565b611079601760209261095d565b61108281611045565b0190565b61109b9060208101905f81830391015261106c565b90565b156110a557565b6110ad610162565b62461bcd60e51b8152806110c360048201611086565b0390fd5b6110db6110d66110e09261101a565b6104ee565b610174565b90565b60016110ef9101610174565b90565b5490565b5f5260205f2090565b611108816110f2565b8210156111225761111a6001916110f6565b910201905f90565b610c20565b61113790600861113c93026103e6565b610825565b90565b9061114a9154611127565b90565b6111569061050d565b90565b906111639061114d565b5f5260205260405f2090565b5f1b90565b906111805f199161116f565b9181191691161790565b90565b906111a261119d6111a9926106c2565b61118a565b8254611174565b9055565b6111b6906104f1565b90565b6111c2906111ad565b90565b6111ce9061050d565b90565b5f80fd5b60e01b90565b6111e4816109af565b036111eb57565b5f80fd5b905051906111fc826111db565b565b9060208282031261121757611214915f016111ef565b90565b61016c565b91602061123d92949361123660408201965f8301906109a2565b0190610422565b565b611247610162565b3d5f823e3d90fd5b905090565b61125f5f809261124f565b0190565b61126c90611254565b90565b67ffffffffffffffff811161128d576112896020916101f8565b0190565b610202565b906112a461129f8361126f565b61023f565b918252565b606090565b3d5f146112c9576112be3d611292565b903d5f602084013e5b565b6112d16112a9565b906112c7565b906112ec6112e7600784906106de565b610f95565b6113006112fb60078301610898565b610ff1565b61132f61130f60088301610844565b61132961132361131e5f611039565b6102e6565b916102e6565b1461109e565b6113385f6110c7565b5b8061135761135161134c600c86016110f2565b610174565b91610174565b101561155f5761137461136e600c840183906110ff565b9061113f565b9061138b611386600b85018490611159565b61070d565b8061139e6113985f6110c7565b91610174565b116113b4575b506113af91506110e3565b611339565b6113d36113c05f6110c7565b6113ce600b87018690611159565b61118d565b6113df60078501610844565b6113f96113f36113ee5f611039565b6102e6565b916102e6565b145f1461148157825f806113af9584611410610162565b908161141b81611263565b03925af16114276112ae565b50611436575b50505b5f6113a4565b8690916114627e83f3d3d0a8132e9bf23ae6cde659d5f3963a6973816e144f05bfccef184279926106c2565b9261147761146e610162565b9283928361121c565b0390a25f8061142d565b61149d61149861149360078701610844565b6111b9565b6111c5565b92602063a9059cbb9482906114c55f86986114d06114b9610162565b9a8b96879586946111d5565b84526004840161121c565b03925af193841561155a576113af9461152e575b508690916115117e83f3d3d0a8132e9bf23ae6cde659d5f3963a6973816e144f05bfccef184279926106c2565b9261152661151d610162565b9283928361121c565b0390a2611430565b61154e9060203d8111611553575b6115468183610216565b8101906111fe565b6114e4565b503d61153c565b61123f565b50509061158c7fe2928eb6c6a4f3935686002541e0049d4666c6f79d70708f83dc6d916e1d6cd4916106c2565b90611595610162565b8061159f816101b8565b0390a2565b6115b06115b5916106f4565b610b24565b90565b6115c290546115a4565b90565b6115da9160208201915f818403910152610971565b90565b5f7f4272616e64206973206e6f742061637469766500000000000000000000000000910152565b611611601360209261095d565b61161a816115dd565b0190565b6116339060208101905f818303910152611604565b90565b1561163d57565b611645610162565b62461bcd60e51b81528061165b6004820161161e565b0390fd5b906116a496959493929160208161167d6116785f6115b8565b610b63565b61169963ce69834061168d610162565b9c8d94859384936111d5565b8352600483016115c5565b03915afa9788156116f9576116c9986116c4915f916116cb575b50611636565b611f07565b565b6116ec915060203d81116116f2575b6116e48183610216565b8101906111fe565b5f6116be565b503d6116da565b61123f565b5f7f53746172742074696d65206d75737420626520696e2074686520667574757265910152565b6117316020809261095d565b61173a816116fe565b0190565b6117539060208101905f818303910152611725565b90565b1561175d57565b611765610162565b62461bcd60e51b81528061177b6004820161173e565b0390fd5b60207f6500000000000000000000000000000000000000000000000000000000000000917f456e642074696d65206d7573742062652061667465722073746172742074696d5f8201520152565b6117d9602160409261095d565b6117e28161177f565b0190565b6117fb9060208101905f8183039101526117cc565b90565b1561180557565b61180d610162565b62461bcd60e51b815280611823600482016117e6565b0390fd5b5f7f496e697469616c20626964206d75737420626520706f73697469766500000000910152565b61185b601c60209261095d565b61186481611827565b0190565b61187d9060208101905f81830391015261184e565b90565b1561188757565b61188f610162565b62461bcd60e51b8152806118a560048201611868565b0390fd5b60207f6e697469616c2062696400000000000000000000000000000000000000000000917f5468726573686f6c64206d7573742062652067726561746572207468616e20695f8201520152565b611903602a60409261095d565b61190c816118a9565b0190565b6119259060208101905f8183039101526118f6565b90565b1561192f57565b611937610162565b62461bcd60e51b81528061194d60048201611910565b0390fd5b61195d611962916106f4565b6104ae565b90565b61196f9054611951565b90565b9050519061197f826102f2565b565b9060208282031261199a57611997915f01611972565b90565b61016c565b5f7f4e6f74204e4654206f776e657200000000000000000000000000000000000000910152565b6119d3600d60209261095d565b6119dc8161199f565b0190565b6119f59060208101905f8183039101526119c6565b90565b156119ff57565b611a07610162565b62461bcd60e51b815280611a1d600482016119e0565b0390fd5b90929192611a36611a3182610254565b61023f565b93818552602085019082840111611a5257611a5092610966565b565b6101f4565b9080601f83011215611a7557816020611a7293519101611a21565b90565b6101f0565b90602082820312611aaa575f82015167ffffffffffffffff8111611aa557611aa29201611a57565b90565b610170565b61016c565b90565b60200190565b5190565b90565b5f7f4e4654206e6f74206f66206272616e6400000000000000000000000000000000910152565b611af3601060209261095d565b611afc81611abf565b0190565b611b159060208101905f818303910152611ae6565b90565b15611b1f57565b611b27610162565b62461bcd60e51b815280611b3d60048201611b00565b0390fd5b5f7f4e4654206973206c6f636b656400000000000000000000000000000000000000910152565b611b75600d60209261095d565b611b7e81611b41565b0190565b611b979060208101905f818303910152611b68565b90565b15611ba157565b611ba9610162565b62461bcd60e51b815280611bbf60048201611b82565b0390fd5b634e487b7160e01b5f52601160045260245ffd5b611be090610174565b5f198114611bee5760010190565b611bc3565b634e487b7160e01b5f525f60045260245ffd5b601f602091010490565b1b90565b91906008611c2f910291611c295f1984611c10565b92611c10565b9181191691161790565b9190611c4f611c4a611c57936106c2565b61118a565b908354611c14565b9055565b5f90565b611c7191611c6b611c5b565b91611c39565b565b5b818110611c7f575050565b80611c8c5f600193611c5f565b01611c74565b9190601f8111611ca2575b505050565b611cae611cd393610761565b906020611cba84611c06565b83019310611cdb575b611ccc90611c06565b0190611c73565b5f8080611c9d565b9150611ccc81929050611cc3565b90611cf9905f19906008026103e6565b191690565b81611d0891611ce9565b906002021790565b90611d1a81610959565b9067ffffffffffffffff8211611dda57611d3e82611d38855461072e565b85611c92565b602090601f8311600114611d7257918091611d61935f92611d66575b5050611cfe565b90555b565b90915001515f80611d5a565b601f19831691611d8185610761565b925f5b818110611dc257509160029391856001969410611da8575b50505002019055611d64565b611db8910151601f841690611ce9565b90555f8080611d9c565b91936020600181928787015181550195019201611d84565b610202565b90611de991611d10565b565b90611dfc60018060a01b039161116f565b9181191691161790565b90565b90611e1e611e19611e259261114d565b611e06565b8254611deb565b9055565b60a01b90565b90611e3e60ff60a01b91611e29565b9181191691161790565b611e51906109af565b90565b90565b90611e6c611e67611e7392611e48565b611e54565b8254611e2f565b9055565b60a81b90565b90611e8c60ff60a81b91611e77565b9181191691161790565b90611eab611ea6611eb292611e48565b611e54565b8254611e7d565b9055565b90611f0594611ef4608094989795611eea611edf611efe9560a08801908882035f8a0152610971565b9a6020870190610422565b6040850190610422565b6060830190610422565b0190610422565b565b94611fc190969294919396611f2f85611f28611f2242610174565b91610174565b1015611756565b611f4b86611f45611f3f88610174565b91610174565b116117fe565b611f6788611f61611f5b5f6110c7565b91610174565b11611880565b611f8383611f7d611f778b610174565b91610174565b11611928565b6020611f97611f926002611965565b610519565b636352211e90611fb68792611faa610162565b968794859384936111d5565b83526004830161042f565b03915afa9182156122d15761203192611ff4915f916122a3575b50611fee611fe8336102e6565b916102e6565b146119f8565b5f6120076120026002611965565b610519565b6379a7304c90612026879261201a610162565b968794859384936111d5565b83526004830161042f565b03915afa801561229e57612053612099916120d7945f9161227c575b50611aaf565b61206561205f82611ab8565b91611ab2565b2061209361208d6120758b611aaf565b61208761208182611ab8565b91611ab2565b20611abc565b91611abc565b14611b18565b60206120ad6120a86002611965565b610519565b63276a28a3906120cc87926120c0610162565b968794859384936111d5565b83526004830161042f565b03915afa91821561227757612244946121066121016121fa95600a945f91612249575b50156109af565b611b9a565b61212261211b612116600161070d565b611bd7565b600161118d565b6121af61214261213d6007612137600161070d565b906106de565b610f95565b93612158612150600161070d565b5f870161118d565b6121658b60018701611ddf565b6121723360028701611e09565b61217f896003870161118d565b61218c8a6004870161118d565b6121998c6005870161118d565b6121a6876006870161118d565b60078501611e09565b6121bc5f60078501611e57565b6121c95f60078501611e96565b6121de6121d55f611039565b60088501611e09565b6121f36121ea5f6110c7565b6009850161118d565b910161118d565b612204600161070d565b949293956122327fe2f75a8b2134b1f73d45f0b58bc713c6f20c0b7fb6043d0047712d549632c54e966106c2565b9661223b610162565b95869586611eb6565b0390a2565b61226a915060203d8111612270575b6122628183610216565b8101906111fe565b5f6120fa565b503d612258565b61123f565b61229891503d805f833e6122908183610216565b810190611a7a565b5f61204d565b61123f565b6122c4915060203d81116122ca575b6122bc8183610216565b810190611981565b5f611fdb565b503d6122b2565b61123f565b906122e596959493929161165f565b565b6122f36122f8916106f4565b61061f565b90565b61230590546122e7565b90565b612311906104f1565b90565b61231d90612308565b90565b6123299061050d565b90565b5f80fd5b9050519061233d82610177565b565b919060808382031261239d5761239690612359608061023f565b93612366825f8301612330565b5f8601526123778260208301612330565b60208601526123898260408301612330565b60408601526060016111ef565b6060830152565b61232c565b906080828203126123bb576123b8915f0161233f565b90565b61016c565b6123ca90516109af565b90565b5f7f4e6f2076616c6964207072696365000000000000000000000000000000000000910152565b612401600e60209261095d565b61240a816123cd565b0190565b6124239060208101905f8183039101526123f4565b90565b1561242d57565b612435610162565b62461bcd60e51b81528061244b6004820161240e565b0390fd5b6124599051610174565b90565b5f6124a391612469611c5b565b5061247c6124776002611965565b610519565b6124986379a7304c61248c610162565b958694859384936111d5565b83526004830161042f565b03915afa908115612604576124f6916020915f916125e2575b506124cf6124ca60036122fb565b61065f565b6124eb63aa0e36566124df610162565b958694859384936111d5565b8352600483016115c5565b03915afa9081156125dd5761252061251b612536936080935f916125af575b50612314565b612320565b638e15f4739061252e610162565b9384926111d5565b82528180612546600482016101b8565b03915afa9081156125aa57612579915f91829161257c575b5061257361256e606083016123c0565b612426565b0161244f565b90565b61259d915060803d81116125a3575b6125958183610216565b8101906123a2565b5f61255e565b503d61258b565b61123f565b6125d0915060203d81116125d6575b6125c88183610216565b810190611981565b5f612515565b503d6125be565b61123f565b6125fe91503d805f833e6125f68183610216565b810190611a7a565b5f6124bc565b61123f565b5f7f41756374696f6e206e6f74207374617274656400000000000000000000000000910152565b61263d601360209261095d565b61264681612609565b0190565b61265f9060208101905f818303910152612630565b90565b1561266957565b612671610162565b62461bcd60e51b8152806126876004820161264a565b0390fd5b5f7f41756374696f6e20656e64656400000000000000000000000000000000000000910152565b6126bf600d60209261095d565b6126c88161268b565b0190565b6126e19060208101905f8183039101526126b2565b90565b156126eb57565b6126f3610162565b62461bcd60e51b815280612709600482016126cc565b0390fd5b5f7f41756374696f6e20616c726561647920656e6465640000000000000000000000910152565b612741601560209261095d565b61274a8161270d565b0190565b6127639060208101905f818303910152612734565b90565b1561276d57565b612775610162565b62461bcd60e51b81528061278b6004820161274e565b0390fd5b90565b6127a66127a16127ab9261278f565b6104ee565b610174565b90565b6127bd6127c391939293610174565b92610174565b82039182116127ce57565b611bc3565b6127e26127e891939293610174565b92610174565b82018092116127f357565b611bc3565b5f7f42696420746f6f206c6f77000000000000000000000000000000000000000000910152565b61282c600b60209261095d565b612835816127f8565b0190565b61284e9060208101905f81830391015261281f565b90565b1561285857565b612860610162565b62461bcd60e51b81528061287660048201612839565b0390fd5b5f7f446f206e6f742073656e6420455448206265666f7265207468726573686f6c64910152565b6128ad6020809261095d565b6128b68161287a565b0190565b6128cf9060208101905f8183039101526128a1565b90565b156128d957565b6128e1610162565b62461bcd60e51b8152806128f7600482016128ba565b0390fd5b61290a61291091939293610174565b92610174565b9161291c838202610174565b92818404149015171561292b57565b611bc3565b90565b61294761294261294c92612930565b6104ee565b610174565b90565b634e487b7160e01b5f52601260045260245ffd5b61296f61297591610174565b91610174565b908115612980570490565b61294f565b60207f4800000000000000000000000000000000000000000000000000000000000000917f53656e6420636f6c6c61746572616c20696e20746f6b656e2c206e6f742045545f8201520152565b6129df602160409261095d565b6129e881612985565b0190565b612a019060208101905f8183039101526129d2565b90565b15612a0b57565b612a13610162565b62461bcd60e51b815280612a29600482016129ec565b0390fd5b612a369061050d565b90565b604090612a62612a699496959396612a5860608401985f8501906109a2565b60208301906109a2565b0190610422565b565b5f7f496e73756666696369656e742045544820636f6c6c61746572616c0000000000910152565b612a9f601b60209261095d565b612aa881612a6b565b0190565b612ac19060208101905f818303910152612a92565b90565b15612acb57565b612ad3610162565b62461bcd60e51b815280612ae960048201612aac565b0390fd5b90565b5f5260205f2090565b5490565b612b0681612af9565b821015612b2057612b18600191612af0565b910201905f90565b610c20565b91906008612b45910291612b3f60018060a01b0384611c10565b92611c10565b9181191691161790565b9190612b65612b60612b6d9361114d565b611e06565b908354612b25565b9055565b9081549168010000000000000000831015612ba15782612b99916001612b9f95018155612afd565b90612b4f565b565b610202565b90565b612bb3606061023f565b90565b90612bc0906102e6565b9052565b90612bce90610174565b9052565b90612bdc906109af565b9052565b5f5260205f2090565b5490565b612bf681612be9565b821015612c1057612c08600391612be0565b910201905f90565b610c20565b612c1f90516102e6565b90565b90612c2e60ff9161116f565b9181191691161790565b90612c4d612c48612c5492611e48565b611e54565b8254612c22565b9055565b90612c9c60406002612ca294612c7b5f8201612c755f8801612c15565b90611e09565b612c9460018201612c8e6020880161244f565b9061118d565b0192016123c0565b90612c38565b565b9190612cb557612cb391612c58565b565b611bf3565b9081549168010000000000000000831015612cea5782612ce2916001612ce895018155612bed565b90612ca4565b565b610202565b916020612d10929493612d0960408201965f830190610422565b01906109b4565b565b612d26612d21600783906106de565b610f95565b91612d4f42612d48612d42612d3d6003880161070d565b610174565b91610174565b1015612662565b612d7642612d70612d6a612d656004880161070d565b610174565b91610174565b106126e4565b612d93612d8e612d8860078601610898565b156109af565b612766565b612deb612daa612da560088590610c0a565b610c34565b612db66005860161070d565b9080612dca612dc45f6110c7565b91610174565b1161318c575b50612de4612dde8492610174565b91610174565b1015612851565b5f612e01612dfb60078601610871565b156109af565b80613166575b613112575b612e1860078501610871565b5f146130ee5750612e44612e3482612e2e610f1b565b906128fb565b612e3e6064612933565b90612963565b612e5060078501610844565b612e6a612e64612e5f5f611039565b6102e6565b916102e6565b145f1461300957612e8f90612e88612e823492610174565b91610174565b1015612ac4565b612eb934612eb3612ea4600b87013390611159565b91612eae8361070d565b6127d3565b9061118d565b5b6001915f93612ec85f6110c7565b5b80612ee7612ee1612edc600c86016110f2565b610174565b91610174565b1015612ffb57612f04612efe600c840183906110ff565b9061113f565b612f16612f10336102e6565b916102e6565b14612f2957612f24906110e3565b612ec9565b509091929350612f3b60015b156109af565b612fdf575b505b612f8f612f59612f5460088490610c0a565b612ba6565b3390612f8a85612f818891612f78612f6f612ba9565b965f8801612bb6565b60208601612bc4565b60408401612bd2565b612cba565b339192612fc5612fbf7f8f06251a01f1c60f43d914574d31d4eb5be776df9d23e7f94e7c07c578b9753d936106c2565b9361114d565b93612fda612fd1610162565b92839283612cef565b0390a3565b612fee600c612ff59201612aed565b3390612b71565b5f612f40565b5090919293612f3b90612f35565b6130253461301f6130195f6110c7565b91610174565b14612a04565b61304161303c61303760078701610844565b6111b9565b6111c5565b9060206323b872dd9233906130725f61305930612a2d565b9661307d87613066610162565b998a97889687956111d5565b855260048501612a39565b03925af19182156130e9576130b8926130bd575b506130b26130a3600b87013390611159565b916130ad8361070d565b6127d3565b9061118d565b612eba565b6130dd9060203d81116130e2575b6130d58183610216565b8101906111fe565b613091565b503d6130cb565b61123f565b92509061310d346131076131015f6110c7565b91610174565b146128d2565b612f42565b613120600160078601611e57565b8261314b7f78e5a77f9f20d8d96a78ff9fbe09d607bf641315b8965893038e859f91651c71916106c2565b90613154610162565b8061315e816101b8565b0390a2612e0c565b508161318561317f61317a6006880161070d565b610174565b91610174565b1015612e07565b6131d6915060016131bf6131c6926131b96131a960088a90610c0a565b916131b385612792565b906127ae565b90610c4a565b500161070d565b6131d06001612792565b906127d3565b5f612dd0565b5f7f4f6e6c792063726561746f722063616e20757064617465000000000000000000910152565b613210601760209261095d565b613219816131dc565b0190565b6132329060208101905f818303910152613203565b90565b1561323c57565b613244610162565b62461bcd60e51b81528061325a6004820161321d565b0390fd5b5f7f41756374696f6e20737461727465640000000000000000000000000000000000910152565b613292600f60209261095d565b61329b8161325e565b0190565b6132b49060208101905f818303910152613285565b90565b156132be57565b6132c6610162565b62461bcd60e51b8152806132dc6004820161329f565b0390fd5b90565b60209181520190565b905f92918054906133066132ff8361072e565b80946132e3565b916001811690815f1461335d5750600114613321575b505050565b61332e9192939450610c41565b915f925b81841061334557505001905f808061331c565b60018160209295939554848601520191019290613332565b92949550505060ff19168252151560200201905f808061331c565b90613382916132ec565b90565b906133a561339e92613395610162565b93848092613378565b0383610216565b565b6133b090613385565b90565b91946133fb613405929897956133f160a0966133e761340c9a6133dd60c08a019e5f8b0190610422565b6020890190610422565b6040870190610422565b6060850190610422565b60808301906109a2565b0190610422565b565b91929395949094613429613424600785906106de565b610f95565b926134513361344b61344561344060028901610844565b6102e6565b916102e6565b14613235565b6134794261347261346c6134676003890161070d565b610174565b91610174565b11156132b7565b61349661349161348b60078701610898565b156109af565b612766565b6134b3876134ac6134a642610174565b91610174565b1015611756565b6134cf856134c96134c38a610174565b91610174565b116117fe565b6134eb866134e56134df5f6110c7565b91610174565b11611880565b613507886135016134fb89610174565b91610174565b11611928565b613548602061351e6135196002611965565b610519565b636352211e9061353d8692613531610162565b958694859384936111d5565b83526004830161042f565b03915afa80156137af57613576915f91613781575b5061357061356a336102e6565b916102e6565b146119f8565b6135b65f61358c6135876002611965565b610519565b6379a7304c906135ab869261359f610162565b958694859384936111d5565b83526004830161042f565b03915afa90811561377c57613627916135d6915f9161375a575b50611aaf565b6135e86135e282611ab8565b91611ab2565b2061362161361b6136036135fe60018a016132e0565b6133a7565b61361561360f82611ab8565b91611ab2565b20611abc565b91611abc565b14611b18565b613668602061363e6136396002611965565b610519565b63276a28a39061365d8692613651610162565b958694859384936111d5565b83526004830161042f565b03915afa9485156137555761369461368f613722976136df945f91613727575b50156109af565b611b9a565b6136a1896003830161118d565b6136ae876004830161118d565b6136bb886005830161118d565b6136c88a6006830161118d565b6136d58560078301611e09565b600a84910161118d565b959394969190916137107f2a42e840496defdf07808cde78ea595cf0344f052708cbfaf58d6d194fdef52f976106c2565b97613719610162565b968796876133b3565b0390a2565b613748915060203d811161374e575b6137408183610216565b8101906111fe565b5f613688565b503d613736565b61123f565b61377691503d805f833e61376e8183610216565b810190611a7a565b5f6135d0565b61123f565b6137a2915060203d81116137a8575b61379a8183610216565b810190611981565b5f61355d565b503d613790565b61123f565b5f7f4e6f207374616b6520746f20636c61696d000000000000000000000000000000910152565b6137e8601160209261095d565b6137f1816137b4565b0190565b61380a9060208101905f8183039101526137db565b90565b1561381457565b61381c610162565b62461bcd60e51b815280613832600482016137f5565b0390fd5b5f7f4661696c656420746f2073656e64204554480000000000000000000000000000910152565b61386a601260209261095d565b61387381613836565b0190565b61388c9060208101905f81830391015261385d565b90565b1561389657565b61389e610162565b62461bcd60e51b8152806138b460048201613877565b0390fd5b6138cc6138c7600783906106de565b610f95565b906138e16138dc60078401610898565b610ff1565b6139106138f060088401610844565b61390a6139046138ff5f611039565b6102e6565b916102e6565b1461109e565b613926613921600b84013390611159565b61070d565b916139438361393d6139375f6110c7565b91610174565b1161380d565b61396261394f5f6110c7565b61395d600b84013390611159565b61118d565b61396e60078201610844565b61398861398261397d5f611039565b6102e6565b916102e6565b145f14613a0257506139bc5f80338561399f610162565b90816139aa81611263565b03925af16139b66112ae565b5061388f565b5b33916139e87e83f3d3d0a8132e9bf23ae6cde659d5f3963a6973816e144f05bfccef184279926106c2565b926139fd6139f4610162565b9283928361121c565b0390a2565b613a19613a146007613a1e9301610844565b6111b9565b6111c5565b602063a9059cbb913390613a455f8795613a50613a39610162565b978896879586946111d5565b84526004840161121c565b03925af18015613a9157613a65575b506139bd565b613a859060203d8111613a8a575b613a7d8183610216565b8101906111fe565b613a5f565b503d613a73565b61123f565b5f7f4f6e6c792063726561746f722063616e2063616e63656c000000000000000000910152565b613aca601760209261095d565b613ad381613a96565b0190565b613aec9060208101905f818303910152613abd565b90565b15613af657565b613afe610162565b62461bcd60e51b815280613b1460048201613ad7565b0390fd5b5f7f41756374696f6e20207374617274656400000000000000000000000000000000910152565b613b4c601060209261095d565b613b5581613b18565b0190565b613b6e9060208101905f818303910152613b3f565b90565b15613b7857565b613b80610162565b62461bcd60e51b815280613b9660048201613b59565b0390fd5b613bb0613bab613c279260076106de565b610f95565b613bd733613bd1613bcb613bc660028601610844565b6102e6565b916102e6565b14613aef565b613bff42613bf8613bf2613bed6003860161070d565b610174565b91610174565b1115613b71565b613c1c613c17613c1160078401610898565b156109af565b612766565b600760019101611e96565b613c2f611c5b565b50565b613c3e613c43916106f4565b61057c565b90565b613c509054613c32565b90565b69ffffffffffffffffffff1690565b613c6b81613c53565b03613c7257565b5f80fd5b90505190613c8382613c62565b565b90565b613c9181613c85565b03613c9857565b5f80fd5b90505190613ca982613c88565b565b919060a083820312613cfc57613cc3815f8501613c76565b92613cd18260208301613c9c565b92613cf9613ce28460408501612330565b93613cf08160608601612330565b93608001613c76565b90565b61016c565b613d15613d10613d1a9261101a565b6104ee565b613c85565b90565b5f7f496e76616c696420555344432f55534420707269636500000000000000000000910152565b613d51601660209261095d565b613d5a81613d1d565b0190565b613d739060208101905f818303910152613d44565b90565b15613d7d57565b613d85610162565b62461bcd60e51b815280613d9b60048201613d5e565b0390fd5b90565b613db6613db1613dbb92613d9f565b6104ee565b610174565b90565b613dd2613dcd613dd792613c85565b6104ee565b610174565b90565b613def613e1991613de9611c5b565b5061245c565b60a0613e03613dfe6005613c46565b6105bc565b63feaf968c90613e11610162565b9485926111d5565b82528180613e29600482016101b8565b03915afa8015613eb857613e78613e7e91613e84945f80929050613e87575b5092613e6684613e60613e5a5f613d01565b91613c85565b13613d76565b613e72620f4240613da2565b906128fb565b91613dbe565b90612963565b90565b613ea8915060a03d8111613eb1575b613ea08183610216565b810190613cab565b50505090613e48565b503d613e96565b61123f565b5f7f41756374696f6e206e6f7420656e646564207965740000000000000000000000910152565b613ef1601560209261095d565b613efa81613ebd565b0190565b613f139060208101905f818303910152613ee4565b90565b15613f1d57565b613f25610162565b62461bcd60e51b815280613f3b60048201613efe565b0390fd5b613f53613f4e600783906106de565b610f95565b90613f7c42613f75613f6f613f6a6004870161070d565b610174565b91610174565b1015613f16565b613f99613f94613f8e60078501610898565b156109af565b612766565b613fa7600160078401611e96565b613fb05f6110c7565b613fb95f611039565b613fc25f6110c7565b5b80613fe9613fe3613fde613fd960088990610c0a565b610c34565b610174565b91610174565b101561408957614011600161400a61400360088890610c0a565b8490610c4a565b500161070d565b61402361401d85610174565b91610174565b11614037575b614032906110e3565b613fc3565b91505061405c600161405561404e60088690610c0a565b8490610c4a565b500161070d565b906140326140815f61407a61407360088890610c0a565b8590610c4a565b5001610844565b919050614029565b509190926140a89061409e8460088301611e09565b600985910161118d565b90916140d47fd2aa34a4fdbbc6dff6a3e56f46e0f3ae2a31d7785ff3487aa5c95c642acea501926106c2565b926140e96140e0610162565b9283928361121c565b0390a2565b5f7f496e76616c6964204554482f5553442070726963650000000000000000000000910152565b614122601560209261095d565b61412b816140ee565b0190565b6141449060208101905f818303910152614115565b90565b1561414e57565b614156610162565b62461bcd60e51b81528061416c6004820161412f565b0390fd5b90565b61418761418261418c92614170565b6104ee565b610174565b90565b6141a46141ce9161419e611c5b565b5061245c565b60a06141b86141b36004613c46565b6105bc565b63feaf968c906141c6610162565b9485926111d5565b825281806141de600482016101b8565b03915afa8015614272576142326142389161423e945f80929050614241575b509261421b8461421561420f5f613d01565b91613c85565b13614147565b61422c670de0b6b3a7640000614173565b906128fb565b91613dbe565b90612963565b90565b614262915060a03d811161426b575b61425a8183610216565b810190613cab565b505050906141fd565b503d614250565b61123f565b5f7f4e6f742077696e6e657200000000000000000000000000000000000000000000910152565b6142ab600a60209261095d565b6142b481614277565b0190565b6142cd9060208101905f81830391015261429e565b90565b156142d757565b6142df610162565b62461bcd60e51b8152806142f5600482016142b8565b0390fd5b5f7f4e6f2077696e6e6572206465636c617265640000000000000000000000000000910152565b61432d601260209261095d565b614336816142f9565b0190565b61434f9060208101905f818303910152614320565b90565b1561435957565b614361610162565b62461bcd60e51b8152806143776004820161433a565b0390fd5b906143859061114d565b5f5260205260405f2090565b5f7f616c726561647920726563656976656400000000000000000000000000000000910152565b6143c5601060209261095d565b6143ce81614391565b0190565b6143e79060208101905f8183039101526143b8565b90565b156143f157565b6143f9610162565b62461bcd60e51b81528061440f600482016143d2565b0390fd5b60207f6e00000000000000000000000000000000000000000000000000000000000000917f446f206e6f742073656e642045544820666f7220746f6b656e2061756374696f5f8201520152565b61446d602160409261095d565b61447681614413565b0190565b61448f9060208101905f818303910152614460565b90565b1561449957565b6144a1610162565b62461bcd60e51b8152806144b76004820161447a565b0390fd5b5f7f496e73756666696369656e7420455448207061796d656e740000000000000000910152565b6144ef601860209261095d565b6144f8816144bb565b0190565b6145119060208101905f8183039101526144e2565b90565b1561451b57565b614523610162565b62461bcd60e51b815280614539600482016144fc565b0390fd5b5f91031261454757565b61016c565b61455a61455f9160076106de565b610f95565b61457361456e60078301610898565b610ff1565b61459a3361459461458e61458960088601610844565b6102e6565b916102e6565b146142d0565b6145ca6145a960088301610844565b6145c36145bd6145b85f611039565b6102e6565b916102e6565b1415614352565b6145ef6145ea6145e46145df6006339061437b565b610c86565b156109af565b6143ea565b6145fb60078201610844565b61461561460f61460a5f611039565b6102e6565b916102e6565b145f14614706576146443461463d6146376146326009860161070d565b610174565b91610174565b1015614514565b5b61465b60016146566006339061437b565b612c38565b61466d6146686002611965565b610519565b6323b872dd9061467f60028401610844565b9061468d600a33950161070d565b92813b15614701575f6146b3916146be82966146a7610162565b988997889687956111d5565b855260048501612a39565b03925af180156146fc576146d0575b50565b6146ef905f3d81116146f5575b6146e78183610216565b81019061453d565b5f6146cd565b503d6146dd565b61123f565b6111d1565b6147223461471c6147165f6110c7565b91610174565b14614492565b61473e61473961473460078401610844565b6111b9565b6111c5565b60206323b872dd91339061477c5f61475860028801610844565b9561478761476860098a0161070d565b614770610162565b988997889687956111d5565b855260048501612a39565b03925af180156147c85761479c575b50614645565b6147bc9060203d81116147c1575b6147b48183610216565b8101906111fe565b614796565b503d6147aa565b61123f56fea2646970667358221220fb3a7debe5129ffa32bb61bc3401c9b2a7eaf8bb5b287a8dd7c7d4da6bf8168664736f6c634300081c0033",
    "linkReferences": {}
  },
  "methodIdentifiers": {
    "COLLATERAL_PERCENT()": "e0b2d4af",
    "auctionBids(uint256,uint256)": "5f93de49",
    "auctionCount()": "2ad71573",
    "auctions(uint256)": "571a26a0",
    "cancelAuction(uint256)": "96b5a755",
    "carRegistry()": "58685ddb",
    "claimMyStake(uint256)": "8665b745",
    "claimWin(uint256)": "ee0144ab",
    "createAuction(string,uint256,uint256,uint256,uint256,address,uint256)": "2666939c",
    "endAuction(uint256)": "b9a2de3a",
    "ethUsdPriceFeed()": "42f6fb29",
    "getNftPriceInETH(uint256)": "cbe02443",
    "getNftPriceInUSD(uint256)": "30b92183",
    "getNftPriceInUSDC(uint256)": "b0bbd44f",
    "oracleMaster()": "4e542d9e",
    "placeBid(uint256,uint256)": "57c90de5",
    "returnStakes(uint256)": "1a787d7e",
    "updateAuctionInfo(uint256,uint256,uint256,uint256,uint256,address,uint256)": "7adbbb88",
    "usdcUsdPriceFeed()": "5e49ff39",
    "zeroNFT()": "3442651b"
  },
  "id": 88
}