{"abi":[{"type":"constructor","inputs":[{"name":"_globalPermissionManager","type":"address","internalType":"address"}],"stateMutability":"nonpayable"},{"type":"function","name":"LOCKBRAND","inputs":[],"outputs":[{"name":"","type":"bytes4","internalType":"bytes4"}],"stateMutability":"view"},{"type":"function","name":"UNLOCKBRAND","inputs":[],"outputs":[{"name":"","type":"bytes4","internalType":"bytes4"}],"stateMutability":"view"},{"type":"function","name":"UPDATESTATE","inputs":[],"outputs":[{"name":"","type":"bytes4","internalType":"bytes4"}],"stateMutability":"view"},{"type":"function","name":"create","inputs":[{"name":"_brand","type":"string","internalType":"string"},{"name":"_state","type":"string","internalType":"string"},{"name":"_chainFunction","type":"address","internalType":"address"},{"name":"_ccip","type":"address","internalType":"address"},{"name":"_merkleVerifier","type":"address","internalType":"address"},{"name":"_brandP","type":"address","internalType":"address"},{"name":"_oracle","type":"address","internalType":"address"},{"name":"_syncer","type":"address","internalType":"address"},{"name":"_url","type":"string","internalType":"string"}],"outputs":[],"stateMutability":"nonpayable"},{"type":"function","name":"getProfile","inputs":[{"name":"_brand","type":"string","internalType":"string"}],"outputs":[{"name":"","type":"tuple","internalType":"struct Profile.BrandProfile","components":[{"name":"brand","type":"string","internalType":"string"},{"name":"lastUpdated","type":"uint256","internalType":"uint256"},{"name":"state","type":"string","internalType":"string"},{"name":"chainFunction","type":"address","internalType":"address"},{"name":"ccip","type":"address","internalType":"address"},{"name":"merkleVerifier","type":"address","internalType":"address"},{"name":"locked","type":"bool","internalType":"bool"},{"name":"brandPermission","type":"address","internalType":"address"},{"name":"oracle","type":"address","internalType":"address"},{"name":"syncer","type":"address","internalType":"address"},{"name":"url","type":"string","internalType":"string"}]}],"stateMutability":"view"},{"type":"function","name":"globalPermissionManager","inputs":[],"outputs":[{"name":"","type":"address","internalType":"address"}],"stateMutability":"view"},{"type":"function","name":"lockBrand","inputs":[{"name":"_brand","type":"string","internalType":"string"}],"outputs":[],"stateMutability":"nonpayable"},{"type":"function","name":"permissionManagerImplementation","inputs":[],"outputs":[{"name":"","type":"address","internalType":"address"}],"stateMutability":"view"},{"type":"function","name":"profile","inputs":[{"name":"","type":"string","internalType":"string"}],"outputs":[{"name":"brand","type":"string","internalType":"string"},{"name":"lastUpdated","type":"uint256","internalType":"uint256"},{"name":"state","type":"string","internalType":"string"},{"name":"chainFunction","type":"address","internalType":"address"},{"name":"ccip","type":"address","internalType":"address"},{"name":"merkleVerifier","type":"address","internalType":"address"},{"name":"locked","type":"bool","internalType":"bool"},{"name":"brandPermission","type":"address","internalType":"address"},{"name":"oracle","type":"address","internalType":"address"},{"name":"syncer","type":"address","internalType":"address"},{"name":"url","type":"string","internalType":"string"}],"stateMutability":"view"},{"type":"function","name":"setRegistry","inputs":[{"name":"_registry","type":"address","internalType":"address"}],"outputs":[],"stateMutability":"nonpayable"},{"type":"function","name":"unlockBrand","inputs":[{"name":"_brand","type":"string","internalType":"string"}],"outputs":[],"stateMutability":"nonpayable"},{"type":"function","name":"updateState","inputs":[{"name":"_brand","type":"string","internalType":"string"},{"name":"_state","type":"string","internalType":"string"}],"outputs":[],"stateMutability":"nonpayable"},{"type":"event","name":"ChangedRegistry","inputs":[{"name":"newRegistry","type":"address","indexed":false,"internalType":"address"}],"anonymous":false},{"type":"event","name":"ProfileCreated","inputs":[{"name":"_brand","type":"string","indexed":false,"internalType":"string"},{"name":"initiator","type":"address","indexed":false,"internalType":"address"}],"anonymous":false},{"type":"event","name":"UpdatedState","inputs":[{"name":"_brand","type":"string","indexed":false,"internalType":"string"},{"name":"state","type":"string","indexed":false,"internalType":"string"}],"anonymous":false},{"type":"error","name":"BrandNotFound","inputs":[{"name":"_brand","type":"string","internalType":"string"}]}],"bytecode":{"object":"0x60806040523461002f576100196100146100f4565b61018f565b610021610034565b6119c96101a882396119c990f35b61003a565b60405190565b5f80fd5b601f801991011690565b634e487b7160e01b5f52604160045260245ffd5b906100669061003e565b810190811060018060401b0382111761007e57604052565b610048565b9061009661008f610034565b928361005c565b565b5f80fd5b60018060a01b031690565b6100b09061009c565b90565b6100bc816100a7565b036100c357565b5f80fd5b905051906100d4826100b3565b565b906020828203126100ef576100ec915f016100c7565b90565b610098565b610112611b718038038061010781610083565b9283398101906100d6565b90565b5f1b90565b9061012b60018060a01b0391610115565b9181191691161790565b90565b61014c6101476101519261009c565b610135565b61009c565b90565b61015d90610138565b90565b61016990610154565b90565b90565b9061018461017f61018b92610160565b61016c565b825461011a565b9055565b6101a59061019e33600361016f565b600261016f565b56fe60806040526004361015610013575b610c9f565b61001d5f356100dc565b80630de98693146100d7578063652561b9146100d257806377cf32d1146100cd578063a28ba91b146100c8578063a91ee0dc146100c3578063ab50d39f146100be578063b3ec8cad146100b9578063c1add27f146100b4578063c69edbeb146100af578063e8c0485f146100aa578063f5169314146100a55763f7a6f97d0361000e57610c6c565b610c37565b610bbe565b6107e9565b61077e565b6106ec565b6106a0565b610596565b610522565b6104e8565b61044d565b610398565b60e01c90565b60405190565b5f80fd5b5f80fd5b5f80fd5b5f80fd5b5f80fd5b601f801991011690565b634e487b7160e01b5f52604160045260245ffd5b90610124906100fc565b810190811067ffffffffffffffff82111761013e57604052565b610106565b9061015661014f6100e2565b928361011a565b565b67ffffffffffffffff8111610176576101726020916100fc565b0190565b610106565b90825f939282370152565b9092919261019b61019682610158565b610143565b938185526020850190828401116101b7576101b59261017b565b565b6100f8565b9080601f830112156101da578160206101d793359101610186565b90565b6100f4565b9060208282031261020f575f82013567ffffffffffffffff811161020a5761020792016101bc565b90565b6100f0565b6100ec565b5190565b60209181520190565b90825f9392825e0152565b61024b6102546020936102599361024281610214565b93848093610218565b95869101610221565b6100fc565b0190565b90565b6102699061025d565b9052565b60018060a01b031690565b6102819061026d565b90565b61028d90610278565b9052565b151590565b61029f90610291565b9052565b61037d916101406102e96102c561016084015f8601518582035f87015261022c565b6102d760208601516020860190610260565b6040850151848203604086015261022c565b926102fc60608201516060850190610284565b61030e60808201516080850190610284565b61032060a082015160a0850190610284565b61033260c082015160c0850190610296565b61034460e082015160e0850190610284565b610358610100820151610100850190610284565b61036c610120820151610120850190610284565b01519061014081840391015261022c565b90565b6103959160208201915f8184039101526102a3565b90565b346103c8576103c46103b36103ae3660046101df565b610eac565b6103bb6100e2565b91829182610380565b0390f35b6100e8565b5f9103126103d757565b6100ec565b63ffffffff60e01b1690565b6103f1906103dc565b90565b61041d7f3562be9b4f58b9a64045dd7815f46de6d49408966aa8e6509057c40dbbdd24b46103e8565b90565b6104286103f4565b90565b610434906103dc565b9052565b919061044b905f6020850194019061042b565b565b3461047d5761045d3660046103cd565b610479610468610420565b6104706100e2565b91829182610438565b0390f35b6100e8565b1c90565b60018060a01b031690565b6104a19060086104a69302610482565b610486565b90565b906104b49154610491565b90565b6104c360025f906104a9565b90565b6104cf90610278565b9052565b91906104e6905f602085019401906104c6565b565b34610518576104f83660046103cd565b6105146105036104b7565b61050b6100e2565b918291826104d3565b0390f35b6100e8565b5f0190565b346105505761053a6105353660046101df565b610f9b565b6105426100e2565b8061054c8161051d565b0390f35b6100e8565b61055e81610278565b0361056557565b5f80fd5b9050359061057682610555565b565b906020828203126105915761058e915f01610569565b90565b6100ec565b346105c4576105ae6105a9366004610578565b61115f565b6105b66100e2565b806105c08161051d565b0390f35b6100e8565b916101208383031261069b575f83013567ffffffffffffffff811161069657826105f49185016101bc565b92602081013567ffffffffffffffff811161069157836106159183016101bc565b926106238160408401610569565b926106318260608501610569565b9261063f8360808301610569565b9261064d8160a08401610569565b9261065b8260c08501610569565b926106698360e08301610569565b9261010082013567ffffffffffffffff811161068c5761068992016101bc565b90565b6100f0565b6100f0565b6100f0565b6100ec565b346106d8576106c26106b33660046105c9565b97969096959195949294611769565b6106ca6100e2565b806106d48161051d565b0390f35b6100e8565b6106e960015f906104a9565b90565b3461071c576106fc3660046103cd565b6107186107076106dd565b61070f6100e2565b918291826104d3565b0390f35b6100e8565b919091604081840312610779575f81013567ffffffffffffffff8111610774578361074d9183016101bc565b92602082013567ffffffffffffffff811161076f5761076c92016101bc565b90565b6100f0565b6100f0565b6100ec565b346107ad57610797610791366004610721565b906117a7565b61079f6100e2565b806107a98161051d565b0390f35b6100e8565b6107db7fa28ba91b8cfa9f8510b13ef5f834c41cc8d8ee6a589db40a1d2bef4b77c3cbdb6103e8565b90565b6107e66107b2565b90565b34610819576107f93660046103cd565b6108156108046107de565b61080c6100e2565b91829182610438565b0390f35b6100e8565b905090565b61084861083f9260209261083681610214565b9485809361081e565b93849101610221565b0190565b90565b61085b6108609161025d565b61084c565b9052565b61087461087b9160209493610823565b809261084f565b0190565b61089361088a6100e2565b92839283610864565b03902090565b6108a29161087f565b90565b634e487b7160e01b5f52602260045260245ffd5b90600160028304921680156108d9575b60208310146108d457565b6108a5565b91607f16916108c9565b5f5260205f2090565b905f92918054906109066108ff836108b9565b8094610218565b916001811690815f1461095d5750600114610921575b505050565b61092e91929394506108e3565b915f925b81841061094557505001905f808061091c565b60018160209295939554848601520191019290610932565b92949550505060ff19168252151560200201905f808061091c565b90610982916108ec565b90565b906109a561099e926109956100e2565b93848092610978565b038361011a565b565b5f1c90565b90565b6109bb6109c0916109a7565b6109ac565b90565b6109cd90546109af565b90565b6109dc6109e1916109a7565b610486565b90565b6109ee90546109d0565b90565b60a01c90565b60ff1690565b610a09610a0e916109f1565b6109f7565b90565b610a1b90546109fd565b90565b610a29906004610899565b610a345f8201610985565b91610a41600183016109c3565b91610a4e60028201610985565b91610a5b600383016109e4565b91610a68600482016109e4565b91610a75600583016109e4565b91610a8260058201610a11565b91610a8f600683016109e4565b91610a9c600782016109e4565b91610ab56009610aae600885016109e4565b9301610985565b90565b60209181520190565b610ae0610ae9602093610aee93610ad781610214565b93848093610ab8565b95869101610221565b6100fc565b0190565b610afb9061025d565b9052565b610b0890610291565b9052565b98969492919099979593996101608a018a81035f8c0152610b2c91610ac1565b9060208a01610b3a91610af2565b88810360408a0152610b4b91610ac1565b9760608801610b59916104c6565b60808701610b66916104c6565b60a08601610b73916104c6565b60c08501610b8091610aff565b60e08401610b8d916104c6565b6101008301610b9b916104c6565b6101208201610ba9916104c6565b808203906101400152610bbb91610ac1565b90565b34610bfb57610bf7610bd9610bd43660046101df565b610a1e565b97610bee9b999b9791979692969593956100e2565b9b8c9b8c610b0c565b0390f35b6100e8565b610c297ff7a6f97dda7056f191d596ea2c7d838ca65c12a6c06d0c0410acc273c21dd2c36103e8565b90565b610c34610c00565b90565b34610c6757610c473660046103cd565b610c63610c52610c2c565b610c5a6100e2565b91829182610438565b0390f35b6100e8565b34610c9a57610c84610c7f3660046101df565b61181f565b610c8c6100e2565b80610c968161051d565b0390f35b6100e8565b5f80fd5b610cae610160610143565b90565b606090565b5f90565b5f90565b5f90565b610cca610ca3565b906020808080808080808080808c610ce0610cb1565b815201610ceb610cb6565b815201610cf6610cb1565b815201610d01610cba565b815201610d0c610cba565b815201610d17610cba565b815201610d22610cbe565b815201610d2d610cba565b815201610d38610cba565b815201610d43610cba565b815201610d4e610cb1565b81525050565b610d5c610cc2565b90565b52565b90610d6c9061025d565b9052565b90610d7a90610278565b9052565b90610d8890610291565b9052565b90610e9e610e946009610d9d610ca3565b94610db4610dac5f8301610985565b5f8801610d5f565b610dcc610dc3600183016109c3565b60208801610d62565b610de4610ddb60028301610985565b60408801610d5f565b610dfc610df3600383016109e4565b60608801610d70565b610e14610e0b600483016109e4565b60808801610d70565b610e2c610e23600583016109e4565b60a08801610d70565b610e44610e3b60058301610a11565b60c08801610d7e565b610e5c610e53600683016109e4565b60e08801610d70565b610e75610e6b600783016109e4565b6101008801610d70565b610e8e610e84600883016109e4565b6101208801610d70565b01610985565b6101408401610d5f565b565b610ea990610d8c565b90565b610ec3610ec891610ebb610d54565b506004610899565b610ea0565b90565b5f7f70726f66696c653a20556e617574686f72697a65640000000000000000000000910152565b610eff6015602092610ab8565b610f0881610ecb565b0190565b610f219060208101905f818303910152610ef2565b90565b15610f2b57565b610f336100e2565b62461bcd60e51b815280610f4960048201610f0c565b0390fd5b60a01b90565b90610f6260ff60a01b91610f4d565b9181191691161790565b610f7590610291565b90565b90565b90610f90610f8b610f9792610f6c565b610f78565b8254610f53565b9055565b610fd890610fc3610fbe610faf60026109e4565b33610fb86107b2565b916118ff565b610f24565b6005610fd26001926004610899565b01610f7b565b565b5f7f50726f66696c653a206e6f74206f776e65720000000000000000000000000000910152565b61100e6012602092610ab8565b61101781610fda565b0190565b6110309060208101905f818303910152611001565b90565b1561103a57565b6110426100e2565b62461bcd60e51b8152806110586004820161101b565b0390fd5b61108a906110853361107f61107961107460036109e4565b610278565b91610278565b14611033565b611112565b565b90565b6110a361109e6110a89261026d565b61108c565b61026d565b90565b6110b49061108f565b90565b6110c0906110ab565b90565b5f1b90565b906110d960018060a01b03916110c3565b9181191691161790565b6110ec906110ab565b90565b90565b9061110761110261110e926110e3565b6110ef565b82546110c8565b9055565b61112461111e826110b7565b5f6110f2565b61115a7f4f6537fa52739b7c9ef41f390e437aedcfc0002e9a8c219fb048f518987006bf916111516100e2565b918291826104d3565b0390a1565b6111689061105c565b565b60018060a01b031690565b611181611186916109a7565b61116a565b90565b6111939054611175565b90565b61119f9061108f565b90565b6111ab90611196565b90565b5f7f50726f66696c653a206e6f7420617574686f72697a6564000000000000000000910152565b6111e26017602092610ab8565b6111eb816111ae565b0190565b6112049060208101905f8183039101526111d5565b90565b1561120e57565b6112166100e2565b62461bcd60e51b81528061122c600482016111ef565b0390fd5b9061126d98979695949392916112683361126261125c6112576112525f611189565b6111a2565b610278565b91610278565b14611207565b61165a565b565b61127a610160610143565b90565b5190565b601f602091010490565b1b90565b919060086112aa9102916112a45f198461128b565b9261128b565b9181191691161790565b6112c86112c36112cd9261025d565b61108c565b61025d565b90565b90565b91906112e96112e46112f1936112b4565b6112d0565b90835461128f565b9055565b5f90565b61130b916113056112f5565b916112d3565b565b5b818110611319575050565b806113265f6001936112f9565b0161130e565b9190601f811161133c575b505050565b61134861136d936108e3565b90602061135484611281565b83019310611375575b61136690611281565b019061130d565b5f8080611337565b91506113668192905061135d565b90611393905f1990600802610482565b191690565b816113a291611383565b906002021790565b906113b481610214565b9067ffffffffffffffff8211611474576113d8826113d285546108b9565b8561132c565b602090601f831160011461140c579180916113fb935f92611400575b5050611398565b90555b565b90915001515f806113f4565b601f1983169161141b856108e3565b925f5b81811061145c57509160029391856001969410611442575b505050020190556113fe565b611452910151601f841690611383565b90555f8080611436565b9193602060018192878701518155019501920161141e565b610106565b90611483916113aa565b565b61148f905161025d565b90565b9061149e5f19916110c3565b9181191691161790565b906114bd6114b86114c4926112b4565b6112d0565b8254611492565b9055565b6114d29051610278565b90565b6114de90611196565b90565b90565b906114f96114f4611500926114d5565b6114e1565b82546110c8565b9055565b61150e9051610291565b90565b906116206101406009611626946115355f820161152f5f880161127d565b90611479565b61154e6001820161154860208801611485565b906114a8565b611567600282016115616040880161127d565b90611479565b6115806003820161157a606088016114c8565b906114e4565b61159960048201611593608088016114c8565b906114e4565b6115b2600582016115ac60a088016114c8565b906114e4565b6115cb600582016115c560c08801611504565b90610f7b565b6115e4600682016115de60e088016114c8565b906114e4565b6115fe600782016115f861010088016114c8565b906114e4565b6116186008820161161261012088016114c8565b906114e4565b01920161127d565b90611479565b565b9061163291611511565b565b929160206116506116589360408701908782035f890152610ac1565b9401906104c6565b565b979491909592969388974297929091925f949596979861167861126f565b9a5f8c019061168691610d5f565b60208b019061169491610d62565b60408a01906116a291610d5f565b60608901906116b091610d70565b60808801906116be91610d70565b60a08701906116cc91610d70565b60c08601906116da91610d7e565b60e08501906116e891610d70565b6101008401906116f791610d70565b61012083019061170691610d70565b61014082019061171591610d5f565b60048261172191610899565b9061172b91611628565b33907f48cd04660754343a75aabc83899998826b6c3fc1c623d3cfb42bcd3e465cfa3c916117576100e2565b9182916117649183611634565b0390a1565b9061177a9897969594939291611230565b565b90916117966117a49360408401908482035f860152610ac1565b916020818403910152610ac1565b90565b6117cb6117c66117b760026109e4565b336117c06103f4565b916118ff565b610f24565b6117e38260026117dd60048590610899565b01611479565b907fa6ac83ad2e0eb531c5e5f893b6687001c465612f725d23e2387beb91904cd0609161181a6118116100e2565b9283928361177c565b0390a1565b61185b9061184761184261183360026109e4565b3361183c610c00565b916118ff565b610f24565b60056118555f926004610899565b01610f7b565b565b5f90565b61186a9061108f565b90565b61187690611861565b90565b61188290611196565b90565b60e01b90565b61189481610291565b0361189b57565b5f80fd5b905051906118ac8261188b565b565b906020828203126118c7576118c4915f0161189f565b90565b6100ec565b9160206118ed9294936118e660408201965f8301906104c6565b019061042b565b565b6118f76100e2565b3d5f823e3d90fd5b9161191d6119186020939461191261185d565b5061186d565b611879565b61193f63bed98a0d94929461194a6119336100e2565b96879586948594611885565b8452600484016118cc565b03915afa90811561198e575f91611960575b5090565b611981915060203d8111611987575b611979818361011a565b8101906118ae565b5f61195c565b503d61196f565b6118ef56fea2646970667358221220bda7c28637007a621f4335bbbf85c85655721c07d39ef0a32acccf4904a49c8e64736f6c634300081c0033","linkReferences":{}},"methodIdentifiers":{"LOCKBRAND()":"c69edbeb","UNLOCKBRAND()":"f5169314","UPDATESTATE()":"652561b9","create(string,string,address,address,address,address,address,address,string)":"ab50d39f","getProfile(string)":"0de98693","globalPermissionManager()":"77cf32d1","lockBrand(string)":"a28ba91b","permissionManagerImplementation()":"b3ec8cad","profile(string)":"e8c0485f","setRegistry(address)":"a91ee0dc","unlockBrand(string)":"f7a6f97d","updateState(string,string)":"c1add27f"},"id":90}